:1020000000800020B9610000A3610000A36100000E
:1020100000000000000000000000000000000000C0
:10202000000000000000000000000000A3610000AC
:102030000000000000000000A36100000D6200002D
:10204000A3610000A3610000A3610000593C0000EF
:10205000415F0000A3610000A3610000A5610000D2
:10206000A361000095440000A3610000A36100008B
:1020700081300000A3610000A5440000A3610000BE
:10208000A3610000A3610000B12C0000A361000067
:1020900000000000A3610000A3610000A361000034
:1020A000A3610000A3610000A3610000A361000020
:1020B0000000000010B5064C2378002B07D1054B1B
:1020C000002B02D0044800E000BF0123237010BDA4
:1020D00060010020000000000CD6000008B5084B8D
:1020E000002B03D00748084900E000BF07480368F9
:1020F000002B03D0064B002B00D0984708BDC046EC
:10210000000000000CD600006401002058010020EF
:1021100000000000014B03607047C04670CA000019
:1021200070470000014B03607047C04670CA000052
:1021300010B5034B041C036004F008F9201C10BD0B
:1021400070CA000010B5034B041C036004F0FEF8D5
:10215000201C10BD70CA000008B504F065F8084BDB
:102160001A68811A1A1C96235B00994205D9054BFF
:102170001978002901D101211970106008BDC046ED
:10218000140200202402002008B504F04DF80A4B88
:102190001968421A191C96235B009A4209D9074B09
:1021A0001A78022A01D1002202E0002A01D102227B
:1021B0001A70086008BDC0469C010020240200205F
:1021C000F0B5274B87B01E685F680D1C301C391CAA
:1021D000141C04F089FB00900191301C391C04F0A0
:1021E00007FC02900391281C08F0B6FA061C201C7C
:1021F0000F1C08F0B1FA009A019B04900591301C65
:10220000391C07F0BBFC029A039B041C0D1C0498AC
:10221000059907F0B3FC021C0B1C201C291C07F0BD
:102220003DFF08F065FA0F4B391C1880029A039B9A
:10223000301C07F0A3FC009A019B041C0D1C0498A1
:10224000059907F09BFC021C0B1C201C291C06F0A6
:102250000FFD08F04DFA044B188007B0F0BDC046E2
:1022600000020020FC01002080010020F0B5284B76
:1022700087B01E685F68051C391C301C141C04F0F4
:1022800033FB00900191301C391C04F0B1FB02902B
:102290000391281C08F060FA071C201C0E1C08F093
:1022A0005BFA009A019B04900591381C311C07F0E1
:1022B00065FC029A039B041C0D1C0498059907F009
:1022C0005DFC021C0B1C201C291C06F0D1FC08F034
:1022D0000FFA104B188080231B06F118381C029A45
:1022E000039B07F04BFC009A019B041C0D1C0498F7
:1022F000059907F043FC021C0B1C201C291C06F04E
:10230000B7FC08F0F5F9044B188007B0F0BDC046E3
:10231000900100207C01002080010020F7B50F1CF7
:102320003E680EC878684E4350433618B86852432A
:10233000584349435B4336188818C01808F00CFA14
:1023400004F00AFC0D1C0ECF524349435B43041CAE
:102350008818C01808F000FA04F0FEFB0090019104
:10236000301C08F0F9F9009A019B061C0F1C201C78
:10237000291C07F003FC021C0B1C301C391C06F046
:1023800093FF04F08DFB03B0F0BD00001FB50023E8
:10239000012201A9019303930292FFF7BFFF024BB1
:1023A0001860596005B000BD000200201FB5012370
:1023B000019301A9002302930393FFF7AFFF024BA0
:1023C0001860596005B000BD9001002008B51020CC
:1023D000022104F019F900221020064903F02EFD15
:1023E0001120022104F010F911200349002203F00A
:1023F00025FD08BD892100005921000008B50820ED
:10240000012104F001F90D20012104F0FDF808BDBF
:1024100008B50D20012104F051F908BD08B50D20C3
:10242000002104F04BF908BD08B50820012104F093
:1024300045F908BD08B50820002104F03FF908BDA2
:1024400010B5064CE121201C490202F011F9201CB4
:1024500002F010F90028FAD010BDC046E0070020B5
:1024600008B5024801F0BEFE08BDC046A00100202C
:10247000F8B50024124F251C261CFFF7F1FF114B65
:10248000013F06215A5EBFB2B61808215A5EAD1848
:102490000A229B5EE418002FEFD1301C084906F099
:1024A0009BF8094B06491880281C06F095F8074B45
:1024B00003491880201C06F08FF8054B1880F8BDE2
:1024C00088130000A00100207C010020FC010020F6
:1024D0008001002000000000F0B58F488DB0002181
:1024E00001F068FE8D4C8E49201C03F0D3F8FFF7F5
:1024F000BFFF09A88B4903F08DFD8B4F06A8002272
:10250000B95E0A2203F0C4FD06A909A803F01CFE67
:10251000011C201C03F0B4F806A803F034FD09A840
:1025200003F031FD09A8814903F074FD804E0A22B1
:102530000023F15E06A803F0ABFD06A909A803F08D
:1025400003FE011C201C03F09BF806A803F01BFDF2
:1025500009A803F018FD09A8764903F05BFD764A47
:1025600006A80021515E0A2203F092FD06A909A8DF
:1025700003F0EAFD011C201C03F082F806A803F01A
:1025800002FD09A803F0FFFC00217B5E6A4903936A
:102590000022B35E03AD04930023CB5E281C059399
:1025A000FFF7F4FE281CFFF701FF09A8634903F0B9
:1025B00031FD634B18685968544B534A07F0DEFAF3
:1025C000534A544B06F070FE0B1C0221021C009172
:1025D00006A803F06FFD06A909A803F0B5FD011CCC
:1025E000201C03F04DF806A803F0CDFC09A803F069
:1025F000CAFC09A8534903F00DFD534B18685968EC
:10260000424B414A07F0BAFA414A424B06F04CFEAF
:102610000B1C0221021C009106A803F04BFD06A929
:1026200009A803F091FD011C201C03F029F806A85D
:1026300003F0A9FC09A803F0A6FC039A0423E95EB1
:1026400010B20823EA5EFFF7BBFD3B4B0021785E2A
:102650000022B15E00229A5E0390AA606960FFF7D3
:1026600005FE09A8394903F0D5FC0022B95E06A889
:102670000A2203F00DFD06A909A803F065FD011C5F
:10268000201C02F0FDFF06A803F07DFC09A803F062
:102690007AFC09A82E4903F0BDFC0A220023F15E52
:1026A00006A803F0F5FC06A909A803F04DFD011CDE
:1026B000201C02F0E5FF06A803F065FC09A803F062
:1026C00062FC09A8234903F0A5FC1B4A06A80021C7
:1026D000515E0A2203F0DCFC06A909A803F034FDD0
:1026E000011C201C02F0CCFF06A803F04CFC09A83A
:1026F00003F049FC0848032101F05CFD164B002261
:102700001A700DB0F0BDC0460000000000806640A9
:10271000182D4454FB210940A0010020E0070020AF
:10272000BBCA0000CBCA00007C010020D3CA000055
:10273000FC010020DBCA000080010020E3CA000089
:1027400000020020EFCA000090010020FBCA000038
:1027500003CB00000BCB000024020020C046C04683
:10276000F0B53C4E87B0041C311C684603F052FCA7
:10277000311C201C03F04EFC374F381C01F052FB7B
:10278000364D2870381C01F043FB354B1870381C4F
:1027900001F034FB334B2A781870314F092A03D8E3
:1027A0006846314903F063FC694603A803F055FC11
:1027B000297803A803F0E9FC2C4903F0D3FC011CA1
:1027C000201C03F0AAFC03A803F0DDFB6846311CC3
:1027D00003F04DFC3B78092B03D86846224903F0EF
:1027E00046FC694603A803F038FC397803A803F0D7
:1027F000CCFC1E4903F0B6FC011C201C03F08DFC30
:1028000003A803F0C0FB6846311C03F030FC154BF5
:102810001B78092B03D86846134903F028FC694646
:1028200003A803F01AFC0F4B03A8197803F0ADFCC2
:10283000011C201C03F071FC03A803F0A4FB311C55
:10284000684603F014FC684603F09DFB201C07B0AB
:10285000F0BDC0461DD10000FE0100200600002092
:10286000C80100208201002015CB000017CB00001A
:102870007FB51148002101F0A9FD104903A803F01C
:10288000C9FB6846FFF76CFF694603A803F05CFCD0
:10289000011C0B4802F0F4FE684603F074FB03A829
:1028A00003F071FBFFF7B4FD064B04211A690A43DC
:1028B0001A6130BF07B000BDA001002019CB000095
:1028C000E007002000ED00E0F0B53B4D87B0041CB0
:1028D000291C684603F09EFB291C201C03F09AFB70
:1028E000364E301C01F0BCFA354F3870301C01F008
:1028F000ADFA344B1870301C01F09EFA324B314E59
:102900001870092803D86846304903F0B0FB6946BF
:1029100003A803F0A2FB2C4B03A8197803F035FCA5
:102920002B4903F01FFC011C201C03F0F6FB03A83D
:1029300003F029FB6846291C03F099FB3378092B27
:1029400003D86846214903F092FB694603A803F0C7
:1029500084FB317803A803F018FC1D4903F002FC46
:10296000011C201C03F0D9FB03A803F00CFB6846F4
:10297000291C03F07CFB3B78092B03D868461349DC
:1029800003F075FB694603A803F067FB397803A8D9
:1029900003F0FBFB011C201C03F0BFFB03A803F0AA
:1029A000F2FA291C684603F062FB684603F0EBFA72
:1029B000201C07B0F0BDC0461DD10000FE01002064
:1029C00007000020050000200400002015CB0000B7
:1029D0003ACB000030B58BB0041C01A8FFF774FFA0
:1029E00001A904A803F039FB0D4904A803F0BAFBC0
:1029F000051C07A8FFF7B4FE07A9281C03F0A4FBD9
:102A0000011C201C03F029FB07A803F0BCFA04A852
:102A100003F0B9FA01A803F0B6FA201C0BB030BDE0
:102A20005ED4000010B5144C86B0201C002101F0CB
:102A300051FA0022201C131C102101F055F9062226
:102A40001123201C0D2101F09BF90C4903A803F070
:102A5000E1FA6846FFF7BEFF694603A803F074FB7E
:102A6000011C074802F00CFE684603F08CFA03A82C
:102A700003F089FA06B010BDFE0100203CCB000037
:102A8000E007002038B5051C0024AC420CD2FFF74B
:102A9000BFFC642003F0CEFB0134FFF7BFFC6420D1
:102AA00003F0C8FBE4B2F0E72C1C092CECD8C820DA
:102AB000013403F0BFFBE4B2F7E7000010B50B4CA4
:102AC0001821201C01F094FC002802D10120FFF7FE
:102AD000D9FF201C032101F06DFB201C072101F010
:102AE00075FC0349034802F0D5FD10BDA00100208C
:102AF00049CB0000E007002008B5FFF77FFCFFF797
:102B000065FCFFF79DFCFFF7D9FFFFF78BFFFFF791
:102B100085FCFFF78FFC024B01221A7008BDC046EE
:102B20002402002037B581020A4805F055FD0A4C01
:102B3000451E208A228B0021009580B292B20B1C88
:102B400003F016FAADB280B220822583E37BDB0965
:102B5000FCD137BD006CDC02002C00421D4A1E4B2C
:102B600070B51A801D4B5B78DB09FBD11C4C02222F
:102B7000238893432380E27B194BD209FBD11A8827
:102B800092B21A80E27B164BD209FBD11A8820211F
:102B90000A431A80E27B124BD209FBD11988E0224A
:102BA000D2000A431A80E67B0D4DF609FBD1FFF7F0
:102BB000B9FF6E736B7B102213436B738022094B3A
:102BC000D2021A602B88022213432B80E37BDB099D
:102BD000FCD170BD1B400000020C0040000C004006
:102BE000002C004200E100E0044B02211A888A43D5
:102BF0001A80DA7BD209FCD17047C046002C004213
:102C00007FB5134903A803F005FA6846FFF7A8FD4E
:102C1000694603A803F098FA011C0E4802F030FD43
:102C2000684603F0B0F903A803F0ADF9FFF7FCFB29
:102C30000520FFF793FF084B1B78022B02D1FFF70B
:102C40000FFCF8E7FFF7D0FFFFF7F4FB07B000BD7C
:102C500099CB0000E00700202402002010B5114CA1
:102C60002378022B01D1FFF7CBFF2378012B01D171
:102C7000FFF732FC2378032B03D10B4B1878FFF7B7
:102C800001FF9620400003F0D5FAFFF7F1FDFFF7B2
:102C9000C5FB9620400003F0CDFA0448072101F05F
:102CA00095FB10BD240200207E010020A001002021
:102CB00010B5094C2378002B02D0FFF7B5FB01E0DB
:102CC000FFF7B8FB2378012253402370034B1021F8
:102CD0009A7B0A439A7310BD98010020002C004291
:102CE000F8B51E4800F06EFF1D4E1E49301C03F063
:102CF00091F91D4D1D4C291C221C301C07F0BCFDF8
:102D00001B4800F0A5FF1B4E0F21301C01F06CF991
:102D1000221C301C184907F0AFFD184E184F311C0B
:102D2000381C03F077F9291C221C381C07F0A4FD7D
:102D3000144F311C381C03F06DF9291C221C381C5F
:102D400007F09AFD104F311C381C03F063F9381C52
:102D5000291C221C07F090FDF8BDC046CC010020C4
:102D6000F0010020ABCB0000875F000000000020D6
:102D7000FE010020A0010020252100001DD100003F
:102D8000080200201802002084010020F8B5051C6C
:102D90000F1C161C0024B44208D02B68395D1B6838
:102DA000281C9847002801D00134F4E7201CF8BD06
:102DB000704708B5183002F0E5FC08BD08B51830BA
:102DC00002F0F4FC08BD38B5837D0D1C002B06D045
:102DD000041CC434201C02F0FFFC002801D0002099
:102DE00004E0201C291C02F0B4FC012038BD08B509
:102DF000183002F0E4FC08BDF7B50193FA239B00FC
:102E000083600B4B00250833041C456003601830B9
:102E10000F1C161C02F090FC201CC43002F08CFC2D
:102E2000019B27612675A575201C6375FEBDC046F4
:102E300018CC000070B50D49041C006902F008FFB1
:102E4000206902F09DFD1826207D331C4343084D68
:102E50000821EB18595603F079FC607D08214643A0
:102E6000AD19695603F072FC70BDC046A086010022
:102E700090CC0000F7B5041C00200E1C151C01931B
:102E8000824231D0271C1837381C02F074FC2069AC
:102E9000311C012202F0B0FD002823D0206902F08D
:102EA0001AFE011C381C02F054FC01262069AE42B7
:102EB0000ED002F081FD0221206902F087FD206919
:102EC00002F009FE011C381C02F043FC0136EDE75C
:102ED00002F06AFD019B002B05D02069032102F05E
:102EE00075FD00E0051CE8B2FEBD08B50123FFF743
:102EF000C1FF08BD10B5B8235B00C154041CC43029
:102F000002F039FC0123A37510BDF8B50022B823E7
:102F100082755B00041C0F1CC15C006902F06CFD33
:102F2000002805D12069032102F050FD02251DE093
:102F3000261CC436301C02F039FC00280FD0301C8F
:102F4000256902F01FFCC1B2281C02F084FD002894
:102F5000EED12069032102F039FD032506E0051CAE
:102F6000002F03D02069032102F030FD281CF8BD9A
:102F700008B50121FFF7C9FF08BD38B5041C006979
:102F800002F087FD002879D0206902F090FD00282A
:102F90000ED1206902F095FD00281FD0206902F0B3
:102FA0008BFD00281AD0206902F090FD002815D171
:102FB000206902F001FD2069032102F007FD231CB6
:102FC000FC33DD6F002D04D02368201C9B689847DC
:102FD000A847201C183002F0CEFB4FE0206902F019
:102FE00070FD031C2069002B16D002F0E5FC20695F
:102FF000032102F0EBFC206902F068FD00283DD0BF
:10300000201CC43002F0B7FB0123A375FC34A36F6E
:10301000002B33D0984731E002F044FD00282DD03A
:10302000206902F053FD251C00280FD0C435281C50
:1030300002F0BCFBFF21002803D0281C02F0A2FBF9
:10304000C1B2206902F018FDA07517E01835281CE0
:1030500002F0C2FB031C2069002B02D002F0A4FC8A
:1030600008E002F038FD011C281C02F072FB206908
:1030700002F0A2FC2069032102F0A8FC38BD000088
:1030800008B50248FFF779FF08BDC04628020020B6
:1030900008B50348034914221523FFF7ADFE08BD08
:1030A00028020020C8070020437A002B04D1837235
:1030B000C372C36001234372704730B585B0041CEE
:1030C00002AD00680291039202F036FC6B79E1795F
:1030D000227A00932068002302F096FD2979206867
:1030E000029A02F0F9FB206802F01CFC05B030BD2A
:1030F00070B5041C1826FFF7D7FF2079331C434313
:103100000D4D0821EB18595603F020FBA079331C14
:1031100043430821EB18595603F018FB6079082146
:103120004643AD19695603F011FB044B201C06CB36
:10313000FFF7C3FF70BDC04690CC0000A403002081
:1031400007B5837A00910192002B0DD09A0706D51E
:10315000EFF310835A425341C37272B604E0DA07A8
:1031600002D58289034B9A600099019AFFF7A5FF67
:1031700007BDC04600180040837A002B0BD09A0789
:1031800004D5C37A002B06D062B604E0DA0702D574
:103190008289014BDA6070470018004008B500686A
:1031A00002F0D3FB08BD0000094B0A4A0A491A6025
:1031B00000225A711A71094B1960162119711821D0
:1031C00099711721597101215A72D9711A72704778
:1031D000A403002000093D00D8070020AC03002014
:1031E00008B5011C0148FFF7D9FF08BDAC0300205A
:1031F00008B50248FF21FFF7D1FF08BDAC0300204E
:1032000008B50121007903F059FA054B1A78002A14
:1032100004D0002203481A70FFF7AEFF08BDC04675
:10322000C4030020AC03002010B5084B041C1A781E
:10323000002A06D101221A70054B064806CBFFF77B
:103240007FFF2079002103F039FA10BDC40300206C
:10325000BC030020AC03002010B58379041C002BB4
:103260000DD023895A1C2281054A934202D8FFF7C8
:10327000BFFFF6E7201CFFF7C3FF0023A37110BDBB
:103280000102000038B50C1C02F0CEFF051CFFF750
:10329000AFFFFF2808D002F0C7FFABB280B2C01A60
:1032A000A042F4DB002000E0012038BDF8B5041C8A
:1032B0000E1C171CFFF7D0FF201CFFF7B5FF96214F
:1032C0004900201CFFF7DEFF40203043FFF788FF56
:1032D0001825381CE840C0B2083DFFF781FF2B1CC1
:1032E0000833F6D19520002E03D08720082E00D079
:1032F000FF20FFF775FF0025FFF77AFF43B2E0726A
:10330000002B04DAFF2D02D00135EDB2F4E7F8BD51
:1033100038B5041C02F088FF051CFFF769FFE07256
:10332000FF280AD102F080FFABB280B2C01A962308
:103330005B009842F1DD0F2302E0FE2806D00D234A
:10334000201C6371FFF75CFF002000E0012038BD06
:10335000F8B5041C0F1C151C1E1E45D09A1880239E
:103360009B009A4242DC8379002B05D0026891428F
:1033700002D10389AB4216D9237B2760032B00D0EF
:103380007F023A1C201C1121FFF790FF071E02D07C
:10339000032363712AE0201CFFF7BAFF002825D021
:1033A00001232781A3712389AB4205D2FFF720FFB8
:1033B000238901332381F6E7069D069AAB1A9BB257
:1033C000B34204D2FFF714FF28700135F5E72389D3
:1033D000A27AF3189BB22381002A02D0064A9342B4
:1033E00002D9201CFFF738FF012003E0201CFFF763
:1033F00007FF0020F8BDC046FF01000007B580238D
:1034000000929B000022FFF7A3FF0EBD70B5051CC4
:10341000081C161CFFF7E4FE0024305DFFF7E0FEF9
:10342000013480239B009C42F7D1FF20FFF7D8FE98
:10343000FF20FFF7D5FEFFF7DBFE1F23E8720340F6
:103440000120052B05D01123281C6B71FFF7D8FE36
:10345000002070BD70B50B1C041C161C002901D186
:10346000122328E0027B032A00D04B02201C1821E3
:103470001A1CFFF71BFF051E01D004231BE0201CB4
:10348000FE21321CFFF7C2FF002815D09621201C18
:103490008900FFF7F7FE002801D115230BE0201C5F
:1034A0000D212A1CFFF702FF002803D1FFF7A0FE21
:1034B000002806D014236371201CFFF7A1FE002012
:1034C00003E0201CFFF79CFE012070BD034B044A63
:1034D0001A6000225A711A717047C046BC0300205E
:1034E00000093D00021C10B50C32041C0121406A89
:1034F00000F0B2FA00280AD0236A0120002B06D17E
:10350000E368227A236280235B421343237210BD57
:1035100010B5041C406900F007FA002803D0207E93
:10352000014B4001C01810BDD4030020F0B5437A10
:1035300085B0041C0E1C0392002B01D13A4811E007
:10354000037AD807FAD5E26920690399131A9942D8
:1035500001D99BB2039303990291029B002B04D1E2
:10356000039988B200B205B0F0BD2369617ADF0526
:10357000FF0D5A0A606A022902D1416A51181BE004
:103580000579013D2A40D5B2002F0DD1002D0BD178
:10359000002B02D1226AE26006E0221CE1680C32B4
:1035A00000F0E6F90028C9D0636AE1681A7C0239A4
:1035B0005B699140C91849198022029D9200D31B72
:1035C0009D4200DD9DB2237A580601D4954218D160
:1035D000164B1B68994214D0154B3A1C186800967C
:1035E0002B1CFFF7B5FE0028A8D0761901E0DF1BE1
:1035F000F6192169029A4B19551BADB22361029548
:10360000ABE7081C002100F08FF9002896D0094B89
:10361000321CFF1879193B1C8B42E8D01878013313
:1036200010700132F8E7C046FFFF000008000020DC
:10363000D0030020D403002070B5041C407A0D1C78
:1036400000282AD0E269914201D9002025E0022811
:1036500021D0002D01D1E5601DE0626A2169137C53
:10366000681E09334A1ED840DA40031E934201D334
:10367000002902D1226AE26000E0831A1E1C002E9B
:1036800009D0221C606AE1680C3200F071F9013E39
:103690000028F4D101E02561012070BD38B5051C7A
:1036A000407A002833D02B7A7F2B2DD9281C01217A
:1036B000FFF72EFF041E2AD06B7A012B07D82B7F31
:1036C00003776B7F4377AB7F8377EB7FC3772B6A7F
:1036D0009AB21B0C23751B0A63750D4BA2761B68EF
:1036E000120AE276002B0BD0201C211C1830163158
:1036F0009847637E227E1B021343A3741B0AE37464
:103700002A7A7F2313402B7200F0E4F8FFE738BDDC
:10371000C8030020F0B5437A87B0041C0D1C039247
:10372000012B0DD1037A99070AD55A070CD5E16907
:1037300022698A4208D0201CFFF77EFF002803D1AF
:10374000012363600020AAE0039B01933BE0606AD1
:10375000730A0779F605013F1F40FFB2F60D002FEF
:1037600036D080229200921B019992B20B1C91429A
:1037700000D9131C9BB20293636AE1681A7C023978
:1037800091405A698B18029ADF1980239B009A4254
:103790003FD1444B1968B94202D1012252421A600A
:1037A000414B391C18682A1CFFF754FE0028C7D06B
:1037B00080229200AD180199029A8B1A21699BB25E
:1037C00001938B182361019A2669002ABFD149E031
:1037D000002EC6D1E168002903D1236A002B16D13F
:1037E0000FE005AA00F0C4F8002858D0626A059BD3
:1037F0000132D27F102A01D12C4A00E02C4A934298
:1038000005D3201CFFF76EFE0028AAD198E7E360DD
:10381000A7E7002E0FD12369E1698B420BD300F09B
:1038200059F800288CD01F4B01211F60214B1A78BA
:103830000A431A7006E0381C012100F075F80028D0
:1038400000D17DE71C4B2A1CF618029BF118331C93
:103850008B4204D01078013218700133F8E79E1BB8
:10386000AD19A8E7E169237A8E4201D9E66106E045
:10387000124A1268002A06D0039A002A03D0802236
:10388000524213432372237A190701D4039806E0A6
:10389000201CFFF703FF002800D151E7F6E707B02F
:1038A000F0BDC04608000020D0030020F8FF000053
:1038B000F8FFFF0FD4050020D4030020C803002028
:1038C00007B56B46D9710733191C0122FFF722FF98
:1038D0000EBD0000F8B50F4F01203B78002B18D02B
:1038E0000D4E0E4B0E4D196830682A1CFFF7B2FDC5
:1038F00000280ED00B4C2168002907D030682A1C04
:10390000FFF7A8FD002804D00023236000233B70AC
:103910000120F8BDD4050020D003002008000020BD
:10392000D4030020CC03002070B50D4D041C2B687F
:103930000E1C83420ED0FFF7CDFF002801D10020DE
:103940000DE0084B211C1868074AFFF757FD0028B7
:10395000F5D02C60054B01201A7816431E7070BDFF
:1039600008000020D0030020D4030020D40500204C
:10397000C36870B501330C1C151C994201D9002095
:1039800021E0461CF17FC269E309102900D1230A16
:1039900098180D4B1B68984207D1F27F0B4B102AE9
:1039A00009D1E4B264001B5B0BE00021FFF7BCFF10
:1039B0000028F2D1E3E77F221440A4001B591B0129
:1039C0001B092B60012070BD08000020D4030020DB
:1039D000F7B5051C0C1C0192012932D9C3680020DF
:1039E000013399422ED86F1CFA7FEE69CB09102A59
:1039F00000D10B0A9E19144B1B689E4208D1FA7F16
:103A0000124B102A0BD1E4B2019A64001A530BE056
:103A1000301C0021FFF788FF0028F0D112E07F2240
:103A20001440019AA4001A51094B01201A7802434C
:103A30001A702B7E834205D9AB68F618054B1E60C1
:103A400000E00020FEBDC04608000020D403002096
:103A5000D4050020CC030020F0B5156887B0061C03
:103A60000291171C002D03D000210135019106E0C1
:103A7000029B0568013B5A425341DBB20193F26855
:103A80000023013203922C1C00930099F2689142AA
:103A900021D2039B9C4201D90224251C301C211CED
:103AA00005AAFFF765FF002815D00599631C0029BA
:103AB00001D01D1C03E002995A1B8A4204D0009ACF
:103AC0001C1C01320092E0E7301C211C134AFFF756
:103AD0007FFF00280BD100201DE0631E301C191C45
:103AE000221C0093FFF774FF0028F4D0009CAC4226
:103AF000F3D83968002906D101993D60002909D021
:103B00000135356006E0301C2A1CFFF761FF0028F4
:103B1000F2D1E0E7012007B0F0BDC046FFFFFF0F84
:103B200013B502686B46D97107335468191C01221A
:103B3000A04716BD38B5041C006A0025A84202D172
:103B4000012363600AE0456092B2FFF7E3FD236A58
:103B50005B68002B02D001236360281C38BD006A1B
:103B600008B5002801D0FFF799FD08BD13B56C46D4
:103B70000734211C0122FFF7D9FC012801D120784C
:103B800000E0014800B216BDFFFF0000006A08B562
:103B9000002802D0FFF7EAFF01E00120404208BD03
:103BA00038B5051C006A00280AD0FFF7DFFF041CA7
:103BB000631C05D0286A01690139FFF73DFD201C0F
:103BC00038BD0000FA2292008260044A00230832C5
:103BD00043600260036203747047C04648CC000033
:103BE000036A002B01D0186901E0012040427047B0
:103BF000006A002800D0C0697047000038B5041C76
:103C0000006A00280BD0201CFFF7F2FF051C201CC7
:103C1000FFF7E6FF024B281A984200D9181C38BD5E
:103C2000FF7F0000084B02211961191C002230316E
:103C30000A7006495A719A719A721A73DA63996313
:103C400041331A707047C046D805002040CC0000B0
:103C5000002303707047000008B5044B1B68002B5D
:103C600000D09847024B01221A7208BD3C06002082
:103C7000001400400378002B0AD0064B081C196979
:103C80003F2210409143014319619A7AD209FCD135
:103C90007047C046001400400378002B0BD0064B41
:103CA0003F2211408A0118690449014011431961FA
:103CB0009A7AD209FCD17047001400403FF0FFFF10
:103CC0000378002B0BD0064B1F2211400A03186902
:103CD00004490140114319619A7AD209FCD1704715
:103CE00000140040FF0FFEFF70B5161C0278041C84
:103CF0000D1C002A0AD0191CFFF7BCFF201C311C28
:103D0000FFF7CAFF201C291CFFF7DAFF70BD000077
:103D10000378002B0BD0064B1F2211404A04186970
:103D200004490140114319619A7AD209FCD17047C4
:103D300000140040FFFFC1FF0378002B0BD0064B9F
:103D40000F2211408A051869044901401143196185
:103D50009A7AD209FCD1704700140040FFFF3FFC63
:103D60000378002B09D0054B8A0619698901890956
:103D7000114319619A7AD209FCD1704700140040AE
:103D800070B51D1C0378041C161C002B09D0FFF70E
:103D9000BFFF201C311CFFF7CFFF201C291CFFF7A1
:103DA000DFFF70BD0A4B0B4A9A605A7852B2002A64
:103DB000FBDB0949064A51605A7852B2002AFBDB04
:103DC0000649034A51805A78D209FCD17047C0464F
:103DD000000C004002040000020511000442000033
:103DE0000378002B05D0034B034A5A809A7AD209F4
:103DF000FCD17047001400400080FFFF08B5FFF7BA
:103E0000EFFF024B18693F23184008BD0014004023
:103E100008B5FFF7E5FF024B18690005800E08BDE5
:103E20000014004008B5FFF7DBFF024B1869C00320
:103E3000C00E08BD0014004008B5FFF7D1FF024BCB
:103E400018698002C00E08BD0014004008B5FFF7D5
:103E5000C7FF024B18698001000F08BD0014004025
:103E600008B5FFF7BDFF024B1869800E08BDC046BC
:103E700000140040044B02211A888A431A809A7A5F
:103E8000D209FCD17047C04600140040044B022107
:103E90001A880A431A809A7AD209FCD17047C04620
:103EA00000140040044B01211A880A431A809A7AB0
:103EB000D209FCD17047C04600140040044B0121D8
:103EC0001A888A431A809A7AD209FCD17047C04670
:103ED00000140040F7B52B4B0F1C9A6920210A43B0
:103EE0009A61294A294B0026051C9A82284CB74220
:103EF0000AD1284B1A7870231A4240D023881A0717
:103F00003DD5226901260192281CFFF74BFF281C92
:103F1000FFF7B0FF281CFFF7C5FF62881E4B134058
:103F200063801E4B2380A27A194BD209FBD11C4A15
:103F300008211160C021890050580002000A505029
:103F4000DA7901210A43DA711A7F07218A431A7745
:103F5000A37ADB09FCD1281CFFF798FF281CFFF788
:103F6000ADFF002F02D001232B70F7BD002EFAD039
:103F7000074B019A1A61A37ADB09FCD1F3E73E1CD7
:103F8000C2E7C04600040040CE0600000008004022
:103F90000014004038040040FFBFFFFF080A000083
:103FA00000E100E038B528220C1C051C081C00218B
:103FB00006F0DCFC201C08490B2206F0CAFD002399
:103FC000E372ED690122636200232561E2606261B0
:103FD000A361E361236238BD68CC000008B50368C3
:103FE000C9B21B68984708BD074B821C08330360A1
:103FF00001235B42C361D177C21CD377FF21021D2D
:10400000D177421DD377704770CC0000F7B5421DC1
:10401000019100921F23D356051C0727002401336A
:1040200003D11448FFF7BAF822E0009B1F2018566E
:104030000021012602F042FB019A311CEB1C1F20DB
:10404000B9401856114002F039FB009B1F2018564A
:10405000311C02F033FB2B1D1F2064001856E4B204
:1040600002F05CFB002800D03443013FDDD2201C6D
:10407000FEBDC046AC030020F0B51F23851CEB56E7
:1040800085B0041C0F1C161C013312D1431CD97FB0
:104090008069FEF72FFFA069391C03681B689847E9
:1040A000A069311C03681B689847A069FEF760FF90
:1040B00029E0421D01921F23D356013308D16A46DD
:1040C00000235373137311481149039AFFF738F80B
:1040D0001F202856002102F0F1FA7F213940201CD0
:1040E000FFF794FF311C201CFFF790FF1F2028567C
:1040F000012102F0E3FA019A1F23D356013302D1C2
:104100000248FFF739F805B0F0BDC046AC03002007
:1041100020A10700F7B51F23851CEB56041C0F1CBC
:10412000013317D1451CE97F8069FEF7E3FEA069E2
:10413000391C03681B689847A069FEF719FFE97FDF
:10414000A0690122FEF7D1FEA0690368DB689847E9
:10415000C4B228E0461D1F23F356013308D16A4636
:1041600000235371137111481149019AFEF7E8FFBA
:104170001F202856002102F0A1FA80213943201C7B
:10418000FFF744FF201C0021FFF740FF041C1F2005
:104190002856012102F092FA1F23F356013302D16F
:1041A0000248FEF7E9FF201CFEBDC046AC0300201C
:1041B00020A1070038B50D1C2321041CFFF7AAFF1E
:1041C0003023021C9A432D012A43D2B2201C232102
:1041D000FFF752FF38BD08B52321FFF79BFF80068C
:1041E000800F08BD73B51F23851CEB56041C0133DB
:1041F0003ED1451CE97F8069FEF77CFEA821A069BD
:10420000FFF7ECFEA069FEF7B3FE0622E97FA06986
:10421000FEF76BFEA0690368DB689847E080A06941
:104220000368DB6898470622A35E80B20002184349
:10423000E080A0690368DB6898472081A069036873
:10424000DB6898470822A35E80B2000218432081F1
:10425000A0690368DB6898476081A0690368DB6830
:1042600098470A22A35E80B20002184360814CE0A6
:10427000461D1F23F356013308D16A4600235371AC
:1042800013713A483A49019AFEF75AFF1F202856FF
:10429000002102F013FAE821201CFFF7B7FEFF21EE
:1042A000201CFFF7B3FEFF21E080201CFFF7AEFECD
:1042B0000622A35E00021843E080FF21201CFFF7C6
:1042C000A5FEFF212081201CFFF7A0FE0822A35E8F
:1042D000000218432081FF21201CFFF797FEFF21D9
:1042E0006081201CFFF792FE0A22A35E00021843A1
:1042F00060811F202856012102F0E0F91F23F356A8
:10430000013302D11948FEF737FF201CFFF763FF86
:10431000032807D0022807D0012808D0002808D099
:10432000012007E0134805E08020400102E0124828
:1043300000E0124804F040FC051C0623E05E04F097
:104340003BFC291C04F0E8F9E0600822A05E04F0C0
:1043500033FC291C04F0E0F920610A23E05E04F03C
:104360002BFC291C04F0D8F9606173BDAC0300205C
:1043700020A1070055050000FE1F0000FC3F0000C3
:1043800070B524260C1C051C321C081C002106F0EC
:10439000EDFAEB69281C63600123A360002323610D
:1043A0002660FFF71FFFE868074904F0DBFA606149
:1043B0002869054904F0D6FAA0616869024904F049
:1043C000D1FAE06170BDC0460AE81C4138B50D1C49
:1043D0002021041CFFF79EFE0F23021C1A402D0112
:1043E0002A43D2B2201C2021FFF746FE38BD000030
:1043F00038B5431C851C041CD9771F202856431C44
:1044000003D1A069FEF716FD1FE0012102F056F965
:104410001F202856012102F0F7F8631D1F201856AF
:10442000431C03D11A48FEF763FE0EE0012102F09F
:10443000EBF8E31C1F201856012102F0E5F8231DBC
:104440001F201856002102F0DFF8201C0F21FFF773
:1044500061FE0023332818D10722201C2021FFF7FA
:104460000BFE201C0721FFF7B1FF201C232188220F
:10447000FFF702FE201C22211022FFF7FDFD201C69
:104480001F218022FFF7F8FD0123181C38BDC0460C
:10449000AC03002008B5024801F048FC08BDC04646
:1044A0004006002008B5024801F040FC08BDC046A7
:1044B00004070020F7B5164F1649381C01F09CF987
:1044C0001549164801F098F91549164801F094F974
:1044D0001549164801F090F91549164801F08CF974
:1044E000154D03260124281C144901F085F9391CB7
:1044F0000096231C01940022114801F0F3FB009662
:10450000291C01941F221E230E4801F0EBFBF7BD6E
:10451000CC07002000080042000C0042D007002019
:1045200000100042D407002000140042C8070020F9
:1045300000180042D8070020DC070020001C0042C1
:1045400040060020040700203F20704713B5026892
:104550006B46D97107335468191C0122A04716BD58
:1045600008B50069022100F03BFC08BD08B50069F0
:10457000032100F04BFC08BD38B50D1C041C131CB6
:10458000006903212A1C00F03DFD002801D1012310
:10459000636038BD10B5054C23685A1C04D103680C
:1045A000DB6898472060031C181C10BD5C000020CD
:1045B000074A08B51368591C04D00121494211600B
:1045C000181C03E00069022100F00EFD08BDC04682
:1045D0005C00002008B503780349023303704222CF
:1045E000024800F0C5FD08BD18000020AB0C0020FB
:1045F00010B50178031C42780020A12908D1212A96
:104600002FD118481849072200F0B2FD012028E0F8
:10461000212926D1202A05D113490722114800F06B
:104620003BFC04E0222A10D19A780F4BDA710E4B32
:1046300096221968D200914210D1DC7901231C40E6
:104640000CD1FA2001F030F80AE0232A09D1DA78F7
:104650009B7812021A43054B1A6002E001F02AF817
:10466000002010BDAB0C00200C0000201400002026
:104670007047000010B501F0D7FDF423FF3300248C
:10468000984207D9044B0A20DC79631E9C41E4B2AE
:1046900001F0D0FD201C10BD0C000020064BFA21BB
:1046A00089009960054900220831196004495A605F
:1046B00019611A767047C046E0070020B0D00000AC
:1046C000AB0C002070B5C2B219495301CB189E68DB
:1046D000184DC0242E40A40526439E60164E80012E
:1046E00009683018083258605201505C0726B04300
:1046F0000126304350549E6935402C439C610F4C39
:104700005C61505C7024A0431024204350549C688A
:104710000B488A18204080246403204398609868DE
:104720004021800B8003986053790B43537170BD17
:10473000B40C0020FFFFFF8FCC0A002008090020E6
:10474000FF3F00F038B5041C08CC01211A78051C85
:104750000A431A708022201C0021520006F006F93C
:104760002B689A78D107FCD45C6238BD134BF0B546
:104770001B6899035A029B01C90ED20E5B0F1F29B9
:1047800000D105211F2A00D11D22072B00D10323B0
:1047900004688E01278D0A491F2539403143218540
:1047A00001682A400C8DAC4322430A850268190334
:1047B000108D044B03400B431385F0BD2460800033
:1047C0003FF8FFFFFF8FFFFFEFF31083036001232C
:1047D000436072B670470368002B02D162B6BFF324
:1047E0006F8F704737B50569041C6846002D12D1DC
:1047F000FFF7EAFF019B013B03D3621DD57FEDB2BA
:10480000F9E768460193FFF7E6FF0020854217D0DD
:10481000206AE36913E0FFF7D7FF019B0025013B06
:1048200004D3221C34321578EDB2F8E768460193C0
:10483000FFF7D1FF0020854202D0206BE36AC01A47
:104840003EBD0000436810B51A68037A01215B0180
:10485000D318FF339A7A0A439A72037A42685B014B
:10486000D318C2689C6891040B4A090922400A4384
:104870009A60037A42685B01D3189A684021920BD0
:1048800092039A6043681A68037A08335B01D3186D
:104890001A790A431A7110BDFF3F00F0F7B5056998
:1048A000041C0E1C171C6846002D1FD1FFF78CFF3F
:1048B000019B013B5A1C06D0621DD17F5A1E002964
:1048C0003AD0131CF6E768460193FFF784FF0025F2
:1048D000E369BD4235D0226A934232D25A1CE2616A
:1048E000A269D3181B7873550135F1E7FFF76CFF08
:1048F000019B013B5A1C08D0221C343215785A1EE9
:10490000EDB2002D18D0131CF4E768460193FFF7B1
:1049100062FF0025E36ABD4226D0226B934241D359
:1049200022E0621D0021D17730321678581E8E4267
:1049300014D1031C5A1CF4D168460193FFF74BFFB6
:1049400038E0226A934235D10023E36101232361D9
:104950006846FFF739FF019B013BEBE71170201C14
:104960000193FFF76FFFF6E7226B934222D10023FA
:10497000E36223616846FFF727FF019B013B5A1C56
:10498000DAD0221C34320021117001321678581E00
:104990008E4201D1031CF2E71170201C0193FFF736
:1049A00051FFEAE75A1CE262A26AD3181B787355DA
:1049B0000135AFE7281CFEBD37B54368027A1B6896
:1049C000083252019A18041CD0790123FF211842A1
:1049D00053D0D371A068656962680140002D20D171
:1049E00049015218916863618904890C2162A16AA6
:1049F00068465160621DD377FFF7E6FE019B013BDD
:104A00005A1C33D0221C34321178581EC9B20132DC
:104A1000002903D001930123137023E01170031CBC
:104A2000EEE74B01D3189A68A5699204920C2263B1
:104A30000022626168465D60FFF7C6FE019B013B94
:104A400001E011702B1C591C10D0221C34320120A3
:104A50001070621DD17F5D1EC9B230320029F0D0C6
:104A6000019310706846FFF7B6FE06E068460193B2
:104A7000FFF7B1FE201CFFF7E5FE37BD37B5002379
:104A80006C46E3710734201C0D1CFFF7A3FD2B6857
:104A90001818286001F016FF211C01F0CDFE2B68CC
:104AA0001818286020783EBD03290BD10D4BB22287
:104AB0001B685200985C80214942014399540221AD
:104AC00068220CE001290CD1064B92221B6852008F
:104AD000985C802149420143995402212822FF32E7
:104AE00099547047B40C002038B5304B0024012194
:104AF000051C1A201C7001F087FD1A20012101F00D
:104B0000DDFD2B4B192001211C7001F07DFD1920CA
:104B1000012101F0D3FD274B2021DA6901200A434E
:104B2000DA61254B06241A7802431A70234B0F22B0
:104B300019789143197019782143197020490C781C
:104B40002043087019780A401A701A7860210A43C5
:104B50001A701C4B1C4A5A805A78D209FCD11B4847
:104B600001F05CFB1A4C201CFFF7ECFD201CFFF74A
:104B7000FDFD23687F2219780A401A701A780421F3
:104B80000A431A701A890C218A431A81C121114AD9
:104B9000890050580002000A5050802111601A7894
:104BA00002210A431A7001232B7038BDC80A002065
:104BB000B00C002000040040584400413C44004137
:104BC00059440041000C004006400000FD55000023
:104BD000B40C002000E100E00078002810D0094B60
:104BE00001211B681A898A431A811A8B08210A43FA
:104BF0001A831A8B04210A431A83034B00221A607A
:104C00007047C046B40C0020B80D00200F4B9A69C5
:104C1000920B92039A611B680222FF331A729879F1
:104C20008022524202439A711A7A9007FCD5084BAF
:104C3000081C997A7F221040914301439972997A16
:104C4000802252420A439A727047C046B40C002038
:104C50000050004110B50B790C1C002B0BD1081C27
:104C6000FFF7C6FC002804D1094B9A69920B920306
:104C70009A6101200BE001F025FE211C01F010FEDD
:104C80000028F6D1024B9A69920B92039A6110BDEB
:104C9000B40C0020F8B50D1C832A16D1CAB24249C3
:104CA0005301CB189C694148AD012040C024A405A4
:104CB000204398613E48083245195D610B685201F6
:104CC000D15C70208143402065E0022A45D1382024
:104CD00001F038FB374B344F802603607600002309
:104CE000421D036203614361C36147608560C66022
:104CF000D3772F32041CC36203631370301C5370CC
:104D000005F0FEFDA061301C05F0FAFDFF232A1C12
:104D10001A405201A062BF18B968244A07260A4007
:104D2000C02189050A43BA60A16862681940126807
:104D300008314901885CAD00B043032630438854F4
:104D4000A16862680B405B01A169D3185960201CFF
:104D5000FFF778FD184BEC5025E0822A1ED1CAB22D
:104D600011495301CB189C691048AD012040C02463
:104D7000A405204398610E48083245195D610B680F
:104D8000520199180C798020404220430871D15C6F
:104D90007020814330200143D15404E0002A02D125
:104DA000081CFFF78FFCF8BDB40C0020FFFFFF8F3D
:104DB00008090020E0D000008C0C002038B5051C4C
:104DC0000124064BA200D258002A06D0211C281C20
:104DD0000134FFF75FFFE4B2F3E738BD6000002065
:104DE00008B5084B8A00D058002803D003689B6898
:104DF000984706E0C9B2044B4901591888688004F5
:104E0000800C08BD8C0C0020B40C002010B50C1CCC
:104E1000FFF7E6FF00280CD0064BE1B21B68083113
:104E2000490159184A7980235B4213434B7102238D
:104E3000CB7110BDB40C002070B5CAB2134B14482E
:104E4000540189015918031959609D6811490832A4
:104E500029408025AD022943996099684026890B35
:104E6000890399600368510159180D7935430D7113
:104E70005101591889794D06FAD551015918C97946
:104E8000CD07FAD50419A068C0B270BDCC0A0020C5
:104E9000B40C0020FF3F00F038B50C4B141C1B680D
:104EA0000D1CFF335A7940210A435A710021FFF744
:104EB000C3FFA04200D9201C0023A34204D0044A0F
:104EC0009A5CEA540133F8E738BDC046B40C0020C0
:104ED000CC0A002010B5C9B20C48490143189A68A1
:104EE0009204920C3F2A08D9141C9A68403CA404EE
:104EF000920BA40C9203224302E09A68920B920355
:104F00009A6041188868C0B210BDC046B40C002039
:104F1000F0B51C1C2F4B85B01B68061C0D1C0292A3
:104F2000002B51D02C4F3978C9B2002902D1192059
:104F300001F0C4FB64233B70284BAA00D058002822
:104F400005D0036802995B68221C984740E0301C3A
:104F5000291CFFF745FFA04204D2301C291CFFF793
:104F60003FFF041C291C301CFFF7B4FF1C4FE9B2A3
:104F70004A010191396803928B18FF335A7A012153
:104F80000A4318495A72AB01C9180298221C05F04D
:104F9000CBFC002C1BD0301C291CFFF721FF002864
:104FA00015D1019B3A6808335B01D3181979402069
:104FB000014319710121D97103995318FF339A7A6A
:104FC00001210A439A7202E00120404200E0201CC5
:104FD00005B0F0BDB80D0020B00C00208C0C0020F6
:104FE000B40C0020CC0A002013B56C460734221CF8
:104FF0000123FFF78DFF012801D1207801E0012076
:10500000404216BDF0B51C1C3F4B85B01B680E1C02
:105010000292002B6AD08023DB019C4266D83B4D74
:105020002978C9B2002902D11A2001F047FB642374
:1050300000222B700092002C56D0354DF7B22B6811
:1050400001933B1C0833019A5B01D3189B79DB0960
:105050001AD0304B3049186803F070FA2F4B1721E3
:10506000584303F06BFA3B1C0833019A5B01D318D9
:10507000DB799A0708D42A4B9A5D002A38D1421E60
:10508000002835D0101CEEE7254B00229A55251E2E
:105090003F2D00D93F25234AB301D318181C02998C
:1050A0002A1C039305F040FC194A7B01D318039A8C
:1050B000A9045A619A69890C920B92030A439A6176
:1050C0003B1C019A08335B01D3180222DA7159792B
:1050D000802252420A435A71009B029A5B1952196C
:1050E0000093641B0292A6E700980BE0012008E001
:1050F00001229A557B01ED18AB69101C9B0B9B0399
:10510000AB61404205B0F0BDB80D0020C80A0020D8
:10511000B40C00208C00002040420F0070110100F0
:10512000000900200809002070B50E4D1C1C8B01E1
:10513000ED18281C0E1C111C221C05F0F5FBF6B204
:105140000949760189194D618A69084B201C134071
:105150008B618B69A2049B0B920C9B0313438B61A5
:1051600070BDC04608090020B40C0020FF3F00F0CD
:10517000F7B5114B01901B780F1C141C002B19D193
:105180000E4B1E78002E01D1151C08E00C4D0D4869
:105190002E888019361905F0C7FB2E800AE0002DF5
:1051A00008D0BA192B1C01980021FFF7BDFF361853
:1051B0002D1AF4E7201CFEBDAA0C0020A80C00202C
:1051C000FE080020FD070020F8B50E1C00AF151EDC
:1051D000012D28D9D31DDB08DB006A46D21A95467B
:1051E000081C05F0AFFC01306C4640000323207022
:1051F00063700222AA420ED23378002B0BD0511CCE
:10520000C9B20136A354A94204D000230232635428
:10521000D2B2EFE72A1C0548211CFFF7A9FF431E65
:105220009841C0B200E00020BD46F8BDAB0C0020A4
:1052300008B5044B00221A70034B04491A88FFF783
:1052400097FF08BDA80C0020FE080020FD070020E5
:10525000F0B5204A87B001230026009102A91370FF
:10526000051C0296FFF70AFC03AC092701903A1CC3
:10527000201C311C05F07AFB02236370A023E3712C
:10528000FA232372029B0122DB196380019B627166
:105290002371104A009B27701670BB4205D1281C51
:1052A000211C1A1CFFF764FF11E00B4B01221A703E
:1052B0000A4B211C3A1C281C1E800296FFF758FF3F
:1052C000281C02A9FFF7DAFB281CFFF7B1FF012019
:1052D00007B0F0BDAA0C0020A80C0020FE0800209A
:1052E00070B5CE788AB0051C0C1C022E08D1C98876
:1052F0002348FFF7ADFF031C581E8341D8B23DE0A1
:1053000001F0E0FA211C01F0ACFA002803D0C31729
:105310001B1AD80F32E0012E04D1E2881949112A54
:1053200027D823E0032E29D1A278002A05D11649D7
:10533000E2880B78934219D81BE0022A03D1A279A4
:10534000281C124904E0012A05D1A2791049281C21
:10535000FFF73AFF12E0032A10D101F0B3FA01A9D6
:1053600001F08FFAA279281C01A9F1E7D2B2002A34
:1053700000D10A78281CFFF7FBFE01200AB070BD9F
:10538000AB0C0020FED00000FAD0000010D10000CD
:10539000F0D0000073B5051C48780C1C0B2878D899
:1053A00003F0C2F8081C7728773E4306474B686F26
:1053B00000206FE0097801AA002903D11170517013
:1053C000281C09E0002313705370334B1B78012B0A
:1053D00000D11370281C002102234FE08A7800239B
:1053E000012A04D101AA137053702C4BEEE72A4A0C
:1053F000137049E08E78012E07D1284B01AA0021B5
:105400001E701170281C331C38E0002E08D1224A6F
:1054100001231370224A9169890B8903916138E055
:10542000A178281CFFF7F2FB33E0281CFFF758FF98
:1054300030E0281C00211B4A1FE00A780020D30618
:1054400028D1281CFFF7BAFCA2781549154B022475
:105450001A600A682A23FF33D05C2043D0544A20C4
:10546000FF30145C01231C4314548A69920B92038D
:105470008A610EE00C4A281C00210123FFF754FE2C
:1054800007E08A78084B1A60054B9A69920B9203E1
:105490009A61012076BDC046FC070020A90C0020BF
:1054A000B40C0020B80D0020AC0C0020F8B54B4B1C
:1054B000071C1C78002C00D08EE0494D2868838B97
:1054C00019070DD5201CFFF7FDF82B6810201A1CBA
:1054D000FF32917A01439172424A146008229A8302
:1054E0002B689A8B50071FD504229A833E4B1A785B
:1054F000002A0AD01A78013AD2B21A701B78002B0F
:1055000003D11A20012101F0D9F8384B1A78002A6A
:105510000AD01A78013AD2B21A701B78002B03D144
:105520001920012101F0CAF82B68FF331A7AD1063D
:1055300026D510221A725A7940210A432C495A71F1
:105540000A786023381C1A4202D1FFF723FF01E0DA
:10555000FFF780FB002806D02B688022FF33997963
:1055600052420A4301E0234B20229A712B68FF33F9
:105570001A7A500604D540221A72597A0A435A728E
:105580002968FE230E8C00241E40E1B2002E23D099
:10559000321C012322411A4216D0221C28680832EC
:1055A00052018218D079184203D1D279DA401A42D6
:1055B00007D0114BA200D058002809D003681B68FF
:1055C00098470123A3409E430134092CDDD103E019
:1055D000381CFFF769FAF4E7F8BDC046A80C0020B4
:1055E000B40C0020B80D0020C80A0020B00C002028
:1055F000CC0A0020FF5000418C0C002008B5024866
:10560000FFF754FF08BDC046AB0C0020014A024B17
:105610001A60704700500041B40C0020F7B58A189A
:10562000061C0D1C01920C1C019B671B9C4207D0A1
:10563000336821781B68301C984701340028F3D167
:10564000381CFEBD38B5051C0C1C081E07D005F023
:1056500079FA2B68021C5B68281C211C984738BD0E
:1056600010B504680B1C9A6809686368984710BDF8
:1056700008B50249FFF7E6FF08BDC0461BD1000090
:1056800038B5041CFFF7ECFF051C201CFFF7F0FFEA
:10569000401938BD38B5041CFFF7D4FF051C201C89
:1056A000FFF7E6FF281838BD014B18607047C04669
:1056B00088000020024B012252421A607047C04607
:1056C00088000020154A1368581C25D0013B136040
:1056D000002B21D172B6124A124B04329A4207D8DB
:1056E000BFF34F8F104A114BDA60BFF34F8F11E0B9
:1056F0000F4B197DC807FBD5188B2021FF3192086D
:10570000520001431983DA610A4A1A801A7DD107CF
:10571000FCD5E5E7C046FDE77047C046880000209D
:1057200000200000030200000400FA0500ED00E084
:105730000040004102A5FFFF10B50021041CA42277
:1057400005F014F9221CA4320023201C13605360BE
:1057500010BDF8B5051CA4352E68041C0F1C701C68
:10576000A42102F02FFF231CA8331B68994201D00B
:10577000A7552960F8BD021C0023A432A83013608D
:105780000360704738B5021C041CA834A432236897
:105790001268934207D0C55CA421581C02F012FF86
:1057A000281C216001E00120404238BD031CA433C5
:1057B000A8301A680368D01A00D5A4307047031CBB
:1057C000021CA833A4321B681268934201D0C05C4B
:1057D00001E0012040427047031CA43310B5041CB3
:1057E0001868A421013002F0EDFEA8342368C81A1D
:1057F00043425841C0B210BD01607047F7B508ACD4
:10580000267804689D1E27686C1EA541ECB292079D
:1058100005683A4327063A432A600268072529406B
:105820005068B501002C00D05C03294301430C43B0
:105830005460F7BD30B50368C0251C68AD03120580
:105840002A402243C024A4020904214011431960C4
:1058500003685A6814435C6030BD036801211A680C
:105860000A431A600268116801231942FBD1D16909
:105870001942F8D17047036802211A680A431A6076
:105880000268D3699907FCD4704703681A7ED10770
:1058900002D41A7E9107FCD57047036800225A8310
:1058A00070470368187E4007C00F70470368187E72
:1058B000C009704703688022197E52420A431A7653
:1058C00070470368188DC0B2704703681A7E0120C4
:1058D0000242FBD01985704770B5036801268D0719
:1058E000ED0F31401C686D070907294321431960FA
:1058F00004685100034802F021FE0138C0B2207351
:1059000070BDC046006CDC02036801211A680A43BE
:105910001A600268116801231942FBD1D16919424A
:10592000F8D17047036802211A680A431A600268B6
:10593000D3699907FCD470470368DA699107FCD4EE
:105940001A6802218A431A60704703689A6A520AE9
:1059500052021143996203681A7E5107FCD5986A76
:10596000C0B27047036801211A680A431A600268CE
:10597000116801231942FBD1D1691942F8D170474E
:10598000036802211A680A431A600368DA699107FA
:10599000FCD45A8B30218A4310210A435A8302686F
:1059A000D3695907FCD47047036880221968596885
:1059B000D2020A435A6070470368034A196859685B
:1059C0000A405A607047C046FFFFFBFF30B50368CE
:1059D00003241D680C40074A596824040A40ED0658
:1059E00022436D0F5A60052D03D10268D369590710
:1059F000FCD430BDFFFFFCFF49001143036830B504
:105A0000CDB2598B032409092140012904D0598BB7
:105A100009090C40022CF4D1596AC90AC902294368
:105A200059620368002A03D11A7ED107FCD50DE024
:105A3000187E01224008104008D1197E1142F7D08B
:105A40005968C02292020A435A6003E05B8B01202E
:105A50009B08984330BD0368283319700268107E94
:105A60000123184003D1518B1942F8D003E0528B27
:105A7000181C920890437047036828331970036814
:105A800000201A7E510703D55B8B01209B089843A9
:105A9000704703681868C006400F043843425841F5
:105AA000C0B270470368187E4007C00F7047036894
:105AB000187E0123184070470368588BC006C00F3A
:105AC00070470368187E8007C00F70470368588BC3
:105AD0000007C00F704703681A68D206520F052AE4
:105AE00002D11A7E9107FCD528331878C0B27047CE
:105AF0000368224A30B5934211D0214A934211D013
:105B0000204A934211D0204A934211D01F4A934217
:105B100011D01F4A934230D10E2319220DE00923E0
:105B200014220AE00A23152207E00B23162204E0C0
:105B30000C23172201E00D231822DCB215490120A5
:105B40009B08A0409B0008605B180320C0218900CF
:105B500004405D58E000FF248440A5432C1CC02570
:105B60008540281C204358508023DB011A430A4BF0
:105B70005A805A7852B2002AFBDB30BD000800423E
:105B8000000C0042001000420014004200180042C5
:105B9000001C004200E100E0000C0040F8B5041CCD
:105BA000151C0E1C1F1CFFF7A3FF201CFFF755FE42
:105BB000B1001C220A4069072368090C0A431A60D5
:105BC000226884239375012E1AD10821012D00D15A
:105BD00010210C4B79431868C00002F0AFFC236819
:105BE00007219A890140D2044903D20C0A439A81C1
:105BF00023680004C20C9889400B4003104398812D
:105C0000F8BDC0468C000020F7B5019308AB041C1A
:105C10001F780D1C161CFFF777FE201CFFF768FF8E
:105C2000BF070C221743C022920336051640C0223C
:105C300092022D0423683E43019915403543072203
:105C40001D600A408021236889020A435A60F7BD1B
:105C500038B5041C0D1CFFF74BFF201CFFF782FE1C
:105C6000236814221A60074B6900186802F066FC6A
:105C70002468421EE068FF231A4098431043E06006
:105C800038BDC0468C0000200120704708B503686D
:105C9000014ADB69984708BD1304000010B5041CD5
:105CA0000069FFF7DAFD201C1430FFF764FD10BD1A
:105CB00008B50069FFF7E9FD08BD08B51430FFF726
:105CC00075FD08BD08B51430FFF779FD08BD08B5AE
:105CD0001430FFF757FD08BD08B50069FFF7F5FD63
:105CE000012008BDF7B51D1C08AB1B78041C0093F0
:105CF00009AB1B78161C019300234360FA239B0019
:105D00008360094B0F1C083303601430FFF714FD48
:105D1000009A231CC03327619A70019A1E705D702F
:105D2000201CDA70FEBDC04630D1000010B5041C46
:105D30000069FFF7B6FD002807D02069FFF7C1FD15
:105D4000011C201C1430FFF704FD2069FFF7AEFD95
:105D5000002805D02069FFF7ADFD2069FFF79DFD04
:105D600010BDF023081C184030384342584170479A
:105D7000F0231B01194080239B0099420CD0C023C3
:105D80009B00994206D080235B000520994204D0F5
:105D9000002002E0072000E0062070470F23194092
:105DA000012905D002394B424B410220C01A00E0C4
:105DB00000207047F0B5031C85B00391C033041C6C
:105DC000182718783B1C43431B4E0821F3185956DB
:105DD000151C00F0BBFC231CC13318780821474375
:105DE000F619715600F0B2FC01210A1C039B2069D0
:105DF000FFF7D4FE291C201CFFF7BAFF291C071C43
:105E0000201CFFF7CBFF291C061C201CFFF7A9FF55
:105E1000391C0090331C20690122FFF7EFFC231C82
:105E2000C3331978013B1A782069FFF703FD206915
:105E3000FFF721FD05B0F0BD90CC0000F0B51823B0
:105E4000434385B00292364A1625D3185D57019018
:105E50000391691C62D0102D60D0324B324C19680E
:105E600000291FD14422314804F080FD304910221E
:105E7000CA67304BC02149005A50C1218900585887
:105E8000FF26B04358501A602B4A2C4B5A80237877
:105E90000222134323706378DB09012BFBD0214BD3
:105EA00001221A60012763693E1CAE4033436361DF
:105EB0000021019800F04AFC1C4A0399AB0099505C
:105EC000072D00DC0027FB00029AED1AAD00042A22
:105ED00022D8101CBF0002F027FB03080D12170088
:105EE000114B0522FF18BB6912E00F4904227F18ED
:105EF000BB690DE00C4ABF18BB69032208E00A4BDE
:105F00000222FF18BB6903E0074901227F18BB6921
:105F1000AA40151C1D43BD61B6B2E66005B0F0BDD8
:105F200090CC0000000E002000180040BC0D0020A6
:105F300004E100E000E100E005400000000C00404A
:105F400070B50024084D01262B69A640334206D0C7
:105F5000064BA200D358002B00D098472E61013485
:105F6000102CEFD170BDC04600180040BC0D0020C1
:105F700038B5049D1C1C401AEB1A5843511A02F004
:105F80002BFB001938BD10B5041C006804F0C2FCDE
:105F9000201C10BD10B5041C0068002801D004F0BE
:105FA000B9FC00232360A360636010BD38B5041CF6
:105FB0000D1C0068013104F07DFD002801D021C4D2
:105FC000012038BD036810B5041C002B02D04368C3
:105FD0008B4209D2201CFFF7E9FF002805D0A368F7
:105FE000002B01D122681370012010BD70B50E1C6A
:105FF000111C041C151CFFF7E5FF002803D1201C11
:10600000FFF7C8FF04E0A5602068311C04F092FD92
:10601000201C70BD38B50023041C0D1C03604360B8
:106020008360994207D0081C04F08CFD291C021CD7
:10603000201CFFF7DBFF201C38BD10B50B1C041E15
:106040008C4208D00968002903D09A68FFF7CEFF78
:1060500001E0FFF79FFF201C10BD10B50023041CBA
:10606000036043608360FFF7E8FF201C10BD38B574
:10607000041C0D1E08D0081C04F064FD291C021C21
:10608000201CFFF7B3FF01E0FFF784FF201C38BDA1
:1060900010B500238AB0041C036043608360081CB1
:1060A00001A900F029F9201C01A9FFF7E0FF201C3D
:1060B0000AB010BD70B58CB01D1C10AB1B78141C41
:1060C000002202604260826003A99A1C061C52B240
:1060D0000091201C291C00F09BFB011C301CFFF7C9
:1060E000C6FF301C0CB070BDF8B5041C0F1C8668D0
:1060F00001D100250FE00125002A0CD09619311C92
:10610000FFF760FF0028F4D02268A368391CD0187C
:1061100004F010FDA660281CF8BD08B50B1C9A6899
:106120000968FFF7E1FF08BD13B50A22041C081C2B
:1061300001A900F0E1F801A804F004FD01A9021C86
:10614000201CFFF7D1FF16BD0B1C10B509689A681B
:10615000041CFFF7C9FF002802D1201CFFF71AFF1B
:10616000201C10BD38B5041C0D1E09D0081C04F0FD
:10617000E9FC291C021C201CFFF7B6FF002802D1F5
:10618000201CFFF707FF201C38BD10B5041CFFF7CB
:10619000CBFF002802D1201CFFF7FCFE201C10BD05
:1061A000FEE7FEE708B5034B1B68002B00D09847BD
:1061B00008BDC046040E002038B50F490F4CA1425F
:1061C00004D100F0C7F800F09DF80BE00C4D8D42B3
:1061D000F7D00023CA18E818A24204D2006804339A
:1061E0001060F7E7FEE79042EBD0064B064A934279
:1061F000E7D2002204C3F9E700000020600100207C
:1062000010D6000060010020280E002008B500F024
:106210002CF8002801D100F01DF808BD014B1860D2
:106220007047C046040E0020014B18687047C046F6
:10623000080E002070B5041E08D0054B1D681E1CFA
:1062400000F012F833685B1BA342F9D370BDC0465F
:10625000080E002008B5034B1A6801321A60FFF7D8
:1062600031FA08BD080E0020704700207047F0B5D5
:106270008FB00D1C029235D0131C023B222B33D859
:106280000A2A33D1002831DA01234642039305ACB0
:106290000194002E12D0301C029902F093F9301CA8
:1062A0000F1C029902F04AF9631C061C092F01DC3D
:1062B000303700E0573727701C1CEAE7019A9442F8
:1062C000E9D0039A2B1C002A02D02D226B1C2A70C5
:1062D000019A944204D9013C22781A700133F7E7FD
:1062E00000221A70281C05E0002003E00022061C92
:1062F0000392CCE70FB0F0BD08B5FFF7B8FF08BDBB
:106300007047000010B500F0D9F804F0D3FAFFF799
:10631000F7FF0120FFF78EFF084C201CFEF7E4FB7F
:10632000201CFEF759FCFCF7E7FBFCF797FC044B3D
:10633000002BFAD000E000BFF7E7C046AB0C00200E
:106340000000000008B504F0DBFA08BD08B504F051
:10635000E1FA08BD70B5494A1E21536802208B43FB
:106360000343474953608B69082423438B61454CA1
:10637000454B9C829C8A20439882101CDA689407C3
:10638000FCD5424A012414701478E50704D53F4C2B
:10639000647864B2002CF7DB01249460547864B212
:1063A000002CFBDB3A4D394C6560547864B2002C0C
:1063B000FBDB8225354CED016580547864B2002CFE
:1063C000FBDB02249C84DC68E606FCD5314D2E4CB8
:1063D000E562DD682C4CEE06FBD5A58C2E4E3543D0
:1063E000A584DD68284CEE06FBD5A58C0226354336
:1063F000A584DC682506FCD5234CE4686606F8D540
:10640000DC68E506FCD500249460547864B2002C66
:10641000FBDB224D1D4C656055781C4C6DB2002D88
:10642000FADB1E6A1E4D35401D621D6A8026B5438B
:106430001D620323A3601B4B636053785BB2002B88
:10644000FBDB00230B72184A4B728B72CB72174B1B
:10645000FF211A60164B174A1B6812685C01D20EA6
:10646000214011439A06520F12020B1C1343124A89
:106470001385436880221343436070BD0040004190
:10648000000400400C06000000080040000C004022
:1064900001050100B805FF7D040A000000070300A4
:1064A000FFFCFFFF03060100006CDC028C000020F3
:1064B000246080002060800000400042314BFA21BF
:1064C000186810B5890002F039F82F4B013898424E
:1064D00024D82E4A2E4B5060186AC0210002000AB0
:1064E0000906014319620024072194601160196AAA
:1064F00080220902090A12060A431A62254BFC216E
:106500001A6A0A431A62196AFC2292010A431A6241
:10651000196AA022D2020A431A6200E0FEE7201C98
:106520000021013400F070F8142CF8D11A4C637873
:106530005BB2002BFADB194B6380194B5A7ED209F0
:10654000012AFAD0E422D2009A803F22DA70597EE2
:10655000134AC9090129FAD0C0235B010020136145
:10656000907000F023F863785BB2002BFBDB0D4AE0
:10657000094B5A800C4BDA79D209012AFAD0412210
:106580005A7010BD8C000020FFFFFF0010E000E0FB
:1065900000ED00E000040040000C00401E40000040
:1065A00000400042214000000048004200B5144A6B
:1065B000517E131CC9090129F9D00138042813D8C8
:1065C0001969104A0A401A615A780F218A4301F06A
:1065D000ABFF030509070300012102E0032100E0EE
:1065E00002210A435A700AE01169F0231B050B438C
:1065F000136153780F218B4302210B43537000BD6D
:1066000000400042FFFFFFF010B51824021C201CC0
:106610005043274B1818007A40B2013046D0032966
:1066200044D8081C211C01F07FFF02331121624372
:1066300098569A18C3011F4852681B189918403180
:10664000022008700121914059602FE06243985662
:1066500018499A185268C3015B18991840310620EE
:10666000087001219140596099611FE051435A56C9
:10667000104859184B68D2011118C8184030062428
:1066800004700120984048600B49521850600DE09A
:10669000624398569A18C301064852681B18991805
:1066A00040310220087001219140996010BDC04620
:1066B00090CC00000044004110440041182358438E
:1066C000134AF0B5131808241C5701341FD0825602
:1066D000104ED2015D6801249019231C8668AB40DE
:1066E0001E420BD10E1C771EBE4140193440403073
:1066F000A50004780426B4432C430470002903D178
:1067000005495218536002E0024E92199361F0BDA0
:1067100090CC00000044004110440041182358432D
:10672000084A082113185956013109D082560649E2
:10673000D20152185B68106AD8400123184000E06B
:106740000020704790CC00000044004118224243D2
:10675000F8B52D4D0824AA181457031C621C50D0FC
:10676000481C00240C284CD801F0DEFE071E1E1E1B
:106770001E1E1E1E1E0A0A0A0A000124644240E070
:10678000092902D1181C002103E00A2904D1181C90
:106790000221FFF739FF23E000240B2931D1181C17
:1067A0000121FFF731FF2CE018225343EA18526809
:1067B000EB560120141C04405508DB01002C11D0BD
:1067C000124C1B195D1930352E780C010F21314008
:1067D00021439A18C9B229704032137818431070B7
:1067E00000240EE0094E0F279B195D1930352E78D5
:1067F0009A18BE433143C9B2297040321378184306
:106800001070201CF8BDC04690CC00000044004130
:1068100070B586B0041C0D1C0A9E064901A804F040
:1068200067F9301C01A9221C2B1C04F061F9301CF3
:1068300006B070BD60D1000070B544680E1C002524
:10684000002C09D02368201C5B68311C9847002865
:1068500004DB2D18E468F3E7281C01E00120404226
:1068600070BD38B544680D1C002C08D02368201C6E
:106870009B68291C9847002802D1E468F4E7201C93
:1068800038BD38B544680D1C002C07D02368201C87
:10689000291CDB689847E4682D18F5E72C7038BD93
:1068A00038B544680D1C002C08D02368201C1B68D8
:1068B000291C9847002803D1E468F4E7201C00E075
:1068C000012038BD064B0122196810B5114005485A
:1068D00005D1022404700424447041601A6010BD84
:1068E000140E00200C0E002010B5021C26480B1CB4
:1068F000490086B0490881421EDD2448814205DDF9
:10690000101C191C03F0CAFB06B010BD101C191C8A
:1069100002AA00F0A5FB0323184001281DD002287D
:1069200011D0002824D0012402980399049A059BD1
:10693000009401F0F5FBE7E7101C191C114B104AFD
:1069400000F0B2FEE0E7049A059B0298039900F07C
:10695000ABFE80231B06C918D6E7049A059B00905E
:106960000298039901F0DCFB80231B06C918CBE7D2
:1069700002980399049A059B00F096FEC4E7C0466E
:106980000000000000000000FB21E93FFFFFEF7F57
:106990000B1C011C021C30B519430220002900D138
:1069A00030BD802109068B4216D00D4904205C18A9
:1069B0000C498C42F4D90C4D5C198C42F0D90B4C2B
:1069C000590049080320A142EAD9074C0020A142FE
:1069D000E6D150425041E3E7002AE1D0EFE7C0465C
:1069E0000000F0FFFFFFDF7F0000F07FFFFF0F00E0
:1069F00010B5021C28480B1C490086B0490881428A
:106A00001FDD2648814205DD101C191C03F046FBE2
:106A100006B010BD101C191C02AA00F021FB0323B4
:106A20001840012822D0022814D0002825D0049A2A
:106A3000059B0298039900F037FE80231B06C918B6
:106A4000E6E700210091101C191C124B104A01F0BE
:106A500067FBDDE70124049A059B029803990094E3
:106A600001F05EFB80231B06C918D1E7049A059B41
:106A70000298039900F018FECAE7012402980399CE
:106A8000049A059B009401F04BFBC1E7C046C04649
:106A90000000000000000000FB21E93FFFFFEF7F46
:106AA000F0B5474680B48AB0041C0D1C00F0B4F861
:106AB000254A0023D3569046061C0F1C013305D0EF
:106AC000201C291CFFF764FF002805D1301C391C4D
:106AD0000AB004BC9046F0BD201C291C01F0CCFB80
:106AE000184B174A01F004FE0028EFD00123009351
:106AF000164B1748019300230893049405950294BC
:106B0000039501F079FC42460023D3560690079185
:106B1000022B0AD0684601F06BFC002805D0089BC8
:106B2000002B07D1069E079FD0E703F0BDFE21236F
:106B30000360F4E703F0B8FE089A0260F2E7C0468B
:106B4000000000000000F03F900000206CD1000029
:106B500070D10000C046C046F0B5474680B48AB048
:106B6000041C0D1C00F0B8FC294A0023D3569046A3
:106B7000061C0F1C01330DD0201C291CFFF708FF39
:106B8000002807D0201C291C204B1F4A01F09CFD27
:106B9000002805D1301C391C0AB004BC9046F0BD59
:106BA000012300931B4B0494059501930023089344
:106BB0004346029403951C78002C0ED1134B124AC5
:106BC00006920793684601F013FC00280FD0089B3B
:106BD000002B11D1069E079FDCE70C490A48021CD6
:106BE0000B1C02F061FB06900791022CEAD103F026
:106BF0005BFE21230360EAE703F056FE089C046075
:106C0000E8E7C046C046C0460000000000000000A3
:106C10009000002074D10000F0B557464E46C0B435
:106C2000BF4B4E0089B081460F1C8A4676089E42B3
:106C300017DDBC49041C76183443391C002C24D0C1
:106C40004A463B1C03F02AFA021C0B1C02F02CFBE8
:106C5000021C0B1C101C191C09B00CBC91469A4656
:106C6000F0BDB14B9E4225DCB04B9E4200DD61E1A0
:106C70008C4B8B4A01F0FCFF8B4A8C4B01F038FDAA
:106C8000002817D04A463B1CE4E7894A894B02F0AA
:106C900075FF894A894B041C0D1C4846391C02F0BB
:106CA0006DFF021C0B1C201C291C01F0E1FF021CC3
:106CB0000B1CCFE74846391C01F0DEFA021C0B1C06
:106CC00079487A4903F0EAF97D4A7E4B02F056FF93
:106CD0007D4A7E4B041C0D1C02F050FF7C4A7D4B0C
:106CE00001F0C6FF221C2B1C02F048FF7A4A7B4BA6
:106CF00003F0D4F9221C2B1C02F040FF784A794B98
:106D000001F0B6FF221C2B1C02F038FF764A774BAD
:106D100003F0C4F9221C2B1C02F030FF744A754B9F
:106D200001F0A6FF221C2B1C02F028FF724A734BB5
:106D300002900391201C291C02F020FF704A714B25
:106D400003F0ACF9221C2B1C02F018FF6E4A6F4BAB
:106D500001F08EFF221C2B1C02F010FF6C4A6D4BC1
:106D600003F09CF9221C2B1C02F008FF4E4A4F4BEB
:106D700001F07EFF04900591201C291C00F0ACFB63
:106D80006B4B009001919E4268DC009A019B0022AF
:106D9000161C1F1C00980199021C0B1C01F068FFB7
:106DA000049A059B069007910298039902F07CFAD9
:106DB000021C0B1C0698079902F0E0FE321C0290A0
:106DC00003913B1C301C391C02F0D8FE021C0B1C2A
:106DD000201C291C03F062F9321C041C0D1C3B1CF6
:106DE0000098019901F044FF021C0B1C201C291C77
:106DF00002F05AFA021C0B1C01F03AFF021C0B1C99
:106E00002D482E4903F04AF9021C0B1C02980399E5
:106E100003F044F9321C041C0D1C3B1C301C391CB3
:106E200001F026FF021C0B1C3B483C4903F036F9DD
:106E3000021C0B1C201C291C03F030F9021C0B1C2B
:106E40003548364903F02AF9021C0B1C514600292B
:106E500000DDFFE6802109065B18FBE6049A059B2E
:106E60000298039902F020FA021C0B1C0098019969
:106E700002F084FE009A019B01F0FAFE021C0B1C3A
:106E800001F0F6FE0C4A0D4B03F008F9021C0B1C36
:106E90000748084903F002F9021C0B1CD6E7C0465C
:106EA0009C7500883CE4377E000000000000F03F45
:106EB000182D4454FB21F93F075C143326A6913C5E
:106EC000000000000000E03F09F7FD0DE13D023F3A
:106ED00088B20175E0EF493F3B8F68B52882A43F37
:106EE0005544880E55C1C93F7D6FEB0312D6D43F80
:106EF000555555555555C53F82922EB1C5B8B33F2E
:106F000059018D1B6C06E63FC88A599CE52A004052
:106F10004B2D8A1C273A0340182D4454FB21E93F8E
:106F2000FFFFEF3F000010C0FFFFDF3FFFFF3F3ECE
:106F30003233EF3F4A463B1C02F020FE334B324ACD
:106F4000041C0D1C02F01AFE314A324B01F090FE77
:106F5000221C2B1C02F012FE2F4A304B03F09EF82D
:106F6000221C2B1C02F00AFE2D4A2E4B01F080FE43
:106F7000221C2B1C02F002FE2B4A2C4B03F08EF835
:106F8000221C2B1C02F0FAFD294A2A4B01F070FE4C
:106F9000221C2B1C02F0F2FD274A284B0090019185
:106FA000201C291C02F0EAFD254A264B03F076F846
:106FB000221C2B1C02F0E2FD234A244B01F058FE58
:106FC000221C2B1C02F0DAFD214A224B03F066F84A
:106FD000221C2B1C02F0D2FD1F4A204B01F048FE60
:106FE000021C0B1C0098019902F05EF9021C0B1C9C
:106FF0004846391C02F0C2FD4A463B1C01F038FEEF
:10700000021C0B1C26E6C04609F7FD0DE13D023FC0
:1070100088B20175E0EF493F3B8F68B52882A43FF5
:107020005544880E55C1C93F7D6FEB0312D6D43F3E
:10703000555555555555C53F82922EB1C5B8B33FEC
:1070400059018D1B6C06E63FC88A599CE52A004011
:107050004B2D8A1C273A0340000000000000F03F3F
:10706000F0B556464D4644465F46F0B44B005E08C8
:10707000A34B91B0041C0D1C91468A469E4200DC35
:1070800086E0A04B9E4223DC002900DCCEE1291CD7
:107090008C4B8B4A03F002F89B4B041C0D1C9E4248
:1070A00000D18FE0884A894B02F0F8FF021C0B1CCC
:1070B00049460A604B60201C291C02F0EFFF824AFF
:1070C000824B02F0EBFF4A469060D160012067E0FE
:1070D0008E4B9E4200DC91E08D4B9E4267DC8D49D9
:1070E0003315C9180B05F51A8B46291C041C03F02F
:1070F000FFFA03F031FB021C0B1C201C291C0A9216
:107100000B9302F0CBFF724A724B02F037FD0F1C5B
:10711000061C03F0EDFA03F01FFB041C0D1C221CDF
:107120002B1C301C391C0C940D9502F0B7FF684ADB
:10713000684B02F023FD684A684B0E900F9101F0F6
:10714000BDFA002800D192E1634A644B201C291C3F
:1071500001F0B4FA431E984102231B1A0222009246
:107160006D4A0AA8019249465A4600F0C1FB5246B0
:10717000002A15DA4C4664688021090663184946DE
:10718000CA68802424064B601319CB60404207E094
:10719000111C14605560504A504B8A60CB6000202F
:1071A00011B03CBC90469946A246AB46F0BD221CAD
:1071B0002B1C02F073FF4A469060D1601060516052
:1071C0000020EDE7464A474B02F068FF464A474B2E
:1071D000041C0D1C02F062FF021C0B1C49460A60D5
:1071E0004B60201C291C02F059FF3F4A3F4B02F024
:1071F00055FF4A469060D1600120D1E701F03CF88C
:107200003B4A3C4B041C0D1C02F0B8FC3A4A3B4B79
:1072100001F02EFD03F06CFA834603F09DFA294B32
:10722000274A0490059102F0A9FC021C0B1C201CAB
:10723000291C02F033FF244A244B02900391049846
:10724000059902F09BFC5B46069007910298039912
:107250001F2B65DC5A46013A304B9200D358B3429B
:107260005ED0069A079B02F019FF0D1C0F1C041C30
:1072700049460C604D60804642463B1C029803998B
:1072800002F00CFF069A079B02F008FF4A46041C16
:107290000D1C9460D5605446031C5846002C00DB3E
:1072A0007EE744461460802212064C46BF188918B7
:1072B0006760A360E160404272E7C046C046C046D6
:1072C00000004054FB21F93F3163621A61B4D03DA4
:1072D00000000000000070410000000000000000FD
:1072E0000000601A61B4D03D7370032E8A19A33B6D
:1072F00083C8C96D305FE43F000000000000E03F3C
:10730000FB21E93F7BD90240FB21F93FFB213941B9
:10731000FFFFEF7FEAFBFFFFFCD100007CD1000004
:10732000069A079B02F0BAFE4B00041C0D1C4A464D
:1073300036155B0D80460F1C14605560F31A102B38
:107340009ADD584B564A0498059902F017FC041C24
:107350000D1C221C2B1C0298039902F09FFE089022
:107360000991089A099B0298039902F097FE221C42
:107370002B1C02F093FE4C4A4C4B041C0D1C049831
:10738000059902F0FBFB221C2B1C02F087FE0690E5
:107390000791069A079B0898099902F07FFE4B46D1
:1073A0000D1C041C1C605D604B005B0D0F1C8046B7
:1073B0000899099AF31A02910392312B00DC5BE7DA
:1073C0003B4A3C4B0498059902F0D8FB041C0D1C69
:1073D000221C2B1C0298039902F060FE029003917C
:1073E000029A039B0898099902F058FE221C2B1C54
:1073F00002F054FE304A314B041C0D1C04980599D0
:1074000002F0BCFB221C2B1C02F048FE06900791E8
:10741000069A079B0298039902F040FE4A46041C14
:107420000D1C80460F1C1460556025E7291C244A5A
:10743000244B01F01DFC264B041C0D1C9E4218D051
:10744000214A224B01F014FC021C0B1C49460A6025
:107450004B60201C291C02F021FE1B4A1B4B01F033
:1074600007FC4A469060D1600120404298E6032321
:1074700074E60C4B0A4A01F0FBFB0B4A0B4B041C55
:107480000D1C01F0F5FB021C0B1C49460A604B6009
:10749000201C291C02F002FE034A044BDFE7C04611
:1074A0000000601A61B4D03D7370032E8A19A33BAB
:1074B0000000002E8A19A33BC14920259A837B39FD
:1074C00000004054FB21F93F3163621A61B4D03DA2
:1074D000FB21F93FC046C046F0B55F4656464D46D3
:1074E0004446F0B46C4E0D1C371C83B0041C021CC7
:1074F0000B1C2F40B74200D1ADE0002900DC8BE02F
:107500002F1500D194E0654D09038023090B5B031F
:107510007F190B43FE0700D570E07F10C20FB846FD
:107520005B00002780219B18162442000097002052
:10753000890345189D4204DC68185B1B009D6D188B
:107540000095D50F5B00013C5B1952004908002CE7
:10755000EFD180210026090620250196B4468946F0
:1075600009E0834246D0D40F5B00013D1B19520055
:107570004908002D1CD066468C198342F1DD67183E
:10758000E60FBC46F60782464E452CD01B1AA24297
:1075900080414042019F1B1A121B7F18D40F5B00D1
:1075A000013D019750461B1952004908002DE2D1B8
:1075B000134328D101984308009D394E6A1092194F
:1075C000ED0702D5802109060B4340460705B9188F
:1075D0001C1C0D1C201C291C03B03CBC9046994669
:1075E000A246AB46F0BDFF0FFF077E427E41B2468A
:1075F0008244CBE79442C2D9181CB4E7C20F5B00A7
:107600009B18400089E7019901312FD0019C01238B
:1076100023401B195B08CFE76B005B081A43D9D0E6
:10762000002700292BD1C10A153F40050029FAD0B7
:107630008022520311421ED100234900013311421E
:10764000FBD001242022E41AD21A3F19041CD44092
:107650002143984057E7201C291C02F08FFA221C76
:107660002B1C01F005FB041C0D1CB3E7009A002342
:1076700001320092A0E7202201240023E5E7221C2A
:107680002B1C201C291C02F009FD021C0B1C01F004
:107690000BFE041C0D1C9DE70000F07F01FCFFFFAA
:1076A0000000E03F00000000F0B5474680B488B01D
:1076B000029203934B005B089846894B061C0F1CF3
:1076C000984563DC03F014F8002800D1DDE0321C9B
:1076D0003B1C301C391C02F051FA6E4B6C4A041CE6
:1076E0000D1C02F04BFA6C4A6C4B01F0C1FA221CE3
:1076F0002B1C02F043FA6A4A6A4B02F0CFFC221CB0
:107700002B1C02F03BFA684A684B01F0B1FA221CCC
:107710002B1C02F033FA664A664B02F0BFFC221CB7
:107720002B1C02F02BFA644A644B01F0A1FA221CD4
:107730002B1C02F023FA04900591614A614B201C36
:10774000291C02F01BFA049A059B00900191201C51
:10775000291C02F013FA029A039B041C0D1C301C16
:10776000391C02F00BFA021C0B1C201C291C02F015
:1077700095FC021C0B1C0098019902F08FFC021C66
:107780000B1C5148514902F089FC71E0321C3B1C32
:1077900002F0F4F93F4B3E4A041C0D1C02F0EEF9D6
:1077A0003D4A3E4B01F064FA221C2B1C02F0E6F924
:1077B0003B4A3C4B02F072FC221C2B1C02F0DEF90F
:1077C000394A3A4B01F054FA221C2B1C02F0D6F92C
:1077D000374A384B02F062FC221C2B1C02F0CEF917
:1077E000354A364B01F044FA2B1C221C02F0C6F934
:1077F0003C4B0490059198459FDD3B4B98453BDC05
:107800003A4900220B1C43442F483049009201930F
:1078100002F044FC06900791294A2A4B201C291C9F
:1078200002F0ACF9009A019B02F038FC049A059B27
:1078300000900191201C291C02F0A0F9029A039BE0
:10784000041C0D1C301C391C02F098F9021C0B1C86
:10785000201C291C02F022FC021C0B1C0098019920
:1078600002F01CFC021C0B1C0698079902F016FC87
:1078700008B004BC9046F0BD154A164B069207931B
:107880001549164A00910192C6E70F480F49EFE7E4
:10789000D43888BEE9FAA8BDC4B1B4BD9EEE213E7D
:1078A000AD529C804F7E923E9015CB19A001FA3EBE
:1078B0007751C1166CC1563F4C5555555555A53F8E
:1078C000000000000000E03F000000000000F03F6A
:1078D000000000000000E73F000000000000D23F71
:1078E000FFFF3F3E3233D33F0000E93F0000E0FF9F
:1078F000F0B556464D4644465F46F0B48E4C82463F
:10790000A544A89D10938D4B141CAA00109DD2581D
:107910000E91013DE01E18210C92069500F05CFED0
:10792000C343DB171840C3435A00D318DB001B19AD
:107930000F90441B0C980B932F1817D4A998A500EF
:10794000E71926AE4519013707E0286802F004FF61
:10795000013403C60435BC4208D0002CF5DA0134EA
:107960006C496B48043503C6BC42F6D10C9C002C14
:1079700000DAADE30C9B109C0133DB00E4009EAD0C
:10798000A34699462B1C5B44E93B002076ACFF3BA9
:1079900080460D940493069D002D00DAACE1049816
:1079A0000026071C47445B4D594C50468319186804
:1079B00059683A687B6802F0E1F8021C0B1C201C35
:1079C000291C01F055F90836041C0D1C083F5E45C2
:1079D000EBD10D9908220B1C434490441C605D6060
:1079E000C845D8D10C9D11ACAB000894E418119493
:1079F0000A950A9C0D9DE300EB181E685F68002C39
:107A000038DD231C013BDB00ED1812A8A300A846BB
:107A1000C418554681460495A2463F4A3F4B301C48
:107A2000391C02F0ABF802F063FE02F095FE3C4A0E
:107A30003C4B041C0D1C02F0A1F8021C0B1C301C5A
:107A4000391C02F02BFB02F053FE494604318946F3
:107A5000043901C1201C4446291C2268636801F0D6
:107A600007F908256D42061C0F1CA844D145D4D146
:107A700004988246301C391C0B9A00F0C5FC2A4A37
:107A80002A4B041C0D1C02F079F800F0F9FB284A7F
:107A9000284B02F073F8021C0B1C201C291C02F05E
:107AA000FDFA041C0D1C02F023FE814602F054FE78
:107AB000021C0B1C201C291C02F0F0FA0B9C061C5B
:107AC0000F1C002C00DCF9E00A9A12AD013A92007A
:107AD000AB581821091B181C0841814488401B1A07
