:1020000000800020DD740000C7740000C774000069
:1020100000000000000000000000000000000000C0
:10202000000000000000000000000000C774000075
:102030000000000000000000C774000031750000BF
:10204000C7740000C7740000C7740000414E000050
:10205000D5710000C7740000C7740000C974000087
:10206000C774000049570000C7740000C77400001F
:102070007D380000C774000059570000C774000085
:10208000C7740000C77400001D330000C77400004F
:1020900000000000C7740000C7740000C77400008F
:1020A000C7740000C7740000C7740000C774000044
:1020B0000000000010B5064C2378002B07D1054B1B
:1020C000002B02D0044800E000BF0123237010BDA4
:1020D000700100200000000094F0000008B5084BDB
:1020E000002B03D00748084900E000BF07480368F9
:1020F000002B03D0064B002B00D0984708BDC046EC
:102100000000000094F00000740100206401002031
:1021100000000000014B03607047C046E8E3000088
:1021200070470000014B03607047C046E8E30000C1
:1021300010B5034B041C036005F09AFA201C10BD77
:10214000E8E3000010B5034B041C036005F090FAAF
:10215000201C10BDE8E3000008B505F0F7F9084BB6
:102160001A68811A1A1CC8235B00994205D9054BCD
:102170001978002901D101211970106008BDC046ED
:10218000980100207E02002008B505F0DFF90A4B17
:102190001968421A191CC8235B009A4209D9074BD7
:1021A0001A78022A01D1002202E0002A01D102227B
:1021B0001A70086008BDC046680200207E02002038
:1021C00070B54B688C68CD6843600A1C031CC56001
:1021D00084601033103270CA70C312781A70096AA2
:1021E000016270BD70B51049104804F09DFB104CA1
:1021F000201C02F071FF061C201C02F063FF051C6E
:10220000201C02F055FF031C0A332A1CDBB2311CD0
:10221000201C02F00DFF201C032102F01FFE201CD9
:10222000044902F02DFE70BD00E4000038080020D3
:102230009C010020812E0000F0B5274B87B01E685E
:102240005F680D1C301C391C141C05F05DFD0090EE
:102250000191301C391C05F0DBFD02900391281C14
:1022600009F03EFE061C201C0F1C09F039FE009AE6
:10227000019B04900591301C391C09F043F8029A27
:10228000039B041C0D1C0498059909F03BF8021CE3
:102290000B1C201C291C09F0C5FA09F0EDFD0F4BA1
:1022A000391C1880029A039B301C09F02BF8009A05
:1022B000019B041C0D1C0498059909F023F8021CCD
:1022C0000B1C201C291C08F097F809F0D5FD044BC5
:1022D000188007B0F0BDC046A0010020EE0100202C
:1022E00024020020F0B5284B87B01E685F68051CEB
:1022F000391C301C141C05F007FD00900191301CA6
:10230000391C05F085FD02900391281C09F0E8FDB9
:10231000071C201C0E1C09F0E3FD009A019B049091
:102320000591381C311C08F0EDFF029A039B041C38
:102330000D1C0498059908F0E5FF021C0B1C201CDD
:10234000291C08F059F809F097FD104B18808023DC
:102350001B06F118381C029A039B08F0D3FF009A61
:10236000019B041C0D1C0498059908F0CBFF021C6E
:102370000B1C201C291C08F03FF809F07DFD044BC4
:10238000188007B0F0BDC046A8010020B0010020B1
:1023900024020020F7B50F1C3E680EC878684E4333
:1023A00050433618B8685243584349435B43361884
:1023B0008818C01809F094FD05F0DEFD0D1C0ECF45
:1023C000524349435B43041C8818C01809F088FD38
:1023D00005F0D2FD00900191301C09F081FD009ABA
:1023E000019B061C0F1C201C291C08F08BFF021CE3
:1023F0000B1C301C391C08F01BFB05F061FD03B001
:10240000F0BD00001FB50023012201A90193039331
:102410000292FFF7BFFF024B1860596005B000BD84
:10242000A00100201FB50123019301A900230293FD
:102430000393FFF7AFFF024B1860596005B000BD72
:10244000A801002008B50F20022105F0EBFA0022B8
:102450000F20064904F03CFE1020022105F0E2FAAC
:1024600010200349002204F033FE08BD892100003A
:102470005921000008B50820012105F0D3FA0D20EC
:10248000012105F0CFFA1220012105F0CBFA11202D
:10249000012105F0C7FA1320012105F0C3FA08BD98
:1024A00008B51120012105F017FB08BD08B5112062
:1024B000002105F011FB08BD08B51220012105F02F
:1024C0000BFB08BD08B51220002105F005FB08BD77
:1024D00008B51320012105F0FFFA08BD08B5132047
:1024E000002105F0F9FA08BD08B50D20012105F01D
:1024F000F3FA08BD08B50D20002105F0EDFA08BD7E
:1025000008B50820012105F0E7FA08BD08B5082044
:10251000002105F0E1FA08BD08B5E12102484902B1
:1025200003F000FA08BDC0463808002010B5074C7B
:10253000201C02F0B1FFE288054B1A802289054B6E
:102540001A806289044B1A8010BDC046B401002075
:10255000780200207A0200207C020020F8B50024D6
:10256000124F251C261CFFF7E1FF114B013F0621EE
:102570005A5EBFB2B61808215A5EAD180A229B5E99
:10258000E418002FEFD1301C084907F035FA094B49
:1025900006491880281C07F02FFA074B03491880BA
:1025A000201C07F029FA054B1880F8BD881300009D
:1025B000B4010020B0010020EE0100202402002020
:1025C000F0B58DB0FFF778FF9148002102F04CFF85
:1025D000904C9149201C04F0A7F9FFF7BFFF09A810
:1025E0008E4904F062FE8E4F06A80022B95E0A22D0
:1025F00004F0C7FE06A909A804F038FF011C201C3E
:1026000004F088F906A804F009FE09A804F006FE03
:1026100009A8844904F049FE834E0A220023F15E92
:1026200006A804F0AEFE06A909A804F01FFF011CCD
:10263000201C04F06FF906A804F0F0FD09A804F0CE
:10264000EDFD09A8794904F030FE794A06A8002179
:10265000515E0A2204F095FE06A909A804F006FFBF
:10266000011C201C04F056F906A804F0D7FD09A8A7
:1026700004F0D4FD00217B5E6D4903930022B35E1C
:1026800003AD04930023CB5E281C0593FFF7BAFE2D
:10269000281CFFF7C7FE09A8664904F006FE664B32
:1026A00018685968574B564A08F02CFE564A574B43
:1026B00008F0BEF90B1C0221021C009106A804F0D0
:1026C0008BFE06A909A804F0D1FE011C201C04F011
:1026D00021F906A804F0A2FD09A804F09FFD09A8AD
:1026E000564904F0E2FD564B18685968454B444A78
:1026F00008F008FE444A454B08F09AF90B1C0221E9
:10270000021C009106A804F067FE06A909A804F0BF
:10271000ADFE011C201C04F0FDF806A804F07EFDAF
:1027200009A804F07BFD039A0423E95E10B2082394
:10273000EA5EFFF781FD3E4B0021785E0022B15E2C
:1027400000229A5E0390AA606960FFF7CBFD09A89A
:102750003C4904F0AAFD0022B95E06A80A2204F052
:1027600010FE06A909A804F081FE011C201C04F03B
:10277000D1F806A804F052FD09A804F04FFD09A8FD
:10278000314904F092FD0A220023F15E06A804F00C
:10279000F8FD06A909A804F069FE011C201C04F03C
:1027A000B9F806A804F03AFD09A804F037FD09A815
:1027B000264904F07AFD1E4A06A80021515E0A222D
:1027C00004F0DFFD06A909A804F050FE011C201C3E
:1027D00004F0A0F806A804F021FD09A804F01EFDED
:1027E00003210B4802F040FE194804F0B5FEFFF744
:1027F00069FE184B00221A700DB0F0BDC046C046ED
:102800000000000000806640182D4454FB21094060
:10281000B40100203808002049E4000059E4000019
:10282000B001002061E40000EE01002069E4000036
:102830002402002071E40000A00100207DE40000DB
:10284000A801002089E4000091E4000099E4000060
:10285000881300007E02002008B5011C014804F026
:1028600059F808BD0002002070B5284C86B0201C25
:1028700002F012FE0623E15E0A2203A804F081FDA5
:10288000234D03A9281C04F063FD03A804F0C6FC33
:102890000823E15E0A2203A804F073FD1D4E03A97C
:1028A000301C04F055FD03A804F0B8FC0A220A23EA
:1028B000E15E03A804F065FD174C03A9201C04F099
:1028C00047FD03A804F0AAFC291C684604F036FD65
:1028D000124D6846291C04F0D7FD311C04F0C6FDDA
:1028E000291C04F0D1FD211C04F0C0FD011C03A82B
:1028F00004F024FD03A8FFF7AFFF03A804F08EFC4B
:10290000684604F08BFC06B070BDC046B4010020E0
:10291000F00100206C0200208C010020A1E40000E6
:10292000F0B53C4E87B0041C311C684604F0BDFC79
:10293000311C201C04F0B9FC374F381C02F0CCFBD2
:10294000364D2870381C02F0BDFB354B1870381C12
:1029500002F0AEFB334B2A781870314F092A03D8A6
:102960006846314904F0FCFC694603A804F0E6FC23
:10297000297803A804F09BFD2C4904F085FD011C77
:10298000201C04F05CFD03A804F048FC6846311CE0
:1029900004F0E6FC3B78092B03D86846224904F092
:1029A000DFFC694603A804F0C9FC397803A804F0E9
:1029B0007EFD1E4904F068FD011C201C04F03FFD53
:1029C00003A804F02BFC6846311C04F0C9FC154B2D
:1029D0001B78092B03D86846134904F0C1FC6946EB
:1029E00003A804F0ABFC0F4B03A8197804F05FFDBB
:1029F000011C201C04F023FD03A804F00FFC311C73
:102A0000684604F0ADFC684604F008FC201C07B0E2
:102A1000F0BDC046A5EB00009C010020090000208D
:102A200064020020DC010020A3E40000A5E4000013
:102A30007FB51148002102F023FE104903A804F0DD
:102A400034FC6846FFF76CFF694603A804F00EFDEE
:102A5000011C0B4803F05EFF684604F0DFFB03A88F
:102A600004F0DCFBFFF740FD064B04211A690A4322
:102A70001A6130BF07B000BDB4010020A7E4000018
:102A80003808002000ED00E0F0B5764C8DB0211C38
:102A9000071C684604F009FC211C03A804F005FC8F
:102AA000714D281C02F018FB704E3070281C02F08B
:102AB00009FB6F4B1870281C02F0FAFA6D4B187066
:102AC0003378092B03D868466B4904F049FC694602
:102AD00009A804F033FC317809A804F0E8FC011CD3
:102AE00003A804F0ACFC09A804F098FB6846211C7C
:102AF00004F036FC5E4B1A781E1C092A03D868467F
:102B00005D4904F02DFC694609A804F017FC3178F2
:102B100009A804F0CCFC011C03A804F090FC09A84F
:102B200004F07CFB6846211C04F01AFC514B1A7817
:102B30001E1C092A03D868464F4904F011FC694657
:102B400009A804F0FBFB317809A804F0B0FC011CD3
:102B500003A804F074FC09A804F060FB211C68467B
:102B600004F0FEFB211C06A804F09FFB281C02F0C9
:102B7000D1FA424B1870281C02F0C2FA404B187070
:102B8000281C02F0B3FA3F4B18701D1C092803D80B
:102B90006846394904F0E4FB694609A804F0CEFB15
:102BA000297809A804F083FC011C06A804F047FC5E
:102BB00009A804F033FB6846211C04F0D1FB304B1C
:102BC0001A781D1C092A03D868462B4904F0C8FB53
:102BD000694609A804F0B2FB297809A804F067FC4B
:102BE000011C06A804F02BFC09A804F017FB68469A
:102BF000211C04F0B5FB214B1A781D1C092A03D8AF
:102C000068461D4904F0ACFB694609A804F096FB30
:102C1000297809A804F04BFC011C06A804F00FFC5D
:102C200009A804F0FBFA211C684604F099FB03A9EB
:102C300009A804F083FB09A8134904F025FC011C32
:102C4000381C04F07BFB09A804F0E8FA06A804F09D
:102C5000E5FA03A804F0E2FA684604F0DFFA381C4B
:102C60000DB0F0BDA5EB00009C0100200900002084
:102C700064020020DC010020A3E400000800002022
:102C80000400002005000020CAE50000F0B53B4D1F
:102C900087B0041C291C684604F007FB291C201C73
:102CA00004F003FB364E301C02F034FA354F387016
:102CB000301C02F025FA344B1870301C02F016FA62
:102CC000324B314E1870092803D86846304904F059
:102CD00047FB694603A804F031FB2C4B03A8197885
:102CE00004F0E5FB2B4904F0CFFB011C201C04F091
:102CF000A6FB03A804F092FA6846291C04F030FBF6
:102D00003378092B03D86846214904F029FB69462A
:102D100003A804F013FB317803A804F0C8FB1D4995
:102D200004F0B2FB011C201C04F089FB03A804F092
:102D300075FA6846291C04F013FB3B78092B03D86D
:102D40006846134904F00CFB694603A804F0F6FA40
:102D5000397803A804F0ABFB011C201C04F06FFBC6
:102D600003A804F05BFA291C684604F0F9FA6846E7
:102D700004F054FA201C07B0F0BDC046A5EB0000DB
:102D80009C01002008000020040000200500002015
:102D9000A3E40000C8E4000030B58BB0041C01A817
:102DA000FFF774FF01A904A804F0C8FA0D4904A8AC
:102DB00004F06AFB051C07A8FFF7B2FD07A9281C51
:102DC00004F054FB011C201C04F0B8FA07A804F01E
:102DD00025FA04A804F022FA01A804F01FFA201C26
:102DE0000BB030BDE6EE000010B5144C86B0201CD0
:102DF000002102F0C9F90022201C131C102102F04E
:102E00007FF806221123201C0D2102F0C5F80C4981
:102E100003A804F04AFA6846FFF7BEFF694603A814
:102E200004F024FB011C074803F074FD684604F01D
:102E3000F5F903A804F0F2F906B010BD9C010020DA
:102E4000CAE400003808002008B5092004F078FD25
:102E500007F082FA011C06F06FFE09F0B3F8074B89
:102E6000054A08F04FFA09F0FFF8EA21890507F052
:102E7000EDF808BDC046C0466666666666660A40EE
:102E800030B50F4C85B00F49201C03F04DFDFFF706
:102E9000DBFF051CFFF710FBFA20400004F05CFB91
:102EA000FFF710FB0222291C01A804F07CFA01A9FB
:102EB000201C03F02FFD01A804F0B0F905B030BDCF
:102EC00038080020D7E4000038B5051C0024AC42C7
:102ED0000CD2FFF709FB642004F03EFB0134FFF73E
:102EE00009FB642004F038FBE4B2F0E72C1C092C49
:102EF000ECD8C820013404F02FFBE4B2F7E700005F
:102F000010B50B4C1821201C02F0CCFB002802D17C
:102F10000120FFF7D9FF201C032102F0A5FA201C95
:102F2000072102F0ADFB0349034803F0FDFC10BD8F
:102F3000B4010020E1E400003808002008B5094889
:102F4000042101F083FE031C0748002B05D107492B
:102F500003F0EAFC0220FFF7B7FF054903F0E4FCA9
:102F600008BDC0463006002038080020FAE4000002
:102F700016E5000037B581020A4806F03DFD0A4C0F
:102F8000451E208A228B0021009580B292B20B1C34
:102F900004F038F9ADB280B220822583E37BDB09EF
:102FA000FCD137BD006CDC02002C00421D4A1E4BD8
:102FB00070B51A801D4B5B78DB09FBD11C4C0222DB
:102FC000238893432380E27B194BD209FBD11A88D3
:102FD00092B21A80E27B164BD209FBD11A882021CB
:102FE0000A431A80E27B124BD209FBD11988E022F6
:102FF000D2000A431A80E67B0D4DF609FBD1FFF79C
:10300000B9FF6E736B7B102213436B738022094BE5
:10301000D2021A602B88022213432B80E37BDB0948
:10302000FCD170BD1B400000020C0040000C0040B1
:10303000002C004200E100E0044B02211A888A4380
:103040001A80DA7BD209FCD17047C046002C0042BE
:10305000F0B59BB0FFF724FA11A8FFF715FD864CD9
:1030600011A9201C04F074F911A804F0D7F8226803
:10307000132311A8814901F073FE814C11A9201C72
:10308000FFF79EF87F4B022518685968774B764A00
:1030900008F038F9764A774B07F0CAFC0095021C15
:1030A0000B1C02A804F098F9774B186859686F4B0D
:1030B0006D4A08F027F96E4A6E4B07F0B9FC00958F
:1030C0000B1C021C05A804F087F970490EA804F037
:1030D000ECF80BA8FFF724FC0BA90EA804F0C6F926
:1030E0006B4904F0D1F96B4E0A22051C318811A8F6
:1030F00004F047F9281C11A904F0B8F9664904F056
:10310000C3F902A904F0B2F9644904F0BDF905A9B4
:1031100004F0ACF9011C08A804F010F911A804F09F
:103120007DF80BA804F07AF80EA804F077F808A947
:10313000201C03F0EFFB5A4D11A8291C04F0B5F830
:10314000201C01F043FD011C0EA804F0AEF80EA9EE
:1031500011A804F08BF9534F011C381C03F0DAFB63
:103160000EA804F05BF811A804F058F84E4911A815
:1031700004F09BF80EA8FFF7D3FB0EA911A804F0EA
:1031800075F9011C381C03F0C5FB0EA804F046F8C5
:1031900011A804F043F80A2004F0DEF93088FFF7A4
:1031A00005FF2E1C414D2B78022B0DD1404D2B7865
:1031B000002B02D0FFF7A4F901E0FFF7A7F92B7865
:1031C000012253402B70EDE7311C11A804F06DF87B
:1031D000201C01F0FBFC011C0EA804F066F80EA9EF
:1031E00011A804F043F92F4E011C301C03F092FB90
:1031F0000EA804F013F811A804F010F8FFF71CFF54
:103200002C4911A804F051F80EA8FFF789FB0EA96C
:1032100011A804F02BF9011C301C03F07BFB0EA855
:1032200003F0FCFF11A803F0F9FFAF20800004F0C9
:1032300093F9201C01F0EEFC642004F08DF91E4B84
:103240001A7801321A70FFF761F900232B70FFF72B
:103250002DF908A803F0E2FF05A803F0DFFF02A89C
:1032600003F0DCFF1BB0F0BD0000000000806640F2
:10327000182D4454FB21094058020020300600203C
:1032800000020020A0010020A801002031E500007C
:103290004FE50000060000205FE500007AE5000031
:1032A00094E50000380800209FE500007E02002021
:1032B000B3010020B1E50000FC010020C046C0467B
:1032C00010B5134C2378022B01D1FFF7C1FE2378F0
:1032D000012B01D1FFF774F92378032B03D10D4B98
:1032E0001878FFF7F1FD9620400004F035F9FFF75C
:1032F000EFF8FFF79DFBFFF7F1F8FFF7FBF89620DB
:10330000400004F029F90448072102F0B9F910BD82
:103310007E020020EC010020B401002008B5FFF778
:10332000A3FA034B10219A7B0A439A7308BDC04647
:10333000002C0042F8B5294801F03AFC284801F079
:1033400037FC284E2849301C03F0AFFF274D284C8E
:10335000291C221C301C08F031FF264E2649301C47
:1033600003F0A3FF291C221C301C08F027FF234870
:1033700001F062FD224E0121301C01F08FFF221C62
:10338000301C204908F01AFF1F4E204F311C381CFA
:1033900003F08BFF291C221C381C08F00FFF1C4F68
:1033A000311C381C03F081FF291C221C381C08F03A
:1033B00005FF184F311C381C03F077FF291C221C15
:1033C000381C08F0FBFE144F311C381C03F06DFF55
:1033D000381C291C221C08F0F1FEF8BD0002002058
:1033E0002802002058020020C2E500001D720000E3
:1033F000000000204C020020CFE500009C010020CE
:10340000B401002025210000A5EB0000F001002000
:103410006C0200208C010020E0010020F8B53A4C3D
:103420003A49201C03F06AFA00252E1C384A13780A
:10343000002B62D1374C2378002B06D0FFF730F8F1
:10344000FFF746F8FFF738F805E0FFF72FF8FFF72A
:1034500045F8FFF737F8237801277B40C820237011
:1034600004F07AF8284802F0D5F92C1C00283DDD3C
:10347000254802F0F7F9F619041C303CF6B2E4B224
:103480003E4202D00A235C43E4B2731E7343022B14
:1034900005D16519E9B2204801F06EFD26E00C2B3C
:1034A00005D16519E9B21C4801F052FD1EE01E2B42
:1034B00005D16519E9B2184801F036FD16E0382B40
:1034C00005D16519E9B2144801F006FD0EE05A2B4A
:1034D00005D16519E9B2104801F0EAFC06E0842B39
:1034E00004D16519E9B20C4801F0D0FC0C2E02D1D0
:1034F000074A01231370251C98E7FEF7D7FFFEF754
:10350000EDFFFEF7DFFFF8BD380800204EE60000B3
:10351000B2010020B30100209C0100207FB5FEF71E
:10352000A9FFFEF78FFFFEF7F7FFFFF7E9FCFFF7B4
:1035300005FDFFF759FCFEF7DDFFFEF7E7FFFFF79C
:103540006DFF0E4903A803F0B0FE6846FFF724FCA8
:10355000694603A803F08AFF011C094803F0DAF961
:10356000684603F05BFE03A803F058FEFEF73AFE40
:10357000044B00221A7007B000BDC04681E600006F
:10358000380800207E020020F8B5051C0F1C161C10
:103590000024B44208D02B68395D1B68281C98476A
:1035A000002801D00134F4E7201CF8BD704708B5AD
:1035B000183003F031FA08BD08B5183003F040FAAE
:1035C00008BD38B5837D0D1C002B06D0041CC43407
:1035D000201C03F04BFA002801D0002004E0201C3E
:1035E000291C03F000FA012038BD08B5183003F09B
:1035F00030FA08BDF7B50193FA239B0083600B4BAB
:1036000000250833041C4560036018300F1C161C8D
:1036100003F0DCF9201CC43003F0D8F9019B2761CA
:103620002675A575201C6375FEBDC04690E600009A
:1036300070B50D49041C006903F054FC206903F0C7
:10364000E9FA1826207D331C4343084D0821EB1866
:10365000595604F089FA607D08214643AD19695630
:1036600004F082FA70BDC046A086010018E7000091
:10367000F7B5041C00200E1C151C0193824231D0AA
:10368000271C1837381C03F0C0F92069311C0122AF
:1036900003F0FCFA002823D0206903F066FB011C2C
:1036A000381C03F0A0F901262069AE420ED003F0C9
:1036B000CDFA0221206903F0D3FA206903F055FB0B
:1036C000011C381C03F08FF90136EDE703F0B6FA60
:1036D000019B002B05D02069032103F0C1FA00E013
:1036E000051CE8B2FEBD08B50123FFF7C1FF08BD08
:1036F00010B5B8235B00C154041CC43003F085F935
:103700000123A37510BDF8B50022B82382755B00B4
:10371000041C0F1CC15C006903F0B8FA002805D135
:103720002069032103F09CFA02251DE0261CC43603
:10373000301C03F085F900280FD0301C256903F0F8
:103740006BF9C1B2281C03F0D0FA0028EED1206931
:10375000032103F085FA032506E0051C002F03D0A2
:103760002069032103F07CFA281CF8BD08B501216B
:10377000FFF7C9FF08BD38B5041C006903F0D3FA90
:10378000002879D0206903F0DCFA00280ED12069E6
:1037900003F0E1FA00281FD0206903F0D7FA0028CF
:1037A0001AD0206903F0DCFA002815D1206903F053
:1037B0004DFA2069032103F053FA231CFC33DD6F1B
:1037C000002D04D02368201C9B689847A847201C24
:1037D000183003F01AF94FE0206903F0BCFA031C1B
:1037E0002069002B16D003F031FA2069032103F081
:1037F00037FA206903F0B4FA00283DD0201CC43009
:1038000003F003F90123A375FC34A36F002B33D01D
:10381000984731E003F090FA00282DD0206903F09A
:103820009FFA251C00280FD0C435281C03F008F986
:10383000FF21002803D0281C03F0EEF8C1B2206954
:1038400003F064FAA07517E01835281C03F00EF990
:10385000031C2069002B02D003F0F0F908E003F00C
:1038600084FA011C281C03F0BEF8206903F0EEF96D
:103870002069032103F0F4F938BD000008B50248BF
:10388000FFF779FF08BDC0468002002008B5034855
:10389000034914221523FFF7ADFE08BD8002002066
:1038A00020080020437A002B04D18372C372C360C6
:1038B00001234372704730B585B0041C02AD006827
:1038C0000291039203F082F96B79E179227A0093F5
:1038D0002068002303F0E2FA29792068029A03F0B5
:1038E00045F9206803F068F905B030BD70B5041CD7
:1038F0001826FFF7D7FF2079331C43430D4D0821CD
:10390000EB18595604F030F9A079331C43430821D1
:10391000EB18595604F028F9607908214643AD198F
:10392000695604F021F9044B201C06CBFFF7C3FFB6
:1039300070BDC04618E70000FC03002007B5837A7D
:1039400000910192002B0DD09A0706D5EFF310835A
:103950005A425341C37272B604E0DA0702D5828933
:10396000034B9A600099019AFFF7A5FF07BDC04677
:1039700000180040837A002B0BD09A0704D5C37A35
:10398000002B06D062B604E0DA0702D58289014B2B
:10399000DA6070470018004008B5006803F01FF9AE
:1039A00008BD0000094B0A4A0A491A6000225A71F0
:1039B0001A71094B19601621197118219971172173
:1039C000597101215A72D9711A727047FC03002093
:1039D00000093D00300800200404002008B5011C47
:1039E0000148FFF7D9FF08BD0404002008B50248CC
:1039F000FF21FFF7D1FF08BD0404002008B5012115
:103A0000007904F069F8054B1A78002A04D00022E6
:103A100003481A70FFF7AEFF08BDC0461C04002023
:103A20000404002010B5084B041C1A78002A06D1A3
:103A300001221A70054B064806CBFFF77FFF20795D
:103A4000002104F049F810BD1C04002014040020DB
:103A50000404002010B58379041C002B0DD02389A9
:103A60005A1C2281054A934202D8FFF7BFFFF6E7AE
:103A7000201CFFF7C3FF0023A37110BD010200004B
:103A800000B5062903D91623437100201CE00F4B13
:103A9000052913D8081C002205F056FF0305070965
:103AA0000B0D0B4908E00B4906E00B4904E00B49FC
:103AB00002E00B4900E00B49196002E00A4A1A6073
:103AC00000221A715A71012000BDC0461404002062
:103AD000001BB70000093D0080841E0040420F001B
:103AE00020A1070090D0030048E8010038B50C1C65
:103AF00003F02CFD051CFFF779FFFF2808D003F029
:103B000025FDABB280B2C01AA042F4DB002000E079
:103B1000012038BDF8B5041C0E1C171CFFF79AFFD6
:103B2000201CFFF77FFF96214900201CFFF7DEFFD6
:103B300040203043FFF752FF1825381CE840C0B240
:103B4000083DFFF74BFF2B1C0833F6D19520002EC4
:103B500003D08720082E00D0FF20FFF73FFF00256D
:103B6000FFF744FF43B2E072002B04DAFF2D02D0CE
:103B70000135EDB2F4E7F8BDF7B500250271057324
:103B8000857285714571041C019103F0DFFC0121F0
:103B900087B2207903F046FF0121207903F09CFFD2
:103BA000434E301CFFF7A2FE424B43491D715D712D
:103BB0001960301C5A68FFF7C1FE0A25013DFF203D
:103BC000EDB2FFF70BFF002DF8D1301CFFF7D2FE4E
:103BD000201CFFF727FF0021201C0A1CFFF79AFF7B
:103BE000061CE072012809D003F0B0FCC01BFA23C8
:103BF00080B2DB009842EED901233CE0D522201CA4
:103C000008215200FFF786FF0423184201D02673D3
:103C10000BE01E1CFFF7EAFE013EF6B2E072002E3A
:103C2000F8D10223AA2826D12373267B023E7342B1
:103C30005E41B60737210022201CFFF76BFF321CC4
:103C4000201C2921FFF766FF021CE07209D003F057
:103C50007DFCC01BFA2380B2DB009842EAD908231E
:103C600009E0237B022B19D1201C3A21FFF752FFD8
:103C7000002805D006236371201CFFF7BFFE15E066
:103C8000FFF7B4FEC0231840984201D103232373E9
:103C9000FFF7ACFEFFF7AAFEFFF7A8FE201CFFF718
:103CA000ADFE201C0199FFF7EBFE051C281CFEBD94
:103CB000040400201404002090D0030038B5041C34
:103CC00003F044FC051CFFF791FEE072FF280AD1C7
:103CD00003F03CFCABB280B2C01A96235B00984262
:103CE000F1DD0F2302E0FE2806D00D23201C6371B6
:103CF000FFF784FE002000E0012038BDF8B5041C69
:103D00000F1C151C1E1E45D09A1880239B009A423A
:103D100042DC8379002B05D00268914202D10389ED
:103D2000AB4216D9237B2760032B00D07F023A1CBD
:103D3000201C1121FFF7EEFE071E02D00323637142
:103D40002AE0201CFFF7BAFF002825D00123278195
:103D5000A3712389AB4205D2FFF748FE23890133C3
:103D60002381F6E7069D069AAB1A9BB2B34204D2B2
:103D7000FFF73CFE28700135F5E72389A27AF31896
:103D80009BB22381002A02D0064A934202D9201C0A
:103D9000FFF760FE012003E0201CFFF72FFE00204C
:103DA000F8BDC046FF01000007B5802300929B00CC
:103DB0000022FFF7A3FF0EBD70B5051C081C161CE2
:103DC000FFF70CFE0024305DFFF708FE013480236E
:103DD0009B009C42F7D1FF20FFF700FEFF20FFF77A
:103DE000FDFDFFF703FE1F23E87203400120052BB2
:103DF00005D01123281C6B71FFF700FE002070BD59
:103E000070B50B1C041C161C002901D1122328E0DC
:103E1000027B032A00D04B02201C18211A1CFFF73A
:103E200079FE051E01D004231BE0201CFE21321C5C
:103E3000FFF7C2FF002815D09621201C8900FFF74C
:103E400055FE002801D115230BE0201C0D212A1C52
:103E5000FFF760FE002803D1FFF7C8FD002806D059
:103E600014236371201CFFF7C9FD002003E0201C10
:103E7000FFF7C4FD012070BD034B044A1A60002205
:103E80005A711A717047C0461404002000093D00A1
:103E9000021C10B50C32041C0121406A00F0F6FC33
:103EA00000280AD0236A0120002B06D1E368227A79
:103EB000236280235B421343237210BD70B5041C40
:103EC000FFF7E6FF002801D100201BE0636AE668E7
:103ED0001A7C023E96405A691D79B618002D08D00A
:103EE000701E401900F01EFC0028EDD0013DEDB21F
:103EF000F4E7636A01201A7C80239B009340E26907
:103F0000D318E36170BD000010B5041C406900F0D7
:103F1000E5FB002803D0207E014B4001C01810BDF6
:103F20002C040020F0B5002387B0071C0E1C2022B3
:103F3000F25401330B2BFAD10721002501913C7873
:103F4000002C2AD02E2C06D1019B0A2B2BD00A2123
:103F5000082501911FE002A81449102208F095F9E4
:103F6000002302A9CA5C002A03D00133A242F8D17F
:103F700019E0019B9D4216D8231C213B5D2B12D8D2
:103F8000221C6B1C613ADBB27519192A01D8203C3E
:103F9000E4B22C701D1C0137D1E730782038431E65
:103FA0009841C0B200E0002007B0F0BDB0E60000CC
:103FB00038B5427A041C0D1C002A01D000201FE0F5
:103FC0004B1CDB7F102B06D10223437202624B8C09
:103FD0005B01C3610CE0202BF0D103234372496ADB
:103FE000221C01621C32281C00F0EAFB0028E5D0EC
:103FF0000023012065622072E36023616361237600
:1040000038BD0000F0B5437A85B0041C0E1C039245
:10401000002B01D13A4811E0037AD807FAD5E269BA
:1040200020690399131A994201D99BB2039303990A
:104030000291029B002B04D1039988B200B205B013
:10404000F0BD2369617ADF05FF0D5A0A606A022913
:1040500002D1416A51181BE00579013D2A40D5B2D1
:10406000002F0DD1002D0BD1002B02D1226AE2606E
:1040700006E0221CE1680C3200F072FB0028C9D077
:10408000636AE1681A7C02395B699140C918491971
:104090008022029D9200D31B9D4200DD9DB2237AB7
:1040A000580601D4954218D1164B1B68994214D07A
:1040B000154B3A1C186800962B1CFFF71FFE0028B2
:1040C000A8D0761901E0DF1BF6192169029A4B1975
:1040D000551BADB223610295ABE7081C002100F02F
:1040E000FDFA002896D0094B321CFF1879193B1CA9
:1040F0008B42E8D01878013310700132F8E7C046DF
:10410000FFFF00000C000020280400202C040020E9
:1041100073B5437A041C012B01D8002016E0036913
:104120006D460735DE05291C0122360FFFF76AFFB1
:10413000012801D12B7800E0054B1BB20133ECD0F4
:10414000236970011F332361024BC01876BDC0463E
:10415000FFFF00002C04002070B5041C407A0D1CE9
:1041600000282AD0E269914201D9002025E00228E6
:1041700021D0002D01D1E5601DE0626A2169137C28
:10418000681E09334A1ED840DA40031E934201D309
:10419000002902D1226AE26000E0831A1E1C002E70
:1041A00009D0221C606AE1680C3200F0D9FA013EA5
:1041B0000028F4D101E02561012070BD38B5051C4F
:1041C000407A002833D02B7A7F2B2DD9281C01214F
:1041D000FFF79AFE041E2AD06B7A012B07D82B7F9B
:1041E00003776B7F4377AB7F8377EB7FC3772B6A54
:1041F0009AB21B0C23751B0A63750D4BA2761B68C4
:10420000120AE276002B0BD0201C211C183016312C
:104210009847637E227E1B021343A3741B0AE37438
:104220002A7A7F2313402B7200F02EFAFFE738BD65
:104230002004002010B5041CFFF7C0FF002802D0A6
:1042400000236372012010BD73B5427A041C0D1C5B
:104250000020012A4BD1207A0223184047D0E3697D
:104260000020994243D8101C002B40D0201C291C50
:104270002669FFF771FF002825D0606A002D06D15E
:10428000216A00F067FB00281DD025621DE0E1686F
:1042900001AA00F065FA002815D0606A0199431C54
:1042A000DB7F102B01D1124B00E0124B99420CD254
:1042B00000F050FB002806D0606AE1680E4A00F06A
:1042C000A1FA002801D1002011E0227A80235B426C
:1042D0001343E5612372201CFFF770FF0028F2D022
:1042E000291EB14200D9311C201CFFF735FF76BDD5
:1042F000F8FF0000F8FFFF0FFFFFFF0F38B5234B5B
:10430000151C4A01D318041CD87A1122104204D07B
:104310004222154201D0002036E01D4A2176126863
:1043200062615A7D187DD97E12020243987E09028D
:104330001204014311432162D87A182202400CD1A1
:104340005A7F197F12020A43997FDB7F09040A43CF
:104350001B061343E361012309E0102ADBD1221C71
:10436000606A1C3200F02CFA0028D4D00423637257
:104370000F2300212B402372E160216101206A0696
:1043800002D5201CFFF760FF38BDC0462C0400207A
:104390000C000020F0B5457A87B0041C0E1C019378
:1043A000002D00D086E0101C03A9FFF7BBFD0028FC
:1043B00000D180E0726A2F1C6262F560356133695A
:1043C000F269934226D2DB051B0F301C0093FFF7E6
:1043D0009FFE011E6FD00378002B01D0E52B0BD17F
:1043E000002F04D1009B2376344B1B6863610B784C
:1043F0000127002BE3D10DE003A80B2207F036FFC5
:104400000028DCD1019A30231340302B53D0201CDC
:1044100000994BE0019A12231340122B4BD1002F2D
:1044200006D0201C0121FFF76FFD061E0AD142E0D5
:10443000737A022B3FD0301CFFF740FD00283AD0A2
:104440001F4E277600212022301C07F040FF301C31
:1044500003A90B2207F019FF1A4B1B68002B05D08C
:10446000301C311C10300E31984706E02122327486
:10447000B373282208237274F373737C327C1B029B
:104480001343FF221A401B0AF3747376F37BB27452
:104490003276B27B1B021343B3751B0AF37500F02F
:1044A000F3F8002807D0217E019A201CFFF726FF91
:1044B000051C00E00025281C07B0F0BD0C00002002
:1044C0002C04002020040020F0B5437A87B0041C9F
:1044D0000D1C0392012B0DD1037A99070AD55A07B7
:1044E0000CD5E16922698A4208D0201CFFF734FE0E
:1044F000002803D1012363600020AAE0039B0193FD
:104500003BE0606A730A0779F605013F1F40FFB27E
:10451000F60D002F36D080229200921B019992B2A4
:104520000B1C914200D9131C9BB20293636AE16891
:104530001A7C023991405A698B18029ADF1980233C
:104540009B009A423FD1444B1968B94202D10122E3
:1045500052421A60414B391C18682A1CFFF750FC64
:104560000028C7D080229200AD180199029A8B1AB8
:1045700021699BB201938B182361019A2669002A55
:10458000BFD149E0002EC6D1E168002903D1236ADA
:10459000002B16D10FE005AA00F0E2F8002858D051
:1045A000626A059B0132D27F102A01D12C4A00E0B9
:1045B0002C4A934205D3201CFFF76AFC0028AAD19D
:1045C00098E7E360A7E7002E0FD12369E1698B42EA
:1045D0000BD300F059F800288CD01F4B01211F602D
:1045E000214B1A780A431A7006E0381C012100F0AA
:1045F00075F8002800D17DE71C4B2A1CF618029B99
:10460000F118331C8B4204D010780132187001333A
:10461000F8E79E1BAD19A8E7E169237A8E4201D91C
:10462000E66106E0124A1268002A06D0039A002AC0
:1046300003D08022524213432372237A190701D4F4
:10464000039806E0201CFFF7B9FD002800D151E7D0
:10465000F6E707B0F0BDC0460C000020280400209B
:10466000F8FF0000F8FFFF0F2C0600202C040020AC
:104670002004002007B56B46D9710733191C0122AD
:10468000FFF722FF0EBD0000F8B50F4F01203B7869
:10469000002B18D00D4E0E4B0E4D196830682A1C99
:1046A000FFF7AEFB00280ED00B4C2168002907D085
:1046B00030682A1CFFF7A4FB002804D000232360E5
:1046C00000233B700120F8BD2C06002028040020A8
:1046D0000C0000202C0400202404002070B50D4D97
:1046E000041C2B680E1C83420ED0FFF7CDFF002860
:1046F00001D100200DE0084B211C1868074AFFF784
:1047000053FB0028F5D02C60054B01201A78164386
:104710001E7070BD0C000020280400202C04002016
:104720002C06002010B5041CFFF7AEFF00280FD0A8
:104730000023084A002199548022013392009342B9
:10474000F7D1054B01201C60044B1A7802431A7004
:1047500010BDC0462C0400200C0000202C060020B8
:10476000C36870B501330C1C151C994201D9002097
:1047700021E0461CF17FC269E309102900D1230A18
:1047800098180D4B1B68984207D1F27F0B4B102AEB
:1047900009D1E4B264001B5B0BE00021FFF79EFF30
:1047A0000028F2D1E3E77F221440A4001B591B012B
:1047B0001B092B60012070BD0C0000202C04002080
:1047C00073B5051C0191161C0024281C019901AA2F
:1047D000FFF7C6FF002810D02A7C80239B0093405F
:1047E000E4186B1CDB7F019A102B01D1034B00E016
:1047F000034B9A42E9D33460012076BDF8FF0000F4
:10480000F8FFFF0FF7B5051C0C1C0192012932D9E6
:10481000C3680020013399422ED86F1CFA7FEE69DD
:10482000CB09102A00D10B0A9E19144B1B689E421B
:1048300008D1FA7F124B102A0BD1E4B2019A64001E
:104840001A530BE0301C0021FFF748FF0028F0D17D
:1048500012E07F221440019AA4001A51094B012052
:104860001A7802431A702B7E834205D9AB68F6187A
:10487000054B1E6000E00020FEBDC0460C0000207D
:104880002C0400202C06002024040020F0B515681C
:1048900087B0061C0291171C002D03D000210135A2
:1048A000019106E0029B0568013B5A425341DBB28D
:1048B0000193F2680023013203922C1C00930099AB
:1048C000F268914221D2039B9C4201D90224251C0B
:1048D000301C211C05AAFFF743FF002815D00599BD
:1048E000631C002901D01D1C03E002995A1B8A4257
:1048F00004D0009A1C1C01320092E0E7301C211CFD
:10490000134AFFF77FFF00280BD100201DE0631E34
:10491000301C191C221C0093FFF774FF0028F4D0F0
:10492000009CAC42F3D83968002906D101993D605A
:10493000002909D00135356006E0301C2A1CFFF73C
:1049400061FF0028F2D1E0E7012007B0F0BDC046CA
:10495000FFFFFF0F022337B5051C0C1C0360281C4A
:10496000211C01AAFFF7FCFE002812D0281C211CE4
:104970000022FFF747FF00280BD06B1CDB7F019C58
:10498000102B01D1044B00E0044B9C42E7D30120E3
:1049900000E000203EBDC046F8FF0000F8FFFF0F1A
:1049A000F8B5444B041C151C196029D0042A01D900
:1049B00000207DE00020011CFFF790FE0028F7D0CA
:1049C0002D013D4BA935FF355D19AA79AB1D500668
:1049D000EED1EA7CA97C12020A43297D09040A432C
:1049E000697D09060A43632AE2D9AA7BED7B2D0281
:1049F00015439A7ADB7A120415431B061D43D7D060
:104A0000281C0021FFF76AFE0028D1D02A4B197B11
:104A1000DA7A09021143802292009142C8D11A7CAD
:104A2000002AC5D0D9890029C2D0597B0029BFD01E
:104A30002276002221712274227C01209040814242
:104A400004D0501C2074072AF6D9B1E7D98A00296E
:104A500000D1596AA160D8892818E0611F693E0217
:104A6000360C6684B7B21E7C71430E181348790168
:104A700009184912711866626161187DDE7C0002B6
:104A8000304300D1186A6D1A2818D040021CE0602B
:104A90000B48611C824201D80C2307E0094882427E
:104AA00001D8102302E0DB6A63622023CB77012068
:104AB000F8BDC046280400202C040020FF0100009F
:104AC000F40F0000F4FF000013B502686B46D971C3
:104AD00007335468191C0122A04716BD38B5041CC1
:104AE000006A0025A84202D1012363600AE0456004
:104AF00092B2FFF7E9FC236A5B68002B02D0012326
:104B00006360281C38BD006A08B5002801D0FFF793
:104B100055FB08BD13B56C460734211C0122FFF775
:104B200071FA012801D1207800E0014800B216BDD9
:104B3000FFFF0000006A08B5002802D0FFF7EAFF77
:104B400001E00120404208BD38B5051C006A00287C
:104B50000AD0FFF7DFFF041C631C05D0286A016937
:104B60000139FFF7F9FA201C38BD0000F8B5FA2327
:104B70009B0083600D4B00250833041C45600360D7
:104B800028200F1C161C07F05DFB2062A8420AD0EB
:104B9000391C282207F079FB201C1030311C0C2214
:104BA00007F095FC2577201CF8BDC046D0E6000034
:104BB000FA2292008260044A0023083243600260B5
:104BC000036203747047C046D0E60000103070479F
:104BD000036A002B01D0186901E0012040427047B0
:104BE000006A002800D0C0697047000038B5041C76
:104BF000006A00280BD0201CFFF7F2FF051C201CC8
:104C0000FFF7E6FF024B281A984200D9181C38BD5E
:104C1000FF7F000010B5041C006A002806D0FFF7D3
:104C200009FB206A07F018FB0023236210BD38B58A
:104C30000122051C0C1CFFF7B3FE021C0120002AF8
:104C400003D1281C211CFFF7ABFE38BD38B50A1C68
:104C50000121041CFEF790FF002801D100200FE085
:104C6000251C1035281C211CFFF7E1FF0028F5D07A
:104C7000201C3830291CFFF79BF9431E9841C0B215
:104C800038BD00004B6843600A4B03600B7A037227
:104C90004B7A4372CB68C3600B6903614B69436114
:104CA0000B7E0376CB69C3610B6A496A036241627A
:104CB0007047C046C8E60000F0B59DB0051C38310D
:104CC00008A802920393FFF7DDFF244A12AF0023E6
:104CD000029C7B6012927B7208AE201C2F2107F091
:104CE000DBFB00282ED023782F2B01D10134F4E7F1
:104CF000001BC0B2031C0C2800D90C23DBB21A1C09
:104D0000211C04A8019307F0E2FB019A002304A9E7
:104D1000381C8B54FFF78EFA381C311C04AA01236F
:104D2000FFF738FB002804D10C4B68602B606872D9
:104D300010E0019B301CE418FFF77CFA331C3E1C8A
:104D40001F1CCAE70299039A641A1460281C311CBC
:104D5000FFF798FF281C1DB0F0BDC046C8E6000054
:104D6000F0B5A3B0051C1F1C04A803AB161C0191D1
:104D7000FFF7A2FF039BF6183378002B07D104A995
:104D800018A8FFF77FFF281C18A91E4A34E000234B
:104D90000EAC636063726B4619331B4A1B780E922C
:104DA000002B03D1281CFFF703FF27E0023B012B58
:104DB00009D80199201C3831321C3B1CFFF7EAFA54
:104DC00000280BD1EEE7201C04A9321C3B1CFFF786
:104DD000E1FA0028E6D004A8FFF72CFA06231F42C8
:104DE00003D0201C1599FFF7B7F9211C18A8FFF76D
:104DF00049FF281C18A9321CFFF7B8FE281C23B055
:104E0000F0BDC046C8E40000C8E60000084B02211F
:104E10001961191C002230310A7006495A719A71C1
:104E20009A721A73DA63996341331A707047C046F5
:104E300030060020C8E60000002303707047000021
:104E400008B5044B1B68002B00D09847024B012289
:104E50001A7208BD94060020001400400378002B4D
:104E60000AD0064B081C197F0722104091430143CA
:104E700019779A7AD209FCD17047C04600140040D5
:104E8000014B19607047C046940600200378002B40
:104E90000AD0064B081C19693F2210409143014378
:104EA00019619A7AD209FCD17047C04600140040BB
:104EB0000378002B0BD0064B3F2211408A01186962
:104EC00004490140114319619A7AD209FCD1704713
:104ED000001400403FF0FFFF0378002B0BD0064B7F
:104EE0001F2211400A031869044901401143196146
:104EF0009A7AD209FCD1704700140040FF0FFEFFE0
:104F000070B5161C0278041C0D1C002A0AD0191C4E
:104F1000FFF7BCFF201C311CFFF7CAFF201C291C17
:104F2000FFF7DAFF70BD00000378002B0BD0064BB3
:104F30001F2211404A0418690449014011431961B4
:104F40009A7AD209FCD1704700140040FFFFC1FFDC
:104F50000378002B0BD0064B0F2211408A051869ED
:104F600004490140114319619A7AD209FCD1704772
:104F700000140040FFFF3FFC0378002B09D0054BD5
:104F80008A06196989018909114319619A7AD20936
:104F9000FCD170470014004070B51D1C0378041C40
:104FA000161C002B09D0FFF7BFFF201C311CFFF798
:104FB000CFFF201C291CFFF7DFFF70BD0378002BFB
:104FC0000AD0064B081C99693F22104091430143C7
:104FD00099619A7AD209FCD17047C046001400400A
:104FE0000378002B0BD0064B3F2211408A019869B1
:104FF00004490140114399619A7AD209FCD1704762
:10500000001400403FF0FFFF0378002B0BD0064B4D
:105010001F2211400A039869044901401143996114
:105020009A7AD209FCD1704700140040FF0FFEFFAE
:1050300070B5161C0278041C0D1C002A0AD0191C1D
:10504000FFF7BCFF201C311CFFF7CAFF201C291CE6
:10505000FFF7DAFF70BD00000A4B0B4A9A605A78DE
:1050600052B2002AFBDB0949064A51605A7852B213
:10507000002AFBDB0649034A51805A78D209FCD149
:105080007047C046000C00400204000002051100F9
:10509000044200000378002B05D0034B034A5A80DA
:1050A0009A7AD209FCD17047001400400080FFFFBB
:1050B00008B5FFF7EFFF024B18693F23184008BD02
:1050C0000014004008B5FFF7E5FF024B1869000522
:1050D000800E08BD0014004008B5FFF7DBFF024B4F
:1050E0001869C003C00E08BD0014004008B5FFF7E2
:1050F000D1FF024B18698002C00E08BD00140040A9
:1051000008B5FFF7C7FF024B18698001000F08BD03
:105110000014004008B5FFF7BDFF024B1869800E70
:1051200008BDC04600140040044B02211A888A437F
:105130001A809A7AD209FCD17047C0460014004008
:10514000044B02211A880A431A809A7AD209FCD1A8
:105150007047C04600140040044B01211A880A43DE
:105160001A809A7AD209FCD17047C04600140040D8
:10517000044B01211A888A431A809A7AD209FCD1F9
:105180007047C04600140040F7B52B4B0F1C9A69BE
:1051900020210A439A61294A294B0026051C9A823C
:1051A000284CB7420AD1284B1A7870231A4240D0B3
:1051B00023881A073DD5226901260192281CFFF792
:1051C0004BFF281CFFF7B0FF281CFFF7C5FF6288C4
:1051D0001E4B134063801E4B2380A27A194BD209C9
:1051E000FBD11C4A08211160C021890050580002DF
:1051F000000A5050DA7901210A43DA711A7F072137
:105200008A431A77A37ADB09FCD1281CFFF798FFA1
:10521000281CFFF7ADFF002F02D001232B70F7BD34
:10522000002EFAD0074B019A1A61A37ADB09FCD150
:10523000F3E73E1CC2E7C04600040040CE06000073
:10524000000800400014004038040040FFBFFFFF8A
:10525000080A000000E100E038B528220C1C051CFB
:10526000081C002107F033F8201C08490B2207F026
:105270002EF90023E372ED690122636200232561A8
:10528000E2606261A361E361236238BDF0E6000081
:1052900008B50368C9B21B68984708BD074B821C54
:1052A0000833036001235B42C361D177C21CD3770B
:1052B000FF21021DD177421DD3777047F8E6000029
:1052C000F7B5421D019100921F23D356051C0727F5
:1052D0000024013303D11448FEF75EFB22E0009B5B
:1052E0001F2018560021012602F0F6FB019A311CFE
:1052F000EB1C1F20B9401856114002F0EDFB009B3B
:105300001F201856311C02F0E7FB2B1D1F206400E4
:105310001856E4B202F010FC002800D03443013FDC
:10532000DDD2201CFEBDC04604040020F0B51F23C2
:10533000851CEB5685B0041C0F1C161C013312D1C2
:10534000431CD97F8069FEF7D3F9A069391C036833
:105350001B689847A069311C03681B689847A069BF
:10536000FEF704FA29E0421D01921F23D3560133B0
:1053700008D16A4600235373137311481149039AE5
:10538000FEF7DCFA1F202856002102F0A5FB7F2142
:105390003940201CFFF794FF311C201CFFF790FFC1
:1053A0001F202856012102F097FB019A1F23D35694
:1053B000013302D10248FEF7DDFA05B0F0BDC04668
:1053C0000404002020A10700F7B51F23851CEB561D
:1053D000041C0F1C013317D1451CE97F8069FEF7BF
:1053E00087F9A069391C03681B689847A069FEF714
:1053F000BDF9E97FA0690122FEF775F9A06903688C
:10540000DB689847C4B228E0461D1F23F3560133DA
:1054100008D16A4600235371137111481149019A4A
:10542000FEF78CFA1F202856002102F055FB802140
:105430003943201CFFF744FF201C0021FFF740FFE9
:10544000041C1F202856012102F046FB1F23F3569F
:10545000013302D10248FEF78DFA201CFEBDC04682
:105460000404002020A1070038B50D1C2321041CD2
:10547000FFF7AAFF3023021C9A432D012A43D2B220
:10548000201C2321FFF752FF38BD08B52321FFF769
:105490009BFF8006800F08BD73B51F23851CEB564C
:1054A000041C01333ED1451CE97F8069FEF720F9D9
:1054B000A821A069FFF7ECFEA069FEF757F90622C4
:1054C000E97FA069FEF70FF9A0690368DB689847D8
:1054D000E080A0690368DB6898470622A35E80B27B
:1054E00000021843E080A0690368DB6898472081C8
:1054F000A0690368DB6898470822A35E80B20002B7
:1055000018432081A0690368DB6898476081A0691F
:105510000368DB6898470A22A35E80B20002184342
:1055200060814CE0461D1F23F356013308D16A46C3
:105530000023537113713A483A49019AFEF7FEF974
:105540001F202856002102F0C7FAE821201CFFF78F
:10555000B7FEFF21201CFFF7B3FEFF21E080201CD7
:10556000FFF7AEFE0622A35E00021843E080FF2193
:10557000201CFFF7A5FEFF212081201CFFF7A0FEC5
:105580000822A35E000218432081FF21201CFFF7A0
:1055900097FEFF216081201CFFF792FE0A22A35E86
:1055A0000002184360811F202856012102F094FA5E
:1055B0001F23F356013302D11948FEF7DBF9201CF3
:1055C000FFF763FF032807D0022807D0012808D07F
:1055D000002808D0012007E0134805E080204001A2
:1055E00002E0124800E0124804F05AFE051C0623AF
:1055F000E05E04F055FE291C04F002FCE060082285
:10560000A05E04F04DFE291C04F0FAFB20610A2381
:10561000E05E04F045FE291C04F0F2FB606173BDFE
:105620000404002020A1070055050000FE1F000013
:10563000FC3F000070B524260C1C051C321C081C05
:10564000002106F044FEEB69281C63600123A3607F
:10565000002323612660FFF71FFFE868074904F075
:10566000F5FC60612869054904F0F0FCA0616869F7
:10567000024904F0EBFCE06170BDC0460AE81C4141
:1056800038B50D1C2021041CFFF79EFE0F23021CC1
:105690001A402D012A43D2B2201C2021FFF746FEDA
:1056A00038BD000038B5431C851C041CD9771F2069
:1056B0002856431C03D1A069FDF7BAFF1FE0012162
:1056C00002F00AFA1F202856012102F0ABF9631DEF
:1056D0001F201856431C03D11A48FEF707F90EE0A5
:1056E000012102F09FF9E31C1F201856012102F04E
:1056F00099F9231D1F201856002102F093F9201C50
:105700000F21FFF761FE0023332818D10722201C48
:105710002021FFF70BFE201C0721FFF7B1FF201C03
:1057200023218822FFF702FE201C22211022FFF7EE
:10573000FDFD201C1F218022FFF7F8FD0123181C0E
:1057400038BDC0460404002008B5024801F038FC0A
:1057500008BDC0469806002008B5024801F030FC9C
:1057600008BDC0465C070020F7B5164F1649381C27
:1057700001F08CF91549164801F088F915491648C9
:1057800001F084F91549164801F080F915491648C9
:1057900001F07CF9154D03260124281C144901F061
:1057A00075F9391C0096231C01940022114801F060
:1057B000E3FB0096291C01941F221E230E4801F0D2
:1057C000DBFBF7BD2408002000080042000C00426B
:1057D00028080020001000422C080020001400427D
:1057E0002008002000180042300800203408002063
:1057F000001C0042980600205C0700203F207047F4
:1058000013B502686B46D97107335468191C01221D
:10581000A04716BD08B50069022100F027FC08BDAD
:1058200008B50069032100F037FC08BD38B50D1C30
:10583000041C131C006903212A1C00F029FD002808
:1058400001D10123636038BD10B5054C23685A1C93
:1058500004D10368DB6898472060031C181C10BD46
:1058600060000020074A08B51368591C04D00121C4
:1058700049421160181C03E00069022100F0FAFCA3
:1058800008BDC0466000002008B503780349023314
:1058900003704222024800F0B1FD08BD1C00002048
:1058A000030D002010B50178031C42780020A129C7
:1058B00008D1212A2FD118481849072200F09EFD4F
:1058C000012028E0212926D1202A05D113490722C9
:1058D000114800F027FC04E0222A10D19A780F4BDF
:1058E000DA710E4B96221968D200914210D1DC7900
:1058F00001231C400CD1FA2001F020F80AE0232AF1
:1059000009D1DA789B7812021A43054B1A6002E03B
:1059100001F01AF8002010BD030D00201000002037
:105920001800002070470000064BFA21890099609A
:10593000054900220831196004495A6019611A7634
:105940007047C0463808002038EB0000030D0020E7
:1059500070B5C2B219495301CB189E68184DC024C6
:105960002E40A40526439E60164E8001096830181B
:10597000083258605201505C0726B043012630437C
:1059800050549E6935402C439C610F4C5C61505CC7
:105990007024A0431024204350549C680B488A185C
:1059A0002040802464032043986098684021800B45
:1059B0008003986053790B43537170BD0C0D002028
:1059C000FFFFFF8F240B002060090020FF3F00F045
:1059D00038B5041C08CC01211A78051C0A431A703A
:1059E0008022201C0021520006F071FC2B689A785E
:1059F000D107FCD45C6238BD134BF0B51B6899032A
:105A00005A029B01C90ED20E5B0F1F2900D105213E
:105A10001F2A00D11D22072B00D1032304688E0109
:105A2000278D0A491F2539403143218501682A40C5
:105A30000C8DAC4322430A8502681903108D044B78
:105A400003400B431385F0BD246080003FF8FFFF47
:105A5000FF8FFFFFEFF3108303600123436072B6F3
:105A600070470368002B02D162B6BFF36F8F704797
:105A700037B50569041C6846002D12D1FFF7EAFF0F
:105A8000019B013B03D3621DD57FEDB2F9E7684668
:105A90000193FFF7E6FF0020854217D0206AE369F3
:105AA00013E0FFF7D7FF019B0025013B04D3221C25
:105AB00034321578EDB2F8E768460193FFF7D1FF6D
:105AC0000020854202D0206BE36AC01A3EBD000070
:105AD000436810B51A68037A01215B01D318FF33BC
:105AE0009A7A0A439A72037A42685B01D318C268B1
:105AF0009C6891040B4A090922400A439A60037A80
:105B000042685B01D3189A684021920B92039A6015
:105B100043681A68037A08335B01D3181A790A4379
:105B20001A7110BDFF3F00F0F7B50569041C0E1C8B
:105B3000171C6846002D1FD1FFF78CFF019B013B0E
:105B40005A1C06D0621DD17F5A1E00293AD0131C60
:105B5000F6E768460193FFF784FF0025E369BD423D
:105B600035D0226A934232D25A1CE261A269D3181C
:105B70001B7873550135F1E7FFF76CFF019B013B83
:105B80005A1C08D0221C343215785A1EEDB2002D52
:105B900018D0131CF4E768460193FFF762FF002555
:105BA000E36ABD4226D0226B934241D322E0621DBC
:105BB0000021D17730321678581E8E4214D1031C42
:105BC0005A1CF4D168460193FFF74BFF38E0226A74
:105BD000934235D10023E361012323616846FFF737
:105BE00039FF019B013BEBE71170201C0193FFF78C
:105BF0006FFFF6E7226B934222D10023E362236119
:105C00006846FFF727FF019B013B5A1CDAD0221C94
:105C100034320021117001321678581E8E4201D1A3
:105C2000031CF2E71170201C0193FFF751FFEAE714
:105C30005A1CE262A26AD3181B7873550135AFE78C
:105C4000281CFEBD37B54368027A1B680832520132
:105C50009A18041CD0790123FF21184253D0D37124
:105C6000A068656962680140002D20D14901521881
:105C7000916863618904890C2162A16A6846516058
:105C8000621DD377FFF7E6FE019B013B5A1C33D020
:105C9000221C34321178581EC9B20132002903D0B7
:105CA00001930123137023E01170031CEEE74B01F5
:105CB000D3189A68A5699204920C2263002262614B
:105CC00068465D60FFF7C6FE019B013B01E0117075
:105CD0002B1C591C10D0221C343201201070621D64
:105CE000D17F5D1EC9B230320029F0D0019310700F
:105CF0006846FFF7B6FE06E068460193FFF7B1FE7F
:105D0000201CFFF7E5FE37BD37B500236C46E37175
:105D10000734201C0D1CFFF7B7FD2B6818182860EE
:105D200001F0DEFF211C01F095FF2B681818286098
:105D300020783EBD03290BD10D4BB2221B685200C7
:105D4000985C8021494201439954022168220CE069
:105D500001290CD1064B92221B685200985C8021CD
:105D600049420143995402212822FF329954704735
:105D70000C0D002038B5304B00240121051C1A20E1
:105D80001C7001F04FFE1A20012101F0A5FE2B4BE3
:105D9000192001211C7001F045FE1920012101F09C
:105DA0009BFE274B2021DA6901200A43DA61254B4B
:105DB00006241A7802431A70234B0F221978914354
:105DC000197019782143197020490C782043087004
:105DD00019780A401A701A7860210A431A701C4B0D
:105DE0001C4A5A805A78D209FCD11B4801F0A8FB02
:105DF0001A4C201CFFF7ECFD201CFFF7FDFD23686B
:105E00007F2219780A401A701A7804210A431A70FE
:105E10001A890C218A431A81C121114A89005058DC
:105E20000002000A5050802111601A7802210A43B2
:105E30001A7001232B7038BD200B0020080D0020A4
:105E400000040040584400413C4400415944004192
:105E5000000C004006400000896800000C0D002086
:105E600000E100E00078002810D0094B01211B68F8
:105E70001A898A431A811A8B08210A431A831A8BBA
:105E800004210A431A83034B00221A607047C0465C
:105E90000C0D0020100E00200F4B9A69920B9203FC
:105EA0009A611B680222FF331A729879802252424B
:105EB00002439A711A7A9007FCD5084B081C997A0C
:105EC0007F221040914301439972997A8022524275
:105ED0000A439A727047C0460C0D002000500041E2
:105EE00010B50B790C1C002B0BD1081CFFF7DAFC4A
:105EF000002804D1094B9A69920B92039A61012000
:105F00000BE001F0EDFE211C01F0D8FE0028F6D1D7
:105F1000024B9A69920B92039A6110BD0C0D0020FE
:105F2000F8B50D1C832A16D1CAB242495301CB18C9
:105F30009C694148AD012040C024A40520439861DC
:105F40003E48083245195D610B685201D15C7020F2
:105F50008143402065E0022A45D1382001F084FBCE
:105F6000374B344F8026036076000023421D0362C6
:105F700003614361C36147608560C660D3772F3298
:105F8000041CC36203631370301C537006F05AF98B
:105F9000A061301C06F056F9FF232A1C1A4052015A
:105FA000A062BF18B968244A07260A40C0218905A3
:105FB0000A43BA60A1686268194012680831490151
:105FC000885CAD00B043032630438854A168626802
:105FD0000B405B01A169D3185960201CFFF778FDC5
:105FE000184BEC5025E0822A1ED1CAB21149530148
:105FF000CB189C691048AD012040C024A405204363
:1060000098610E48083245195D610B685201991874
:106010000C798020404220430871D15C702081437C
:1060200030200143D15404E0002A02D1081CFFF7BC
:106030008FFCF8BD0C0D0020FFFFFF8F60090020D2
:1060400068EB0000E40C002038B5051C0124064B69
:10605000A200D258002A06D0211C281C0134FFF7C8
:106060005FFFE4B2F3E738BD6400002008B5084BD9
:106070008A00D058002803D003689B68984706E040
:10608000C9B2044B4901591888688004800C08BDC6
:10609000E40C00200C0D002010B50C1CFFF7E6FFEF
:1060A00000280CD0064BE1B21B6808314901591891
:1060B0004A7980235B4213434B710223CB7110BD9D
:1060C0000C0D002070B5CAB2134B1448540189015D
:1060D0005918031959609D681149083229408025D3
:1060E000AD022943996099684026890B890399601C
:1060F0000368510159180D7935430D715101591833
:1061000089794D06FAD551015918C979CD07FAD5C3
:106110000419A068C0B270BD240B00200C0D002033
:10612000FF3F00F038B50C4B141C1B680D1CFF33EF
:106130005A7940210A435A710021FFF7C3FFA04258
:1061400000D9201C0023A34204D0044A9A5CEA54DC
:106150000133F8E738BDC0460C0D0020240B0020A9
:1061600010B5C9B20C48490143189A689204920CC0
:106170003F2A08D9141C9A68403CA404920BA40C32
:106180009203224302E09A68920B92039A604118AC
:106190008868C0B210BDC0460C0D0020F0B51C1CB4
:1061A0002F4B85B01B68061C0D1C0292002B51D092
:1061B0002C4F3978C9B2002902D1192001F08CFC8A
:1061C00064233B70284BAA00D058002805D00368F0
:1061D00002995B68221C984740E0301C291CFFF79D
:1061E00045FFA04204D2301C291CFFF73FFF041CCE
:1061F000291C301CFFF7B4FF1C4FE9B24A01019182
:10620000396803928B18FF335A7A01210A431849DF
:106210005A72AB01C9180298221C06F036F8002CFD
:106220001BD0301C291CFFF721FF002815D1019B32
:106230003A6808335B01D31819794020014319717A
:106240000121D97103995318FF339A7A01210A4326
:106250009A7202E00120404200E0201C05B0F0BD2F
:10626000100E0020080D0020E40C00200C0D002072
:10627000240B002013B56C460734221C0123FFF7C2
:106280008DFF012801D1207801E00120404216BD98
:10629000F0B51C1C3F4B85B01B680E1C0292002BF6
:1062A0006AD08023DB019C4266D83B4D2978C9B275
:1062B000002902D11A2001F00FFC642300222B7068
:1062C0000092002C56D0354DF7B22B6801933B1C41
:1062D0000833019A5B01D3189B79DB091AD0304B44
:1062E0003049186803F03AFB2F4B1721584303F04D
:1062F00035FB3B1C0833019A5B01D318DB799A0705
:1063000008D42A4B9A5D002A38D1421E002835D085
:10631000101CEEE7254B00229A55251E3F2D00D973
:106320003F25234AB301D318181C02992A1C039352
:1063300005F0ABFF194A7B01D318039AA9045A61EF
:106340009A69890C920B92030A439A613B1C019A49
:1063500008335B01D3180222DA7159798022524244
:106360000A435A71009B029A5B1952190093641BED
:106370000292A6E700980BE0012008E001229A555E
:106380007B01ED18AB69101C9B0B9B03AB6140427A
:1063900005B0F0BD100E0020200B00200C0D0020D9
:1063A0009000002040420F007011010058090020A9
:1063B0006009002070B50E4D1C1C8B01ED18281CC7
:1063C0000E1C111C221C05F060FFF6B20949760173
:1063D00089194D618A69084B201C13408B618B69B8
:1063E000A2049B0B920C9B0313438B6170BDC046B0
:1063F000600900200C0D0020FF3F00F0F7B5114BA5
:1064000001901B780F1C141C002B19D10E4B1E7809
:10641000002E01D1151C08E00C4D0D482E88801966
:10642000361905F032FF2E800AE0002D08D0BA1987
:106430002B1C01980021FFF7BDFF36182D1AF4E739
:10644000201CFEBD020D0020000D0020560900207A
:1064500055080020F8B50E1C00AF151E012D28D9D7
:10646000D31DDB08DB006A46D21A9546081C06F0ED
:1064700027F801306C46400003232070637002222D
:10648000AA420ED23378002B0BD0511CC9B2013670
:10649000A354A94204D0002302326354D2B2EFE7DE
:1064A0002A1C0548211CFFF7A9FF431E9841C0B2D2
:1064B00000E00020BD46F8BD030D002008B5044BE8
:1064C00000221A70034B04491A88FFF797FF08BD92
:1064D000000D00205609002055080020F0B5204A84
:1064E00087B001230026009102A91370051C0296B3
:1064F000FFF70AFC03AC092701903A1C201C311C51
:1065000005F0E5FE02236370A023E371FA232372F2
:10651000029B0122DB196380019B62712371104A87
:10652000009B27701670BB4205D1281C211C1A1C29
:10653000FFF764FF11E00B4B01221A700A4B211C7C
:106540003A1C281C1E800296FFF758FF281C02A93F
:10655000FFF7DAFB281CFFF7B1FF012007B0F0BD01
:10656000020D0020000D00205609002070B5CE78E5
:106570008AB0051C0C1C022E08D1C9882348FFF7DD
:10658000ADFF031C581E8341D8B23DE001F0A8FBCB
:10659000211C01F074FB002803D0C3171B1AD80F6D
:1065A00032E0012E04D1E2881949112A27D823E0CC
:1065B000032E29D1A278002A05D11649E2880B784A
:1065C000934219D81BE0022A03D1A279281C124950
:1065D00004E0012A05D1A2791049281CFFF73AFFEF
:1065E00012E0032A10D101F07BFB01A901F057FB57
:1065F000A279281C01A9F1E7D2B2002A00D10A78B9
:10660000281CFFF7FBFE01200AB070BD030D00201F
:1066100086EB000082EB000098EB000078EB0000B6
:1066200073B5051C48780C1C0B2878D803F08CF93E
:10663000081C7728773E4306474B686F00206FE0C1
:10664000097801AA002903D111705170281C09E0B2
:10665000002313705370334B1B78012B00D1137040
:10666000281C002102234FE08A780023012A04D14C
:1066700001AA137053702C4BEEE72A4A137049E0BD
:106680008E78012E07D1284B01AA00211E701170AF
:10669000281C331C38E0002E08D1224A0123137035
:1066A000224A9169890B8903916138E0A178281CFD
:1066B000FFF7F2FB33E0281CFFF758FF30E0281CFF
:1066C00000211B4A1FE00A780020D30628D1281C8D
:1066D000FFF7BAFCA2781549154B02241A600A6824
:1066E0002A23FF33D05C2043D0544A20FF30145C6F
:1066F00001231C4314548A69920B92038A610EE0B1
:106700000C4A281C00210123FFF754FE07E08A7879
:10671000084B1A60054B9A69920B92039A6101200B
:1067200076BDC04654080020010D00200C0D00204D
:10673000100E0020040D0020F8B54B4B071C1C78F0
:10674000002C00D08EE0494D2868838B19070DD5A9
:10675000201CFFF7FDF82B6810201A1CFF32917ADD
:1067600001439172424A146008229A832B689A8BE3
:1067700050071FD504229A833E4B1A78002A0AD06C
:106780001A78013AD2B21A701B78002B03D11A2062
:10679000012101F0A1F9384B1A78002A0AD01A78A1
:1067A000013AD2B21A701B78002B03D119200121B3
:1067B00001F092F92B68FF331A7AD10626D5102200
:1067C0001A725A7940210A432C495A710A78602377
:1067D000381C1A4202D1FFF723FF01E0FFF780FBCC
:1067E000002806D02B688022FF33997952420A4351
:1067F00001E0234B20229A712B68FF331A7A50064E
:1068000004D540221A72597A0A435A722968FE2323
:106810000E8C00241E40E1B2002E23D0321C012336
:1068200022411A4216D0221C2868083252018218CE
:10683000D079184203D1D279DA401A4207D0114BED
:10684000A200D058002809D003681B68984701238C
:10685000A3409E430134092CDDD103E0381CFFF72F
:1068600069FAF4E7F8BDC046000D00200C0D0020C9
:10687000100E0020200B0020080D0020240B00200B
:10688000FF500041E40C002008B50248FFF754FF18
:1068900008BDC046030D0020014A024B1A60704734
:1068A000005000410C0D0020F7B58A18061C0D1C85
:1068B00001920C1C019B671B9C4207D03368217816
:1068C0001B68301C984701340028F3D1381CFEBDEA
:1068D00038B5051C0C1C081E07D005F0F1FD2B680F
:1068E000021C5B68281C211C984738BD10B5046841
:1068F0000B1C9A6809686368984710BD08B5FFF7D4
:10690000E7FF08BD08B50249FFF7E2FF08BDC04632
:10691000A3EB000038B5041CFFF7E8FF051C201CA2
:10692000FFF7F0FF401938BD38B5041CFFF7D0FF62
:10693000051C201CFFF7E6FF281838BD014B186026
:106940007047C0468C000020024B012252421A6060
:106950007047C0468C000020154A1368581C25D08B
:10696000013B1360002B21D172B6124A124B043244
:106970009A4207D8BFF34F8F104A114BDA60BFF32A
:106980004F8F11E00F4B197DC807FBD5188B2021C5
:10699000FF319208520001431983DA610A4A1A80D2
:1069A0001A7DD107FCD5E5E7C046FDE77047C04634
:1069B0008C00002000200000030200000400FA0503
:1069C00000ED00E00040004102A5FFFF10B50021EE
:1069D000041CA42205F07BFC221CA4320023201CF2
:1069E0001360536010BDF8B5051CA4352E68041C57
:1069F0000F1C701CA42102F0F5FF231CA8331B6898
:106A0000994201D0A7552960F8BD021C0023A43289
:106A1000A83013600360704738B5021C041CA8340A
:106A2000A43223681268934207D0C55CA421581C85
:106A300002F0D8FF281C216001E00120404238BD4F
:106A4000031CA433A8301A680368D01A00D5A430F8
:106A50007047031C021CA833A4321B6812689342BF
:106A600001D0C05C01E0012040427047031CA43308
:106A700010B5041C1868A421013002F0B3FFA8343B
:106A80002368C81A43425841C0B210BD0160704724
:106A9000F7B508AC267804689D1E27686C1EA541D2
:106AA000ECB2920705683A4327063A432A60026827
:106AB000072529405068B501002C00D05C0329430C
:106AC00001430C435460F7BD30B50368C0251C6812
:106AD000AD0312052A402243C024A4020904214028
:106AE0001143196003685A6814435C6030BD036841
:106AF00001211A680A431A600268116801231942C9
:106B0000FBD1D1691942F8D17047036802211A6894
:106B10000A431A600268D3699907FCD47047036876
:106B20001A7ED10702D41A7E9107FCD570470368FC
:106B300000225A8370470368187E4007C00F7047D1
:106B40000368187EC009704703688022197E52428C
:106B50000A431A7670470368188DC0B270470368FD
:106B60001A7E01200242FBD01985704770B5036878
:106B700001268D07ED0F31401C686D070907294379
:106B80002143196004685100034802F0E7FE013810
:106B9000C0B2207370BDC046006CDC0203680121E6
:106BA0001A680A431A600268116801231942FBD16E
:106BB000D1691942F8D17047036802211A680A4363
:106BC0001A600268D3699907FCD470470368DA69D0
:106BD0009107FCD41A6802218A431A60704703683F
:106BE0009A6A520A52021143996203681A7E510747
:106BF000FCD5986AC0B27047036801211A680A433D
:106C00001A600268116801231942FBD1D169194247
:106C1000F8D17047036802211A680A431A600368B2
:106C2000DA699107FCD45A8B30218A4310210A4338
:106C30005A830268D3695907FCD4704703688022DD
:106C400019685968D2020A435A6070470368034AB8
:106C5000196859680A405A607047C046FFFFFBFF39
:106C600030B5036803241D680C40074A59682404A2
:106C70000A40ED0622436D0F5A60052D03D10268CC
:106C8000D3695907FCD430BDFFFFFCFF4900114315
:106C9000036830B5CDB2598B03240909214001297D
:106CA00004D0598B09090C40022CF4D1596AC90A45
:106CB000C902294359620368002A03D11A7ED10709
:106CC000FCD50DE0187E01224008104008D1197E45
:106CD0001142F7D05968C02292020A435A6003E079
:106CE0005B8B01209B08984330BD036828331970E3
:106CF0000268107E0123184003D1518B1942F8D04D
:106D000003E0528B181C92089043704703682833A5
:106D10001970036800201A7E510703D55B8B012090
:106D20009B089843704703681868C006400F0438F2
:106D300043425841C0B270470368187E4007C00FF5
:106D400070470368187E0123184070470368588B0A
:106D5000C006C00F70470368187E8007C00F7047D9
:106D60000368588B0007C00F704703681A68D20683
:106D7000520F052A02D11A7E9107FCD528331878C4
:106D8000C0B270470368224A30B5934211D0214AFD
:106D9000934211D0204A934211D0204A934211D0FD
:106DA0001F4A934211D01F4A934230D10E23192219
:106DB0000DE0092314220AE00A23152207E00B2321
:106DC000162204E00C23172201E00D231822DCB266
:106DD000154901209B08A0409B0008605B18032018
:106DE000C021890004405D58E000FF248440A54391
:106DF0002C1CC0258540281C204358508023DB01D3
:106E00001A430A4B5A805A7852B2002AFBDB30BD33
:106E100000080042000C0042001000420014004232
:106E200000180042001C004200E100E0000C00409D
:106E3000F8B5041C151C0E1C1F1CFFF7A3FF201C1B
:106E4000FFF755FEB1001C220A4069072368090CB0
:106E50000A431A60226884239375012E1AD10821EF
:106E6000012D00D110210C4B79431868C00002F0AD
:106E700075FD236807219A890140D2044903D20C89
:106E80000A439A8123680004C20C9889400B40038E
:106E900010439881F8BDC04690000020F7B50193DB
:106EA00008AB041C1F780D1C161CFFF777FE201C76
:106EB000FFF768FFBF070C221743C0229203360575
:106EC0001640C02292022D0423683E4301991540CA
:106ED000354307221D600A408021236889020A4346
:106EE0005A60F7BD38B5041C0D1CFFF74BFF201C82
:106EF000FFF782FE236814221A60074B69001868A6
:106F000002F02CFD2468421EE068FF231A409843DB
:106F10001043E06038BDC04690000020012070475B
:106F200008B50368014ADB69984708BD13040000EF
:106F300010B5041C0069FFF7DAFD201C1430FFF7C0
:106F400064FD10BD08B50069FFF7E9FD08BD08B58F
:106F50001430FFF775FD08BD08B51430FFF779FD53
:106F600008BD08B51430FFF757FD08BD08B5006926
:106F7000FFF7F5FD012008BDF7B51D1C08AB1B7818
:106F8000041C009309AB1B78161C0193002343607B
:106F9000FA239B008360094B0F1C083303601430F5
:106FA000FFF714FD009A231CC03327619A70019AE1
:106FB0001E705D70201CDA70FEBDC046B8EB00008C
:106FC00010B5041C0069FFF7B6FD002807D0206942
:106FD000FFF7C1FD011C201C1430FFF704FD2069E0
:106FE000FFF7AEFD002805D02069FFF7ADFD206951
:106FF000FFF79DFD10BDF023081C184030384342B8
:1070000058417047F0231B01194080239B0099428F
:107010000CD0C0239B00994206D080235B00052042
:10702000994204D0002002E0072000E006207047CB
:107030000F231940012905D002394B424B41022050
:10704000C01A00E000207047F0B5031C85B0039122
:10705000C033041C182718783B1C43431B4E0821DF
:10706000F3185956151C00F07FFD231CC133187806
:1070700008214743F619715600F076FD01210A1CDC
:10708000039B2069FFF7D4FE291C201CFFF7BAFFE1
:10709000291C071C201CFFF7CBFF291C061C201CE9
:1070A000FFF7A9FF391C0090331C20690122FFF76C
:1070B000EFFC231CC3331978013B1A782069FFF7D2
:1070C00003FD2069FFF721FD05B0F0BD18E70000C2
:1070D000F0B51823434385B00292364A1625D318DB
:1070E0005D5701900391691C62D0102D60D0324B26
:1070F000324C196800291FD14422314805F0E7F8C5
:1071000030491022CA67304BC02149005A50C12172
:1071100089005858FF26B04358501A602B4A2C4B10
:107120005A8023780222134323706378DB09012BF2
:10713000FBD0214B01221A60012763693E1CAE403F
:10714000334363610021019800F00EFD1C4A03994E
:10715000AB009950072D00DC0027FB00029AED1AC6
:10716000AD00042A22D8101CBF0002F0EDFB03087A
:107170000D121700114B0522FF18BB6912E00F49D1
:1071800004227F18BB690DE00C4ABF18BB690322BB
:1071900008E00A4B0222FF18BB6903E007490122FD
:1071A0007F18BB69AA40151C1D43BD61B6B2E660DD
:1071B00005B0F0BD18E70000580E00200018004090
:1071C000140E002004E100E000E100E005400000B2
:1071D000000C004070B50024084D01262B69A64024
:1071E000334206D0064BA200D358002B00D098475C
:1071F0002E610134102CEFD170BDC0460018004044
:10720000140E002038B5049D1C1C401AEB1A58437C
:10721000511A02F0F1FB001938BD704710B5041C7B
:10722000006805F019F8201C10BD10B5041C00689A
:10723000002801D005F010F800232360A3606360EC
:1072400010BD38B5041C0D1C0068013105F0E4F8D0
:10725000002801D021C4012038BD036810B5041CEA
:10726000002B02D043688B4209D2201CFFF7E9FFB4
:10727000002805D0A368002B01D1226813700120DB
:1072800010BD70B50E1C111C041C151CFFF7E5FF8A
:10729000002803D1201CFFF7C8FF04E0A560206888
:1072A000311C05F005F9201C70BD38B50023041C05
:1072B0000D1C036043608360994207D0081C05F0F1
:1072C000FFF8291C021C201CFFF7DBFF201C38BD27
:1072D00038B5051C00680C1C002811D0096800296D
:1072E0000CD00D4B002B09D06A68A3689A4205D3D5
:1072F00005F0DEF8A368AB6000230AE004F0ACFF01
:10730000226863682A60A2686B600023AA60236019
:107310006360A36038BDC0461B72000010B50B1C33
:10732000041E8C4208D00968002903D09A68FFF730
:10733000A8FF01E0FFF779FF201C10BD10B5002366
:10734000041C036043608360FFF7E8FF201C10BD4E
:1073500010B5041E8C4201D0FFF7BAFF201C10BDEF
:1073600038B5041C0D1E08D0081C05F0A9F8291C0E
:10737000021C201CFFF785FF01E0FFF756FF201CD1
:1073800038BD10B500238AB0041C036043608360DD
:10739000081C01A900F042F9201C01A9FFF7E0FF39
:1073A000201C0AB010BDC0B500238DB0061C171CF0
:1073B000036043608360081C04F004FE03ABBA1C46
:1073C00052B200933B1C00F031FC011C301CFFF753
:1073D000C7FF301C0DB0C0BD70B58CB01D1C10AB0C
:1073E0001B78141C002202604260826003A99A1C70
:1073F000061C52B20091201C291C00F017FC011C35
:10740000301CFFF7ADFF301C0CB070BDF8B5041C8C
:107410000F1C866801D100250FE00125002A0CD041
:107420009619311CFFF719FF0028F4D02268A368D1
:10743000391CD01805F03CF8A660281CF8BD08B52A
:107440000B1C9A680968FFF7E1FF08BD13B50A2213
:10745000041C081C01A900F0E1F801A805F030F8AF
:1074600001A9021C201CFFF7D1FF16BD0B1C10B593
:1074700009689A68041CFFF7C9FF002802D1201C84
:10748000FFF7D3FE201C10BD38B5041C0D1E09D01B
:10749000081C05F015F8291C021C201CFFF7B6FF7C
:1074A000002802D1201CFFF7C0FE201C38BD10B5FB
:1074B000041CFFF7CBFF002802D1201CFFF7B5FE0C
:1074C000201C10BDFEE7FEE708B5034B1B68002B30
:1074D00000D0984708BDC0465C0E002038B50F4963
:1074E0000F4CA14204D100F0C7F800F09DF80BE06A
:1074F0000C4D8D42F7D00023CA18E818A24204D2DE
:10750000006804331060F7E7FEE79042EBD0064BCB
:10751000064A9342E7D2002204C3F9E700000020A4
:107520007001002098F0000070010020800E002003
:1075300008B500F02CF8002801D100F01DF808BDB6
:10754000014B18607047C0465C0E0020014B186864
:107550007047C046600E002070B5041E08D0054B71
:107560001D681E1C00F012F833685B1BA342F9D3A0
:1075700070BDC046600E002008B5034B1A6801328A
:107580001A60FFF7E9F908BD600E0020704700207F
:107590007047F0B58FB00D1C029235D0131C023B22
:1075A000222B33D80A2A33D1002831DA012346426C
:1075B000039305AC0194002E12D0301C029902F006
:1075C00011FA301C0F1C029902F0C8F9631C061C4A
:1075D000092F01DC303700E0573727701C1CEAE721
:1075E000019A9442E9D0039A2B1C002A02D02D2242
:1075F0006B1C2A70019A944204D9013C22781A70BB
:107600000133F7E700221A70281C05E0002003E090
:107610000022061C0392CCE70FB0F0BD08B5FFF7BF
:10762000B8FF08BD7047000010B500F0D9F804F0AD
:10763000E3FDFFF7F7FF0120FFF78EFF084C201C4A
:10764000FEF798FB201CFEF70DFCFBF767FFFBF72E
:1076500037FE044B002BFAD000E000BFF7E7C0462E
:10766000030D00200000000008B504F0EBFD08BD8C
:1076700008B504F0F1FD08BD70B5494A1E215368F4
:1076800002208B430343474953608B6908242343FB
:107690008B61454C454B9C829C8A20439882101CF0
:1076A000DA689407FCD5424A012414701478E5077F
:1076B00004D53F4C647864B2002CF7DB012494605D
:1076C000547864B2002CFBDB3A4D394C6560547839
:1076D00064B2002CFBDB8225354CED0165805478CB
:1076E00064B2002CFBDB02249C84DC68E606FCD53B
:1076F000314D2E4CE562DD682C4CEE06FBD5A58C99
:107700002E4E3543A584DD68284CEE06FBD5A58CAE
:1077100002263543A584DC682506FCD5234CE468A5
:107720006606F8D5DC68E506FCD50024946054783C
:1077300064B2002CFBDB224D1D4C656055781C4C5F
:107740006DB2002DFADB1E6A1E4D35401D621D6AAA
:107750008026B5431D620323A3601B4B63605378EF
:107760005BB2002BFBDB00230B72184A4B728B724F
:10777000CB72174BFF211A60164B174A1B68126811
:107780005C01D20E214011439A06520F12020B1CCB
:107790001343124A1385436880221343436070BD2C
:1077A00000400041000400400C06000000080040BA
:1077B000000C004001050100B805FF7D040A00002F
:1077C00000070300FFFCFFFF03060100006CDC0262
:1077D0009000002024608000206080000040004273
:1077E000314BFA21186810B5890002F0B7F82F4B19
:1077F0000138984224D82E4A2E4B5060186AC02176
:107800000002000A0906014319620024072194605E
:107810001160196A80220902090A12060A431A62D3
:10782000254BFC211A6A0A431A62196AFC2292014A
:107830000A431A62196AA022D2020A431A6200E0BD
:10784000FEE7201C0021013400F0ECF8142CF8D1E4
:107850001A4C63785BB2002BFADB194B6380194B2F
:107860005A7ED209012AFAD0E422D2009A803F221D
:10787000DA70597E134AC9090129FAD0C0235B0185
:1078800000201361907000F02DF863785BB2002B3C
:10789000FBDB0D4A094B5A800C4BDA79D209012ADD
:1078A000FAD041225A7010BD90000020FFFFFF0067
:1078B00010E000E000ED00E000040040000C00409B
:1078C0001E400000004000422140000000480042ED
:1078D000914205D002D9891AC84001E0511A884066
:1078E0007047000000B5144A517E131CC9090129D4
:1078F000F9D00138042813D81969104A0A401A61CE
:107900005A780F218A4302F01FF803050907030084
:10791000012102E0032100E002210A435A700AE03B
:107920001169F0231B050B43136153780F218B431F
:1079300002210B43537000BD00400042FFFFFFF0E7
:1079400010B5041E062C05D0072805D0052804D83C
:107950000E3402E0082400E00924201C012100F07C
:1079600003F90E2C0CD12A4BDA79D209012AFAD06C
:107970001A7802218A431A70DA79D209012AFBD0D7
:10798000244B5A7ED209012AFAD018225443224AA3
:1079900018691419217C1F2290431140021C0A43CC
:1079A0001A61597E1B4AC9090129FAD011780220AF
:1079B00001431170597E174AC9090129FAD0117B78
:1079C00002200143117301211176597E114AC90920
:1079D0000129FAD0117B0220014311731A7ED107CD
:1079E000FCD50C4A508B80B2597E0A4AC90901293C
:1079F000FAD011780224A14311705A7ED209012ACB
:107A0000FBD0064B1968064B1A68FFF761FF10BDE3
:107A1000004800420040004218E7000094000020A7
:107A20009800002010B51824021C201C5043274B3E
:107A30001818007A40B2013046D0032944D8081CF7
:107A4000211C01F081FF02331121624398569A18DC
:107A5000C3011F4852681B18991840310220087052
:107A60000121914059602FE06243985618499A18B5
:107A70005268C3015B189918403106200870012133
:107A80009140596099611FE051435A561048591866
:107A90004B68D2011118C818403006240470012028
:107AA000984048600B49521850600DE06243985668
:107AB0009A18C301064852681B18991840310220D1
:107AC000087001219140996010BDC04618E7000080
:107AD000004400411044004118235843134AF0B5B4
