:1020000000800020C9670000B3670000B3670000CC
:1020100000000000000000000000000000000000C0
:10202000000000000000000000000000B367000096
:102030000000000000000000B36700001D68000001
:10204000B3670000B3670000B3670000F14200000F
:10205000B3670000B3670000B3670000B567000016
:10206000B3670000B54B0000B3670000B367000022
:10207000A92B0000B3670000C54B0000B367000048
:10208000B3670000B3670000B3670000B3670000E8
:1020900000000000B3670000B3670000B3670000F2
:1020A000B3670000B3670000B3670000B3670000C8
:1020B0000000000010B5064C2378002B07D1054B1B
:1020C000002B02D0044800E000BF0123237010BDA4
:1020D00070010020000000001CC4000008B5084B7F
:1020E000002B03D00748084900E000BF07480368F9
:1020F000002B03D0064B002B00D0984708BDC046EC
:10210000000000001CC400007401002060010020D9
:1021100000000000014B03607047C046E0BA0000B9
:1021200070470000014B03607047C046E0BA0000F2
:1021300010B5034B041C036004F010FC201C10BD00
:10214000E0BA000010B5034B041C036004F006FC69
:10215000201C10BDE0BA000070B54B688C68CD68DB
:1021600043600A1C031CC56084601033103270CABF
:1021700070C312781A70096A016270BD10B5064CFE
:10218000E121201C490202F003FE201C02F002FEA5
:102190000028FAD010BDC046F407002007B514236C
:1021A0000093FF2301930348022132220A2302F005
:1021B0004DFB07BDD801002038B50D4C1821201C5F
:1021C00002F0A6FC0B4D002804D1281C0A4903F09C
:1021D000F1FDFEE7201C032102F07CFB201C0721FF
:1021E00002F084FC281C054903F0E4FD38BDC0461C
:1021F000D8010020F40700202BBB000039BB0000F1
:1022000008B50748042101F06DFF031C0548002BA9
:1022100001D1054900E0054903F0CCFD08BDC046E9
:10222000EC050020F407002052BB00006EBB00004C
:1022300008B5011C014803F0B3FD08BD980100205A
:1022400070B5294D86B0281C02F05CFB274C281C79
:10225000211C02F025FC0222616903A804F033FA74
:10226000234D03A9281C04F015FA03A804F077F9FC
:102270000222A16903A804F026FA1E4E03A9301C0D
:1022800004F008FA03A804F06AF90222E16903A83D
:1022900004F019FA184C03A9201C04F0FBF903A858
:1022A00004F05DF9291C684604F0EAF9134D68460C
:1022B000291C04F05FFA311C04F04EFA291C04F0CA
:1022C00059FA211C04F048FA011C03A804F0D8F9BB
:1022D00003A8FFF7ADFF03A804F041F9684604F036
:1022E0003EF906B070BDC046D801002010020020A3
:1022F000CC010020000200208C01002089BB0000DE
:1023000030B50B4C0B4D8BB02968201C01F0CAFF77
:102310002A68132301A8211C01F06EFF064C01A9B5
:10232000201CFFF719FF201C01F036FE0BB030BD5A
:10233000EC050020BC01002098010020F0B53C4EC7
:1023400087B0041C311C684604F050F9311C201C75
:1023500004F04CF9374F381C02F0B0F8364D2870B5
:10236000381C02F0A1F8354B1870381C02F092F8B6
:10237000334B2A781870314F092A03D868463149FF
:1023800004F090F9694603A804F07AF9297803A8C3
:1023900004F003FA2C4904F0EDF9011C201C04F0B0
:1023A000C4F903A804F0DBF86846311C04F07AF99C
:1023B0003B78092B03D86846224904F073F9694633
:1023C00003A804F05DF9397803A804F0E6F91E4982
:1023D00004F0D0F9011C201C04F0A7F903A804F0B4
:1023E000BEF86846311C04F05DF9154B1B78092BCB
:1023F00003D86846134904F055F9694603A804F068
:102400003FF90F4B03A8197804F0C7F9011C201CF1
:1024100004F08BF903A804F0A2F8311C684604F01C
:1024200041F9684604F09BF8201C07B0F0BDC04697
:102430001DC10000C801002005000020340200205A
:102440000C0200208BBB00008DBB0000F0B53B4DA3
:1024500087B0041C291C684604F0C8F8291C201CFD
:1024600004F0C4F8364E301C02F046F8354F387090
:10247000301C02F037F8344B1870301C02F028F88A
:10248000324B314E1870092803D86846304904F0A1
:1024900009F9694603A804F0F3F82C4B03A819784E
:1024A00004F07BF92B4904F065F9011C201C04F0B1
:1024B0003CF903A804F053F86846291C04F0F2F82C
:1024C0003378092B03D86846214904F0EBF86946B4
:1024D00003A804F0D5F8317803A804F05EF91D498B
:1024E00004F048F9011C201C04F01FF903A804F0B3
:1024F00036F86846291C04F0D5F83B78092B03D838
:102500006846134904F0CEF8694603A804F0B8F809
:10251000397803A804F041F9011C201C04F005F9E6
:1025200003A804F01CF8291C684604F0BBF86846B0
:1025300004F015F8201C07B0F0BDC0461DC1000016
:10254000C801002006000020040000200700002031
:102550008BBB00008FBB000030B58BB0041C01A802
:10256000FFF774FF01A904A804F08AF80D4904A834
:1025700004F000F9051C07A8FFF7E0FE07A9281CD6
:1025800004F0EAF8011C201C04F07AF807A803F014
:10259000E6FF04A803F0E3FF01A803F0E0FF201C1E
:1025A0000BB030BD72C2000010B5144C86B0201CB8
:1025B000002101F0DBFF0022201C131C102101F080
:1025C000DFFE06221123201C0D2101F025FF0C49FE
:1025D00003A804F00BF86846FFF7BEFF694603A89E
:1025E00004F0BAF8011C074803F0DAFB684603F070
:1025F000B6FF03A803F0B3FF06B010BDC80100206A
:1026000091BB0000F407002008B5092004F00EFB80
:1026100005F026FA011C04F013FE07F019F8074B29
:10262000054A06F0F3F907F065F8EA21890505F097
:1026300091F808BDC046C0466666666666660A4092
:10264000F8B51E4801F078FC1D4E1E49301C03F001
:10265000CDFF1D4D1D4C291C221C301C07F0F4F829
:102660001B4801F041FE1B4E0F21301C02F008F800
:10267000221C301C184907F0E7F8184E184F311C7F
:10268000381C03F0B3FF291C221C381C07F0DCF8AF
:10269000144F311C381C03F0A9FF291C221C381CC4
:1026A00007F0D2F8104F311C381C03F09FFF381C84
:1026B000291C221C07F0C8F8F8BDC046980100206C
:1026C000BC0100209EBB00005F65000000000020F0
:1026D000C8010020D8010020252100001DC10000F4
:1026E000CC010020000200208C010020F0B5274D15
:1026F0008BB0281C01F050FC254F264E0123326878
:1027000001A8391C01F078FD01A9281CFFF724FD60
:10271000281C01F04EFC204C002830D01F4901A895
:1027200003F064FF311C01A804F016F81C4904F002
:1027300021F8011C201C03F033FB01A803F00FFF5C
:10274000281C01F015FC002807D0281C01F0B6FB5E
:10275000C1B2201C02F08AFAF2E71249201C03F0F1
:1027600029FB281C01F018FC01A8391C326813232E
:1027700001F042FD281C01A9FFF7EEFC03E0201C3C
:10278000094903F017FB0BB0F0BDC04698010020CB
:10279000EC050020BC010020F4070020A9BB0000CC
:1027A0008DBB0000BCBB0000CDBB000000B58BB0F2
:1027B000FFF7E4FCFFF700FDFFF7F0FCFFF720FD5B
:1027C000FFF7F2FEFFF79CFD0B4B01A81A680B49BF
:1027D000132301F011FD01A90948FFF7BDFCFFF724
:1027E00085FF0820012104F0EDFA0820012104F002
:1027F0008FFA0BB000BDC046BC010020EC050020E4
:102800009801002030B587B0FFF71AFD204C214A0F
:102810002368126801332360934236D11E4801F0C9
:1028200036FB1E4903A803F0E1FE6846FFF786FD6C
:10283000694603A803F090FF194D011C281C03F002
:10284000AFFA684603F08BFE03A803F088FE154933
:1028500003A803F0CBFEFFF7D7FE0222011C684657
:1028600003F031FF694603A803F076FF0E4903F039
:1028700081FF011C281C03F093FA684603F06FFEE9
:1028800003A803F06CFE0023236007B030BDC046F0
:10289000380200200800002098010020DBBB000067
:1028A000F4070020F1BB000003BC000008B5FFF7EF
:1028B000A9FF08BDF8B5051C0F1C161C0024B44266
:1028C00008D02B68395D1B68281C9847002801D068
:1028D0000134F4E7201CF8BD704708B5183003F048
:1028E000E1FA08BD08B5183003F0F0FA08BD38B5B4
:1028F000837D0D1C002B06D0041CC434201C03F067
:10290000FBFA002801D0002004E0201C291C03F061
:10291000B0FA012038BD08B5183003F0E0FA08BD60
:10292000F7B50193FA239B0083600B4B0025083316
:10293000041C4560036018300F1C161C03F08CFA51
:10294000201CC43003F088FA019B27612675A57509
:10295000201C6375FEBDC04608BC000070B50D4963
:10296000041C006903F004FD206903F099FB18269C
:10297000207D331C4343084D0821EB18595604F0C1
:1029800069FA607D08214643AD19695604F062FA80
:1029900070BDC046A086010090BC0000F7B5041CC5
:1029A00000200E1C151C0193824231D0271C1837C1
:1029B000381C03F070FA2069311C012203F0ACFBD3
:1029C000002823D0206903F016FC011C381C03F0FA
:1029D00050FA01262069AE420ED003F07DFB0221A1
:1029E000206903F083FB206903F005FC011C381CFF
:1029F00003F03FFA0136EDE703F066FB019B002B85
:102A000005D02069032103F071FB00E0051CE8B24A
:102A1000FEBD08B50123FFF7C1FF08BD10B5B823FF
:102A20005B00C154041CC43003F035FA0123A375C4
:102A300010BDF8B50022B82382755B00041C0F1C82
:102A4000C15C006903F068FB002805D120690321FF
:102A500003F04CFB02251DE0261CC436301C03F09D
:102A600035FA00280FD0301C256903F01BFAC1B2DB
:102A7000281C03F080FB0028EED12069032103F01D
:102A800035FB032506E0051C002F03D02069032138
:102A900003F02CFB281CF8BD08B50121FFF7C9FF86
:102AA00008BD38B5041C006903F083FB002879D009
:102AB000206903F08CFB00280ED1206903F091FB04
:102AC00000281FD0206903F087FB00281AD0206956
:102AD00003F08CFB002815D1206903F0FDFA206972
:102AE000032103F003FB231CFC33DD6F002D04D016
:102AF0002368201C9B689847A847201C183003F0C7
:102B0000CAF94FE0206903F06CFB031C2069002B1D
:102B100016D003F0E1FA2069032103F0E7FA2069F7
:102B200003F064FB00283DD0201CC43003F0B3F94F
:102B30000123A375FC34A36F002B33D0984731E0F9
:102B400003F040FB00282DD0206903F04FFB251C2B
:102B500000280FD0C435281C03F0B8F9FF21002845
:102B600003D0281C03F09EF9C1B2206903F014FBC6
:102B7000A07517E01835281C03F0BEF9031C206966
:102B8000002B02D003F0A0FA08E003F034FB011C94
:102B9000281C03F06EF9206903F09EFA20690321D6
:102BA00003F0A4FA38BD000008B50248FFF779FF2A
:102BB00008BDC0463C02002008B503480349142262
:102BC0001523FFF7ADFE08BD3C020020DC07002006
:102BD000437A002B04D18372C372C3600123437212
:102BE000704730B585B0041C02AD006802910392B5
:102BF00003F032FA6B79E179227A0093206800239E
:102C000003F092FB29792068029A03F0F5F9206815
:102C100003F018FA05B030BD70B5041C1826FFF794
:102C2000D7FF2079331C43430D4D0821EB1859562B
:102C300004F010F9A079331C43430821EB185956CE
:102C400004F008F9607908214643AD19695604F08B
:102C500001F9044B201C06CBFFF7C3FF70BDC04633
:102C600090BC0000B803002007B5837A0091019260
:102C7000002B0DD09A0706D5EFF310835A4253412B
:102C8000C37272B604E0DA0702D58289034B9A60F8
:102C90000099019AFFF7A5FF07BDC0460018004044
:102CA000837A002B0BD09A0704D5C37A002B06D069
:102CB00062B604E0DA0702D58289014BDA60704718
:102CC0000018004008B5006803F0CFF908BD000007
:102CD000094B0A4A0A491A6000225A711A71094BB3
:102CE0001960162119711821997117215971012143
:102CF0005A72D9711A727047B803002000093D005A
:102D0000EC070020C003002008B5011C0148FFF7B4
:102D1000D9FF08BDC003002008B50248FF21FFF716
:102D2000D1FF08BDC003002008B50121007904F0DF
:102D300049F8054B1A78002A04D0002203481A707B
:102D4000FFF7AEFF08BDC046D8030020C003002037
:102D500010B5084B041C1A78002A06D101221A70FB
:102D6000054B064806CBFFF77FFF2079002104F0D2
:102D700029F810BDD8030020D0030020C003002094
:102D800010B58379041C002B0DD023895A1C228195
:102D9000054A934202D8FFF7BFFFF6E7201CFFF772
:102DA000C3FF0023A37110BD0102000000B5062976
:102DB00003D91623437100201CE00F4B052913D8BB
:102DC000081C002204F044F9030507090B0D0B4908
:102DD00008E00B4906E00B4904E00B4902E00B490F
:102DE00000E00B49196002E00A4A1A6000221A71D9
:102DF0005A71012000BDC046D0030020001BB7005F
:102E000000093D0080841E0040420F0020A1070001
:102E100090D0030048E8010038B50C1C03F00CFD0D
:102E2000051CFFF779FFFF2808D003F005FDABB2C2
:102E300080B2C01AA042F4DB002000E0012038BDBF
:102E4000F8B5041C0E1C171CFFF79AFF201CFFF797
:102E50007FFF96214900201CFFF7DEFF4020304312
:102E6000FFF752FF1825381CE840C0B2083DFFF7B5
:102E70004BFF2B1C0833F6D19520002E03D0872062
:102E8000082E00D0FF20FFF73FFF0025FFF744FF8B
:102E900043B2E072002B04DAFF2D02D00135EDB20F
:102EA000F4E7F8BDF7B500250271057385728571E9
:102EB0004571041C019103F0BFFC012187B2207908
:102EC00003F026FF0121207903F07CFF434E301CE4
:102ED000FFF7A2FE424B43491D715D711960301C22
:102EE0005A68FFF7C1FE0A25013DFF20EDB2FFF74A
:102EF0000BFF002DF8D1301CFFF7D2FE201CFFF78E
:102F000027FF0021201C0A1CFFF79AFF061CE07215
:102F1000012809D003F090FCC01BFA2380B2DB002B
:102F20009842EED901233CE0D522201C0821520012
:102F3000FFF786FF0423184201D026730BE01E1C06
:102F4000FFF7EAFE013EF6B2E072002EF8D102234E
:102F5000AA2826D12373267B023E73425E41B60720
:102F600037210022201CFFF76BFF321C201C292177
:102F7000FFF766FF021CE07209D003F05DFCC01B86
:102F8000FA2380B2DB009842EAD9082309E0237BC8
:102F9000022B19D1201C3A21FFF752FF002805D03F
:102FA00006236371201CFFF7BFFE15E0FFF7B4FE98
:102FB000C0231840984201D103232373FFF7ACFECE
:102FC000FFF7AAFEFFF7A8FE201CFFF7ADFE201CAE
:102FD0000199FFF7EBFE051C281CFEBDC003002075
:102FE000D003002090D0030038B5041C03F024FC6B
:102FF000051CFFF791FEE072FF280AD103F01CFCCC
:10300000ABB280B2C01A96235B009842F1DD0F2369
:1030100002E0FE2806D00D23201C6371FFF784FE1A
:10302000002000E0012038BDF8B5041C0F1C151C61
:103030001E1E45D09A1880239B009A4242DC837959
:10304000002B05D00268914202D10389AB4216D908
:10305000237B2760032B00D07F023A1C201C112108
:10306000FFF7EEFE071E02D0032363712AE0201C47
:10307000FFF7BAFF002825D001232781A3712389F8
:10308000AB4205D2FFF748FE238901332381F6E7DF
:10309000069D069AAB1A9BB2B34204D2FFF73CFEE0
:1030A00028700135F5E72389A27AF3189BB22381B2
:1030B000002A02D0064A934202D9201CFFF760FE84
:1030C000012003E0201CFFF72FFE0020F8BDC046C2
:1030D000FF01000007B5802300929B000022FFF74C
:1030E000A3FF0EBD70B5051C081C161CFFF70CFED7
:1030F0000024305DFFF708FE013480239B009C42D2
:10310000F7D1FF20FFF700FEFF20FFF7FDFDFFF7DF
:1031100003FE1F23E87203400120052B05D0112375
:10312000281C6B71FFF700FE002070BD70B50B1CF2
:10313000041C161C002901D1122328E0027B032A5B
:1031400000D04B02201C18211A1CFFF779FE051E27
:1031500001D004231BE0201CFE21321CFFF7C2FF1C
:10316000002815D09621201C8900FFF755FE002865
:1031700001D115230BE0201C0D212A1CFFF760FE56
:10318000002803D1FFF7C8FD002806D0142363717F
:10319000201CFFF7C9FD002003E0201CFFF7C4FD41
:1031A000012070BD034B044A1A6000225A711A7143
:1031B0007047C046D003002000093D00021C10B536
:1031C0000C32041C0121406A00F024FD00280AD0C2
:1031D000236A0120002B06D1E368227A2362802330
:1031E0005B421343237210BD70B5041CFFF7E6FF6A
:1031F000002801D100201BE0636AE6681A7C023EC9
:1032000096405A691D79B618002D08D0701E4019D5
:1032100000F04CFC0028EDD0013DEDB2F4E7636A0C
:1032200001201A7C80239B009340E269D318E3615C
:1032300070BD000010B5041C406900F013FC0028AC
:1032400003D0207E014B4001C01810BDE8030020D0
:10325000F0B5002387B0071C0E1C2022F254013366
:103260000B2BFAD10721002501913C78002C2AD0A4
:103270002E2C06D1019B0A2B2BD00A210825019167
:103280001FE002A81449102206F03FFB002302A908
:10329000CA5C002A03D00133A242F8D119E0019B95
:1032A0009D4216D8231C213B5D2B12D8221C6B1C7F
:1032B000613ADBB27519192A01D8203CE4B22C70AE
:1032C0001D1C0137D1E730782038431E9841C0B229
:1032D00000E0002007B0F0BD28BC000038B5427AFD
:1032E000041C0D1C002A01D000201FE04B1CDB7FBA
:1032F000102B06D10223437202624B8C5B01C36127
:103300000CE0202BF0D103234372496A221C016296
:103310001C32281C00F018FC0028E5D000230120F6
:1033200065622072E36023616361237638BD00002B
:10333000F0B5437A85B0041C0E1C0392002B01D11A
:103340003A4811E0037AD807FAD5E269206903996F
:10335000131A994201D99BB2039303990291029BDC
:10336000002B04D1039988B200B205B0F0BD2369E7
:10337000617ADF05FF0D5A0A606A022902D1416AAB
:1033800051181BE00579013D2A40D5B2002F0DD11F
:10339000002D0BD1002B02D1226AE26006E0221C34
:1033A000E1680C3200F0A0FB0028C9D0636AE16834
:1033B0001A7C02395B699140C91849198022029D23
:1033C0009200D31B9D4200DD9DB2237A580601D4A2
:1033D000954218D1164B1B68994214D0154B3A1CD4
:1033E000186800962B1CFFF71FFE0028A8D076193E
:1033F00001E0DF1BF6192169029A4B19551BADB28A
:1034000023610295ABE7081C002100F02BFB00288C
:1034100096D0094B321CFF1879193B1C8B42E8D01F
:103420001878013310700132F8E7C046FFFF000042
:103430000C000020E4030020E803002073B5437A69
:10344000041C012B01D8002016E003696D460735E6
:10345000DE05291C0122360FFFF76AFF012801D182
:103460002B7800E0054B1BB20133ECD023697001CF
:103470001F332361024BC01876BDC046FFFF00001A
:10348000E803002070B5041C407A0D1C00282AD0E7
:10349000E269914201D9002025E0022821D0002DC7
:1034A00001D1E5601DE0626A2169137C681E093361
:1034B0004A1ED840DA40031E934201D3002902D1AC
:1034C000226AE26000E0831A1E1C002E09D0221C32
:1034D000606AE1680C3200F007FB013E0028F4D17D
:1034E00001E02561012070BD38B5051C407A002837
:1034F00033D02B7A7F2B2DD9281C0121FFF79AFE80
:10350000041E2AD06B7A012B07D82B7F03776B7FA1
:103510004377AB7F8377EB7FC3772B6A9AB21B0C21
:1035200023751B0A63750D4BA2761B68120AE2769F
:10353000002B0BD0201C211C183016319847637EBD
:10354000227E1B021343A3741B0AE3742A7A7F238F
:1035500013402B7200F05CFAFFE738BDDC0300205B
:1035600010B5041CFFF7C0FF002802D000236372CF
:10357000012010BD73B5427A041C0D1C0020012AE5
:103580004BD1207A0223184047D0E36900209942AA
:1035900043D8101C002B40D0201C291C2669FFF7A3
:1035A00071FF002825D0606A002D06D1216A00F045
:1035B00095FB00281DD025621DE0E16801AA00F0FE
:1035C00093FA002815D0606A0199431CDB7F102B09
:1035D00001D1124B00E0124B99420CD200F07EFB5D
:1035E000002806D0606AE1680E4A00F0CFFA002891
:1035F00001D1002011E0227A80235B421343E56170
:103600002372201CFFF770FF0028F2D0291EB14260
:1036100000D9311C201CFFF735FF76BDF8FF0000F4
:10362000F8FFFF0FFFFFFF0F38B5234B151C4A01B2
:10363000D318041CD87A1122104204D04222154219
:1036400001D0002036E01D4A2176126862615A7D61
:10365000187DD97E12020243987E090212040143AA
:1036600011432162D87A182202400CD15A7F197F67
:1036700012020A43997FDB7F09040A431B061343A6
:10368000E361012309E0102ADBD1221C606A1C32AD
:1036900000F05AFA0028D4D0042363720F230021CB
:1036A0002B402372E160216101206A0602D5201CB3
:1036B000FFF760FF38BDC046E80300200C00002083
:1036C000F0B5457A87B0041C0E1C0193002D00D084
:1036D00086E0101C03A9FFF7BBFD002800D180E0A5
:1036E000726A2F1C6262F56035613369F269934238
:1036F00026D2DB051B0F301C0093FFF79FFE011E37
:103700006FD00378002B01D0E52B0BD1002F04D113
:10371000009B2376344B1B6863610B780127002BD9
:10372000E3D10DE003A80B2206F0E0F80028DCD17D
:10373000019A30231340302B53D0201C00994BE0CA
:10374000019A12231340122B4BD1002F06D0201CBC
:103750000121FFF76FFD061E0AD142E0737A022BAA
:103760003FD0301CFFF740FD00283AD01F4E27768F
:1037700000212022301C06F0EAF8301C03A90B229D
:1037800006F0C3F81A4B1B68002B05D0301C311C07
:1037900010300E31984706E021223274B37328228C
:1037A00008237274F373737C327C1B021343FF2271
:1037B0001A401B0AF3747376F37BB2743276B27BD1
:1037C0001B021343B3751B0AF37500F021F900289F
:1037D00007D0217E019A201CFFF726FF051C00E080
:1037E0000025281C07B0F0BD0C000020E8030020D5
:1037F000DC03002010B50021041CFFF7BBFE0028ED
:103800000BD0201C0121FFF715FD002805D0E52372
:1038100003700023637200F0FBF810BD10B50A1CA2
:103820000A498AB008310023041C009169464B7292
:1038300001936846211C0223FFF742FF002802D0B3
:103840006846FFF7D7FF0AB010BDC04638BC00007D
:10385000F0B5437A87B0041C0D1C0392012B0DD1E7
:10386000037A99070AD55A070CD5E16922698A4279
:1038700008D0201CFFF706FE002803D10123636057
:103880000020AAE0039B01933BE0606A730A07797A
:10389000F605013F1F40FFB2F60D002F36D0802203
:1038A0009200921B019992B20B1C914200D9131CF9
:1038B0009BB20293636AE1681A7C023991405A69AB
:1038C0008B18029ADF1980239B009A423FD1444B08
:1038D0001968B94202D1012252421A60414B391C87
:1038E00018682A1CFFF722FC0028C7D0802292000B
:1038F000AD180199029A8B1A21699BB201938B181A
:103900002361019A2669002ABFD149E0002EC6D161
:10391000E168002903D1236A002B16D10FE005AA24
:1039200000F0E2F8002858D0626A059B0132D27F8D
:10393000102A01D12C4A00E02C4A934205D3201CC6
:10394000FFF73CFC0028AAD198E7E360A7E7002E28
:103950000FD12369E1698B420BD300F059F800289D
:103960008CD01F4B01211F60214B1A780A431A701B
:1039700006E0381C012100F075F8002800D17DE731
:103980001C4B2A1CF618029BF118331C8B4204D0E6
:103990001078013218700133F8E79E1BAD19A8E7C3
:1039A000E169237A8E4201D9E66106E0124A126883
:1039B000002A06D0039A002A03D0802252421343E1
:1039C0002372237A190701D4039806E0201CFFF71D
:1039D0008BFD002800D151E7F6E707B0F0BDC046E7
:1039E0000C000020E4030020F8FF0000F8FFFF0FA8
:1039F000E8050020E8030020DC03002007B56B4643
:103A0000D9710733191C0122FFF722FF0EBD0000F8
:103A1000F8B50F4F01203B78002B18D00D4E0E4B00
:103A20000E4D196830682A1CFFF780FB00280ED065
:103A30000B4C2168002907D030682A1CFFF776FB61
:103A4000002804D00023236000233B700120F8BD30
:103A5000E8050020E40300200C000020E80300201B
:103A6000E003002070B50D4D041C2B680E1C834232
:103A70000ED0FFF7CDFF002801D100200DE0084B4C
:103A8000211C1868074AFFF725FB0028F5D02C6099
:103A9000054B01201A7816431E7070BD0C000020E3
:103AA000E4030020E8030020E805002010B5041C12
:103AB000FFF7AEFF00280FD00023084A00219954D9
:103AC0008022013392009342F7D1054B01201C6004
:103AD000044B1A7802431A7010BDC046E803002058
:103AE0000C000020E8050020C36870B501330C1CF1
:103AF000151C994201D9002021E0461CF17FC269C2
:103B0000E309102900D1230A98180D4B1B6898422D
:103B100007D1F27F0B4B102A09D1E4B264001B5B82
:103B20000BE00021FFF79EFF0028F2D1E3E77F22A0
:103B30001440A4001B591B011B092B60012070BD00
:103B40000C000020E803002073B5051C0191161C31
:103B50000024281C019901AAFFF7C6FF002810D0F5
:103B60002A7C80239B009340E4186B1CDB7F019A26
:103B7000102B01D1034B00E0034B9A42E9D3346090
:103B8000012076BDF8FF0000F8FFFF0FF7B5051C18
:103B90000C1C0192012932D9C368002001339942DB
:103BA0002ED86F1CFA7FEE69CB09102A00D10B0AC0
:103BB0009E19144B1B689E4208D1FA7F124B102AA3
:103BC0000BD1E4B2019A64001A530BE0301C0021BF
:103BD000FFF748FF0028F0D112E07F221440019A3D
:103BE000A4001A51094B01201A7802431A702B7E47
:103BF000834205D9AB68F618054B1E6000E0002033
:103C0000FEBDC0460C000020E8030020E8050020AF
:103C1000E0030020F0B5156887B0061C0291171C60
:103C2000002D03D000210135019106E0029B0568BB
:103C3000013B5A425341DBB20193F2680023013247
:103C400003922C1C00930099F268914221D2039BAD
:103C50009C4201D90224251C301C211C05AAFFF717
:103C600043FF002815D00599631C002901D01D1CB5
:103C700003E002995A1B8A4204D0009A1C1C0132AC
:103C80000092E0E7301C211C134AFFF77FFF002859
:103C90000BD100201DE0631E301C191C221C009358
:103CA000FFF774FF0028F4D0009CAC42F3D83968C9
:103CB000002906D101993D60002909D00135356000
:103CC00006E0301C2A1CFFF761FF0028F2D1E0E774
:103CD000012007B0F0BDC046FFFFFF0F022337B53C
:103CE000051C0C1C0360281C211C01AAFFF7FCFE0C
:103CF000002812D0281C211C0022FFF747FF0028B3
:103D00000BD06B1CDB7F019C102B01D1044B00E01E
:103D1000044B9C42E7D3012000E000203EBDC0469A
:103D2000F8FF0000F8FFFF0FF8B5444B041C151C0A
:103D3000196029D0042A01D900207DE00020011C4F
:103D4000FFF790FE0028F7D02D013D4BA935FF3538
:103D50005D19AA79AB1D5006EED1EA7CA97C12024E
:103D60000A43297D09040A43697D09060A43632A37
:103D7000E2D9AA7BED7B2D0215439A7ADB7A1204F5
:103D800015431B061D43D7D0281C0021FFF76AFEF0
:103D90000028D1D02A4B197BDA7A090211438022FC
:103DA00092009142C8D11A7C002AC5D0D989002935
:103DB000C2D0597B0029BFD0227600222171227403
:103DC000227C01209040814204D0501C2074072A9C
:103DD000F6D9B1E7D98A002900D1596AA160D889FA
:103DE0002818E0611F693E02360C6684B7B21E7C5B
:103DF00071430E1813487901091849127118666247
:103E00006161187DDE7C0002304300D1186A6D1AB2
:103E10002818D040021CE0600B48611C824201D887
:103E20000C2307E00948824201D8102302E0DB6A34
:103E300063622023CB770120F8BDC046E403002055
:103E4000E8030020FF010000F40F0000F4FF000071
:103E500013B502686B46D97107335468191C0122E7
:103E6000A04716BD38B5041C006A0025A84202D13F
:103E7000012363600AE0456092B2FFF7E9FC236A20
:103E80005B68002B02D001236360281C38BD006AE8
:103E900008B5002801D0FFF727FB08BD13B56C4615
:103EA0000734211C0122FFF743FA012801D12078B1
:103EB00000E0014800B216BDFFFF0000006A08B52F
:103EC000002802D0FFF7EAFF01E00120404208BDD0
:103ED00038B5051C006A00280AD0FFF7DFFF041C74
:103EE000631C05D0286A01690139FFF7CBFA201C51
:103EF00038BD0000F8B5FA239B0083600D4B002508
:103F00000833041C4560036028200F1C161C05F0B4
:103F1000D9FC2062A8420AD0391C282205F0F5FC01
:103F2000201C1030311C0C2205F011FE2577201CBE
:103F3000F8BDC04648BC0000FA2292008260044AE4
:103F40000023083243600260036203747047C04676
:103F500048BC0000036A002B01D0186901E0012071
:103F600040427047006A002800D0C06970470000D6
:103F700038B5041C006A00280BD0201CFFF7F2FFA4
:103F8000051C201CFFF7E6FF024B281A984200D9B7
:103F9000181C38BDFF7F000010B5041C006A002803
:103FA00006D0FFF7DDFA206A05F096FC00232362B5
:103FB00010BD006A002803D0407A431E9841C0B269
:103FC000704708B50123002A05D0FFF727FC031C22
:103FD000581E8341DBB2181C08BD38B50122051CF0
:103FE0000C1CFFF7A1FE021C0120002A03D1281C93
:103FF000211CFFF799FE38BDF0B50C68035D2F3B1F
:104000005D426B41E418271C0C37231CC55C1E1B4A
:104010002F2D09D0002D07D00133161BF618013EB5
:104020003570BB42F2D10C2600249455C25C2F3A65
:10403000544262419B180B60C05C431E9841C0B261
:10404000F0BD0000F0B5A1B0039025480D1C04920E
:1040500005930CAA002316A90D930C905372179385
:1040600016904B7207932C1C009207A908AA03987C
:10407000FFF7C2FF0126021C72400190D2B2201C41
:1040800008A9059B049FB847002807D1AC4201D17D
:10409000002023E0201CFFF763FAF9E7019F002FBF
:1040A00011D0331C0098211C08AAFFF709FB061C3D
:1040B000AC420FD0201CFFF753FA002EE8D0231C8F
:1040C000009C0093D1E7AC4202D0201CFFF748FAD5
:1040D000301C03E00028DBD016ACF0E721B0F0BDC7
:1040E00040BC000038B50A1C0121041CFEF7DAFEB2
:1040F000002801D100200FE0251C1035281C211CB0
:10410000FFF76BFF0028F5D0201C3830291CFFF783
:10411000E5F8431E9841C0B238BD00004B684360CB
:104120000A4B03600B7A03724B7A4372CB68C3600D
:104130000B6903614B6943610B7E0376CB69C361F5
:104140000B6A496A036241627047C04640BC000086
:10415000F0B59DB0051C383108A802920393FFF713
:10416000DDFF244A12AF0023029C7B6012927B7217
:1041700008AE201C2F2105F0CFFC00282ED023787C
:104180002F2B01D10134F4E7001BC0B2031C0C2813
:1041900000D90C23DBB21A1C211C04A8019305F0E2
:1041A000D6FC019A002304A9381C8B54FFF7D8F9D8
:1041B000381C311C04AA0123FFF782FA002804D11D
:1041C0000C4B68602B60687210E0019B301CE41897
:1041D000FFF7C6F9331C3E1C1F1CCAE70299039A5D
:1041E000641A1460281C311CFFF798FF281C1DB0AE
:1041F000F0BDC04640BC0000F0B5A3B0051C1F1CBC
:1042000004A803AB161C0191FFF7A2FF039BF6184D
:104210003378002B07D104A918A8FFF77FFF281CCB
:1042200018A91E4A34E000230EAC636063726B462B
:1042300019331B4A1B780E92002B03D1281CFFF761
:104240007BFE27E0023B012B09D80199201C383165
:10425000321C3B1CFFF734FA00280BD1EEE7201C80
:1042600004A9321C3B1CFFF72BFA0028E6D004A857
:10427000FFF776F906231F4203D0201C1599FFF79C
:1042800001F9211C18A8FFF749FF281C18A9321CA6
:10429000FFF730FE281C23B0F0BDC0468FBB0000E6
:1042A00040BC000008B5031C081C191C3831024A28
:1042B0000023FFF7C7FE08BDC33F0000084B0221E3
:1042C0001961191C002230310A7006495A719A711D
:1042D0009A721A73DA63996341331A707047C04651
:1042E000EC05002040BC0000002303707047000074
:1042F00008B5044B1B68002B00D09847024B0122E5
:104300001A7208BD50060020001400400378002BEC
:104310000AD0064B081C19693F2210409143014303
:1043200019619A7AD209FCD17047C0460014004046
:104330000378002B0BD0064B3F2211408A011869ED
:1043400004490140114319619A7AD209FCD170479E
:10435000001400403FF0FFFF0378002B0BD0064B0A
:104360001F2211400A0318690449014011431961D1
:104370009A7AD209FCD1704700140040FF0FFEFF6B
:1043800070B5161C0278041C0D1C002A0AD0191CDA
:10439000FFF7BCFF201C311CFFF7CAFF201C291CA3
:1043A000FFF7DAFF70BD00000378002B0BD0064B3F
:1043B0001F2211404A041869044901401143196140
:1043C0009A7AD209FCD1704700140040FFFFC1FF68
:1043D0000378002B0BD0064B0F2211408A05186979
:1043E00004490140114319619A7AD209FCD17047FE
:1043F00000140040FFFF3FFC0378002B09D0054B61
:104400008A06196989018909114319619A7AD209C1
:10441000FCD170470014004070B51D1C0378041CCB
:10442000161C002B09D0FFF7BFFF201C311CFFF723
:10443000CFFF201C291CFFF7DFFF70BD0A4B0B4A82
:104440009A605A7852B2002AFBDB0949064A516049
:104450005A7852B2002AFBDB0649034A51805A7847
:10446000D209FCD17047C046000C00400204000095
:1044700002051100044200000378002B05D0034B15
:10448000034A5A809A7AD209FCD17047001400403E
:104490000080FFFF08B5FFF7EFFF024B18693F23CD
:1044A000184008BD0014004008B5FFF7E5FF024BB7
:1044B00018690005800E08BD0014004008B5FFF71C
:1044C000DBFF024B1869C003C00E08BD001400409A
:1044D00008B5FFF7D1FF024B18698002C00E08BD76
:1044E0000014004008B5FFF7C7FF024B18698001B0
:1044F000000F08BD0014004008B5FFF7BDFF024BD8
:104500001869800E08BDC04600140040044B02210B
:104510001A888A431A809A7AD209FCD17047C04619
:1045200000140040044B02211A880A431A809A7A28
:10453000D209FCD17047C04600140040044B012151
:104540001A880A431A809A7AD209FCD17047C04669
:1045500000140040044B01211A888A431A809A7A79
:10456000D209FCD17047C04600140040F7B52B4B70
:104570000F1C9A6920210A439A61294A294B002677
:10458000051C9A82284CB7420AD1284B1A7870230E
:104590001A4240D023881A073DD52269012601928C
:1045A000281CFFF74BFF281CFFF7B0FF281CFFF764
:1045B000C5FF62881E4B134063801E4B2380A27A86
:1045C000194BD209FBD11C4A08211160C021890076
:1045D00050580002000A5050DA7901210A43DA717A
:1045E0001A7F07218A431A77A37ADB09FCD1281C9A
:1045F000FFF798FF281CFFF7ADFF002F02D0012323
:104600002B70F7BD002EFAD0074B019A1A61A37ADE
:10461000DB09FCD1F3E73E1CC2E7C04600040040C2
:10462000CE0600000008004000140040380400409E
:10463000FFBFFFFF080A000000E100E038B52822B4
:104640000C1C051C081C002105F081F9201C0849E0
:104650000B2205F07CFA0023E372ED69012263620C
:1046600000232561E2606261A361E361236238BDDA
:1046700068BC000008B50368C9B21B68984708BD4C
:10468000074B821C0833036001235B42C361D1776F
:10469000C21CD377FF21021DD177421DD37770470B
:1046A00070BC0000F7B5421D019100921F23D35644
:1046B000051C07270024013303D11448FEF702FB31
:1046C00022E0009B1F2018560021012602F07AFBF1
:1046D000019A311CEB1C1F20B9401856114002F002
:1046E00071FB009B1F201856311C02F06BFB2B1D29
:1046F0001F2064001856E4B202F094FB002800D09A
:104700003443013FDDD2201CFEBDC046C003002063
:10471000F0B51F23851CEB5685B0041C0F1C161C1E
:10472000013312D1431CD97F8069FEF777F9A06964
:10473000391C03681B689847A069311C03681B6813
:104740009847A069FEF7A8F929E0421D01921F23AE
:10475000D356013308D16A460023537313731148AB
:104760001149039AFEF780FA1F202856002102F013
:1047700029FB7F213940201CFFF794FF311C201CAE
:10478000FFF790FF1F202856012102F01BFB019A22
:104790001F23D356013302D10248FEF781FA05B038
:1047A000F0BDC046C003002020A10700F7B51F23BD
:1047B000851CEB56041C0F1C013317D1451CE97FE7
:1047C0008069FEF72BF9A069391C03681B689847BC
:1047D000A069FEF761F9E97FA0690122FEF719F9E6
:1047E000A0690368DB689847C4B228E0461D1F2310
:1047F000F356013308D16A460023537113711148EF
:104800001149019AFEF730FA1F202856002102F0C4
:10481000D9FA80213943201CFFF744FF201C0021D6
:10482000FFF740FF041C1F202856012102F0CAFA9E
:104830001F23F356013302D10248FEF731FA201C40
:10484000FEBDC046C003002020A10700F7B50093BD
:1048500008AB1B780D1C019309AB041C171C1E78B8
:104860002221002D0CD1FFF7A1FF7F23021C1A404B
:10487000201C2221FFF74CFF201C38212A1C26E097
:104880008022FFF745FF201C24210822FFF740FF6C
:10489000012D03D1201C3821152204E0022D04D162
:1048A000201C38212A22FFF733FF201C3A213A1C12
:1048B000FFF72EFF201C3B21009AFFF729FF201C49
:1048C0003C21019AFFF724FF201C3D21321CFFF7F9
:1048D0001FFFF7BD38B50D1C2321041CFFF766FF31
:1048E0003023021C9A432D012A43D2B2201C2321DB
:1048F000FFF70EFF38BD08B52321FFF757FF8006ED
:10490000800F08BD73B51F23851CEB56041C0133B3
:104910003ED1451CE97F8069FEF780F8A821A06997
:10492000FFF7A8FEA069FEF7B7F80622E97FA069A5
:10493000FEF76FF8A0690368DB689847E080A0691C
:104940000368DB6898470622A35E80B20002184322
:10495000E080A0690368DB6898472081A06903684C
:10496000DB6898470822A35E80B2000218432081CA
:10497000A0690368DB6898476081A0690368DB6809
:1049800098470A22A35E80B20002184360814CE07F
:10499000461D1F23F356013308D16A460023537185
:1049A00013713A483A49019AFEF75EF91F202856DA
:1049B000002102F007FAE821201CFFF773FEFF2117
:1049C000201CFFF76FFEFF21E080201CFFF76AFE2E
:1049D0000622A35E00021843E080FF21201CFFF79F
:1049E00061FEFF212081201CFFF75CFE0822A35EF0
:1049F000000218432081FF21201CFFF753FEFF21F6
:104A00006081201CFFF74EFE0A22A35E00021843BD
:104A100060811F202856012102F0D4F91F23F3568C
:104A2000013302D11948FEF73BF9201CFFF763FF61
:104A3000032807D0022807D0012808D0002808D072
:104A4000012007E0134805E08020400102E0124801
:104A500000E0124802F0A8FF051C0623E05E02F009
:104A6000A3FF291C02F050FDE0600822A05E02F0C6
:104A70009BFF291C02F048FD20610A23E05E02F042
:104A800093FF291C02F040FD606173BDC00300204C
:104A900020A1070055050000FE1F0000FC3F00009C
:104AA00070B524260C1C051C321C081C002104F0C7
:104AB0004EFFEB69281C63600123A3600023236180
:104AC0002660FFF71FFFE868074902F043FE6061B8
:104AD0002869054902F03EFEA0616869024902F0BA
:104AE00039FEE06170BDC0460AE81C4138B50D1CB6
:104AF0002021041CFFF75AFE0F23021C1A402D012F
:104B00002A43D2B2201C2021FFF702FE38BD00004C
:104B100038B5431C851C041CD9771F202856431C1C
:104B200003D1A069FDF71AFF1FE0012102F04AF945
:104B30001F202856012102F0EBF8631D1F20185694
:104B4000431C03D11A48FEF767F80EE0012102F07A
:104B5000DFF8E31C1F201856012102F0D9F8231DAD
:104B60001F201856002102F0D3F8201C0F21FFF758
:104B70001DFE0023332818D10722201C2021FFF717
:104B8000C7FD201C0721FFF7B1FF201C232188222D
:104B9000FFF7BEFD201C22211022FFF7B9FD201CCB
:104BA0001F218022FFF7B4FD0123181C38BDC04629
:104BB000C003002008B5024801F048FC08BDC0460B
:104BC0005406002008B5024801F040FC08BDC0466C
:104BD00018070020F7B5164F1649381C01F09CF94C
:104BE0001549164801F098F91549164801F094F94D
:104BF0001549164801F090F91549164801F08CF94D
:104C0000154D03260124281C144901F085F9391C8F
:104C10000096231C01940022114801F0F3FB00963A
:104C2000291C01941F221E230E4801F0EBFBF7BD47
:104C3000E007002000080042000C0042E4070020CA
:104C400000100042E807002000140042DC070020AA
:104C500000180042EC070020F0070020001C004272
:104C600054060020180700203F20704713B5026843
:104C70006B46D97107335468191C0122A04716BD31
:104C800008B50069022100F03BFC08BD08B50069C9
:104C9000032100F04BFC08BD38B50D1C041C131C8F
:104CA000006903212A1C00F03DFD002801D10123E9
:104CB000636038BD10B5054C23685A1C04D10368E5
:104CC000DB6898472060031C181C10BD60000020A2
:104CD000074A08B51368591C04D0012149421160E4
:104CE000181C03E00069022100F00EFD08BDC0465B
:104CF0006000002008B503780349023303704222A4
:104D0000024800F0C5FD08BD1C000020BF0C0020BB
:104D100010B50178031C42780020A12908D1212A6E
:104D20002FD118481849072200F0B2FD012028E0D1
:104D3000212926D1202A05D113490722114800F044
:104D40003BFC04E0222A10D19A780F4BDA710E4B0B
:104D500096221968D200914210D1DC7901231C40BF
:104D60000CD1FA2001F030F80AE0232A09D1DA78D0
:104D70009B7812021A43054B1A6002E001F02AF8F0
:104D8000002010BDBF0C00201000002018000020E3
:104D90007047000010B501F04FFDF423FF330024ED
:104DA000984207D9044B0A20DC79631E9C41E4B287
:104DB00001F048FD201C10BD10000020064BFA2118
:104DC00089009960054900220831196004495A6038
:104DD00019611A767047C046F4070020B0C0000081
:104DE000BF0C002070B5C2B219495301CB189E68A0
:104DF000184DC0242E40A40526439E60164E800107
:104E000009683018083258605201505C0726B043D8
:104E10000126304350549E6935402C439C610F4C11
:104E20005C61505C7024A0431024204350549C6863
:104E30000B488A18204080246403204398609868B7
:104E40004021800B8003986053790B43537170BDF0
:104E5000C80C0020FFFFFF8FE00A00201C09002083
:104E6000FF3F00F038B5041C08CC01211A78051C5E
:104E70000A431A708022201C0021520004F067FDB2
:104E80002B689A78D107FCD45C6238BD134BF0B51F
:104E90001B6899035A029B01C90ED20E5B0F1F2992
:104EA00000D105211F2A00D11D22072B00D1032389
:104EB00004688E01278D0A491F2539403143218519
:104EC00001682A400C8DAC4322430A85026819030D
:104ED000108D044B03400B431385F0BD246080000C
:104EE0003FF8FFFFFF8FFFFFEFF310830360012305
:104EF000436072B670470368002B02D162B6BFF3FD
:104F00006F8F704737B50569041C6846002D12D1B4
:104F1000FFF7EAFF019B013B03D3621DD57FEDB292
:104F2000F9E768460193FFF7E6FF0020854217D0B6
:104F3000206AE36913E0FFF7D7FF019B0025013BDF
:104F400004D3221C34321578EDB2F8E76846019399
:104F5000FFF7D1FF0020854202D0206BE36AC01A20
:104F60003EBD0000436810B51A68037A01215B0159
:104F7000D318FF339A7A0A439A72037A42685B0124
:104F8000D318C2689C6891040B4A090922400A435D
:104F90009A60037A42685B01D3189A684021920BA9
:104FA00092039A6043681A68037A08335B01D31846
:104FB0001A790A431A7110BDFF3F00F0F7B5056971
:104FC000041C0E1C171C6846002D1FD1FFF78CFF18
:104FD000019B013B5A1C06D0621DD17F5A1E00293D
:104FE0003AD0131CF6E768460193FFF784FF0025CB
:104FF000E369BD4235D0226A934232D25A1CE26143
:10500000A269D3181B7873550135F1E7FFF76CFFE0
:10501000019B013B5A1C08D0221C343215785A1EC1
:10502000EDB2002D18D0131CF4E768460193FFF78A
:1050300062FF0025E36ABD4226D0226B934241D332
:1050400022E0621D0021D17730321678581E8E4240
:1050500014D1031C5A1CF4D168460193FFF74BFF8F
:1050600038E0226A934235D10023E36101232361B2
:105070006846FFF739FF019B013BEBE71170201CED
:105080000193FFF76FFFF6E7226B934222D10023D3
:10509000E36223616846FFF727FF019B013B5A1C2F
:1050A000DAD0221C34320021117001321678581ED9
:1050B0008E4201D1031CF2E71170201C0193FFF70F
:1050C00051FFEAE75A1CE262A26AD3181B787355B3
:1050D0000135AFE7281CFEBD37B54368027A1B686F
:1050E000083252019A18041CD0790123FF2118427A
:1050F00053D0D371A068656962680140002D20D14A
:1051000049015218916863618904890C2162A16A7E
:1051100068465160621DD377FFF7E6FE019B013BB5
:105120005A1C33D0221C34321178581EC9B20132B5
:10513000002903D001930123137023E01170031C95
:10514000EEE74B01D3189A68A5699204920C22638A
:105150000022626168465D60FFF7C6FE019B013B6D
:1051600001E011702B1C591C10D0221C343201207C
:105170001070621DD17F5D1EC9B230320029F0D09F
:10518000019310706846FFF7B6FE06E0684601938B
:10519000FFF7B1FE201CFFF7E5FE37BD37B5002352
:1051A0006C46E3710734201C0D1CFFF7A3FD2B6830
:1051B0001818286001F00AFF211C01F0C1FE2B68BD
:1051C0001818286020783EBD03290BD10D4BB22260
:1051D0001B685200985C8021494201439954022186
:1051E00068220CE001290CD1064B92221B68520068
:1051F000985C802149420143995402212822FF32C0
:1052000099547047C80C002038B5304B0024012158
:10521000051C1A201C7001F07BFD1A20012101F0F1
:10522000D1FD2B4B192001211C7001F071FD1920BB
:10523000012101F0C7FD274B2021DA6901200A4333
:10524000DA61254B06241A7802431A70234B0F2289
:1052500019789143197019782143197020490C78F5
:105260002043087019780A401A701A7860210A439E
:105270001A701C4B1C4A5A805A78D209FCD11B4820
:1052800001F0D4FA1A4C201CFFF7ECFD201CFFF7AC
:10529000FDFD23687F2219780A401A701A780421CC
:1052A0000A431A701A890C218A431A81C121114AB2
:1052B000890050580002000A5050802111601A786D
:1052C00002210A431A7001232B7038BDDC0A00202A
:1052D000C40C002000040040584400413C440041FC
:1052E00059440041000C0040064000001D5D0000D4
:1052F000C80C002000E100E00078002810D0094B25
:1053000001211B681A898A431A811A8B08210A43D2
:105310001A831A8B04210A431A83034B00221A6052
:105320007047C046C80C0020CC0D00200F4B9A6976
:10533000920B92039A611B680222FF331A729879CA
:105340008022524202439A711A7A9007FCD5084B88
:10535000081C997A7F221040914301439972997AEF
:10536000802252420A439A727047C046C80C0020FD
:105370000050004110B50B790C1C002B0BD1081C00
:10538000FFF7C6FC002804D1094B9A69920B9203DF
:105390009A6101200BE001F019FE211C01F004FECE
:1053A0000028F6D1024B9A69920B92039A6110BDC4
:1053B000C80C0020F8B50D1C832A16D1CAB2424988
:1053C0005301CB189C694148AD012040C024A4057D
:1053D000204398613E48083245195D610B685201CF
:1053E000D15C70208143402065E0022A45D13820FD
:1053F00001F0B0FA374B344F80260360760000236B
:10540000421D036203614361C36147608560C660FA
:10541000D3772F32041CC36203631370301C5370A4
:1054200004F050FAA061301C04F04CFAFF232A1C4F
:105430001A405201A062BF18B968244A07260A40E0
:10544000C02189050A43BA60A168626819401268E0
:1054500008314901885CAD00B043032630438854CD
:10546000A16862680B405B01A169D3185960201CD8
:10547000FFF778FD184BEC5025E0822A1ED1CAB206
:1054800011495301CB189C691048AD012040C0243C
:10549000A405204398610E48083245195D610B68E8
:1054A000520199180C798020404220430871D15C48
:1054B0007020814330200143D15404E0002A02D1FE
:1054C000081CFFF78FFCF8BDC80C0020FFFFFF8F02
:1054D0001C090020E0C00000A00C002038B5051C0D
:1054E0000124064BA200D258002A06D0211C281CF9
:1054F0000134FFF75FFFE4B2F3E738BD640000203A
:1055000008B5084B8A00D058002803D003689B6870
:10551000984706E0C9B2044B4901591888688004CD
:10552000800C08BDA00C0020C80C002010B50C1C7D
:10553000FFF7E6FF00280CD0064BE1B21B680831EC
:10554000490159184A7980235B4213434B71022366
:10555000CB7110BDC80C002070B5CAB2134B1448F3
:10556000540189015918031959609D68114908327D
:1055700029408025AD022943996099684026890B0E
:10558000890399600368510159180D7935430D71EC
:105590005101591889794D06FAD551015918C9791F
:1055A000CD07FAD50419A068C0B270BDE00A00208A
:1055B000C80C0020FF3F00F038B50C4B141C1B68D2
:1055C0000D1CFF335A7940210A435A710021FFF71D
:1055D000C3FFA04200D9201C0023A34204D0044AE8
:1055E0009A5CEA540133F8E738BDC046C80C002085
:1055F000E00A002010B5C9B20C48490143189A6866
:105600009204920C3F2A08D9141C9A68403CA404C6
:10561000920BA40C9203224302E09A68920B92032D
:105620009A6041188868C0B210BDC046C80C0020FE
:10563000F0B51C1C2F4B85B01B68061C0D1C02927C
:10564000002B51D02C4F3978C9B2002902D1192032
:1056500001F0B8FB64233B70284BAA00D058002807
:1056600005D0036802995B68221C984740E0301C13
:10567000291CFFF745FFA04204D2301C291CFFF76C
:105680003FFF041C291C301CFFF7B4FF1C4FE9B27C
:105690004A010191396803928B18FF335A7A01212C
:1056A0000A4318495A72AB01C9180298221C04F027
:1056B0002CF9002C1BD0301C291CFFF721FF0028DF
:1056C00015D1019B3A6808335B01D3181979402042
:1056D000014319710121D97103995318FF339A7A43
:1056E00001210A439A7202E00120404200E0201C9E
:1056F00005B0F0BDCC0D0020C40C0020A00C002093
:10570000C80C0020E00A002013B56C460734221CA8
:105710000123FFF78DFF012801D1207801E001204E
:10572000404216BDF0B51C1C3F4B85B01B680E1CDB
:105730000292002B6AD08023DB019C4266D83B4D4D
:105740002978C9B2002902D11A2001F03BFB642359
:1057500000222B700092002C56D0354DF7B22B68EA
:1057600001933B1C0833019A5B01D3189B79DB0939
:105770001AD0304B3049186801F074FC2F4B1721B8
:10578000584301F06FFC3B1C0833019A5B01D318AE
:10579000DB799A0708D42A4B9A5D002A38D1421E39
:1057A000002835D0101CEEE7254B00229A55251E07
:1057B0003F2D00D93F25234AB301D318181C029965
:1057C0002A1C039304F0A1F8194A7B01D318039A09
:1057D000A9045A619A69890C920B92030A439A614F
:1057E0003B1C019A08335B01D3180222DA71597904
:1057F000802252420A435A71009B029A5B19521945
:105800000093641B0292A6E700980BE0012008E0D9
:1058100001229A557B01ED18AB69101C9B0B9B0371
:10582000AB61404205B0F0BDCC0D0020DC0A002089
:10583000C80C00209000002040420F0070110100B1
:10584000140900201C09002070B50E4D1C1C8B0192
:10585000ED18281C0E1C111C221C04F056F8F6B280
:105860000949760189194D618A69084B201C13404A
:105870008B618B69A2049B0B920C9B0313438B617E
:1058800070BDC0461C090020C80C0020FF3F00F07E
:10589000F7B5114B01901B780F1C141C002B19D16C
:1058A0000E4B1E78002E01D1151C08E00C4D0D4842
:1058B0002E888019361904F028F82E800AE0002D71
:1058C00008D0BA192B1C01980021FFF7BDFF36182C
:1058D0002D1AF4E7201CFEBDBE0C0020BC0C0020DD
:1058E0001209002011080020F8B50E1C00AF151E8B
:1058F000012D28D9D31DDB08DB006A46D21A954654
:10590000081C04F01DF901306C4640000323207090
:1059100063700222AA420ED23378002B0BD0511CA6
:10592000C9B20136A354A94204D000230232635401
:10593000D2B2EFE72A1C0548211CFFF7A9FF431E3E
:105940009841C0B200E00020BD46F8BDBF0C002069
:1059500008B5044B00221A70034B04491A88FFF75C
:1059600097FF08BDBC0C0020120900201108002080
:10597000F0B5204A87B001230026009102A91370D8
:10598000051C0296FFF70AFC03AC092701903A1C9C
:10599000201C311C03F0DBFF02236370A023E371A2
:1059A000FA232372029B0122DB196380019B62713F
:1059B0002371104A009B27701670BB4205D1281C2A
:1059C000211C1A1CFFF764FF11E00B4B01221A7017
:1059D0000A4B211C3A1C281C1E800296FFF758FF18
:1059E000281C02A9FFF7DAFB281CFFF7B1FF0120F2
:1059F00007B0F0BDBE0C0020BC0C00201209002036
:105A000070B5CE788AB0051C0C1C022E08D1C9884E
:105A10002348FFF7ADFF031C581E8341D8B23DE079
:105A200001F0D4FA211C01F0A0FA002803D0C3171A
:105A30001B1AD80F32E0012E04D1E2881949112A2D
:105A400027D823E0032E29D1A278002A05D11649B0
:105A5000E2880B78934219D81BE0022A03D1A2797D
:105A6000281C124904E0012A05D1A2791049281CFA
:105A7000FFF73AFF12E0032A10D101F0A7FA01A9BB
:105A800001F083FAA279281C01A9F1E7D2B2002A19
:105A900000D10A78281CFFF7FBFE01200AB070BD78
:105AA000BF0C0020FEC00000FAC0000010C10000C2
:105AB000F0C0000073B5051C48780C1C0B2878D882
:105AC00001F0C6FA081C7728773E4306474B686FFB
:105AD00000206FE0097801AA002903D111705170EC
:105AE000281C09E0002313705370334B1B78012BE3
:105AF00000D11370281C002102234FE08A78002374
:105B0000012A04D101AA137053702C4BEEE72A4AE4
:105B1000137049E08E78012E07D1284B01AA00218D
:105B20001E701170281C331C38E0002E08D1224A48
:105B300001231370224A9169890B8903916138E02E
:105B4000A178281CFFF7F2FB33E0281CFFF758FF71
:105B500030E0281C00211B4A1FE00A780020D306F1
:105B600028D1281CFFF7BAFCA2781549154B02244E
:105B70001A600A682A23FF33D05C2043D0544A209D
:105B8000FF30145C01231C4314548A69920B920366
:105B90008A610EE00C4A281C00210123FFF754FE05
:105BA00007E08A78084B1A60054B9A69920B9203BA
:105BB0009A61012076BDC04610080020BD0C00206F
:105BC000C80C0020CC0D0020C00C0020F8B54B4BB9
:105BD000071C1C78002C00D08EE0494D2868838B70
:105BE00019070DD5201CFFF7FDF82B6810201A1C93
:105BF000FF32917A01439172424A146008229A83DB
:105C00002B689A8B50071FD504229A833E4B1A7833
:105C1000002A0AD01A78013AD2B21A701B78002BE7
:105C200003D11A20012101F0CDF8384B1A78002A4F
:105C30000AD01A78013AD2B21A701B78002B03D11D
:105C40001920012101F0BEF82B68FF331A7AD10622
:105C500026D510221A725A7940210A432C495A71CA
:105C60000A786023381C1A4202D1FFF723FF01E0B3
:105C7000FFF780FB002806D02B688022FF3399793C
:105C800052420A4301E0234B20229A712B68FF33D2
:105C90001A7A500604D540221A72597A0A435A7267
:105CA0002968FE230E8C00241E40E1B2002E23D072
:105CB000321C012322411A4216D0221C28680832C5
:105CC00052018218D079184203D1D279DA401A42AF
:105CD00007D0114BA200D058002809D003681B68D8
:105CE00098470123A3409E430134092CDDD103E0F2
:105CF000381CFFF769FAF4E7F8BDC046BC0C002079
:105D0000C80C0020CC0D0020DC0A0020C40C0020B0
:105D1000E00A0020FF500041A00C002008B5024816
:105D2000FFF754FF08BDC046BF0C0020014A024BDC
:105D30001A60704700500041C80C0020F7B58A185F
:105D4000061C0D1C01920C1C019B671B9C4207D07A
:105D5000336821781B68301C984701340028F3D140
:105D6000381CFEBD38B5051C0C1C081E07D003F0FE
:105D7000E7FE2B68021C5B68281C211C984738BD75
:105D800010B504680B1C9A6809686368984710BDD1
:105D900008B50249FFF7E6FF08BDC0461BC1000079
:105DA00038B5041CFFF7ECFF051C201CFFF7F0FFC3
:105DB000401938BD38B5041CFFF7D4FF051C201C62
:105DC000FFF7E6FF281838BD014B18607047C04642
:105DD0008C000020024B012252421A607047C046DC
:105DE0008C000020154A1368581C25D0013B136015
:105DF000002B21D172B6124A124B04329A4207D8B4
:105E0000BFF34F8F104A114BDA60BFF34F8F11E091
:105E10000F4B197DC807FBD5188B2021FF31920845
:105E2000520001431983DA610A4A1A801A7DD107A8
:105E3000FCD5E5E7C046FDE77047C0468C00002072
:105E400000200000030200000400FA0500ED00E05D
:105E50000040004102A5FFFF10B50021041CA42250
:105E600003F075FD221CA4320023201C1360536034
:105E700010BDF8B5051CA4352E68041C0F1C701C41
:105E8000A42101F033F9231CA8331B68994201D0E7
:105E9000A7552960F8BD021C0023A432A830136066
:105EA0000360704738B5021C041CA834A432236870
:105EB0001268934207D0C55CA421581C01F016F962
:105EC000281C216001E00120404238BD031CA4339E
:105ED000A8301A680368D01A00D5A4307047031C94
:105EE000021CA833A4321B681268934201D0C05C24
:105EF00001E0012040427047031CA43310B5041C8C
:105F00001868A421013001F0F1F8A8342368C81AF8
:105F100043425841C0B210BD01607047F7B508ACAC
:105F2000267804689D1E27686C1EA541ECB2920776
:105F300005683A4327063A432A6002680725294044
:105F40005068B501002C00D05C03294301430C4389
:105F50005460F7BD30B50368C0251C68AD03120559
:105F60002A402243C024A40209042140114319609D
:105F700003685A6814435C6030BD036801211A68E5
:105F80000A431A600268116801231942FBD1D169E2
:105F90001942F8D17047036802211A680A431A604F
:105FA0000268D3699907FCD4704703681A7ED10749
:105FB00002D41A7E9107FCD57047036800225A83E9
:105FC00070470368187E4007C00F70470368187E4B
:105FD000C009704703688022197E52420A431A762C
:105FE00070470368188DC0B2704703681A7E01209D
:105FF0000242FBD01985704770B5036801268D07F2
:10600000ED0F31401C686D070907294321431960D2
:1060100004685100034801F025F80138C0B220732C
:1060200070BDC046006CDC02036801211A680A4397
:106030001A600268116801231942FBD1D169194223
:10604000F8D17047036802211A680A431A6002688F
:10605000D3699907FCD470470368DA699107FCD4C7
:106060001A6802218A431A60704703689A6A520AC2
:1060700052021143996203681A7E5107FCD5986A4F
:10608000C0B27047036801211A680A431A600268A7
:10609000116801231942FBD1D1691942F8D1704727
:1060A000036802211A680A431A600368DA699107D3
:1060B000FCD45A8B30218A4310210A435A83026848
:1060C000D3695907FCD4704703688022196859685E
:1060D000D2020A435A6070470368034A1968596834
:1060E0000A405A607047C046FFFFFBFF30B50368A7
:1060F00003241D680C40074A596824040A40ED0631
:1061000022436D0F5A60052D03D10268D3695907E8
:10611000FCD430BDFFFFFCFF49001143036830B5DC
:10612000CDB2598B032409092140012904D0598B90
:1061300009090C40022CF4D1596AC90AC902294341
:1061400059620368002A03D11A7ED107FCD50DE0FD
:10615000187E01224008104008D1197E1142F7D064
:106160005968C02292020A435A6003E05B8B012007
:106170009B08984330BD0368283319700268107E6D
:106180000123184003D1518B1942F8D003E0528B00
:10619000181C9208904370470368283319700368ED
:1061A00000201A7E510703D55B8B01209B08984382
:1061B000704703681868C006400F043843425841CE
:1061C000C0B270470368187E4007C00F704703686D
:1061D000187E0123184070470368588BC006C00F13
:1061E00070470368187E8007C00F70470368588B9C
:1061F0000007C00F704703681A68D206520F052ABD
:1062000002D11A7E9107FCD528331878C0B27047A6
:106210000368224A30B5934211D0214A934211D0EB
:10622000204A934211D0204A934211D01F4A9342F0
:1062300011D01F4A934230D10E2319220DE00923B9
:1062400014220AE00A23152207E00B23162204E099
:106250000C23172201E00D231822DCB2154901207E
:106260009B08A0409B0008605B180320C0218900A8
:1062700004405D58E000FF248440A5432C1CC02549
:106280008540281C204358508023DB011A430A4BC9
:106290005A805A7852B2002AFBDB30BD0008004217
:1062A000000C00420010004200140042001800429E
:1062B000001C004200E100E0000C0040F8B5041CA6
:1062C000151C0E1C1F1CFFF7A3FF201CFFF755FE1B
:1062D000B1001C220A4069072368090C0A431A60AE
:1062E000226884239375012E1AD10821012D00D133
:1062F00010210C4B79431868C00000F0B3FE2368EE
:1063000007219A890140D2044903D20C0A439A8199
:1063100023680004C20C9889400B40031043988105
:10632000F8BDC04690000020F7B5019308AB041CEF
:106330001F780D1C161CFFF777FE201CFFF768FF67
:10634000BF070C221743C022920336051640C02215
:1063500092022D0423683E430199154035430722DC
:106360001D600A408021236889020A435A60F7BDF4
:1063700038B5041C0D1CFFF74BFF201CFFF782FEF5
:10638000236814221A60074B6900186800F06AFE3F
:106390002468421EE068FF231A4098431043E060DF
:1063A00038BDC046900000200120704708B5036842
:1063B000014ADB69984708BD1304000010B5041CAE
:1063C0000069FFF7DAFD201C1430FFF764FD10BDF3
:1063D00008B50069FFF7E9FD08BD08B51430FFF7FF
:1063E00075FD08BD08B51430FFF779FD08BD08B587
:1063F0001430FFF757FD08BD08B50069FFF7F5FD3C
:10640000012008BDF7B51D1C08AB1B78041C0093C8
:1064100009AB1B78161C019300234360FA239B00F1
:106420008360094B0F1C083303601430FFF714FD21
:10643000009A231CC03327619A70019A1E705D7008
:10644000201CDA70FEBDC04630C1000010B5041C2F
:106450000069FFF7B6FD002807D02069FFF7C1FDEE
:10646000011C201C1430FFF704FD2069FFF7AEFD6E
:10647000002805D02069FFF7ADFD2069FFF79DFDDD
:1064800010BDF023081C1840303843425841704773
:10649000F0231B01194080239B0099420CD0C0239C
:1064A0009B00994206D080235B000520994204D0CE
:1064B000002002E0072000E0062070470F2319406B
:1064C000012905D002394B424B410220C01A00E09D
:1064D00000207047F0B5031C85B00391C033041C45
:1064E000182718783B1C43431B4E0821F3185956B4
:1064F000151C00F0AFFC231CC1331878082147435A
:10650000F619715600F0A6FC01210A1C039B2069B4
:10651000FFF7D4FE291C201CFFF7BAFF291C071C1B
:10652000201CFFF7CBFF291C061C201CFFF7A9FF2E
:10653000391C0090331C20690122FFF7EFFC231C5B
:10654000C3331978013B1A782069FFF703FD2069EE
:10655000FFF721FD05B0F0BD90BC0000704710B5FD
:10656000041C006803F0B8F9201C10BD10B5041C11
:106570000068002801D003F0AFF900232360A36076
:10658000636010BD38B5041C0D1C0068013103F0B8
:1065900083FA002801D021C4012038BD036810B55A
:1065A000041C002B02D043688B4209D2201CFFF749
:1065B000E9FF002805D0A368002B01D122681370E1
:1065C000012010BD70B50E1C111C041C151CFFF71A
:1065D000E5FF002803D1201CFFF7C8FF04E0A560F9
:1065E0002068311C03F0A4FA201C70BD38B50023CC
:1065F000041C0D1C036043608360994207D0081C93
:1066000003F09EFA291C021C201CFFF7DBFF201C54
:1066100038BD000038B5051C00680C1C002811D0DE
:10662000096800290CD00D4B002B09D06A68A368BB
:106630009A4205D303F07CFAA368AB6000230AE01A
:1066400003F04AF9226863682A60A2686B6000233D
:10665000AA6023606360A36038BDC0465D6500002A
:1066600010B50B1C041E8C4208D00968002903D009
:106670009A68FFF7A7FF01E0FFF778FF201C10BD25
:1066800010B50023041C036043608360FFF7E8FF3C
:10669000201C10BD10B5041E8C4201D0FFF7BAFFBC
:1066A000201C10BD38B5041C0D1E08D0081C03F0BA
:1066B00047FA291C021C201CFFF784FF01E0FFF7AA
:1066C00055FF201C38BDC0B500238DB0061C171C1B
:1066D000036043608360081C02F0BAFF03ABBA1C7E
:1066E00052B200933B1C00F017FC011C301CFFF75A
:1066F000D9FF301C0DB0C0BDF8B5041C0F1C866856
:1067000001D100250FE00125002A0CD09619311C7B
:10671000FFF744FF0028F4D02268A368391CD01882
:1067200003F006FAA660281CF8BD08B50B1C9A6891
:106730000968FFF7E1FF08BD13B50A22041C081C15
:1067400001A900F0E1F801A803F0FAF901A9021C7F
:10675000201CFFF7D1FF16BD0B1C10B509689A6805
:10676000041CFFF7C9FF002802D1201CFFF7FEFE22
:10677000201C10BD38B5041C0D1E09D0081C03F0E8
:10678000DFF9291C021C201CFFF7B6FF002802D1EC
:10679000201CFFF7EBFE201C38BD10B5041CFFF7D2
:1067A000CBFF002802D1201CFFF7E0FE201C10BD0B
:1067B000FEE7FEE708B5034B1B68002B00D09847A7
:1067C00008BDC046D00D002038B50F490F4CA1427E
:1067D00004D100F0C7F800F09DF80BE00C4D8D429D
:1067E000F7D00023CA18E818A24204D20068043384
:1067F0001060F7E7FEE79042EBD0064B064A934263
:10680000E7D2002204C3F9E7000000207001002055
:1068100020C4000070010020F40D002008B500F035
:106820002CF8002801D100F01DF808BD014B1860BC
:106830007047C046D00D0020014B18687047C04615
:10684000D40D002070B5041E08D0054B1D681E1C19
:1068500000F012F833685B1BA342F9D370BDC04649
:10686000D40D002008B5034B1A6801321A60FFF7F7
:10687000B9FA08BDD40D0020704700207047F0B56C
:106880008FB00D1C029235D0131C023B222B33D843
:106890000A2A33D1002831DA01234642039305AC9A
:1068A0000194002E12D0301C029900F01FFC301C05
:1068B0000F1C029900F0D6FB631C061C092F01DC9B
:1068C000303700E0573727701C1CEAE7019A9442E2
:1068D000E9D0039A2B1C002A02D02D226B1C2A70AF
:1068E000019A944204D9013C22781A700133F7E7E7
:1068F00000221A70281C05E0002003E00022061C7C
:106900000392CCE70FB0F0BD08B5FFF7B8FF08BDA4
:106910007047000010B500F0D9F802F0ADFFFFF7A6
:10692000F7FF0120FFF78EFF084C201CFEF76CFCE0
:10693000201CFEF7E1FCFBF739FFFBF7B7FF044B28
:10694000002BFAD000E000BFF7E7C046BF0C0020E4
:106950000000000008B502F0B5FF08BD08B502F060
:10696000BBFF08BD70B5494A1E21536802208B4306
:106970000343474953608B69082423438B61454C8B
:10698000454B9C829C8A20439882101CDA689407AD
:10699000FCD5424A012414701478E50704D53F4C15
:1069A000647864B2002CF7DB01249460547864B2FC
:1069B000002CFBDB3A4D394C6560547864B2002CF6
:1069C000FBDB8225354CED016580547864B2002CE8
:1069D000FBDB02249C84DC68E606FCD5314D2E4CA2
:1069E000E562DD682C4CEE06FBD5A58C2E4E3543BA
:1069F000A584DD68284CEE06FBD5A58C0226354320
:106A0000A584DC682506FCD5234CE4686606F8D529
:106A1000DC68E506FCD500249460547864B2002C50
:106A2000FBDB224D1D4C656055781C4C6DB2002D72
:106A3000FADB1E6A1E4D35401D621D6A8026B54375
:106A40001D620323A3601B4B636053785BB2002B72
:106A5000FBDB00230B72184A4B728B72CB72174B05
:106A6000FF211A60164B174A1B6812685C01D20E90
:106A7000214011439A06520F12020B1C1343124A73
:106A80001385436880221343436070BD004000417A
:106A9000000400400C06000000080040000C00400C
:106AA00001050100B805FF7D040A0000000703008E
:106AB000FFFCFFFF03060100006CDC0290000020D9
:106AC000246080002060800000400042314BFA21A9
:106AD000186810B5890000F0C5FA2F4B01389842AC
:106AE00024D82E4A2E4B5060186AC0210002000A9A
:106AF0000906014319620024072194601160196A94
:106B000080220902090A12060A431A62254BFC2157
:106B10001A6A0A431A62196AFC2292010A431A622B
:106B2000196AA022D2020A431A6200E0FEE7201C82
:106B30000021013400F0ECF8142CF8D11A4C6378E1
:106B40005BB2002BFADB194B6380194B5A7ED209DA
:106B5000012AFAD0E422D2009A803F22DA70597ECC
:106B6000134AC9090129FAD0C0235B01002013612F
:106B7000907000F02DF863785BB2002BFBDB0D4AC0
:106B8000094B5A800C4BDA79D209012AFAD04122FA
:106B90005A7010BD90000020FFFFFF0010E000E0E1
:106BA00000ED00E000040040000C00401E4000002A
:106BB000004000422140000000480042914205D0C0
:106BC00002D9891AC84001E0511A88407047000074
:106BD00000B5144A517E131CC9090129F9D00138A6
:106BE000042813D81969104A0A401A615A780F21EB
:106BF0008A4300F02DFA030509070300012102E092
:106C0000032100E002210A435A700AE01169F023CF
:106C10001B050B43136153780F218B4302210B4358
:106C2000537000BD00400042FFFFFFF010B5041E8E
:106C3000062C05D0072805D0052804D80E3402E01C
:106C4000082400E00924201C012100F003F90E2C87
:106C50000CD12A4BDA79D209012AFAD01A7802210A
:106C60008A431A70DA79D209012AFBD0244B5A7E62
:106C7000D209012AFAD018225443224A1869141959
:106C8000217C1F2290431140021C0A431A61597E45
:106C90001B4AC9090129FAD0117802200143117059
:106CA000597E174AC9090129FAD0117B02200143F4
:106CB000117301211176597E114AC9090129FAD0AF
:106CC000117B0220014311731A7ED107FCD50C4AB7
:106CD000508B80B2597E0A4AC9090129FAD011782D
:106CE0000224A14311705A7ED209012AFBD0064B1F
:106CF0001968064B1A68FFF761FF10BD0048004293
:106D00000040004290BC0000940000209800002049
:106D100010B51824021C201C5043274B1818007A69
:106D200040B2013046D0032944D8081C211C00F091
:106D30008FF902331121624398569A18C3011F48F4
:106D400052681B18991840310220087001219140A7
:106D500059602FE06243985618499A185268C30147
:106D60005B18991840310620087001219140596044
:106D700099611FE051435A56104859184B68D20187
:106D80001118C8184030062404700120984048604B
:106D90000B49521850600DE0624398569A18C3018F
:106DA000064852681B1899184031022008700121CA
:106DB0009140996010BDC04690BC00000044004165
:106DC0001044004118235843134AF0B513180824FF
:106DD0001C5701341FD08256104ED2015D68012429
:106DE0009019231C8668AB401E420BD10E1C771EE7
:106DF000BE41401934404030A50004780426B44315
:106E00002C430470002903D105495218536002E055
:106E1000024E92199361F0BD90BC00000044004105
:106E20001044004118235843084A082113185956A2
:106E3000013109D082560649D20152185B68106AA6
:106E4000D8400123184000E00020704790BC0000AB
:106E50000044004118224243F8B52D4D0824AA18D9
:106E60001457031C621C50D0481C00240C284CD81A
:106E700000F0EEF8071E1E1E1E1E1E1E1E0A0A0A27
:106E80000A000124644240E0092902D1181C0021B3
:106E900003E00A2904D1181C0221FFF739FF23E07F
:106EA00000240B2931D1181C0121FFF731FF2CE000
:106EB00018225343EA185268EB560120141C044070
:106EC0005508DB01002C11D0124C1B195D1930350F
:106ED0002E780C010F21314021439A18C9B2297034
:106EE000403213781843107000240EE0094E0F272B
:106EF0009B195D1930352E789A18BE433143C9B2BB
:106F000029704032137818431070201CF8BDC04619
:106F100090BC00000044004170B586B0041C0D1CFC
:106F20000A9E064901A802F0D5FD301C01A9221CC9
:106F30002B1C02F0CFFD301C06B070BD60C10000FC
:106F400070B544680E1C0025002C09D02368201C55
:106F50005B68311C9847002804DB2D18E468F3E7D0
:106F6000281C01E00120404270BD38B544680D1C6A
:106F7000002C08D02368201C9B68291C98470028F7
:106F800002D1E468F4E7201C38BD38B544680D1C14
:106F9000002C07D02368201C291CDB689847E46874
:106FA0002D18F5E72C7038BD38B544680D1C002C41
:106FB00008D02368201C1B68291C9847002803D18F
:106FC000E468F4E7201C00E0012038BD064B0122F4
:106FD000196810B51140054805D102240470042435
:106FE000447041601A6010BDE00D0020D80D0020F3
:106FF0000B1C011C021C30B519430220002900D1D2
:1070000030BD802109068B4216D00D4904205C1842
:107010000C498C42F4D90C4D5C198C42F0D90B4CC4
:10702000590049080320A142EAD9074C0020A14297
:10703000E6D150425041E3E7002AE1D0EFE7C046F5
:107040000000F0FFFFFFDF7F0000F07FFFFF0F0079
:1070500002B4714649084900095C49008E4402BCEB
:107060007047C046002934D00123002210B4884262
:107070002CD301242407A14204D2814202D2090167
:107080001B01F8E7E400A14204D2814202D2490088
:107090005B00F8E7884201D3401A1A434C08A0422B
:1070A00002D3001B5C0822438C08A04202D3001BC1
:1070B0009C082243CC08A04202D3001BDC082243D8
:1070C000002803D01B0901D00909E3E7101C10BCFC
:1070D0007047002801D00020C04307B4024802A135
:1070E0004018029003BDC046D90000000029F0D02E
:1070F00003B5FFF7B9FF0EBC4243891A1847C046D3
:10710000002941D010B4041C4C40A44601230022A5
:10711000002900D54942002800D5404288422CD39E
:1071200001242407A14204D2814202D209011B0199
:10713000F8E7E400A14204D2814202D249005B0098
:10714000F8E7884201D3401A1A434C08A04202D300
:10715000001B5C0822438C08A04202D3001B9C0841
:107160002243CC08A04202D3001BDC0822430028A3
:1071700003D01B0901D00909E3E7101C6446002C69
:1071800000D5404210BC7047002806D003DB002029
:10719000C043400801E08020000607B4024802A175
:1071A0004018029003BDC046190000000029EBD032
:1071B00003B5FFF7A7FF0EBC4243891A1847C04624
:1071C0007047C0468446101C62468C46191C6346B4
:1071D00000E0C0461FB501F09BFB002801D4002150
:1071E000C8421FBD10B501F0CBFA4042013010BDBE
:1071F00010B501F08DFB002801DB002010BD01203F
:1072000010BDC04610B501F083FB002801DD002051
:1072100010BD012010BDC04610B501F0FBFA0028DA
:1072200001DC002010BD012010BDC04610B501F0EA
:10723000F1FA002801DA002010BD012010BDC0467F
:10724000F8B543024400C50F4E024800240E2A1C24
:107250009B09000EC90FB6098D4256D0221A002A8A
:1072600000DC83E000281AD1002E00D06FE0580720
:1072700004D00F221A40042A00D00433590137D514
:107280000134FF2C00D17DE09B015B0AE0B22A1C97
:107290005B02C405580AD20720431043F8BDFF2CF7
:1072A000E5D08021C9040E431B2A00DD27E1311CF3
:1072B0002020D140821A9640721E96410E439B1B9D
:1072C0005801D4D59B019F09381C02F09FFA421F38
:1072D000974094425ADC141B1F231B1B3A1C9F40EF
:1072E000611C3B1CCA405F1EBB4113430024BEE728
:1072F000DB08E0B22A1CFF2C04D1002B79D08021BE
:10730000C9030B435B025B0AC2E7211A002941DD76
:10731000002822D0FF2CAAD08020C00406431B29BD
:1073200000DDEAE0301C2027C840791A8E40711E2B
:107330008E4106439B19590199D50134FF2C57D032
:10734000704901221A400B405B0813438FE7013A52
:10735000002AB4D0FF2CA7D189E7002E00D186E700
:1073600001390029E6D0FF2CD9D180E7002A1DD1B0
:10737000621CD2B2012A4DDD9F1B7A0125D5F71A76
:107380000D1CA1E72A1CFF20002381E75D4BA41AF6
:107390003B406CE7002946D1611CC8B201282ADDB8
:1073A000FF2925D0F3185B080C1C60E7002C13D0D4
:1073B000FF2818D08024E404524223431B2A4DDDC9
:1073C0000123F31A041C0D1C7AE7002F00D07BE781
:1073D00000220020002395E7002B3BD0D243002A57
:1073E000EFD0FF28EAD1331CFF240D1C3FE7002219
:1073F000FF2000234CE7002C5AD1002B77D0002E21
:1074000000D134E79B19580100D430E73D4A0124EC
:1074100013402CE7002C15D1002B2FD1002ED7D0F4
:10742000331C0D1C23E7002C21D1002B53D0C94362
:10743000002904D0FF284BD01B294FDD01239B19C5
:10744000041C78E7002B22D1002ED0D0331C0D1C59
:10745000FF240CE7331C041C0D1C08E71C1C202512
:10746000D440AA1A93405A1E93412343A9E7FF2808
:107470002ED08024E40449422343DDE7002E00D1CE
:10748000F5E69A1B500134D5F31A0D1CEFE6FF24E4
:10749000002E00D1EBE68022DB08D203134204D099
:1074A000F608164201D1331C0D1CDB00FF24DEE67A
:1074B000002B0DD0FF24002E00D1D8E68022DB085F
:1074C000D2031342F1D0F6081642EED1331CECE79A
:1074D000331CFF24CBE6331C041CC8E61C1C2027ED
:1074E000CC40791A8B40591E8B412343A7E7331CAC
:1074F000BDE6131E00D0BAE66AE701261AE70126A8
:10750000DDE6C046FFFFFFFBF0B55F4656464D4641
:107510004446F0B446024500C00F85B00F1C760A01
:107520002D0E804641D0FF2D26D08024240400213A
:107530002643F6007F3D89468B46F90F7C02780092
:10754000640A000E00918A463CD0FF2834D0802384
:107550001B041C430023E4007F380193009F434633
:10756000019A7B4049469C4611430F2900D971E09E
:10757000764F89007F58BF46002E3ED10822022355
:1075800091469B46D9E75A46341CC246019201995E
:10759000022937D0032900D1CFE0012900D0ABE088
:1075A00053460B400022002632E0002E19D1042160
:1075B000012289469346C0E7221C531E9A4102329B
:1075C0000192CBE701270197002CC7D0201C02F0C5
:1075D0001DF9431F9C4076235B420021181A01913C
:1075E000BCE7301C02F012F97625431F9E406D4225
:1075F00000232D1A99469B469FE70C2303219946A9
:107600008B469AE7D446012367463B40FF2200267B
:107610007602D205700ADB071043184305B03CBC64
:1076200090469946A246AB46F0BD80260023F6035D
:10763000FF22EDE700220026EAE78020C003064291
:107640003BD0044239D1061C26437602760A009BC1
:10765000FF22DDE7281A039076016401A64239D3A0
:10766000361B1A2201230120311C5B007600002901
:1076700001DBB44201D8361B0343013A002AF3DC94
:10768000741EA641341C1C43039A7F32002A27DD56
:10769000630704D00F232340042B00D004342701B8
:1076A00003D52B4B039A1C408032FE2A0BDD0123AD
:1076B00061460B40FF220026AAE706437602760ABF
:1076C0004346FF22A4E7A40101236746660AD2B21B
:1076D0003B409DE7039F1B22013F03970023C2E726
:1076E0007E23039F5B42DB1B1B2B07DD01236146CF
:1076F0000B40002200268BE7D446C5E7221CDA4067
:10770000039B9E339C40231C5C1EA34113435A07DA
:1077100004D00F221A40042A00D004335F0105D59B
:10772000012361460B400122002671E79E0162465B
:1077300001231340760A00226AE78026F6032643D7
:107740007602760A5346FF2262E7C0466CC100000B
:10775000FFFFFFF7F0B55F4656464D464446F0B48E
:107760004402460083B00F1C640A360EC50F002E7B
:1077700041D0FF2E22D080231B0400201C43E400B4
:107780007F3E82468046391C4B007F02C90F7F0A2C
:107790001B0E8B463BD0FF2B34D0802212041743A4
:1077A000FF007F3B00215A466A40019252460A433D
:1077B0000F2A63D87A48920082589746002C3FD10E
:1077C0000822022392469846DDE7019540460228AA
:1077D0002AD1019A01251540FF2300246402DB050C
:1077E000600AED071843284303B03CBC9046994615
:1077F000A246AB46F0BD002C27D1042001228246D0
:107800009046C0E7391C4A1E91410231CBE7012165
:10781000002FC8D0381C01F0F9FF431F9F4076238A
:107820005B421B1A0021BEE7032800D1AEE001280D
:107830004FD1019842461040C5B200230024CDE745
:107840000C2303209A4680469DE7201C01F0DEFFB2
:107850007626431F9C4076420023361A9A46984665
:1078600091E780240025E403FF23B7E75B463C1C37
:1078700001938846AAE73C1C8846A7E7250C240408
:107880003A0C240C3F04F6183F0C211C231C7943AE
:1078900053436F435543FB180A0C9B18B1469F4254
:1078A00002D980225202AD1809041A04090C521898
:1078B00094011B0C611E8C41920EED181443AD0116
:1078C0002C43230105D50122630801201440814483
:1078D0001C434B467F33002B2DDD600704D00F2265
:1078E0002240042A00D00434220103D52D4B1C4031
:1078F0004B468033FE2B17DD019B01251D400024E4
:10790000FF236BE78020C003044208D0074206D162
:10791000041C3C436402640A5D46FF235EE70443A3
:107920006402640AFF2359E70198A4010125640A4F
:10793000DBB2054052E77E235B424A469B1A1B2B73
:1079400005DD019B01251D400024002346E7221C84
:10795000DA404B469E339C40231C5C1EA3411343DC
:10796000580704D00F221A40042A00D004335A01C9
:1079700005D5019B01251D40002401232EE7019818
:107980009C010125640A0540002327E78027FF03A7
:10799000019B3C43640201251D40640AFF231DE74F
:1079A000ACC10000FFFFFFF770B5041E3CD0C60F4E
:1079B00000D04442201C01F029FF9E23251C1B1AE5
:1079C000962B0CDC083884406402640ADBB2321C5B
:1079D0006402DB05600AD2071843104370BD992B7F
:1079E0000ADD0522121A211CD1400A1C011C1B3180
:1079F0008D40691E8D411543052801DD421F9540CC
:107A0000164C2C406A0704D00F221540042D00D0DC
:107A1000043461010CD59F23181AFF281AD0A40141
:107A2000640AC3B2321CD3E7002200230024CFE74C
:107A3000E408FF2B04D06402640ADBB2321CC7E7FF
:107A4000002C04D08020C00304436402640A321C6A
:107A5000FF23BDE7321CFF230024B9E7FFFFFFFB34
:107A600010B5041E33D001F0D1FE9E231B1A962BB5
:107A700009DC083884406402640ADBB26402DB0576
:107A8000600A184310BD992B0ADD0522121A211C29
:107A9000D1400A1C011C1B318C40611E8C411443D7
:107AA000052801DD421F9440144A2240610704D09A
:107AB0000F210C40042C00D0043251010AD59F2321
:107AC000181AFF2816D09401640AC3B2D6E700231F
:107AD0000024D3E7D208FF2B03D05402640ADBB2A0
