:10200000008000202979000011790000117900007A
:1020100000000000000000000000000000000000C0
:102020000000000000000000000000001179000026
:102030000000000000000000117900007D79000020
:102040001179000011790000117900006554000039
:102050008D760000117900001179000015790000DB
:1020600011790000255C0000117900001179000051
:102070002534000011790000355C00001179000062
:102080001179000011790000ED2F00001179000096
:1020900000000000117900001179000011790000A2
:1020A0001179000011790000117900001179000008
:1020B0000000000010B5064C2378002B07D1054B1B
:1020C000002B02D0044800E000BF0123237010BDA4
:1020D000600100200000000034EB000008B5084B50
:1020E000002B03D00748084900E000BF07480368F9
:1020F000002B03D0064B002B00D0984708BDC046EC
:102100000000000034EB00006401002058010020B2
:1021100000000000014B03607047C04668DF00000C
:1021200070470000031C007C0822104004D0D86ACD
:102130005B6AC01A00D501487047C046FFFFFF7FA9
:10214000014B03607047C04668DF000010B5034BC9
:10215000041C036005F0EAFC201C10BD68DF0000D1
:1021600010B5034B041C036005F0E0FC201C10BDFF
:1021700068DF000008B5103001F0BEFE08BD07B5ED
:102180006B46D97107331030191C012201F0B4FEDF
:102190000EBD08B5103001F011FE08BD08B51030B5
:1021A00001F02EFD08BD000008B505F0F5FB0A4B57
:1021B0001968421A191CC8235B009A4209D9074BB7
:1021C0001A78022A01D1002202E0002A01D102225B
:1021D0001A70086008BDC046F40600200A070020F7
:1021E00013B56C460734211C012201F047FC01287D
:1021F00001D1207801E00120404216BD08B5103021
:10220000FFF7EEFF08BD0000002303744374436032
:10221000FA239B008360014B0360704788DF000056
:10222000F0B5274B87B01E685F680D1C301C391C49
:10223000141C05F049FF00900191301C391C05F079
:10224000C7FF02900391281C09F0F4FC061C201C17
:102250000F1C09F0EFFC009A019B04900591301CC3
:10226000391C08F0F9FE029A039B041C0D1C04980B
:10227000059908F0F1FE021C0B1C201C291C09F01A
:102280007BF909F0A3FC0F4B391C1880029A039BC1
:10229000301C08F0E1FE009A019B041C0D1C049800
:1022A000059908F0D9FE021C0B1C201C291C07F004
:1022B0004DFF09F08BFC044B188007B0F0BDC04601
:1022C0000806002064060020B8060020F0B5284B60
:1022D00087B01E685F68051C391C301C141C05F093
:1022E000F3FE00900191301C391C05F071FF029043
:1022F0000391281C09F09EFC071C201C0E1C09F0F1
:1023000099FC009A019B04900591381C311C08F03F
:10231000A3FE029A039B041C0D1C0498059908F067
:102320009BFE021C0B1C201C291C07F00FFF09F050
:102330004DFC104B188080231B06F118381C029AA4
:10234000039B08F089FE009A019B041C0D1C049855
:10235000059908F081FE021C0B1C201C291C07F0AB
:10236000F5FE09F033FC044B188007B0F0BDC04601
:102370001006002018060020B8060020F7B50F1C34
:102380003E680EC878684E4350433618B8685243CA
:10239000584349435B4336188818C01809F04AFC73
:1023A00005F0CAFF0D1C0ECF524349435B43041C8A
:1023B0008818C01809F03EFC05F0BEFF009001919E
:1023C000301C09F037FC009A019B061C0F1C201CD6
:1023D000291C08F041FE021C0B1C301C391C08F0A3
:1023E000D1F905F04DFF03B0F0BD00001FB500238B
:1023F000012201A9019303930292FFF7BFFF024B51
:102400001860596005B000BD080600201FB5012303
:10241000019301A9002302930393FFF7AFFF024B3F
:102420001860596005B000BD1006002008B50C20EA
:10243000022105F0D9FC0C200249002205F0A4F885
:1024400008BDC046A921000008B50820012105F0FB
:10245000CBFC0D20012105F0C7FC1220012105F065
:10246000C3FC1120012105F0BFFC1320012105F060
:10247000BBFC08BD08B51120012105F00FFD08BD0A
:1024800008B51120002105F009FD08BD08B512208E
:10249000012105F003FD08BD08B51220002105F05B
:1024A000FDFC08BD08B51320012105F0F7FC08BDAF
:1024B00008B50D20012105F0F1FC08BD08B50D207F
:1024C000002105F0EBFC08BD08B50820012105F04E
:1024D000E5FC08BD08B50820002105F0DFFC08BDBB
:1024E00008B5E1210248490203F08AFC08BDC04654
:1024F000CC0C002010B5074C201C03F0C3F9E28877
:10250000054B1A802289054B1A806289044B1A8078
:1025100010BDC0461C06002004070020060700204E
:1025200008070020F8B50024124F251C261CFFF7D1
:10253000E1FF114B013F06215A5EBFB2B6180821D8
:102540005A5EAD180A229B5EE418002FEFD1301CB2
:10255000084907F031FC094B06491880281C07F090
:102560002BFC074B03491880201C07F025FC054B6A
:102570001880F8BDA86100001C0600201806002085
:1025800064060020B8060020F0B58DB0FFF77EFF8E
:102590008D48002103F00AFB8C4C8D49201C04F06F
:1025A0001FFCFFF7BFFF09A88A4905F0D9F88A4F39
:1025B00006A80022B95E0A2205F021F906A909A899
:1025C00005F079F9011C201C04F000FC06A805F0B8
:1025D00080F809A805F07DF809A8804905F0C0F841
:1025E0007F4E0A220023F15E06A805F008F906A92D
:1025F00009A805F060F9011C201C04F0E7FB06A8FF
:1026000005F067F809A805F064F809A8754905F010
:10261000A7F8754A06A80021515E0A2205F0EFF8D6
:1026200006A909A805F047F9011C201C04F0CEFBFF
:1026300006A805F04EF809A805F04BF800217B5ECE
:10264000694903930022B35E03AD04930023CB5E7C
:10265000281C0593FFF7CAFE281CFFF7D7FE09A820
:10266000624905F07DF8624B18685968534B524A2D
:1026700008F0F2FC524A534B08F084F80B1C02217C
:10268000021C009106A805F0CCF806A909A805F0DF
:1026900012F9011C201C04F099FB06A805F019F89A
:1026A00009A805F016F809A8524905F059F8524B47
:1026B00018685968414B404A08F0CEFC404A414BEB
:1026C00008F060F80B1C0221021C009106A805F01E
:1026D000A8F806A909A805F0EEF8011C201C04F0D2
:1026E00075FB06A804F0F5FF09A804F0F2FF039AB1
:1026F0000423E95E10B20823EA5EFFF791FD3A4B2E
:102700000021785E0022B15E00229A5E0390AA60EA
:102710006960FFF7DBFD09A8384905F021F80022C0
:10272000B95E06A80A2205F06AF806A909A805F00C
:10273000C2F8011C201C04F049FB06A804F0C9FFE4
:1027400009A804F0C6FF09A82D4905F009F80A22D6
:102750000023F15E06A805F052F806A909A805F0C5
:10276000AAF8011C201C04F031FB06A804F0B1FFFC
:1027700009A804F0AEFF09A8224904F0F1FF1A4AA3
:1027800006A80021515E0A2205F039F806A909A819
:1027900005F091F8011C201C04F018FB06A804F0B9
:1027A00098FF09A804F095FFFFF776FE164B00226C
:1027B0001A700DB0F0BDC0460000000000806640F9
:1027C000182D4454FB2109401C060020CC0C00208D
:1027D000E9DF0000F9DF00001806002001E000003A
:1027E0006406002009E00000B806002011E00000A7
:1027F000080600201DE000001006002029E000006F
:1028000031E0000039E000000A070020C046C04661
:1028100010B50C4C201C03F035F80722E388A256B3
:1028200009490A484A700B7009222389A2568B7005
:10283000CA700B22A25663894A7106220B71FFF7F8
:1028400099FC10BD1C060020010600208406002013
:10285000F0B53C4E87B0041C311C684604F080FF84
:10286000311C201C04F07CFF374F381C02F0E0FEC6
:10287000364D2870381C02F0D1FE354B1870381CCC
:1028800002F0C2FE334B2A781870314F092A03D860
:102890006846314904F091FF694603A804F083FFBC
:1028A000297803A805F028F82C4905F012F8011C36
:1028B000201C04F0E9FF03A804F00BFF6846311C5C
:1028C00004F07BFF3B78092B03D86846224904F0CB
:1028D00074FF694603A804F066FF397803A805F081
:1028E0000BF81E4904F0F5FF011C201C04F0CCFF7E
:1028F00003A804F0EEFE6846311C04F05EFF154BA1
:102900001B78092B03D86846134904F056FF694623
:1029100003A804F048FF0F4B03A8197804F0ECFF5C
:10292000011C201C04F0B0FF03A804F0D2FE311CEF
:10293000684604F042FF684604F0CBFE201C07B056
:10294000F0BDC0468DE60000000600200700002014
:10295000F10600204406002043E0000045E00000AE
:102960007FB50F4903A804F0FBFE6846FFF770FF30
:10297000694603A804F09FFF011C0A4804F026FAE8
:10298000684604F0A6FE03A804F0A3FEFFF790FD3E
:10299000054B04211A690A431A6130BF07B000BD14
:1029A00047E00000CC0C002000ED00E0F0B53B4D0E
:1029B00087B0041C291C684604F0D2FE291C201C88
:1029C00004F0CEFE364E301C02F050FE354F38700B
:1029D000301C02F041FE344B1870301C02F032FE05
:1029E000324B314E1870092803D86846304904F03C
:1029F000E4FE694603A804F0D6FE2C4B03A8197820
:102A000004F07AFF2B4904F064FF011C201C04F041
:102A10003BFF03A804F05DFE6846291C04F0CDFED0
:102A20003378092B03D86846214904F0C6FE69466D
:102A300003A804F0B8FE317803A804F05DFF1D4937
:102A400004F047FF011C201C04F01EFF03A804F043
:102A500040FE6846291C04F0B0FE3B78092B03D8E1
:102A60006846134904F0A9FE694603A804F09BFEDA
:102A7000397803A804F040FF011C201C04F004FF77
:102A800003A804F026FE291C684604F096FE68465A
:102A900004F01FFE201C07B0F0BDC0468DE600000C
:102AA0000006002006000020040000200500002091
:102AB00043E0000068E0000030B58BB0041C01A8C2
:102AC000FFF774FF01A904A804F06DFE0D4904A8E6
:102AD00004F0FFFE051C07A8FFF7BAFE07A9281C93
:102AE00004F0E9FE011C201C04F05DFE07A804F0C0
:102AF000F0FD04A804F0EDFD01A804F0EAFD201C9F
:102B00000BB030BD8CE9000010B5144C86B0201C11
:102B1000002102F0E5FD0022201C131C102102F010
:102B2000E9FC06221123201C0D2102F02FFD0C4987
:102B300003A804F015FE6846FFF7BEFF694603A828
:102B400004F0B9FE011C074804F040F9684604F09F
:102B5000C0FD03A804F0BDFD06B010BD00060020B6
:102B60006AE00000CC0C002038B5051C0024AC4203
:102B70000CD2FFF79DFC642004F014FF0134FFF732
:102B80009DFC642004F00EFFE4B2F0E72C1C092C3D
:102B9000ECD8C820013404F005FFE4B2F7E70000E8
:102BA00010B5094C1821201C02F0C8FF002802D1E2
:102BB0000120FFF7D9FF201C03F01AF8034904484D
:102BC00004F00EF910BDC0461C06002081E0000094
:102BD000CC0C00207FB5002303AA13706A46537300
:102BE0001E4C8C23DB00E6181D4B301CE118039BA8
:102BF000042200931B4B00F0F3FC1B4D002825D052
:102C00001A4B2660E01801F021F90121201C01F087
:102C10008FFE011E08D0154B211CE618301C00F059
:102C200013FF002812D005E0201C01F081FE0028CF
:102C3000F1D10BE00D4BE25C70231A4206D00C4B35
:102C4000281C0C491E6004F0CBF87FBD281C0A49E3
:102C500004F0C6F80220FFF787FFC0468801002075
:102C60006C040000001BB700CC0C00203C040000EA
:102C7000880800209AE00000B5E0000010B50A20A6
:102C800086B0012105F0B0F80A20002105F006F910
:102C9000FFF726FCFFF7D8FB164C1749201C04F061
:102CA0009FF8FFF7C3FB1549201C04F099F8FFF7C4
:102CB00091FFFFF775FFFFF727FF114903A804F005
:102CC0004FFD6846FFF7F8FE694603A804F0F3FDE0
:102CD000011C201C04F07AF8684604F0FAFC03A8F2
:102CE00004F0F7FC074B00221A70FFF7F3FB06B065
:102CF00010BDC046CC0C0020D1E00000DBE000009D
:102D0000E9E000000A07002037B581020A4807F011
:102D100053F80A4C451E208A228B0021009580B270
:102D200092B20B1C04F0CAFCADB280B220822583A3
:102D3000E37BDB09FCD137BD006CDC02002C0042D8
:102D40001D4A1E4B70B51A801D4B5B78DB09FBD109
:102D50001C4C0222238893432380E27B194BD20927
:102D6000FBD11A8892B21A80E27B164BD209FBD1B2
:102D70001A8820210A431A80E27B124BD209FBD128
:102D80001988E022D2000A431A80E67B0D4DF6092D
:102D9000FBD1FFF7B9FF6E736B7B102213436B738C
:102DA0008022094BD2021A602B88022213432B8007
:102DB000E37BDB09FCD170BD1B400000020C00402E
:102DC000000C0040002C004200E100E0044B022116
:102DD0001A888A431A80DA7BD209FCD17047C04630
:102DE000002C0042F0B591B0FFF768FBFFF772FBD3
:102DF000FFF740FB564D5749281C04F0DEFC564EA9
:102E0000012333705549564F03AC00237F182370BC
:102E10006370201C391C2A68012301F01EF8002869
:102E20001DD03378201C01334E49337004F098FCD8
:102E30000A223178684604F0D1FC6946201C04F06F
:102E40003AFD494904F045FD011C281C04F09BFC97
:102E5000684604F03EFC201C04F03BFCD2E72D68E1
:102E600007AE201CFFF7D0F9391C2A1C301C632345
:102E700000F0F3FF3D4D301C2B1C103386C886C379
:102E8000C4C8C4C346C846C3049FA168E2680A20F8
:102E90006F60A960EA6004F085FDC8208000FFF73C
:102EA0004FFF334E3378022B0DD1324E3378002B47
:102EB00002D0FFF709FB01E0FFF70CFB337801229A
:102EC00053403370EDE7201C2B4904F049FC684661
:102ED0002A4904F045FC6946201C04F0ECFC284F0C
:102EE000011C381C03F072FF684604F0F2FB201C42
:102EF00004F0EFFBFFF76AFF2249201C04F030FCCE
:102F00006846FFF7A5FC6946201C04F0D4FC011CB0
:102F1000381C03F05BFF684604F0DBFB201C04F068
:102F2000D8FBAF20800004F03DFD281C103000F0DD
:102F30008DFF642004F036FD134B1A7801321A70AD
:102F4000FFF7C8FA00233370FFF79AFA11B0F0BD0B
:102F500058060020F7E00000F00600203C040000C6
:102F60008801002000E10000FBE000008406002052
:102F70000A0700201A06002004E100000FE100000B
:102F8000CC0C00201DE100008006002010B5134C81
:102F90002378022B01D1FFF725FF2378012B01D1E4
:102FA000FFF7F2FA2378032B03D10D4B1878FFF7C4
:102FB000DBFD9620400004F0F5FCFFF773FAFFF705
:102FC00077FA0849084803F00BFFFFF7C9FCFFF741
:102FD00075FA9620400004F0E5FC10BD0A070020B9
:102FE000540600202EE10000CC0C002008B5FFF7AD
:102FF0000FFC034B10219A7B0A439A7308BDC0460D
:10300000002C0042F8B53449344B00225A5434495C
:1030100064205A548C21C9005854324932485A54B9
:103020003249DA715850324932485A548E21C90017
:103030005A54FFF7E9F83048FFF7E6F82F4E304FC3
:10304000301C391C04F08CFB2E4D2F4C291C221CEB
:10305000301C08F07FFE2D4E391C301C04F080FB24
:10306000291C221C301C08F075FE294802F0F6F9D4
:10307000284E0121301C02F0BDFB221C301C2649C9
:1030800008F068FE254E264F311C381C04F068FB02
:10309000291C221C381C08F05DFE224F311C381CF4
:1030A00004F05EFB291C221C381C08F053FE1E4F46
:1030B000311C381C04F054FB291C221C381C08F05D
:1030C00049FE1A4F311C381C04F04AFB381C291CDD
:1030D000221C08F03FFEF8BD3C04000088010020DF
:1030E0003D0400006A04000000093D006C0400007B
:1030F0007104000084060020BC0600205806002051
:1031000037E10000D37600000000002068060020B0
:10311000000600201C060020412100008DE6000072
:1031200074060020F80600207C01002048060020DC
:10313000F8B5051C0F1C161C0024B44208D02B68DF
:10314000395D1B68281C9847002801D00134F4E73A
:10315000201CF8BD704708B5183003F0B9FE08BD53
:1031600008B5183003F0C8FE08BD38B5837D0D1CC6
:10317000002B06D0041CC434201C03F0D3FE00280E
:1031800001D0002004E0201C291C03F088FE01204F
:1031900038BD08B5183003F0B8FE08BDF7B5019387
:1031A000FA239B0083600B4B00250833041C456009
:1031B000036018300F1C161C03F064FE201CC43082
:1031C00003F060FE019B27612675A575201C6375C1
:1031D000FEBDC046A8E1000070B50D49041C0069A1
:1031E00004F0DCF8206903F071FF1826207D331C01
:1031F0004343084D0821EB18595604F097FE607DB3
:1032000008214643AD19695604F090FE70BDC046D2
:10321000A086010000E20000F7B5041C00200E1C8F
:10322000151C0193824231D0271C1837381C03F03B
:1032300048FE2069311C012203F084FF002823D0BE
:10324000206903F0EEFF011C381C03F028FE012664
:103250002069AE420ED003F055FF0221206903F031
:103260005BFF206903F0DDFF011C381C03F017FE33
:103270000136EDE703F03EFF019B002B05D02069EE
:10328000032103F049FF00E0051CE8B2FEBD08B5CC
:103290000123FFF7C1FF08BD10B5B8235B00C1547F
:1032A000041CC43003F00DFE0123A37510BDF8B556
:1032B0000022B82382755B00041C0F1CC15C0069EE
:1032C00003F040FF002805D12069032103F024FF0B
:1032D00002251DE0261CC436301C03F00DFE00281C
:1032E0000FD0301C256903F0F3FDC1B2281C03F098
:1032F00058FF0028EED12069032103F00DFF0325BC
:1033000006E0051C002F03D02069032103F004FF11
:10331000281CF8BD08B50121FFF7C9FF08BD38B565
:10332000041C006903F05BFF002879D0206903F0DA
:1033300064FF00280ED1206903F069FF00281FD028
:10334000206903F05FFF00281AD0206903F064FFB2
:10335000002815D1206903F0D5FE2069032103F070
:10336000DBFE231CFC33DD6F002D04D02368201C02
:103370009B689847A847201C183003F0A2FD4FE037
:10338000206903F044FF031C2069002B16D003F0D2
:10339000B9FE2069032103F0BFFE206903F03CFF62
:1033A00000283DD0201CC43003F08BFD0123A37501
:1033B000FC34A36F002B33D0984731E003F018FFA3
:1033C00000282DD0206903F027FF251C00280FD0EE
:1033D000C435281C03F090FDFF21002803D0281CD1
:1033E00003F076FDC1B2206903F0ECFEA07517E092
:1033F0001835281C03F096FD031C2069002B02D011
:1034000003F078FE08E003F00CFF011C281C03F019
:1034100046FD206903F076FE2069032103F07CFE5F
:1034200038BD000008B50248FFF779FF08BDC04667
:103430000C07002008B50348034914221523FFF7A1
:10344000ADFE08BD0C070020B40C002008B50248F2
:10345000FF2101F0B1FB08BD9808002008B5011C50
:10346000014801F0A9FB08BD9808002038B5057A8D
:10347000041C002D0BD14368054806CB01F06EFB00
:103480006368291C187A04F009FD0123237238BDF2
:103490009808002010B5037A041C002B0CD0436858
:1034A0000121187A04F0FAFCFF20FFF7D7FF034848
:1034B00001F070FB0023237210BDC0469808002065
:1034C000F8B5041C0D1C161C04F066FA071CFFF767
:1034D000BDFF6072FF280AD104F05EFABBB280B271
:1034E000C01A96235B009842F1DD542303E0AE1925
:1034F000FE2806D05023201C2370FFF7CBFF0020AE
:103500000FE0B54206D00748FF2101F055FB2870B7
:103510000135F6E700236372FFF798FFFFF796FF88
:103520000120F8BD9808002038B50D1C04F034FACD
:10353000041CFFF78BFFFF2808D004F02DFAA3B27C
:1035400080B2C01AA842F4DD002000E0012038BD9E
:1035500037B50192037A041C0D1C002B01D1FFF733
:1035600085FF96218900201CFFF7DEFF40202843BD
:10357000FFF774FF6B46D879FFF770FF6B469879B9
:10358000FFF76CFF6B465879FFF768FF01AB1878BF
:10359000FFF764FF8720002D00D19520FFF75EFF25
:1035A0000C2D01D1FFF752FF0025FFF74FFF43B26B
:1035B0006072002B04DAFF2D02D00135EDB2F4E782
:1035C0003EBD70B50E1C151C041C37210022FFF7F0
:1035D000BFFF311C2A1C201CFFF7BAFF70BD000082
:1035E00082B0F7B500250572057085724160041C34
:1035F000171C099304F0D0F9626801211772061CA8
:10360000381C04F04BFC0121381C04F0EDFB504841
:1036100001F07CFA6368702252421A7030225242E2
:103620005A7003229A70DD701D715D71201CFFF7C6
:103630001DFF63680121187A04F030FC0A25013D62
:10364000FF20EDB2FFF70AFF002DF8D16268291CB8
:10365000107A04F023FC0021201C0A1CFFF778FFDD
:1036600001280AD004F098F9B3B280B2C01AFA2344
:10367000DB009842EFDD202342E0D522201C082108
:103680005200FFF765FF052801D101230AE0042558
:10369000FFF7DCFE013DEDB26072002DF8D1AA28E3
:1036A00007D10223A372A57A023D6B425D41AD07AB
:1036B0000AE004F071F9B3B280B2C01AFA23DB0059
:1036C0009842DADD25231BE02A1C201C2921FFF764
:1036D00078FF021E0AD004F05FF9B3B280B2C01ABC
:1036E000FA23DB009842EFDD432309E0A37A022BA3
:1036F0001AD1201C3A21FFF72BFF002806D03723D0
:10370000201C2370FFF7C6FE00201CE0FFF79EFE82
:10371000C0231840984201D10323A372FFF796FEFD
:10372000FFF794FEFFF792FE201CFFF7B3FE099B04
:103730006A46009309AB9B886068694693800622BD
:1037400008F07AFB0120FEBC08BC02B01847C04656
:103750009808002038B5151C827A041C0B1C032A1B
:1037600000D04B02201C11211A1CFFF7F1FE00288B
:1037700002D0302323700BE08022291C201C9200F1
:10378000FFF79EFE051E03D0201CFFF783FE03E01B
:10379000201CFFF77FFE0025281C38BD10B5837A5A
:1037A000041C0A1C032B00D04A02201C1221FFF724
:1037B000CFFE0123002805D031232370201CFFF702
:1037C00069FE0023181C10BD10B50C210022041C3A
:1037D000FFF7BEFE002806D02823201C2370FFF729
:1037E00059FE002003E0201CFFF754FE012010BD0D
:1037F000F8B5041C161C1F1CFFF7D0FF002500287D
:103800000DD1002010E08022311C9200FFF758FEFD
:103810000028F6D0802301359B00ADB2F618201C9D
:10382000BD42F0D3FFF7D0FFF8BD000070B5051C16
:10383000081C161CFFF712FE0024315D0E4801F033
:10384000BBF9013480239B009C42F6D1FF20FFF797
:1038500005FEFF20FFF702FEFFF7F8FD1F23687249
:1038600003400120052B05D05623281C2B70FFF7A1
:1038700011FE002070BDC0469808002038B5151C08
:10388000827A041C0B1C032A00D04B02201C182136
:103890001A1CFFF75DFE002802D0322323700AE0D5
:1038A0002A1C201CFE21FFF7C1FF051E03D0201C8F
:1038B000FFF7F0FD03E0201CFFF7ECFD0025281CBE
:1038C00038BD38B50D1C96218900041CFFF72CFE6D
:1038D000002802D15923237006E0201CFC212A1C59
:1038E000FFF7A4FF002803D1201CFFF7D3FD002021
:1038F00038BD10B5837A041C0A1C032B00D04A0281
:10390000201C1921FFF724FE0123002805D03323B2
:103910002370201CFFF7BEFD0023181C10BD96214C
:1039200038B58900041CFFF7FFFD051E03D0FD20FC
:10393000FFF794FD01E055232370201CFFF7AAFD3B
:10394000281C38BDF8B5041C171C1E1CFFF7D1FF3E
:1039500000280ED0002569027918201CB54205D038
:10396000FFF7AFFF002804D00135F4E7FFF7D7FFDA
:1039700003E0201CFFF78EFD0020F8BD10B5041CED
:10398000243000F0CDFE031C0020834204D08C23A1
:103990009B00E01800F0C4FE10BD08B580238178BC
:1039A0005B42021C0B43837011698068103200F087
:1039B0006BFF08BDF7B505782023041C1D4001D01E
:1039C00000262DE0174B42699A42F9D8FFF7E5FF30
:1039D000061EF5D02169A06800F0EEFE0190A068F7
:1039E00001992430052200F0C2FE071EE8D0802293
:1039F000291C920008F042FA0125A26813799D4221
:103A00000AD2019B1068E9183A1CFFF737FF00281B
:103A1000D6D00135EDB2F0E762695B02D31863617D
:103A2000301CFEBDFFFD1F0010B5041C80680A1C81
:103A30002430A16900F09BFE002804D0A2880F2347
:103A400013405B01C01810BD70B503780025041C3D
:103A50000E1CAB420FD1291C242208F00FFAA660DD
:103A6000F379102B03D0202B05D1402300E0202335
:103A700001252370A570281C70BD0000F0B50378E7
:103A800085B0041C03910192002B13D08278D107DA
:103A900010D516E045790D400295002F43D1002D39
:103AA00041D1002B31D0221C2169103200F08AFE56
:103AB000002831DA63780222134301206370404208
:103AC00098E01A0703D5E2696569531B07E0990678
:103AD00009D5A268656913895B015B1B9BB2019DD7
:103AE0009D4200D90193019D009500250295009DFE
:103AF000002D29D063692278DF05FF0DA068590ADF
:103B00009506C7D5056A4D1913E0510601D5036A1C
:103B100000E0236A236106E0002804D122787023A4
:103B20001A4211D1C6E7A068216900F045FE029A49
:103B30008518A068002F42D12F4B009999423ED999
:103B4000C36A9D4204D13AE0019D0099681A51E090
:103B50002A4A009991421FD9009A570A2278FFB247
:103B6000910608D4029A0179891AC9B20A1CB9428D
:103B700000D93A1CD7B27E029D4209D9A368291CFC
:103B80001868039A3B1CFFF733FE00280DD191E71C
:103B9000FB189D4228D3F1E70068291C039AFFF720
:103BA000D9FD002886D08026B600039D6169AD1935
:103BB0000395009D8B19AD1B6361009597E7243039
:103BC000291C002200F0D3FD002800D172E78023D9
:103BD000009E9B00DB1B9E4200D91E1CC119321C9B
:103BE000039808F029F9E0E7243000F099FD002857
:103BF000C4D15FE705B0F0BDFF010000FF03000086
:103C0000F7B56F460737391C0122041C4669056960
:103C1000FFF734FF012805D13878431C04D06661D2
:103C2000256101E001204042FEBD436937B5DD0555
:103C3000041C2D0F01D000290DD16946201C07312D
:103C40000122FFF71BFF40B2012801D0002008E04D
:103C500063691F3300E02033A0686D013030636179
:103C600040193EBDF7B506690278041C0D1C01968B
:103C7000002A37D041698D4238D0002D01D105612D
:103C80002EE0130703D5C669B5422BD807E093068B
:103C900005D5866833895B019D4223D820E0A7685B
:103CA0006E1EBB79481E0933DE40D840331E834266
:103CB00001D3002906D1510601D53A6A00E0226AF3
:103CC000226100E0331A1F1C002F09D0221CA068BB
:103CD0002169103200F076FD013F0028F4DC01E09C
:103CE000656103E0019E0020266100E00120FEBD29
:103CF000F7B51D1C08AB1B780F1C161C00212422D5
:103D0000041C019308F0BAF8B8680F22A6803F6A35
:103D10001640031C30337601A060E7609E19F37AE9
:103D20000822134202D00020207045E017210B40EA
:103D30002370F77A18210F4201D113432370019B9E
:103D4000E37032231D4203D0227811231A42EAD1B4
:103D50000F232B40A370C36AA361737D327D1B02C6
:103D6000F17E1343B27E09021B0411431943EB0693
:103D700006D5002919D000F0BFFD002815D1D2E7E3
:103D80002162737F327F1B021343B27F12041343FD
:103D9000F27F12061343E361AB060CD5201CE169E8
:103DA000FFF760FF002806D1BDE7A27880235B42C1
:103DB0001343A370F0E70120FEBD000038B503787F
:103DC000051C0121002B3DD083787F2B34D9FFF7D0
:103DD0002BFE041E05D16B78012213436B7000216A
:103DE00030E00378E52BF6D02B781A0707D52B7F28
:103DF00003776B7F4377AB7F8377EB7FC3772B6A48
:103E00009AB21B0C23751B0A63750F4BA2761B68B5
:103E1000120AE276002B0BD0201C211C1830163120
:103E20009847637E227E1B021343A3741B0AE3742C
:103E3000AA787F231340AB70A868FFF79FFD002886
:103E4000C9D00121081C38BD8C08002010B5041C05
:103E5000FFF7B4FF0023237010BDF0B593B009AD98
:103E60001E1C00232B706B700378041C0F1C019226
:103E7000002B01D000203DE00A7870231A42F9D0CF
:103E800001990B782F2B13D1019A13782F2B02D184
:103E900001320192F8E7B968002B03D1201CFFF72B
:103EA000D3FD27E0281CFFF7CFFD0028E2D02F1C10
:103EB000019803A901AA00F020F90028DAD001989E
:103EC000391C037803AA201C002B10D0012300F01A
:103ED0005DFA0028CED02A1C231C83CB83C283CB5F
:103EE00083C283CB83C2201CFFF7B0FFDFE7331C04
:103EF00000F04CFA13B0F0BDF7B50378041C009144
:103F000001921A070AD583789A0707D55A070BD565
:103F1000201CE169FFF7A6FE002805D16378012285
:103F2000134363705042B8E06269D343019A9A42E6
:103F3000F4D8151C6769002D00D18EE0A0687B0ABB
:103F40004679FF051E40FF0D002E1DD1002F1BD10D
:103F5000216900290CD0221C103200F033FC00280B
:103F6000DCDB11D1201CFFF718FD00280CD1D5E7B0
:103F7000236A002B07D1201CFFF70FFD0028CDD0AE
:103F80002369236200E023612169A06800F014FC2A
:103F90008119A068002F02D1404B9D4227D8802371
:103FA0009B00DB1B2E1E9E4200D91E1C0122944644
:103FB000002F07D105239C466269E3699A4201D22A
:103FC000012294462430624600F0D1FB0028A5D09F
:103FD000C0190099321C07F02FFFF71980239B00AE
:103FE0009F4232D1A068243000F09AFB18E02C4B9D
:103FF0009D4218D903796A0A9E1BD2B2F6B2131CED
:10400000B24200D9331CC26ADBB25E02914202D8CE
:104010009A1891423AD3A2681068009AFFF792FC6E
:10402000002812D17AE7C36A8B4204D1431DDF779F
:1040300001235B42C362A368009A1868FFF71EFC65
:10404000002800D16AE78026B6006269AD1B93198B
:104050006361009B9B1900936CE7E269A378974228
:1040600001D9E76103E00F4A1268002A03D08022D9
:1040700052421343A370A3781A0701D401980CE0AD
:10408000201CFFF79BFE0028F8D147E7421D0027C0
:10409000D77701225242C262BDE7FEBDFF01000098
:1040A000FF0300008C080020031C042904D84900E9
:1040B00043185A7898780FE00A2905D80139490041
:1040C00043189A79D87907E00020102906D80131E1
:1040D00049005B181A795879000210437047002391
:1040E00010B5041C181CC201E15C400802435218C0
:1040F0000133D0B20B2BF6D110BDF0B587B00378E9
:10410000202B01D10130FAE78860041C231A0093A8
:104110002378002B02D1009C03191BE02F2BFAD02F
:104120005C2B01D10020DCE008251E1CAE43222EB2
:10413000F8D03A2BF6D040251F1CAF433C2FF1D0CE
:104140001D1C3E3D012DEDD9203B01345E2BDDD9F8
:10415000E8E701331C78202CFBD02F2CF9D013601A
:10416000009C002C0ED0009A8318013B1B782E2B4C
:1041700001D0202B03D1009B013B0093F0E7009E70
:10418000FF2ECFDC009F00234F60CA18202401338C
:1041900054730B2BF9D1031C1C781A1A2E2C01D145
:1041A0000133F9E7202CFBD057425741FFB2009C66
:1041B0000197013C631C07D10025072608270296BA
:1041C00005950495039736E0035D2E2BF1D1F3E7B7
:1041D000835C202B4AD02E2B31D1944254D12A26F5
:1041E0007642F618052E2FD93A277F42FF18052F61
:1041F0002CD95B267642F618022E27D921277F423A
:10420000FF185D2F22D8A2425BD0029EB54230D863
:1042100061277F42FF18192F1ED8049E039F203B61
:104220003E43DBB204966F1C4D196B73FDB2062D35
:1042300000D80D730132009FBA42C9DB29E0222B5E
:1042400004D07C2BCBD101E02D2BCDD0A24238D095
:10425000002301935F23D8E741267642F618192EF2
:10426000E1D8059F039E37430597DCE700230193C0
:10427000E0E7029F0A2F31D0A24208DC0A27102370
:10428000221C02970825039300260196D2E70022FC
:1042900001924B7B202B00D144E7019E002E07D0DA
:1042A000049B059F1F4200D002230B70012018E0E1
:1042B0000B7B01200870C9187E234B7331238B734D
:1042C0000FE0029A0A2A02D100230193E1E70A23B0
:1042D0001026221C029308250396ABE700240194C4
:1042E000D7E707B0F0BDF7B50C7B071C0D1C022605
:1042F0006968AA68731851189BB2019101998A42A2
:1043000007D0590110788C46634443409BB2013278
:10431000F4E7221C032C00D90322D4B2221DD2B20E
:104320000F211940081C3730092900D80738A9186F
:10433000013AD2B248731B09A242F1D82B197E224E
:104340005A73381C0021FFF78DFC0121381CFFF740
:104350006CFC011E04D1787843425841C0B213E08E
:104360000378002B0AD0C37A1A07EED4281C0D302C
:104370000B2207F052FD0028E7D101E0012003E005
:104380000136B6B2642EB3D1FEBD0000F0B50C1CF0
:1043900091B05168069222780C9370230E900A9186
:1043A0001A4201D10020A9E10E9A1378002BF9D10D
:1043B00006990B789A0700D197E10A980D210C30E5
:1043C00005F0ACFC0130C0B20990201C0021FFF7C1
:1043D00049FC002305930B9307931F1C04930D9333
:1043E0006369201C01215E09FFF71FFCB6B2051EA0
:1043F00004D16378002B00D195E0D3E70378E52B57
:1044000001D0002B0AD1002F00D1059609998F42C7
:1044100001D27A1CD7B2002B07D184E0099900227F
:104420008F4252415242174003E0E52B01D1002157
:1044300039E02E2B02D100220492D1E7EA7A0F2A2A
:104440004AD1049A002A08D15906C9D51F2213401F
:1044500004936A7B07930B920CE0079A013AD2B25D
:104460000792934202D000230493B9E76B7B0B9928
:104470008B42DCD1079B0D22013B5A430A9B0892D9
:10448000161E9E42D7D20D320F92089A281CB11ADE
:10449000C9B2FFF709FE0A9B9E4206D1434258412A
:1044A00004994042014004919AE7FF28DBD8C0B24A
:1044B000031C413B192B01D82030C0B2069B721C53
:1044C0009B6803939B5D191C4139192901D820333E
:1044D000DBB29842ABD10BE11107ACD4049A002AAD
:1044E0000BD0079B012B00D05CE7281CFFF7F7FDE2
:1044F0000B99884200D055E70FE00699281C0D3132
:104500000B2207F08AFC002800D069E7069B1A7886
:1045100001231A4201D00D9362E70C994BB2002B94
:1045200000DBD9E03EE70C9A42231340422B00D037
:1045300038E7002F09D0059E07E0201C0021FFF777
:1045400074FB002805D07B1CDFB2099B9F42F4D38B
:1045500010E06378002B0DD024E7201CFFF72AFA27
:10456000002800D11EE7A1680B79012B05D83B1C60
:104570001033DFB2099B9F42EFD30D9A002A06D079
:10458000201C0699FFF7AFFE002800D10AE7710151
:10459000201CFFF767FB002800D103E7099B013BC4
:1045A000DBB2049339E0201C0021FFF73EFB051E1F
:1045B00000D1F7E6A36801210533DA7F059F0A439E
:1045C0000499DA778F4202D1059A4027174306985B
:1045D0000F2300262F70EB722E730D30FFF77FFD37
:1045E000069B687399681F231F40013F0D235F439B
:1045F000AE76EE760A9A974214D2CB5DF2B2042AD6
:1046000017D87200AA1853701B0A9370013601372D
:104610000D2EEFD1059B013BDBB20593059B002BD3
:10462000C1D116E00A9ABB1A5A1E93415B429BB253
:10463000E4E70A2A06D8721E5200AA1893711B0AD0
:10464000D371E3E7721C5200AA1813711B0A53714D
:10465000DCE76169201C4E09191CFFF7E6FAB6B2C7
:10466000051E00D19EE60599202207F007FC069959
:104670000B220D31281C07F0DFFB069B1A7818234C
:1046800013402B731E4B1B68002B05D0281C291CC4
:1046900010300E31984707E021232B740599282309
:1046A0006B740823A973EB736B7C2A7C1B02134386
:1046B000FF221A401B0AEB746B76EB7BAA742A76F6
:1046C000AA7B1B021343AB751B0AEB75A368012180
:1046D0000533DA7F0A43DA77049A0E980092211C98
:1046E000321C0C9BFFF704FB08E0012309936CE6E6
:1046F0000F998A4200D173E6161CC6E611B0F0BDD0
:104700008C08002038B5051C0C1C081E07D007F0CB
:10471000A1FC2B68021C5B68281C211C984738BD33
:1047200070B503780125041C2B421ED0061C43687B
:104730000C361868A168321CFFF7A0F8051E01D1DD
:10474000002512E023789A0704D4237801229343AA
:1047500023700AE06368321C19691868A368C918D5
:10476000FFF78CF80028F0D1EAE7281C70BD8368B9
:1047700070B5041C0D1C161C8B4215D0FFF7D0FF22
:10478000002801D1002016E0730703D50023237011
:10479000A56009E06368221C1868291C0C32FEF72A
:1047A000D9FF0028F2D1EDE703231E402378201C17
:1047B0001E4326700C3070BD8379023999404369DD
:1047C000C8187047F8B5C379041C0D1C161C202BA3
:1047D00013D18369C909C9188C239B00C018022210
:1047E000FFF7C5FF002801D1FF201EE07F231D40F9
:1047F000AD002B581B011B0911E0102BF4D183696C
:10480000090AFF273940C9188C239B00C0180222CF
:10481000FFF7ADFF0028E7D03D406D002B5AE2695D
:104820000020934201D83360012040B2F8BD70B53A
:10483000151CC279031C0C1C202A0FD18C229B69E9
:104840009200C9098018C9180322FFF790FF0028B9
:1048500019D07F231C40A400255013E0102A01D05A
:10486000002010E08C22090AFF269B69920031404B
:104870008018C9180322FFF77AFF0028F0D03440CF
:1048800064002552012070BDF0B585B0051C0F1CD9
:1048900001920E1E00D1C668341CEB6901349C42A3
:1048A00000D90224281C211C03AAFFF78BFF002833
:1048B0000DDB02D0039B002B02D0B442EDD106E009
:1048C000281C211C0B4AFFF7B2FF061E01D100264F
:1048D0000CE0002F07D0281C391C221CFFF7A7FF73
:1048E000002801D1F3E7EC60019B1C60301C05B08F
:1048F000F0BDC046FFFFFF0F73B5051C0C1C281C44
:10490000211C01AAFFF75EFF061E01DA00200DE060
:10491000281C211C0022FFF78AFF0028F6D0EB6834
:104920009C4200D2EC60019C002EE8D176BD0000D4
:1049300070B501230D1C0121C360041C0022431D1E
:104940004942C271A062DA77C1628C2080002318CC
:104950008C2080005C602254996095421DD0042D0B
:1049600000D98CE0201C2430111CFFF700FF002828
:1049700000D184E02D01A935FF3540198279510617
:1049800000D07CE0C57B827B2D021543027C437CFA
:10499000120415431B061D4371D0201C2430291C12
:1049A0000022FFF7E4FE002869D0027BC37A1202DE
:1049B0001A4380239B009A4261D1037C022B5ED173
:1049C000C37B827B1B02134359D0427B0921531EB8
:1049D00063710023A371227101239A4208D0013927
:1049E00000294CD0A6795B000136DBB2A671F4E752
:1049F000C37D827D1B0213430ED1431DDA7F831DCD
:104A0000DB7F1B021343C21DD27F12041343021C1F
:104A10000832D27F120613432361C17B827B0902D5
:104A200011436918A161867C427C360216435B0003
:104A3000214A591873019B185B12CB1826812162F9
:104A40006361027DC17C12020A430DD1421CD17FF9
:104A5000821CD27F12020A43C11CC97F09040A4387
:104A6000011DC97F09060A43ED1AA179AD18CD4091
:104A70006B1CE361114B9D4203D80C23E3710020B2
:104A800018E00F4B9D4201D8102311E0031C2C337A
:104A90001A7801331B781B021343021C2E32127842
:104AA0002F3012041343027812061343236220238B
:104AB000E371012070BDC046FF010000F40F00004B
:104AC000F4FF0000437A002B04D18372C372C360E9
:104AD00001234372704730B585B0041C02AD0068F5
:104AE0000291039202F0CEFA6B79E179227A009377
:104AF0002068002302F02EFC29792068029A02F037
:104B000091FA206802F0B4FA05B030BD70B5041C0B
:104B10001826FFF7D7FF2079331C43430D4D08219A
:104B2000EB18595603F002FAA079331C43430821CD
:104B3000EB18595603F0FAF9607908214643AD198C
:104B4000695603F0F3F9044B201C06CBFFF7C3FFB3
:104B500070BDC04600E200009008002007B5837ACF
:104B600000910192002B0DD09A0706D5EFF3108328
:104B70005A425341C37272B604E0DA0702D5828901
:104B8000034B9A600099019AFFF7A5FF07BDC04645
:104B900000180040837A002B0BD09A0704D5C37A03
:104BA000002B06D062B604E0DA0702D58289014BF9
:104BB000DA6070470018004008B5006802F06BFA30
:104BC00008BD0000094B0A4A0A491A6000225A71BE
:104BD0001A71094B19601621197118219971172141
:104BE000597101215A72D9711A72704790080020C8
:104BF00000093D00C40C00209808002008B5011CE5
:104C00000148FFF7D9FF08BD9808002008B5024801
:104C1000FF21FFF7D1FF08BD9808002008B501214A
:104C2000007903F03BF9054B1A78002A04D00022E2
:104C300003481A70FFF7AEFF08BDC046B008002059
:104C40009808002010B5084B041C1A78002A06D1D9
:104C500001221A70054B064806CBFFF77FFF20792B
:104C6000002103F01BF910BDB0080020A8080020A7
:104C70009808002010B58379041C002B0DD02389DF
:104C80005A1C2281054A934202D8FFF7BFFFF6E77C
:104C9000201CFFF7C3FF0023A37110BD0102000019
:104CA00038B50C1C02F078FE051CFFF7AFFFFF289B
:104CB00008D002F071FEABB280B2C01AA042F4DBA1
:104CC000002000E0012038BDF8B5041C0E1C171CA4
:104CD000FFF7D0FF201CFFF7B5FF96214900201CED
:104CE000FFF7DEFF40203043FFF788FF1825381C10
:104CF000E840C0B2083DFFF781FF2B1C0833F6D116
:104D00009520002E03D08720082E00D0FF20FFF72B
:104D100075FF0025FFF77AFF43B2E072002B04DA3B
:104D2000FF2D02D00135EDB2F4E7F8BD38B5041C13
:104D300002F032FE051CFFF769FFE072FF280AD17E
:104D400002F02AFEABB280B2C01A96235B009842F2
:104D5000F1DD0F2302E0FE2806D00D23201C637135
:104D6000FFF75CFF002000E0012038BDF8B5041C0F
:104D70000F1C151C1E1E45D09A1880239B009A42BA
:104D800042DC8379002B05D00268914202D103896D
:104D9000AB4216D9237B2760032B00D07F023A1C3D
:104DA000201C1121FFF790FF071E02D0032363711F
:104DB0002AE0201CFFF7BAFF002825D00123278115
:104DC000A3712389AB4205D2FFF720FF238901336A
:104DD0002381F6E7069D069AAB1A9BB2B34204D232
:104DE000FFF714FF28700135F5E72389A27AF3183D
:104DF0009BB22381002A02D0064A934202D9201C8A
:104E0000FFF738FF012003E0201CFFF707FF002019
:104E1000F8BDC046FF01000007B5802300929B004B
:104E20000022FFF7A3FF0EBD70B5051C081C161C61
:104E3000FFF7E4FE0024305DFFF7E0FE013480233D
:104E40009B009C42F7D1FF20FFF7D8FEFF20FFF721
:104E5000D5FEFFF7DBFE1F23E87203400120052B80
:104E600005D01123281C6B71FFF7D8FE002070BD00
:104E700070B50B1C041C161C002901D1122328E05C
:104E8000027B032A00D04B02201C18211A1CFFF7BA
:104E90001BFF051E01D004231BE0201CFE21321C39
:104EA000FFF7C2FF002815D09621201C8900FFF7CC
:104EB000F7FE002801D115230BE0201C0D212A1C30
:104EC000FFF702FF002803D1FFF7A0FE002806D05D
:104ED00014236371201CFFF7A1FE002003E0201CB7
:104EE000FFF79CFE012070BD034B044A1A600022AC
:104EF0005A711A717047C046A808002000093D0089
:104F0000021C10B50C32041C0121406A00F02CFA7E
:104F100000280AD0236A0120002B06D1E368227AF8
:104F2000236280235B421343237210BD10B5041C1F
:104F3000406900F081F9002803D0207E014B400138
:104F4000C01810BDC008002070B5041C407A0D1CAC
:104F500000282AD0E269914201D9002025E00228E8
:104F600021D0002D01D1E5601DE0626A2169137C2A
:104F7000681E09334A1ED840DA40031E934201D30B
:104F8000002902D1226AE26000E0831A1E1C002E72
:104F900009D0221C606AE1680C3200F071F9013E10
:104FA0000028F4D101E02561012070BD38B5051C51
:104FB000407A002833D02B7A7F2B2DD9281C012151
:104FC000FFF7B4FF041E2AD06B7A012B07D82B7F82
:104FD00003776B7F4377AB7F8377EB7FC3772B6A56
:104FE0009AB21B0C23751B0A63750D4BA2761B68C6
:104FF000120AE276002B0BD0201C211C183016312F
:105000009847637E227E1B021343A3741B0AE3743A
:105010002A7A7F2313402B7200F0E4F8FFE738BDB3
:10502000B4080020F0B5437A87B0041C0D1C03922D
:10503000012B0DD1037A99070AD55A070CD5E169DE
:1050400022698A4208D0201CFFF77EFF002803D186
:10505000012363600020AAE0039B01933BE0606AA8
:10506000730A0779F605013F1F40FFB2F60D002FC6
:1050700036D080229200921B019992B20B1C914271
:1050800000D9131C9BB20293636AE1681A7C02394F
:1050900091405A698B18029ADF1980239B009A422B
:1050A0003FD1444B1968B94202D1012252421A60E1
:1050B000414B391C18682A1CFFF7DAFE0028C7D0BC
:1050C00080229200AD180199029A8B1A21699BB235
:1050D00001938B182361019A2669002ABFD149E008
:1050E000002EC6D1E168002903D1236A002B16D116
:1050F0000FE005AA00F0C4F8002858D0626A059BAA
:105100000132D27F102A01D12C4A00E02C4A93426E
:1051100005D3201CFFF7F4FE0028AAD198E7E3602E
:10512000A7E7002E0FD12369E1698B420BD300F072
:1051300059F800288CD01F4B01211F60214B1A7891
:105140000A431A7006E0381C012100F075F80028A7
:1051500000D17DE71C4B2A1CF618029BF118331C6A
:105160008B4204D01078013218700133F8E79E1B8F
:10517000AD19A8E7E169237A8E4201D9E66106E01C
:10518000124A1268002A06D0039A002A03D080220D
:10519000524213432372237A190701D4039806E07D
:1051A000201CFFF703FF002800D151E7F6E707B006
:1051B000F0BDC04608000020BC080020F8FF000039
:1051C000F8FFFF0FC00A0020C0080020B40800202C
:1051D00007B56B46D9710733191C0122FFF722FF6F
:1051E0000EBD0000F8B50F4F01203B78002B18D002
:1051F0000D4E0E4B0E4D196830682A1CFFF738FE15
:1052000000280ED00B4C2168002907D030682A1CDA
:10521000FFF72EFE002804D00023236000233B70FC
:105220000120F8BDC00A0020BC08002008000020B2
:10523000C0080020B808002070B50D4D041C2B6874
:105240000E1C83420ED0FFF7CDFF002801D10020B5
:105250000DE0084B211C1868074AFFF7DDFD002808
:10526000F5D02C60054B01201A7816431E7070BDD6
:1052700008000020BC080020C0080020C00A002050
:10528000C36870B501330C1C151C994201D900206C
:1052900021E0461CF17FC269E309102900D1230AED
:1052A00098180D4B1B68984207D1F27F0B4B102AC0
:1052B00009D1E4B264001B5B0BE00021FFF7BCFFE7
:1052C0000028F2D1E3E77F221440A4001B591B0100
:1052D0001B092B60012070BD08000020C0080020C1
:1052E000F7B5051C0C1C0192012932D9C3680020B6
:1052F000013399422ED86F1CFA7FEE69CB09102A30
:1053000000D10B0A9E19144B1B689E4208D1FA7FEC
:10531000124B102A0BD1E4B2019A64001A530BE02D
:10532000301C0021FFF788FF0028F0D112E07F2217
:105330001440019AA4001A51094B01201A78024323
:105340001A702B7E834205D9AB68F618054B1E6098
:1053500000E00020FEBDC04608000020C00800207C
:10536000C00A0020B8080020F0B5156887B0061CF8
:105370000291171C002D03D000210135019106E098
:10538000029B0568013B5A425341DBB20193F2682C
:105390000023013203922C1C00930099F268914281
:1053A00021D2039B9C4201D90224251C301C211CC4
:1053B00005AAFFF765FF002815D00599631C002991
:1053C00001D01D1C03E002995A1B8A4204D0009AA6
:1053D0001C1C01320092E0E7301C211C134AFFF72D
:1053E0007FFF00280BD100201DE0631E301C191C1C
:1053F000221C0093FFF774FF0028F4D0009CAC42FD
:10540000F3D83968002906D101993D60002909D0F7
:105410000135356006E0301C2A1CFFF761FF0028CB
:10542000F2D1E0E7012007B0F0BDC046FFFFFF0F5B
:10543000084B02211961191C002230310A700649FB
:105440005A719A719A721A73DA63996341331A70B6
:105450007047C046C40A0020D0E10000002303705A
:105460007047000008B5044B1B68002B00D098471C
:10547000024B01221A7208BD280B002000140040C4
:105480000378002B0AD0064B081C19693F221040F4
:105490009143014319619A7AD209FCD17047C04601
:1054A000001400400378002B0BD0064B3F22114024
:1054B0008A01186904490140114319619A7AD20995
:1054C000FCD17047001400403FF0FFFF0378002B31
:1054D0000BD0064B1F2211400A03186904490140F2
:1054E000114319619A7AD209FCD170470014004027
:1054F000FF0FFEFF70B5161C0278041C0D1C002A5D
:105500000AD0191CFFF7BCFF201C311CFFF7CAFF93
:10551000201C291CFFF7DAFF70BD00000378002B68
:105520000BD0064B1F2211404A0418690449014060
:10553000114319619A7AD209FCD1704700140040D6
:10554000FFFFC1FF0378002B0BD0064B0F22114049
:105550008A05186904490140114319619A7AD209F0
:10556000FCD1704700140040FFFF3FFC0378002B84
:1055700009D0054B8A061969890189091143196106
:105580009A7AD209FCD170470014004070B51D1CF6
:105590000378041C161C002B09D0FFF7BFFF201C4A
:1055A000311CFFF7CFFF201C291CFFF7DFFF70BD68
:1055B0000A4B0B4A9A605A7852B2002AFBDB09491F
:1055C000064A51605A7852B2002AFBDB0649034A68
:1055D00051805A78D209FCD17047C046000C004077
:1055E0000204000002051100044200000378002BB1
:1055F00005D0034B034A5A809A7AD209FCD17047EE
:10560000001400400080FFFF08B5FFF7EFFF024BDA
:1056100018693F23184008BD0014004008B5FFF783
:10562000E5FF024B18690005800E08BD001400401C
:1056300008B5FFF7DBFF024B1869C003C00E08BDB9
:105640000014004008B5FFF7D1FF024B1869800233
:10565000C00E08BD0014004008B5FFF7C7FF024B9D
:1056600018698001000F08BD0014004008B5FFF75D
:10567000BDFF024B1869800E08BDC04600140040F3
:10568000044B02211A888A431A809A7AD209FCD1E3
:105690007047C04600140040044B02211A880A4398
:1056A0001A809A7AD209FCD17047C0460014004093
:1056B000044B01211A880A431A809A7AD209FCD134
:1056C0007047C04600140040044B01211A888A43E9
:1056D0001A809A7AD209FCD17047C0460014004063
:1056E000F7B52B4B0F1C9A6920210A439A61294A6E
:1056F000294B0026051C9A82284CB7420AD1284B18
:105700001A7870231A4240D023881A073DD522699F
:1057100001260192281CFFF74BFF281CFFF7B0FF62
:10572000281CFFF7C5FF62881E4B134063801E4B89
:105730002380A27A194BD209FBD11C4A082111609F
:10574000C021890050580002000A5050DA79012126
:105750000A43DA711A7F07218A431A77A37ADB0991
:10576000FCD1281CFFF798FF281CFFF7ADFF002F86
:1057700002D001232B70F7BD002EFAD0074B019AFF
:105780001A61A37ADB09FCD1F3E73E1CC2E7C046ED
:1057900000040040CE060000000800400014004055
:1057A00038040040FFBFFFFF080A000000E100E0EE
:1057B00038B528220C1C051C081C002106F05EFBD5
:1057C000201C08490B2206F04CFC0023E372ED6913
:1057D0000122636200232561E2606261A361E361EB
:1057E000236238BDD8E1000008B50368C9B21B6860
:1057F000984708BD074B821C0833036001235B42B6
:10580000C361D177C21CD377FF21021DD177421D1E
:10581000D3777047E0E10000F7B5421D0191009297
:105820001F23D356051C07270024013303D1144836
:10583000FFF7C2F922E0009B1F2018560021012625
:1058400002F02CFB019A311CEB1C1F20B9401856AA
:10585000114002F023FB009B1F201856311C02F060
:105860001DFB2B1D1F2064001856E4B202F046FBFE
:10587000002800D03443013FDDD2201CFEBDC046CD
:105880009808002073B51F23851CEB56041C0133B8
:105890003ED1451CE97F8069FDF7FEFCA821A06987
:1058A000FFF7A2FFA069FDF735FD0622E97FA06999
:1058B000FDF7EDFCA0690368DB689847E080A0690C
:1058C0000368DB6898470622A35E80B20002184393
:1058D000E080A0690368DB6898472081A0690368BD
:1058E000DB6898470822A35E80B20002184320813B
:1058F000A0690368DB6898476081A0690368DB687A
:1059000098470A22A35E80B20002184360814CE0EF
:10591000461D1F23F356013308D16A4600235371F5
:10592000137122482249019AFFF718F91F202856BF
:10593000002102F0B3FAE821201CFFF76DFFFF21E0
:10594000201CFFF769FFFF21E080201CFFF764FFA8
:105950000622A35E00021843E080FF21201CFFF70F
:105960005BFFFF212081201CFFF756FF0822A35E6A
:10597000000218432081FF21201CFFF74DFFFF216B
:105980006081201CFFF748FF0A22A35E0002184333
:1059900060811F202856012102F080FA1F23F35650
:1059A000013302D10148FFF7F5F873BD98080020D4
:1059B00020A1070070B524260C1C051C321C081CF5
:1059C000002106F05BFAEB69281C63600123A360E9
:1059D000002323612660FFF755FFE868074904F0BC
:1059E0008BFA60612869054904F086FAA06168694C
:1059F000024904F081FAE06170BDC0460AE81C412A
:105A0000F0B51F23851CEB5685B0041C0F1C161C1B
:105A1000013312D1431CD97F8069FDF73DFCA06999
:105A2000391C03681B689847A069311C03681B6810
:105A30009847A069FDF76EFC29E0421D01921F23E3
:105A4000D356013308D16A460023537313731148A8
:105A50001149039AFFF782F81F202856002102F00F
:105A60001DFA7F213940201CFFF7D6FE311C201C77
:105A7000FFF7D2FE1F202856012102F00FFA019AEB
:105A80001F23D356013302D10248FFF783F805B034
:105A9000F0BDC0469808002020A10700F7B51F23DD
:105AA000851CEB56041C0F1C013317D1451CE97FE4
:105AB0008069FDF7F1FBA069391C03681B689847F2
:105AC000A069FDF727FCE97FA0690122FDF7DFFB54
:105AD000A0690368DB689847C4B228E0461D1F230D
:105AE000F356013308D16A460023537113711148EC
:105AF0001149019AFFF732F81F202856002102F0C1
:105B0000CDF980213943201CFFF786FE201C00219F
:105B1000FFF782FE041C1F202856012102F0BEF967
:105B20001F23F356013302D10248FFF733F8201C3C
:105B3000FEBDC0469808002020A1070038B5431CD0
:105B4000851C041CD9771F202856431C03D1A0694B
:105B5000FDF742FB1FE0012102F0A0F91F202856AB
:105B6000012102F041F9631D1F201856431C03D187
:105B70000D48FEF7CBFF0EE0012102F035F9E31CE2
:105B80001F201856012102F02FF9231D1F2018563F
:105B9000002102F029F9201C0F21FFF77FFF333885
:105BA00043425841C0B238BD9808002038B50D1C9A
:105BB0002321041CFFF772FF3023021C9A432D019E
:105BC0002A43D2B2201C2321FFF71AFF38BD38B573
:105BD0000D1C2021041CFFF761FF0F23021C1A403B
:105BE0002D012A43D2B2201C2021FFF709FF38BD26
:105BF00010B52021041C0722FFF702FF201C2121E1
:105C0000BB22FFF7FDFE201C22211022FFF7F8FE29
:105C1000201C80222321FFF7F3FE201C0921FFF71F
:105C2000D6FF10BD08B5024801F026FC08BDC046ED
:105C30002C0B002008B5024801F01EFC08BDC04630
:105C4000F00B0020F7B5164F1649381C01F07AF911
:105C50001549164801F076F91549164801F072F910
:105C60001549164801F06EF91549164801F06AF910
:105C7000154D03260124281C144901F063F9391C31
:105C80000096231C01940022114801F0D1FB0096DC
:105C9000291C01941F221E230E4801F0C9FBF7BDE9
:105CA000B80C002000080042000C0042BC0C002090
:105CB00000100042C00C002000140042B40C002070
:105CC00000180042C40C0020C80C0020001C004238
:105CD0002C0B0020F00B00203F20704713B502680A
:105CE0006B46D97107335468191C0122A04716BDB1
:105CF00008B50069022100F027FC08BD08B500695D
:105D0000032100F037FC08BD38B50D1C041C131C22
:105D1000006903212A1C00F029FD002801D101237C
:105D2000636038BD10B5054C23685A1C04D1036864
:105D3000DB6898472060031C181C10BD5C00002025
:105D4000074A08B51368591C04D001214942116063
:105D5000181C03E00069022100F0FAFC08BDC046EF
:105D60005C00002008B50378034902330370422227
:105D7000024800F0B1FD08BD180000209711002076
:105D800010B50178031C42780020A12908D1212AEE
:105D90002FD118481849072200F09EFD012028E065
:105DA000212926D1202A05D113490722114800F0C4
:105DB00027FC04E0222A10D19A780F4BDA710E4B9F
:105DC00096221968D200914210D1DC7901231C403F
:105DD0000CD1FA2001F00EF80AE0232A09D1DA7872
:105DE0009B7812021A43054B1A6002E001F008F892
:105DF000002010BD971100200C000020140000208E
:105E000070470000064BFA2189009960054900227D
:105E10000831196004495A6019611A767047C04602
:105E2000CC0C002020E600009711002070B5C2B213
:105E300019495301CB189E68184DC0242E40A40563
:105E400026439E60164E800109683018083258605B
:105E50005201505C0726B0430126304350549E69DE
:105E600035402C439C610F4C5C61505C7024A04316
:105E70001024204350549C680B488A1820408024EA
:105E800064032043986098684021800B80039860E9
:105E900053790B43537170BDA0110020FFFFFF8F9A
:105EA000B80F0020F40D0020FF3F00F038B5041CAF
:105EB00008CC01211A78051C0A431A708022201C84
:105EC0000021520005F0DAFF2B689A78D107FCD444
:105ED0005C6238BD134BF0B51B6899035A029B01F5
:105EE000C90ED20E5B0F1F2900D105211F2A00D138
:105EF0001D22072B00D1032304688E01278D0A4938
:105F00001F2539403143218501682A400C8DAC435F
:105F100022430A8502681903108D044B03400B438A
:105F20001385F0BD246080003FF8FFFFFF8FFFFF67
:105F3000EFF3108303600123436072B67047036878
:105F4000002B02D162B6BFF36F8F704737B505697A
:105F5000041C6846002D12D1FFF7EAFF019B013BAC
:105F600003D3621DD57FEDB2F9E768460193FFF7D1
:105F7000E6FF0020854217D0206AE36913E0FFF7AF
:105F8000D7FF019B0025013B04D3221C3432157836
:105F9000EDB2F8E768460193FFF7D1FF0020854294
:105FA00002D0206BE36AC01A3EBD0000436810B502
:105FB0001A68037A01215B01D318FF339A7A0A43E6
:105FC0009A72037A42685B01D318C2689C68910494
:105FD0000B4A090922400A439A60037A42685B012E
:105FE000D3189A684021920B92039A6043681A680A
:105FF000037A08335B01D3181A790A431A7110BD6A
:10600000FF3F00F0F7B50569041C0E1C171C68461D
:10601000002D1FD1FFF78CFF019B013B5A1C06D0BE
:10602000621DD17F5A1E00293AD0131CF6E768463C
:106030000193FFF784FF0025E369BD4235D0226A52
:10604000934232D25A1CE261A269D3181B7873556D
:106050000135F1E7FFF76CFF019B013B5A1C08D0AB
:10606000221C343215785A1EEDB2002D18D0131CA4
:10607000F4E768460193FFF762FF0025E36ABD423B
:1060800026D0226B934241D322E0621D0021D177BA
:1060900030321678581E8E4214D1031C5A1CF4D18B
:1060A00068460193FFF74BFF38E0226A934235D1EF
:1060B0000023E361012323616846FFF739FF019B59
:1060C000013BEBE71170201C0193FFF76FFFF6E730
:1060D000226B934222D10023E36223616846FFF7DB
:1060E00027FF019B013B5A1CDAD0221C34320021CD
:1060F000117001321678581E8E4201D1031CF2E74E
:106100001170201C0193FFF751FFEAE75A1CE2626D
:10611000A26AD3181B7873550135AFE7281CFEBD62
:1061200037B54368027A1B68083252019A18041C7A
:10613000D0790123FF21184253D0D371A06865693B
:1061400062680140002D20D14901521891686361B5
:106150008904890C2162A16A68465160621DD37767
:10616000FFF7E6FE019B013B5A1C33D0221C343260
:106170001178581EC9B20132002903D001930123BE
:10618000137023E01170031CEEE74B01D3189A68DB
:10619000A5699204920C22630022626168465D60E8
:1061A000FFF7C6FE019B013B01E011702B1C591C3F
:1061B00010D0221C343201201070621DD17F5D1E70
:1061C000C9B230320029F0D0019310706846FFF751
:1061D000B6FE06E068460193FFF7B1FE201CFFF70C
:1061E000E5FE37BD37B500236C46E3710734201C4C
:1061F0000D1CFFF7B7FD2B681818286001F052FF3F
:10620000211C01F009FF2B681818286020783EBD7A
:1062100003290BD10D4BB2221B685200985C8021E0
:10622000494201439954022168220CE001290CD112
:10623000064B92221B685200985C80214942014320
:10624000995402212822FF3299547047A01100204E
:1062500038B5304B00240121051C1A201C7001F0B8
:10626000C3FD1A20012101F019FE2B4B1920012139
:106270001C7001F0B9FD1920012101F00FFE274B20
:106280002021DA6901200A43DA61254B06241A78B5
:1062900002431A70234B0F22197891431970197811
:1062A0002143197020490C782043087019780A405E
:1062B0001A701A7860210A431A701C4B1C4A5A80C3
:1062C0005A78D209FCD11B4801F060FB1A4C201C03
:1062D000FFF7ECFD201CFFF7FDFD23687F221978F6
:1062E0000A401A701A7804210A431A701A890C217C
:1062F0008A431A81C121114A890050580002000ABC
:106300005050802111601A7802210A431A7001232B
:106310002B7038BDB40F00209C11002000040040F9
:10632000584400413C44004159440041000C0040A5
:1063300006400000656D0000A011002000E100E0B3
:106340000078002810D0094B01211B681A898A4364
:106350001A811A8B08210A431A831A8B04210A43D3
:106360001A83034B00221A607047C046A011002018
:10637000A41200200F4B9A69920B92039A611B683A
:106380000222FF331A7298798022524202439A7194
:106390001A7A9007FCD5084B081C997A7F22104086
:1063A000914301439972997A802252420A439A7228
:1063B0007047C046A01100200050004110B50B7975
:1063C0000C1C002B0BD1081CFFF7DAFC002804D1B1
:1063D000094B9A69920B92039A6101200BE001F03C
:1063E00061FE211C01F04CFE0028F6D1024B9A6997
:1063F000920B92039A6110BDA0110020F8B50D1CFC
:10640000832A16D1CAB242495301CB189C6941482C
:10641000AD012040C024A405204398613E480832C5
:1064200045195D610B685201D15C702081434020A9
:1064300065E0022A45D1382001F074FB374B344F18
:106440008026036076000023421D036203614361DE
:10645000C36147608560C660D3772F32041CC36276
:1064600003631370301C537005F0B8FCA061301C3E
:1064700005F0B4FCFF232A1C1A405201A062BF1889
:10648000B968244A07260A40C02189050A43BA6030
:10649000A16862681940126808314901885CAD0042
:1064A000B043032630438854A16862680B405B0107
:1064B000A169D3185960201CFFF778FD184BEC50E8
:1064C00025E0822A1ED1CAB211495301CB189C691A
:1064D0001048AD012040C024A405204398610E4817
:1064E000083245195D610B68520199180C798020BA
:1064F000404220430871D15C702081433020014329
:10650000D15404E0002A02D1081CFFF78FFCF8BD2B
:10651000A0110020FFFFFF8FF40D002050E60000C7
:106520007811002038B5051C0124064BA200D25872
:10653000002A06D0211C281C0134FFF75FFFE4B2BB
:10654000F3E738BD6000002008B5084B8A00D0583A
:10655000002803D003689B68984706E0C9B2044B43
:106560004901591888688004800C08BD7811002002
:10657000A011002010B50C1CFFF7E6FF00280CD07E
:10658000064BE1B21B680831490159184A7980234A
:106590005B4213434B710223CB7110BDA01100204D
:1065A00070B5CAB2134B1448540189015918031924
:1065B00059609D681149083229408025AD02294360
:1065C000996099684026890B890399600368510195
:1065D00059180D7935430D715101591889794D06B6
:1065E000FAD551015918C979CD07FAD50419A0680F
:1065F000C0B270BDB80F0020A0110020FF3F00F016
:1066000038B50C4B141C1B680D1CFF335A79402104
:106610000A435A710021FFF7C3FFA04200D9201C92
:106620000023A34204D0044A9A5CEA540133F8E7F9
:1066300038BDC046A0110020B80F002010B5C9B267
:106640000C48490143189A689204920C3F2A08D9D1
:10665000141C9A68403CA404920BA40C920322439D
:1066600002E09A68920B92039A6041188868C0B25F
:1066700010BDC046A0110020F0B51C1C2F4B85B0EA
:106680001B68061C0D1C0292002B51D02C4F397830
:10669000C9B2002902D1192001F000FC64233B702B
:1066A000284BAA00D058002805D0036802995B68DF
:1066B000221C984740E0301C291CFFF745FFA042F0
:1066C00004D2301C291CFFF73FFF041C291C301C7E
:1066D000FFF7B4FF1C4FE9B24A01019139680392F8
:1066E0008B18FF335A7A01210A4318495A72AB01B9
:1066F000C9180298221C05F09FFB002C1BD0301CEF
:10670000291CFFF721FF002815D1019B3A680833A7
:106710005B01D31819794020014319710121D97106
:1067200003995318FF339A7A01210A439A7202E0BF
:106730000120404200E0201C05B0F0BDA412002062
:106740009C11002078110020A0110020B80F00201B
:1067500013B56C460734221C0123FFF78DFF012877
:1067600001D1207801E00120404216BDF0B51C1C8B
:106770003F4B85B01B680E1C0292002B6AD0802311
:10678000DB019C4266D83B4D2978C9B2002902D171
:106790001A2001F083FB642300222B700092002C4E
:1067A00056D0354DF7B22B6801933B1C0833019A44
:1067B0005B01D3189B79DB091AD0304B304918683C
:1067C00003F0ACFA2F4B1721584303F0A7FA3B1CF8
:1067D0000833019A5B01D318DB799A0708D42A4B56
:1067E0009A5D002A38D1421E002835D0101CEEE7F1
:1067F000254B00229A55251E3F2D00D93F25234ABF
:10680000B301D318181C02992A1C039305F014FB3A
:10681000194A7B01D318039AA9045A619A69890C11
:10682000920B92030A439A613B1C019A08335B0165
:10683000D3180222DA715979802252420A435A71DE
:10684000009B029A5B1952190093641B0292A6E7FF
:1068500000980BE0012008E001229A557B01ED1819
:10686000AB69101C9B0B9B03AB61404205B0F0BDB4
:10687000A4120020B40F0020A01100208C000020E2
:1068800040420F0070110100EC0D0020F40D0020BB
:1068900070B50E4D1C1C8B01ED18281C0E1C111C14
:1068A000221C05F0C9FAF6B20949760189194D6131
:1068B0008A69084B201C13408B618B69A2049B0BD7
:1068C000920C9B0313438B6170BDC046F40D0020F6
:1068D000A0110020FF3F00F0F7B5114B01901B788D
:1068E0000F1C141C002B19D10E4B1E78002E01D149
:1068F000151C08E00C4D0D482E888019361905F03E
:106900009BFA2E800AE0002D08D0BA192B1C0198A2
:106910000021FFF7BDFF36182D1AF4E7201CFEBD3D
:106920009611002094110020EA0D0020E90C0020AF
:10693000F8B50E1C00AF151E012D28D9D31DDB089C
:10694000DB006A46D21A9546081C05F083FB01302D
:106950006C4640000323207063700222AA420ED2CC
:106960003378002B0BD0511CC9B20136A354A94275
:1069700004D0002302326354D2B2EFE72A1C054848
:10698000211CFFF7A9FF431E9841C0B200E0002080
:10699000BD46F8BD9711002008B5044B00221A70BF
:1069A000034B04491A88FFF797FF08BD9411002094
:1069B000EA0D0020E90C0020F0B5204A87B0012341
:1069C0000026009102A91370051C0296FFF70AFC2D
:1069D00003AC092701903A1C201C311C05F04EFA2B
:1069E00002236370A023E371FA232372029B012226
:1069F000DB196380019B62712371104A009B277031
:106A00001670BB4205D1281C211C1A1CFFF764FF1D
:106A100011E00B4B01221A700A4B211C3A1C281C56
:106A20001E800296FFF758FF281C02A9FFF7DAFB29
:106A3000281CFFF7B1FF012007B0F0BD9611002020
:106A400094110020EA0D002070B5CE788AB0051CA4
:106A50000C1C022E08D1C9882348FFF7ADFF031C88
:106A6000581E8341D8B23DE001F01CFB211C01F00F
:106A7000E8FA002803D0C3171B1AD80F32E0012E02
:106A800004D1E2881949112A27D823E0032E29D1FD
:106A9000A278002A05D11649E2880B78934219D8CA
:106AA0001BE0022A03D1A279281C124904E0012A22
:106AB00005D1A2791049281CFFF73AFF12E0032AFA
:106AC00010D101F0EFFA01A901F0CBFAA279281C4C
:106AD00001A9F1E7D2B2002A00D10A78281CFFF7F9
:106AE000FBFE01200AB070BD971100206EE6000089
:106AF0006AE6000080E6000060E6000073B5051C51
:106B000048780C1C0B2878D803F0FEF8081C77286E
:106B1000773E4306474B686F00206FE0097801AA73
:106B2000002903D111705170281C09E00023137053
:106B30005370334B1B78012B00D11370281C00219C
:106B400002234FE08A780023012A04D101AA13709E
:106B500053702C4BEEE72A4A137049E08E78012ED1
:106B600007D1284B01AA00211E701170281C331C6C
:106B700038E0002E08D1224A01231370224A91697D
:106B8000890B8903916138E0A178281CFFF7F2FB9B
:106B900033E0281CFFF758FF30E0281C00211B4A77
:106BA0001FE00A780020D30628D1281CFFF7BAFC82
:106BB000A2781549154B02241A600A682A23FF336C
:106BC000D05C2043D0544A20FF30145C01231C4386
:106BD00014548A69920B92038A610EE00C4A281CB5
:106BE00000210123FFF754FE07E08A78084B1A6062
:106BF000054B9A69920B92039A61012076BDC046BB
:106C0000E80C002095110020A0110020A412002003
:106C100098110020F8B54B4B071C1C78002C00D0B5
:106C20008EE0494D2868838B19070DD5201CFFF78E
:106C3000FDF82B6810201A1CFF32917A01439172E3
:106C4000424A146008229A832B689A8B50071FD5FA
:106C500004229A833E4B1A78002A0AD01A78013A05
:106C6000D2B21A701B78002B03D11A20012101F037
:106C700015F9384B1A78002A0AD01A78013AD2B29C
:106C80001A701B78002B03D11920012101F006F99D
:106C90002B68FF331A7AD10626D510221A725A7938
:106CA00040210A432C495A710A786023381C1A4241
:106CB00002D1FFF723FF01E0FFF780FB002806D099
:106CC0002B688022FF33997952420A4301E0234B1B
:106CD00020229A712B68FF331A7A500604D540227D
:106CE0001A72597A0A435A722968FE230E8C0024BC
:106CF0001E40E1B2002E23D0321C012322411A4251
:106D000016D0221C2868083252018218D079184205
:106D100003D1D279DA401A4207D0114BA200D058E1
:106D2000002809D003681B6898470123A3409E43AD
:106D30000134092CDDD103E0381CFFF769FAF4E7D0
:106D4000F8BDC04694110020A0110020A41200201C
:106D5000B40F00209C110020B80F0020FF5000410C
:106D60007811002008B50248FFF754FF08BDC0465F
:106D700097110020014A024B1A60704700500041F1
:106D8000A0110020F7B58A18061C0D1C01920C1CDE
:106D9000019B671B9C4207D0336821781B68301C1D
:106DA000984701340028F3D1381CFEBD10B50468A3
:106DB0000B1C9A6809686368984710BD08B50249BA
:106DC000FDF7A0FC08BDC0468BE6000038B5041CEA
:106DD000FFF7ECFF051C201CFFF7F0FF401938BD42
:106DE00038B5041CFDF78EFC051C201CFFF7E6FFE0
:106DF000281838BD014B18607047C0468800002035
:106E0000024B012252421A607047C046880000209F
:106E1000154A1368581C25D0013B1360002B21D163
:106E200072B6124A124B04329A4207D8BFF34F8F00
:106E3000104A114BDA60BFF34F8F11E00F4B197DF1
:106E4000C807FBD5188B2021FF319208520001435F
:106E50001983DA610A4A1A801A7DD107FCD5E5E761
:106E6000C046FDE77047C0468800002000200000B3
:106E7000030200000400FA0500ED00E000400041BC
:106E800002A5FFFF10B50021041CA42204F0F6FFA8
:106E9000221CA4320023201C1360536010BDF8B5DF
:106EA000051CA4352E68041C0F1C701CA42102F0C4
:106EB00079FF231CA8331B68994201D0A75529608C
:106EC000F8BD021C0023A432A83013600360704791
:106ED00038B5021C041CA834A432236812689342FB
:106EE00007D0C55CA421581C02F05CFF281C21605F
:106EF00001E00120404238BD031CA433A8301A68C9
:106F00000368D01A00D5A4307047031C021CA833B4
:106F1000A4321B681268934201D0C05C01E00120DA
:106F200040427047031CA43310B5041C1868A42108
:106F3000013002F037FFA8342368C81A4342584191
:106F4000C0B210BD01607047F7B508AC2678046880
:106F50009D1E27686C1EA541ECB2920705683A4356
:106F600027063A432A600268072529405068B50180
:106F7000002C00D05C03294301430C435460F7BD4F
:106F800030B50368C0251C68AD0312052A402243B2
:106F9000C024A402090421401143196003685A68FF
:106FA00014435C6030BD036801211A680A431A600B
:106FB0000268116801231942FBD1D1691942F8D145
:106FC0007047036802211A680A431A600268D3698D
:106FD0009907FCD4704703681A7ED10702D41A7E41
:106FE0009107FCD57047036800225A8370470368F5
:106FF000187E4007C00F70470368187EC0097047AD
:1070000003688022197E52420A431A767047036849
:10701000188DC0B2704703681A7E01200242FBD06F
:107020001985704770B5036801268D07ED0F314053
:107030001C686D0709072943214319600468510042
:10704000034802F06BFE0138C0B2207370BDC04629
:10705000006CDC02036801211A680A431A600268A6
:10706000116801231942FBD1D1691942F8D1704747
:10707000036802211A680A431A600268D3699907F3
:10708000FCD470470368DA699107FCD41A680221BE
:107090008A431A60704703689A6A520A520211437F
:1070A000996203681A7E5107FCD5986AC0B270478E
:1070B000036801211A680A431A60026811680123F3
:1070C0001942FBD1D1691942F8D1704703680221F6
:1070D0001A680A431A600368DA699107FCD45A8B6C
:1070E00030218A4310210A435A830268D369590721
:1070F000FCD470470368802219685968D2020A4399
:107100005A6070470368034A196859680A405A6010
:107110007047C046FFFFFBFF30B5036803241D68BE
:107120000C40074A596824040A40ED0622436D0FBB
:107130005A60052D03D10268D3695907FCD430BDCC
:10714000FFFFFCFF49001143036830B5CDB2598BF6
:10715000032409092140012904D0598B09090C4055
:10716000022CF4D1596AC90AC90229435962036839
:10717000002A03D11A7ED107FCD50DE0187E01222A
:107180004008104008D1197E1142F7D05968C0223A
:1071900092020A435A6003E05B8B01209B089843EC
:1071A00030BD0368283319700268107E012318402F
:1071B00003D1518B1942F8D003E0528B181C92086E
:1071C00090437047036828331970036800201A7EC3
:1071D000510703D55B8B01209B08984370470368D8
:1071E0001868C006400F043843425841C0B2704787
:1071F0000368187E4007C00F70470368187E01239C
:10720000184070470368588BC006C00F704703686A
:10721000187E8007C00F70470368588B0007C00FA7
:10722000704703681A68D206520F052A02D11A7EE7
:107230009107FCD528331878C0B270470368224AFA
:1072400030B5934211D0214A934211D0204A934243
:1072500011D0204A934211D01F4A934211D01F4AA5
:10726000934230D10E2319220DE0092314220AE0A3
:107270000A23152207E00B23162204E00C23172211
:1072800001E00D231822DCB2154901209B08A04023
:107290009B0008605B180320C021890004405D58F2
:1072A000E000FF248440A5432C1CC0258540281CF9
:1072B000204358508023DB011A430A4B5A805A78E6
:1072C00052B2002AFBDB30BD00080042000C004235
:1072D000001000420014004200180042001C00424E
:1072E00000E100E0000C0040F8B5041C151C0E1C69
:1072F0001F1CFFF7A3FF201CFFF755FEB1001C2247
:107300000A4069072368090C0A431A60226884232B
:107310009375012E1AD10821012D00D110210C4B9B
:1073200079431868C00002F0F9FC236807219A89A4
:107330000140D2044903D20C0A439A812368000415
:10734000C20C9889400B400310439881F8BDC04699
:107350008C000020F7B5019308AB041C1F780D1CAE
:10736000161CFFF777FE201CFFF768FFBF070C22F3
:107370001743C022920336051640C02292022D0404
:1073800023683E4301991540354307221D600A409A
:107390008021236889020A435A60F7BD38B5041C6E
:1073A0000D1CFFF74BFF201CFFF782FE2368142201
:1073B0001A60074B6900186802F0B0FC2468421E8E
:1073C000E068FF231A4098431043E06038BDC04690
:1073D0008C0000200120704708B50368014ADB6972
:1073E000984708BD1304000010B5041C0069FFF79E
:1073F000DAFD201C1430FFF764FD10BD08B50069EC
:10740000FFF7E9FD08BD08B51430FFF775FD08BDAD
:1074100008B51430FFF779FD08BD08B51430FFF743
:1074200057FD08BD08B50069FFF7F5FD012008BD4F
:10743000F7B51D1C08AB1B78041C009309AB1B7827
:10744000161C019300234360FA239B008360094BC1
:107450000F1C083303601430FFF714FD009A231C3F
:10746000C03327619A70019A1E705D70201CDA701B
:10747000FEBDC046A0E6000010B5041C0069FFF781
:10748000B6FD002807D02069FFF7C1FD011C201CB4
:107490001430FFF704FD2069FFF7AEFD002805D08A
:1074A0002069FFF7ADFD2069FFF79DFD10BDF023BA
:1074B000081C18403038434258417047F0231B01E4
:1074C000194080239B0099420CD0C0239B00994215
:1074D00006D080235B000520994204D0002002E002
:1074E000072000E0062070470F231940012905D02E
:1074F00002394B424B410220C01A00E00020704785
:10750000F0B5031C85B00391C033041C182718780C
:107510003B1C43431B4E0821F3185956151C00F021
:1075200005FD231CC133187808214743F61971560D
:1075300000F0FCFC01210A1C039B2069FFF7D4FE2C
:10754000291C201CFFF7BAFF291C071C201CFFF771
:10755000CBFF291C061C201CFFF7A9FF391C00903B
:10756000331C20690122FFF7EFFC231CC333197879
:10757000013B1A782069FFF703FD2069FFF721FD21
:1075800005B0F0BD00E20000F0B51823434385B01C
:107590000292364A1625D3185D5701900391691C53
:1075A00062D0102D60D0324B324C196800291FD1A7
:1075B0004422314804F062FC30491022CA67304B43
:1075C000C02149005A50C12189005858FF26B043B4
:1075D00058501A602B4A2C4B5A80237802221343AE
:1075E00023706378DB09012BFBD0214B01221A6049
:1075F000012763693E1CAE4033436361002101985B
:1076000000F094FC1C4A0399AB009950072D00DC54
:107610000027FB00029AED1AAD00042A22D8101CA4
:10762000BF0002F071FB03080D121700114B052279
:10763000FF18BB6912E00F4904227F18BB690DE0F7
:107640000C4ABF18BB69032208E00A4B0222FF184C
:10765000BB6903E0074901227F18BB69AA40151CDA
:107660001D43BD61B6B2E66005B0F0BD00E20000AA
:10767000EC12002000180040A812002004E100E0F5
:1076800000E100E005400000000C004070B500245F
:10769000084D01262B69A640334206D0064BA200B6
:1076A000D358002B00D098472E610134102CEFD115
:1076B00070BDC04600180040A812002038B5049DD7
:1076C0001C1C401AEB1A5843511A02F075FB0019A2
:1076D00038BD10B5041C006804F08AFB201C10BDE6
:1076E00010B5041C0068002801D004F081FB0023C1
:1076F0002360A360636010BD38B5041C0D1C0068D6
:10770000013104F05FFC002801D021C4012038BD04
:10771000036810B5041C002B02D043688B4209D2C9
:10772000201CFFF7E9FF002805D0A368002B01D13A
:1077300022681370012010BD70B50E1C111C041CB2
:10774000151CFFF7E5FF002803D1201CFFF7C8FF39
:1077500004E0A5602068311C04F074FC201C70BD9E
:1077600038B50023041C0D1C0360436083609942FC
:1077700007D0081C04F06EFC291C021C201CFFF71B
:10778000DBFF201C38BD10B50B1C041E8C4208D03A
:107790000968002903D09A68FFF7CEFF01E0FFF7E0
:1077A0009FFF201C10BD10B50023041C0360436024
:1077B0008360FFF7E8FF201C10BD38B5041C0D1EC8
:1077C00008D0081C04F046FC291C021C201CFFF7F2
:1077D000B3FF01E0FFF784FF201C38BD1FB5002375
:1077E000041C036043608360081C01A900F074F965
:1077F000201C01A9FFF7E1FF201C04B010BD10B54B
:1078000000238AB0041C036043608360081C01A944
:1078100000F02AF9201C01A9FFF7CFFF201C0AB0B5
:1078200010BD70B58CB01D1C10AB1B78141C002251
:1078300002604260826003A99A1C061C52B2009149
:10784000201C291C00F0D4FB011C301CFFF7B5FFE5
:10785000301C0CB070BDF8B5041C0F1C866801D13B
:1078600000250FE00125002A0CD09619311CFFF7E6
:107870004FFF0028F4D02268A368391CD01804F008
:10788000E1FBA660281CF8BD08B50B1C9A680968C6
:10789000FFF7E1FF08BD13B50A22041C081C01A96B
:1078A00000F0E2F801A804F0D5FB01A9021C201C9D
:1078B000FFF7D1FF16BD0B1C10B509689A68041CB0
:1078C000FFF7C9FF002802D1201CFFF709FF201C89
:1078D00010BD38B5041C0D1E09D0081C04F0BAFBFD
:1078E000291C021C201CFFF7B6FF002802D1201C17
:1078F000FFF7F6FE201C38BD10B5041CFFF7CBFFC8
:10790000002802D1201CFFF7EBFE201C10BDFEE773
:10791000FEE7000008B5034B1B68002B00D098471A
:1079200008BDC046F012002038B50F490F4CA142E7
:1079300004D100F0FFF800F0D5F80BE00C4D8D42BB
:10794000F7D00023CA18E818A24204D20068043312
:107950001060F7E7FEE79042EBD0064B064A9342F1
:10796000E7D2002204C3F9E70000002060010020F4
:1079700038EB0000600100201413002008B500F06F
:107980002CF8002801D100F01DF808BD014B18604B
:107990007047C046F0120020014B18687047C0467F
:1079A000F412002070B5041E08D0054B1D681E1C83
:1079B00000F012F833685B1BA342F9D370BDC046D8
:1079C000F412002008B5034B1A6801321A60FFF761
:1079D0001FFA08BDF4120020704700207047F0B570
:1079E0008FB00D1C029235D0131C023B222B33D8D2
:1079F0000A2A33D1002831DA01234642039305AC29
:107A00000194002E12D0301C029902F0CBF9301CE8
:107A10000F1C029902F082F9631C061C092F01DC7D
:107A2000303700E0573727701C1CEAE7019A944270
:107A3000E9D0039A2B1C002A02D02D226B1C2A703D
:107A4000019A944204D9013C22781A700133F7E775
:107A500000221A70281C05E0002003E00022061C0A
:107A60000392CCE70FB0F0BD08B5FFF7B8FF08BD33
:107A7000F0B58DB0061C0D1C019228D0131C023BE2
:107A8000222B26D803AC0094002E12D0301C019972
:107A900002F088F9301C0F1C019902F03FF9631CB9
:107AA000061C092F01DC303700E0573727701C1CFB
:107AB000EAE7009A9442E9D02B1C009A944204D938
:107AC000013C22781A700133F7E700221A70281C53
:107AD00000E000200DB0F0BD08B5FFF7C9FF08BDFC
