:10200000008000209D5C0000875C0000875C000071
:1020100000000000000000000000000000000000C0
:10202000000000000000000000000000875C0000CD
:102030000000000000000000875C0000F15C000070
:10204000875C0000875C0000875C0000C1370000EF
:102050007D5A0000875C0000875C0000895C0000FE
:10206000875C0000FD3F0000875C0000875C00008B
:10207000E92B0000875C00000D400000875C000039
:10208000875C0000875C000019280000875C000066
:1020900000000000875C0000875C0000875C000097
:1020A000875C0000875C0000875C0000875C0000A4
:1020B0000000000010B5064C2378002B07D1054B1B
:1020C000002B02D0044800E000BF0123237010BDA4
:1020D00020010020000000006C75000008B5084BCE
:1020E000002B03D00748084900E000BF07480368F9
:1020F000002B03D0064B002B00D0984708BDC046EC
:10210000000000006C750000240100201C0100206C
:1021100000000000014B03607047C046E06D000006
:1021200070470000014B03607047C046E06D00003F
:1021300010B5034B041C036003F07AFE201C10BD95
:10214000E06D000010B5034B041C036003F070FE4B
:10215000201C10BDE06D000008B503F0D7FD084B52
:102160001A68811A1A1C96235B00994205D9054BFF
:102170001978002901D101211970106008BDC046ED
:102180009C010020D401002008B503F0BFFD0A4BDC
:102190001968421A191C96235B009A4209D9074B09
:1021A0001A78022A01D1002202E0002A01D102227B
:1021B0001A70086008BDC04654010020D4010020F8
:1021C00008B51020022103F091FF002210200649DB
:1021D00003F0D2FB1120022103F088FF11200349F4
:1021E000002203F0C9FB08BD89210000592100002D
:1021F00008B50820012103F079FF0D20012103F02B
:1022000075FF08BD08B50D20012103F0C9FF08BD09
:1022100008B50D20002103F0C3FF08BD08B5082054
:10222000012103F0BDFF08BD08B50820002103F01F
:10223000B7FF08BD08B5024801F088FD08BDC046DB
:10224000A0010020F8B50024124F251C261CFFF722
:10225000F1FF114B013F06215A5EBFB2B6180821AB
:102260005A5EAD180A229B5EE418002FEFD1301C95
:10227000084904F0EFF8094B06491880281C04F0BF
:10228000E9F8074B03491880201C04F0E3F8054BDC
:102290001880F8BD88130000A00100203C01002038
:1022A0008C0100204001002008B50549054802F0D6
:1022B0008FFFFFF7C7FF044B00221A7008BDC0460E
:1022C0002B6E000090070020D4010020F0B53C4E9A
:1022D00087B0041C311C684603F03AFC311C201CFA
:1022E00003F036FC374F381C01F050FB364D287098
:1022F000381C01F041FB354B1870381C01F032FBE3
:10230000334B2A781870314F092A03D8684631496F
:1023100003F04BFC694603A803F03DFC297803A8B1
:1023200003F0A5FC2C4903F08FFC011C201C03F0DA
:1023300066FC03A803F0C5FB6846311C03F035FCBE
:102340003B78092B03D86846224903F02EFC6946E6
:1023500003A803F020FC397803A803F088FC1E4989
:1023600003F072FC011C201C03F049FC03A803F0DD
:10237000A8FB6846311C03F018FC154B1B78092B91
:1023800003D86846134903F010FC694603A803F01C
:1023900002FC0F4B03A8197803F069FC011C201CF8
:1023A00003F02DFC03A803F08CFB311C684603F0FE
:1023B000FCFB684603F085FB201C07B0F0BDC0465F
:1023C000457400008E010020060000205801002006
:1023D000420100203D6E00003F6E00007FB51148B5
:1023E000002101F0A7FD104903A803F0B1FB6846E6
:1023F000FFF76CFF694603A803F018FC011C0B48AB
:1024000002F0DCFE684603F05CFB03A803F059FB16
:10241000FFF7F8FE064B04211A690A431A6130BF20
:1024200007B000BDA0010020416E00009007002011
:1024300000ED00E0F0B53B4D87B0041C291C684658
:1024400003F086FB291C201C03F082FB364E301C57
:1024500001F0BAFA354F3870301C01F0ABFA344B4A
:102460001870301C01F09CFA324B314E187009285C
:1024700003D86846304903F098FB694603A803F087
:102480008AFB2C4B03A8197803F0F1FB2B4903F0CE
:10249000DBFB011C201C03F0B2FB03A803F011FBC3
:1024A0006846291C03F081FB3378092B03D8684662
:1024B000214903F07AFB694603A803F06CFB3178ED
:1024C00003A803F0D4FB1D4903F0BEFB011C201C34
:1024D00003F095FB03A803F0F4FA6846291C03F007
:1024E00064FB3B78092B03D86846134903F05DFB76
:1024F000694603A803F04FFB397803A803F0B7FB44
:10250000011C201C03F07BFB03A803F0DAFA291C52
:10251000684603F04AFB684603F0D3FA201C07B074
:10252000F0BDC046457400008E0100200700002069
:1025300005000020040000203D6E0000626E0000D7
:1025400030B58BB0041C01A8FFF774FF01A904A8E3
:1025500003F021FB0D4904A803F076FB051C07A836
:10256000FFF7B4FE07A9281C03F060FB011C201C28
:1025700003F011FB07A803F0A4FA04A803F0A1FAE2
:1025800001A803F09EFA201C0BB030BD0D6E0000B8
:1025900010B5144C86B0201C002101F04FFA002227
:1025A000201C131C102101F053F906221123201CBA
:1025B0000D2101F099F90C4903A803F0C9FA684606
:1025C000FFF7BEFF694603A803F030FB011C074874
:1025D00002F0F4FD684603F074FA03A803F071FA00
:1025E00006B010BD8E010020646E00009007002030
:1025F00038B5051C0024AC420CD2FFF703FE642062
:1026000003F08AFB0134FFF703FE642003F084FB30
:10261000E4B2F0E72C1C092CECD8C820013403F0FC
:102620007BFBE4B2F7E7000010B50B4C1821201C2F
:1026300001F092FC002802D10120FFF7D9FF201CF5
:10264000032101F06BFB201C072101F073FC0349FF
:10265000034802F0BDFD10BDA0010020716E000016
:102660009007002008B5FFF7C3FDFFF7A9FDFFF7AE
:10267000DBFFFFF78DFFFFF7CBFDFFF7D5FD024B2B
:1026800000221A7008BDC046D401002037B581026F
:102690000A4803F0DFFE0A4C451E208A228B0021E7
:1026A000009580B292B20B1C03F000FAADB280B27A
:1026B00020822583E37BDB09FCD137BD006CDC0283
:1026C000002C00421D4A1E4B70B51A801D4B5B78D2
:1026D000DB09FBD11C4C0222238893432380E27B3D
:1026E000194BD209FBD11A8892B21A80E27B164BA1
:1026F000D209FBD11A8820210A431A80E27B124BAF
:10270000D209FBD11988E022D2000A431A80E67B65
:102710000D4DF609FBD1FFF7B9FF6E736B7B1022ED
:1027200013436B738022094BD2021A602B8802225A
:1027300013432B80E37BDB09FCD170BD1B40000001
:10274000020C0040000C0040002C004200E100E0C0
:10275000044B02211A888A431A80DA7BD209FCD101
:102760007047C046002C00427FB5134903A803F010
:10277000EFF96846FFF7AAFD694603A803F056FA89
:10278000011C0E4802F01AFD684603F09AF903A8EE
:1027900003F097F9FFF742FD0520FFF793FF084B81
:1027A0001B78022B02D1FFF745FDF8E7FFF7D0FFBA
:1027B000FFF73AFD07B000BDC16E00009007002092
:1027C000D401002010B5114C2378022B01D1FFF762
:1027D000CBFF2378012B01D1FFF766FD2378032B74
:1027E00003D10B4B1878FFF703FF9620400003F04E
:1027F00093FAFFF7F3FDFFF70BFD9620400003F07F
:102800008BFA0448072101F095FB10BDD40100208C
:102810003E010020A001002010B5094C2378002BB8
:1028200002D0FFF7FBFC01E0FFF7FEFC237801225A
:1028300053402370034B10219A7B0A439A7310BDB7
:1028400050010020002C0042F8B51E4800F06EFF39
:102850001D4E1E49301C03F07BF91D4D1D4C291CDB
:10286000221C301C04F022F91B4800F0A5FF1B4E6F
:102870000F21301C01F06CF9221C301C184904F0A7
:1028800015F9184E184F311C381C03F061F9291C3A
:10289000221C381C04F00AF9144F311C381C03F0B8
:1028A00057F9291C221C381C04F000F9104F311C68
:1028B000381C03F04DF9381C291C221C04F0F6F8D2
:1028C000F8BDC0465C01002080010020D36E0000EE
:1028D000C35A0000000000208E010020A00100204B
:1028E000252100004574000090010020C80100204F
:1028F00044010020F8B5051C0F1C161C0024B4422E
:1029000008D02B68395D1B68281C9847002801D027
:102910000134F4E7201CF8BD704708B5183002F008
:10292000CFFC08BD08B5183002F0DEFC08BD38B594
:10293000837D0D1C002B06D0041CC434201C02F027
:10294000E9FC002801D0002004E0201C291C02F032
:102950009EFC012038BD08B5183002F0CEFC08BD41
:10296000F7B50193FA239B0083600B4B00250833D6
:10297000041C4560036018300F1C161C02F07AFC22
:10298000201CC43002F076FC019B27612675A575DA
:10299000201C6375FEBDC046406F000070B50D4938
:1029A000041C006902F0F2FE206902F087FD18267F
:1029B000207D331C4343084D0821EB18595603F082
:1029C00037FC607D08214643AD19695603F030FCA1
:1029D00070BDC046A0860100B86F0000F7B5041CAA
:1029E00000200E1C151C0193824231D0271C183781
:1029F000381C02F05EFC2069311C012202F09AFDB5
:102A0000002823D0206902F004FE011C381C02F0CB
:102A10003EFC01262069AE420ED002F06BFD022181
:102A2000206902F071FD206902F0F3FD011C381CE1
:102A300002F02DFC0136EDE702F054FD019B002B66
:102A400005D02069032102F05FFD00E0051CE8B21B
:102A5000FEBD08B50123FFF7C1FF08BD10B5B823BF
:102A60005B00C154041CC43002F023FC0123A37595
:102A700010BDF8B50022B82382755B00041C0F1C42
:102A8000C15C006902F056FD002805D120690321D0
:102A900002F03AFD02251DE0261CC436301C02F06F
:102AA00023FC00280FD0301C256902F009FCC1B2BC
:102AB000281C02F06EFD0028EED12069032102F0EF
:102AC00023FD032506E0051C002F03D02069032108
:102AD00002F01AFD281CF8BD08B50121FFF7C9FF57
:102AE00008BD38B5041C006902F071FD002879D0DA
:102AF000206902F07AFD00280ED1206902F07FFDE6
:102B000000281FD0206902F075FD00281AD0206926
:102B100002F07AFD002815D1206902F0EBFC206953
:102B2000032102F0F1FC231CFC33DD6F002D04D0E7
:102B30002368201C9B689847A847201C183002F087
:102B4000B8FB4FE0206902F05AFD031C2069002BFE
:102B500016D002F0CFFC2069032102F0D5FC2069D9
:102B600002F052FD00283DD0201CC43002F0A1FB31
:102B70000123A375FC34A36F002B33D0984731E0B9
:102B800002F02EFD00282DD0206902F03DFD251C0D
:102B900000280FD0C435281C02F0A6FBFF21002816
:102BA00003D0281C02F08CFBC1B2206902F002FDA8
:102BB000A07517E01835281C02F0ACFB031C206937
:102BC000002B02D002F08EFC08E002F022FD011C76
:102BD000281C02F05CFB206902F08CFC20690321B8
:102BE00002F092FC38BD000008B50248FFF779FFFB
:102BF00008BDC046D801002008B503480349142287
:102C00001523FFF7ADFE08BDD8010020780700208E
:102C1000437A002B04D18372C372C36001234372D1
:102C2000704730B585B0041C02AD00680291039274
:102C300002F020FC6B79E179227A0093206800236E
:102C400002F080FD29792068029A02F0E3FB2068F7
:102C500002F006FC05B030BD70B5041C1826FFF765
:102C6000D7FF2079331C43430D4D0821EB185956EB
:102C700003F0DEFAA079331C43430821EB185956C0
:102C800003F0D6FA607908214643AD19695603F07E
:102C9000CFFA044B201C06CBFFF7C3FF70BDC04624
:102CA000B86F00005403002007B5837A00910192A9
:102CB000002B0DD09A0706D5EFF310835A425341EB
:102CC000C37272B604E0DA0702D58289034B9A60B8
:102CD0000099019AFFF7A5FF07BDC0460018004004
:102CE000837A002B0BD09A0704D5C37A002B06D029
:102CF00062B604E0DA0702D58289014BDA607047D8
:102D00000018004008B5006802F0BDFB08BD0000D7
:102D1000094B0A4A0A491A6000225A711A71094B72
:102D20001960162119711821997117215971012102
:102D30005A72D9711A7270475403002000093D007D
:102D4000880700205C03002008B5011C0148FFF73C
:102D5000D9FF08BD5C03002008B50248FF21FFF73A
:102D6000D1FF08BD5C03002008B50121007903F004
:102D700017FA054B1A78002A04D0002203481A706B
:102D8000FFF7AEFF08BDC046740300205C030020BF
:102D900010B5084B041C1A78002A06D101221A70BB
:102DA000054B064806CBFFF77FFF2079002103F093
:102DB000F7F910BD740300206C0300205C030020B1
:102DC00010B58379041C002B0DD023895A1C228155
:102DD000054A934202D8FFF7BFFFF6E7201CFFF732
:102DE000C3FF0023A37110BD0102000038B50C1C05
:102DF00002F08CFF051CFFF7AFFFFF2808D002F0A0
:102E000085FFABB280B2C01AA042F4DB002000E024
:102E1000012038BDF8B5041C0E1C171CFFF7D0FFAD
:102E2000201CFFF7B5FF96214900201CFFF7DEFFAD
:102E300040203043FFF788FF1825381CE840C0B217
:102E4000083DFFF781FF2B1C0833F6D19520002E9B
:102E500003D08720082E00D0FF20FFF775FF002544
:102E6000FFF77AFF43B2E072002B04DAFF2D02D0A5
:102E70000135EDB2F4E7F8BD38B5041C02F046FFA9
:102E8000051CFFF769FFE072FF280AD102F03EFF40
:102E9000ABB280B2C01A96235B009842F1DD0F23DB
:102EA00002E0FE2806D00D23201C6371FFF75CFFB3
:102EB000002000E0012038BDF8B5041C0F1C151CD3
:102EC0001E1E45D09A1880239B009A4242DC8379CB
:102ED000002B05D00268914202D10389AB4216D97A
:102EE000237B2760032B00D07F023A1C201C11217A
:102EF000FFF790FF071E02D0032363712AE0201C16
:102F0000FFF7BAFF002825D001232781A371238969
:102F1000AB4205D2FFF720FF238901332381F6E777
:102F2000069D069AAB1A9BB2B34204D2FFF714FF78
:102F300028700135F5E72389A27AF3189BB2238123
:102F4000002A02D0064A934202D9201CFFF738FF1C
:102F5000012003E0201CFFF707FF0020F8BDC0465A
:102F6000FF01000007B5802300929B000022FFF7BD
:102F7000A3FF0EBD70B5051C081C161CFFF7E4FE70
:102F80000024305DFFF7E0FE013480239B009C426B
:102F9000F7D1FF20FFF7D8FEFF20FFF7D5FEFFF7A0
:102FA000DBFE1F23E87203400120052B05D011230F
:102FB000281C6B71FFF7D8FE002070BD70B50B1C8C
:102FC000041C161C002901D1122328E0027B032ACD
:102FD00000D04B02201C18211A1CFFF71BFF051EF6
:102FE00001D004231BE0201CFE21321CFFF7C2FF8E
:102FF000002815D09621201C8900FFF7F7FE002835
:1030000001D115230BE0201C0D212A1CFFF702FF24
:10301000002803D1FFF7A0FE002806D01423637117
:10302000201CFFF7A1FE002003E0201CFFF79CFE00
:10303000012070BD034B044A1A6000225A711A71B4
:103040007047C0466C03002000093D00021C10B50B
:103050000C32041C0121406A00F0B2FA00280AD0A8
:10306000236A0120002B06D1E368227A23628023A1
:103070005B421343237210BD10B5041C406900F07D
:1030800007FA002803D0207E014B4001C01810BD74
:1030900084030020F0B5437A85B0041C0E1C039213
:1030A000002B01D13A4811E0037AD807FAD5E2693A
:1030B00020690399131A994201D99BB2039303998A
:1030C0000291029B002B04D1039988B200B205B093
:1030D000F0BD2369617ADF05FF0D5A0A606A022993
:1030E00002D1416A51181BE00579013D2A40D5B251
:1030F000002F0DD1002D0BD1002B02D1226AE260EE
:1031000006E0221CE1680C3200F0E6F90028C9D084
:10311000636AE1681A7C02395B699140C9184919F0
:103120008022029D9200D31B9D4200DD9DB2237A36
:10313000580601D4954218D1164B1B68994214D0F9
:10314000154B3A1C186800962B1CFFF7B5FE00289B
:10315000A8D0761901E0DF1BF6192169029A4B19F4
:10316000551BADB223610295ABE7081C002100F0AE
:103170008FF9002896D0094B321CFF1879193B1C97
:103180008B42E8D01878013310700132F8E7C0465E
:10319000FFFF0000080000208003002084030020BF
:1031A00070B5041C407A0D1C00282AD0E2699142B7
:1031B00001D9002025E0022821D0002D01D1E560B1
:1031C0001DE0626A2169137C681E09334A1ED840DB
:1031D000DA40031E934201D3002902D1226AE26041
:1031E00000E0831A1E1C002E09D0221C606AE168D0
:1031F0000C3200F071F9013E0028F4D101E02561A4
:10320000012070BD38B5051C407A002833D02B7AD8
:103210007F2B2DD9281C0121FFF72EFF041E2AD059
:103220006B7A012B07D82B7F03776B7F4377AB7FBC
:103230008377EB7FC3772B6A9AB21B0C23751B0A2B
:1032400063750D4BA2761B68120AE276002B0BD039
:10325000201C211C183016319847637E227E1B02E9
:103260001343A3741B0AE3742A7A7F2313402B723F
:1032700000F0E4F8FFE738BD78030020F0B5437AAA
:1032800087B0041C0D1C0392012B0DD1037A990702
:103290000AD55A070CD5E16922698A4208D0201C58
:1032A000FFF77EFF002803D1012363600020AAE01E
:1032B000039B01933BE0606A730A0779F605013FBF
:1032C0001F40FFB2F60D002F36D080229200921BD5
:1032D000019992B20B1C914200D9131C9BB202932C
:1032E000636AE1681A7C023991405A698B18029A24
:1032F000DF1980239B009A423FD1444B1968B942A1
:1033000002D1012252421A60414B391C18682A1C12
:10331000FFF754FE0028C7D080229200AD18019913
:10332000029A8B1A21699BB201938B182361019A2F
:103330002669002ABFD149E0002EC6D1E1680029E4
:1033400003D1236A002B16D10FE005AA00F0C4F8C0
:10335000002858D0626A059B0132D27F102A01D121
:103360002C4A00E02C4A934205D3201CFFF76EFE46
:103370000028AAD198E7E360A7E7002E0FD12369C0
:10338000E1698B420BD300F059F800288CD01F4B19
:1033900001211F60214B1A780A431A7006E0381C7D
:1033A000012100F075F8002800D17DE71C4B2A1C94
:1033B000F618029BF118331C8B4204D010780132AE
:1033C00018700133F8E79E1BAD19A8E7E169237A6D
:1033D0008E4201D9E66106E0124A1268002A06D040
:1033E000039A002A03D08022524213432372237A85
:1033F000190701D4039806E0201CFFF703FF0028FB
:1034000000D151E7F6E707B0F0BDC0460800002044
:1034100080030020F8FF0000F8FFFF0F8405002064
:10342000840300207803002007B56B46D971073369
:10343000191C0122FFF722FF0EBD0000F8B50F4F47
:1034400001203B78002B18D00D4E0E4B0E4D196805
:1034500030682A1CFFF7B2FD00280ED00B4C216803
:10346000002907D030682A1CFFF7A8FD002804D0E7
:103470000023236000233B700120F8BD8405002059
:103480008003002008000020840300207C0300202B
:1034900070B50D4D041C2B680E1C83420ED0FFF737
:1034A000CDFF002801D100200DE0084B211C186839
:1034B000074AFFF757FD0028F5D02C60054B012087
:1034C0001A7816431E7070BD08000020800300208B
:1034D0008403002084050020C36870B501330C1CF0
:1034E000151C994201D9002021E0461CF17FC269D8
:1034F000E309102900D1230A98180D4B1B68984244
:1035000007D1F27F0B4B102A09D1E4B264001B5B98
:103510000BE00021FFF7BCFF0028F2D1E3E77F2298
:103520001440A4001B591B011B092B60012070BD16
:103530000800002084030020F7B5051C0C1C019234
:10354000012932D9C3680020013399422ED86F1C5B
:10355000FA7FEE69CB09102A00D10B0A9E19144B91
:103560001B689E4208D1FA7F124B102A0BD1E4B29D
:10357000019A64001A530BE0301C0021FFF788FF0A
:103580000028F0D112E07F221440019AA4001A51C1
:10359000094B01201A7802431A702B7E834205D909
:1035A000AB68F618054B1E6000E00020FEBDC0466B
:1035B0000800002084030020840500207C030020F4
:1035C000F0B5156887B0061C0291171C002D03D0BA
:1035D00000210135019106E0029B0568013B5A423A
:1035E0005341DBB20193F2680023013203922C1C99
:1035F00000930099F268914221D2039B9C4201D929
:103600000224251C301C211C05AAFFF765FF002899
:1036100015D00599631C002901D01D1C03E00299F7
:103620005A1B8A4204D0009A1C1C01320092E0E727
:10363000301C211C134AFFF77FFF00280BD100200C
:103640001DE0631E301C191C221C0093FFF774FF41
:103650000028F4D0009CAC42F3D83968002906D188
:1036600001993D60002909D00135356006E0301C24
:103670002A1CFFF761FF0028F2D1E0E7012007B024
:10368000F0BDC046FFFFFF0F13B502686B46D9714E
:1036900007335468191C0122A04716BD38B5041C15
:1036A000006A0025A84202D1012363600AE0456058
:1036B00092B2FFF7E3FD236A5B68002B02D001237F
:1036C0006360281C38BD006A08B5002801D0FFF7E8
:1036D00099FD08BD13B56C460734211C0122FFF784
:1036E000D9FC012801D1207800E0014800B216BDC4
:1036F000FFFF0000006A08B5002802D0FFF7EAFFCC
:1037000001E00120404208BD38B5051C006A0028D0
:103710000AD0FFF7DFFF041C631C05D0286A01698B
:103720000139FFF73DFD201C38BD0000FA22920050
:103730008260044A0023083243600260036203741B
:103740007047C046706F0000036A002B01D01869F3
:1037500001E0012040427047006A002800D0C069A3
:103760007047000038B5041C006A00280BD0201CEC
:10377000FFF7F2FF051C201CFFF7E6FF024B281A9B
:10378000984200D9181C38BDFF7F0000084B022169
:103790001961191C002230310A7006495A719A7158
:1037A0009A721A73DA63996341331A707047C0468C
:1037B00088050020686F0000002303707047000038
:1037C00008B5044B1B68002B00D09847024B012220
:1037D0001A7208BDEC050020001400400378002B8D
:1037E0000AD0064B081C19693F221040914301433F
:1037F00019619A7AD209FCD17047C0460014004082
:103800000378002B0BD0064B3F2211408A01186928
:1038100004490140114319619A7AD209FCD17047D9
:10382000001400403FF0FFFF0378002B0BD0064B45
:103830001F2211400A03186904490140114319610C
:103840009A7AD209FCD1704700140040FF0FFEFFA6
:1038500070B5161C0278041C0D1C002A0AD0191C15
:10386000FFF7BCFF201C311CFFF7CAFF201C291CDE
:10387000FFF7DAFF70BD00000378002B0BD0064B7A
:103880001F2211404A04186904490140114319617B
:103890009A7AD209FCD1704700140040FFFFC1FFA3
:1038A0000378002B0BD0064B0F2211408A051869B4
:1038B00004490140114319619A7AD209FCD1704739
:1038C00000140040FFFF3FFC0378002B09D0054B9C
:1038D0008A06196989018909114319619A7AD209FD
:1038E000FCD170470014004070B51D1C0378041C07
:1038F000161C002B09D0FFF7BFFF201C311CFFF75F
:10390000CFFF201C291CFFF7DFFF70BD0A4B0B4ABD
:103910009A605A7852B2002AFBDB0949064A516084
:103920005A7852B2002AFBDB0649034A51805A7882
:10393000D209FCD17047C046000C004002040000D0
:1039400002051100044200000378002B05D0034B50
:10395000034A5A809A7AD209FCD170470014004079
:103960000080FFFF08B5FFF7EFFF024B18693F2308
:10397000184008BD0014004008B5FFF7E5FF024BF2
:1039800018690005800E08BD0014004008B5FFF757
:10399000DBFF024B1869C003C00E08BD00140040D5
:1039A00008B5FFF7D1FF024B18698002C00E08BDB1
:1039B0000014004008B5FFF7C7FF024B18698001EB
:1039C000000F08BD0014004008B5FFF7BDFF024B13
:1039D0001869800E08BDC04600140040044B022147
:1039E0001A888A431A809A7AD209FCD17047C04655
:1039F00000140040044B02211A880A431A809A7A64
:103A0000D209FCD17047C04600140040044B01218C
:103A10001A880A431A809A7AD209FCD17047C046A4
:103A200000140040044B01211A888A431A809A7AB4
:103A3000D209FCD17047C04600140040F7B52B4BAB
:103A40000F1C9A6920210A439A61294A294B0026B2
:103A5000051C9A82284CB7420AD1284B1A78702349
:103A60001A4240D023881A073DD5226901260192C7
:103A7000281CFFF74BFF281CFFF7B0FF281CFFF79F
:103A8000C5FF62881E4B134063801E4B2380A27AC1
:103A9000194BD209FBD11C4A08211160C0218900B1
:103AA00050580002000A5050DA7901210A43DA71B5
:103AB0001A7F07218A431A77A37ADB09FCD1281CD5
:103AC000FFF798FF281CFFF7ADFF002F02D001235E
:103AD0002B70F7BD002EFAD0074B019A1A61A37A1A
:103AE000DB09FCD1F3E73E1CC2E7C04600040040FE
:103AF000CE060000000800400014004038040040DA
:103B0000FFBFFFFF080A000000E100E038B52822EF
:103B10000C1C051C081C002103F023F8201C08497C
:103B20000B2203F0F0F80023E372ED6901226362D7
:103B300000232561E2606261A361E361236238BD15
:103B4000906F000008B50368C9B21B68984708BDAC
:103B5000074B821C0833036001235B42C361D177AA
:103B6000C21CD377FF21021DD177421DD377704746
:103B7000986F0000F7B5421D019100921F23D356A4
:103B8000051C07270024013303D11448FFF7BAF8B6
:103B900022E0009B1F2018560021012602F000FBA6
:103BA000019A311CEB1C1F20B9401856114002F03D
:103BB000F7FA009B1F201856311C02F0F1FA2B1D5A
:103BC0001F2064001856E4B202F01AFB002800D04F
:103BD0003443013FDDD2201CFEBDC0465C03002003
:103BE000F0B51F23851CEB5685B0041C0F1C161C5A
:103BF000013312D1431CD97F8069FEF72FFFA069E2
:103C0000391C03681B689847A069311C03681B684E
:103C10009847A069FEF760FF29E0421D01921F232B
:103C2000D356013308D16A460023537313731148E6
:103C30001149039AFFF738F81F202856002102F097
:103C4000AFFA7F213940201CFFF794FF311C201C64
:103C5000FFF790FF1F202856012102F0A1FA019AD8
:103C60001F23D356013302D10248FFF739F805B0BC
:103C7000F0BDC0465C03002020A10700F7B51F235C
:103C8000851CEB56041C0F1C013317D1451CE97F22
:103C90008069FEF7E3FEA069391C03681B6898473A
:103CA000A069FEF719FFE97FA0690122FEF7D1FEA6
:103CB000A0690368DB689847C4B228E0461D1F234B
:103CC000F356013308D16A4600235371137111482A
:103CD0001149019AFEF7E8FF1F202856002102F043
:103CE0005FFA80213943201CFFF744FF201C00218C
:103CF000FFF740FF041C1F202856012102F050FA54
:103D00001F23F356013302D10248FEF7E9FF201CBE
:103D1000FEBDC0465C03002020A1070038B50D1C85
:103D20002321041CFFF7AAFF3023021C9A432D0114
:103D30002A43D2B2201C2321FFF752FF38BD08B519
:103D40002321FFF79BFF8006800F08BD73B51F235B
:103D5000851CEB56041C01333ED1451CE97F80696C
:103D6000FEF77CFEA821A069FFF7ECFEA069FEF734
:103D7000B3FE0622E97FA069FEF76BFEA069036827
:103D8000DB689847E080A0690368DB6898470622F3
:103D9000A35E80B200021843E080A0690368DB687C
:103DA00098472081A0690368DB6898470822A35ED2
:103DB00080B2000218432081A0690368DB6898473D
:103DC0006081A0690368DB6898470A22A35E80B21D
:103DD0000002184360814CE0461D1F23F356013357
:103DE00008D16A460023537113713A483A49019A3F
:103DF000FEF75AFF1F202856002102F0D1F9E821D2
:103E0000201CFFF7B7FEFF21201CFFF7B3FEFF21A8
:103E1000E080201CFFF7AEFE0622A35E00021843DE
:103E2000E080FF21201CFFF7A5FEFF212081201C40
:103E3000FFF7A0FE0822A35E000218432081FF21A5
:103E4000201CFFF797FEFF216081201CFFF792FEE8
:103E50000A22A35E0002184360811F202856012118
:103E600002F09EF91F23F356013302D11948FEF7E1
:103E700037FF201CFFF763FF032807D0022807D075
:103E8000012808D0002808D0012007E0134805E0E9
:103E90008020400102E0124800E0124802F08CFD50
:103EA000051C0623E05E02F087FD291C02F034FBAE
:103EB000E0600822A05E02F07FFD291C02F02CFBCE
:103EC00020610A23E05E02F077FD291C02F024FB4A
:103ED000606173BD5C03002020A107005505000050
:103EE000FE1F0000FC3F000070B524260C1C051CC2
:103EF000321C081C002102F034FEEB69281C6360B0
:103F00000123A360002323612660FFF71FFFE868F9
:103F1000074902F027FC60612869054902F022FC8C
:103F2000A0616869024902F01DFCE06170BDC046F5
:103F30000AE81C4138B50D1C2021041CFFF79EFE29
:103F40000F23021C1A402D012A43D2B2201C20212B
:103F5000FFF746FE38BD000038B5431C851C041C25
:103F6000D9771F202856431C03D1A069FEF716FD00
:103F70001FE0012102F014F91F202856012102F050
:103F8000B5F8631D1F201856431C03D11A48FEF7CD
:103F900063FE0EE0012102F0A9F8E31C1F20185671
:103FA000012102F0A3F8231D1F201856002102F062
:103FB0009DF8201C0F21FFF761FE0023332818D144
:103FC0000722201C2021FFF70BFE201C0721FFF7F2
:103FD000B1FF201C23218822FFF702FE201C222192
:103FE0001022FFF7FDFD201C1F218022FFF7F8FDA6
:103FF0000123181C38BDC0465C03002008B50248E8
:1040000001F032FC08BDC046F005002008B50248AA
:1040100001F02AFC08BDC046B4060020F7B5164FD3
:104020001649381C01F086F91549164801F082F945
:104030001549164801F07EF91549164801F07AF93C
:104040001549164801F076F9154D03260124281C60
:10405000144901F06FF9391C0096231C01940022C9
:10406000114801F0DDFB0096291C01941F221E233C
:104070000E4801F0D5FBF7BD7C0700200008004288
:10408000000C00428007002000100042840700203E
:104090000014004278070020001800428807002022
:1040A0008C070020001C0042F0050020B406002010
:1040B0003F20704713B502686B46D97107335468C7
:1040C000191C0122A04716BD08B50069022100F0A5
:1040D00025FC08BD08B50069032100F035FC08BDCA
:1040E00038B50D1C041C131C006903212A1C00F0A8
:1040F00027FD002801D10123636038BD10B5054CB0
:1041000023685A1C04D10368DB6898472060031CAD
:10411000181C10BD5C000020074A08B51368591C24
:1041200004D0012149421160181C03E000690221FA
:1041300000F0F8FC08BDC0465C00002008B503781C
:104140000349023303704222024800F0AFFD08BD6C
:10415000180000205B0C002010B50178031C427889
:104160000020A12908D1212A2FD118481849072257
:1041700000F09CFD012028E0212926D1202A05D12C
:1041800013490722114800F025FC04E0222A10D12F
:104190009A780F4BDA710E4B96221968D200914231
:1041A00010D1DC7901231C400CD1FA2001F01AF85F
:1041B0000AE0232A09D1DA789B7812021A43054BC8
:1041C0001A6002E001F014F8002010BD5B0C002022
:1041D0000C00002014000020064BFA218900996091
:1041E000054900220831196004495A6019611A769C
:1041F0007047C04690070020D87300005B0C002079
:1042000070B5C2B219495301CB189E68184DC0242D
:104210002E40A40526439E60164E80010968301882
:10422000083258605201505C0726B04301263043E3
:1042300050549E6935402C439C610F4C5C61505C2E
:104240007024A0431024204350549C680B488A18C3
:104250002040802464032043986098684021800BAC
:104260008003986053790B43537170BD640C002038
:10427000FFFFFF8F7C0A0020B8080020FF3F00F0FE
:1042800038B5041C08CC01211A78051C0A431A70A1
:104290008022201C0021520002F063FC2B689A78D7
:1042A000D107FCD45C6238BD134BF0B51B68990391
:1042B0005A029B01C90ED20E5B0F1F2900D10521A6
:1042C0001F2A00D11D22072B00D1032304688E0171
:1042D000278D0A491F2539403143218501682A402D
:1042E0000C8DAC4322430A8502681903108D044BE0
:1042F00003400B431385F0BD246080003FF8FFFFAF
:10430000FF8FFFFFEFF3108303600123436072B65A
:1043100070470368002B02D162B6BFF36F8F7047FE
:1043200037B50569041C6846002D12D1FFF7EAFF76
:10433000019B013B03D3621DD57FEDB2F9E76846CF
:104340000193FFF7E6FF0020854217D0206AE3695A
:1043500013E0FFF7D7FF019B0025013B04D3221C8C
:1043600034321578EDB2F8E768460193FFF7D1FFD4
:104370000020854202D0206BE36AC01A3EBD0000D7
:10438000436810B51A68037A01215B01D318FF3323
:104390009A7A0A439A72037A42685B01D318C26818
:1043A0009C6891040B4A090922400A439A60037AE7
:1043B00042685B01D3189A684021920B92039A607D
:1043C00043681A68037A08335B01D3181A790A43E1
:1043D0001A7110BDFF3F00F0F7B50569041C0E1CF3
:1043E000171C6846002D1FD1FFF78CFF019B013B76
:1043F0005A1C06D0621DD17F5A1E00293AD0131CC8
:10440000F6E768460193FFF784FF0025E369BD42A4
:1044100035D0226A934232D25A1CE261A269D31883
:104420001B7873550135F1E7FFF76CFF019B013BEA
:104430005A1C08D0221C343215785A1EEDB2002DB9
:1044400018D0131CF4E768460193FFF762FF0025BC
:10445000E36ABD4226D0226B934241D322E0621D23
:104460000021D17730321678581E8E4214D1031CA9
:104470005A1CF4D168460193FFF74BFF38E0226ADB
:10448000934235D10023E361012323616846FFF79E
:1044900039FF019B013BEBE71170201C0193FFF7F3
:1044A0006FFFF6E7226B934222D10023E362236180
:1044B0006846FFF727FF019B013B5A1CDAD0221CFC
:1044C00034320021117001321678581E8E4201D10B
:1044D000031CF2E71170201C0193FFF751FFEAE77C
:1044E0005A1CE262A26AD3181B7873550135AFE7F4
:1044F000281CFEBD37B54368027A1B68083252019A
:104500009A18041CD0790123FF21184253D0D3718B
:10451000A068656962680140002D20D149015218E8
:10452000916863618904890C2162A16A68465160BF
:10453000621DD377FFF7E6FE019B013B5A1C33D087
:10454000221C34321178581EC9B20132002903D01E
:1045500001930123137023E01170031CEEE74B015C
:10456000D3189A68A5699204920C226300226261B2
:1045700068465D60FFF7C6FE019B013B01E01170DC
:104580002B1C591C10D0221C343201201070621DCB
:10459000D17F5D1EC9B230320029F0D00193107076
:1045A0006846FFF7B6FE06E068460193FFF7B1FEE6
:1045B000201CFFF7E5FE37BD37B500236C46E371DD
:1045C0000734201C0D1CFFF7B9FD2B681818286054
:1045D00001F0D6FE211C01F08DFE2B681818286012
:1045E00020783EBD03290BD10D4BB2221B6852002F
:1045F000985C8021494201439954022168220CE0D1
:1046000001290CD1064B92221B685200985C802134
:1046100049420143995402212822FF32995470479C
:10462000640C002038B5304B00240121051C1A20F1
:104630001C7001F05BFD1A20012101F0B1FD2B4B34
:10464000192001211C7001F051FD1920012101F0F8
:10465000A7FD274B2021DA6901200A43DA61254BA7
:1046600006241A7802431A70234B0F2219789143BB
:10467000197019782143197020490C78204308706B
:1046800019780A401A701A7860210A431A701C4B74
:104690001C4A5A805A78D209FCD11B4801F030FBE1
:1046A0001A4C201CFFF7ECFD201CFFF7FDFD2368D2
:1046B0007F2219780A401A701A7804210A431A7066
:1046C0001A890C218A431A81C121114A8900505844
:1046D0000002000A5050802111601A7802210A431A
:1046E0001A7001232B7038BD780A0020600C00205E
:1046F00000040040584400413C44004159440041FA
:10470000000C00400640000039510000640C0020FD
:1047100000E100E00078002810D0094B01211B685F
:104720001A898A431A811A8B08210A431A831A8B21
:1047300004210A431A83034B00221A607047C046C3
:10474000640C0020680D00200F4B9A69920B9203B5
:104750009A611B680222FF331A72987980225242B2
:1047600002439A711A7A9007FCD5084B081C997A73
:104770007F221040914301439972997A80225242DC
:104780000A439A727047C046640C002000500041F2
:1047900010B50B790C1C002B0BD1081CFFF7DCFCAF
:1047A000002804D1094B9A69920B92039A61012067
:1047B0000BE001F0E5FD211C01F0D0FD0028F6D151
:1047C000024B9A69920B92039A6110BD640C00200F
:1047D000F8B50D1C832A16D1CAB242495301CB1831
:1047E0009C694148AD012040C024A4052043986144
:1047F0003E48083245195D610B685201D15C70205A
:104800008143402065E0022A45D1382001F00CFBAD
:10481000374B344F8026036076000023421D03622D
:1048200003614361C36147608560C660D3772F32FF
:10483000041CC36203631370301C537002F074F9DC
:10484000A061301C02F070F9FF232A1C1A405201AB
:10485000A062BF18B968244A07260A40C02189050A
:104860000A43BA60A16862681940126808314901B8
:10487000885CAD00B043032630438854A168626869
:104880000B405B01A169D3185960201CFFF778FD2C
:10489000184BEC5025E0822A1ED1CAB211495301AF
:1048A000CB189C691048AD012040C024A4052043CA
:1048B00098610E48083245195D610B6852019918DC
:1048C0000C798020404220430871D15C70208143E4
:1048D00030200143D15404E0002A02D1081CFFF724
:1048E0008FFCF8BD640C0020FFFFFF8FB80800208C
:1048F000087400003C0C002038B5051C0124064B50
:10490000A200D258002A06D0211C281C0134FFF72F
:104910005FFFE4B2F3E738BD6000002008B5084B44
:104920008A00D058002803D003689B68984706E0A7
:10493000C9B2044B4901591888688004800C08BD2D
:104940003C0C0020640C002010B50C1CFFF7E6FFA7
:1049500000280CD0064BE1B21B68083149015918F8
:104960004A7980235B4213434B710223CB7110BD04
:10497000640C002070B5CAB2134B1448540189016D
:104980005918031959609D6811490832294080253A
:10499000AD022943996099684026890B8903996083
:1049A0000368510159180D7935430D71510159189A
:1049B00089794D06FAD551015918C979CD07FAD52B
:1049C0000419A068C0B270BD7C0A0020640C0020ED
:1049D000FF3F00F038B50C4B141C1B680D1CFF3357
:1049E0005A7940210A435A710021FFF7C3FFA042C0
:1049F00000D9201C0023A34204D0044A9A5CEA5444
:104A00000133F8E738BDC046640C00207C0A002062
:104A100010B5C9B20C48490143189A689204920C27
:104A20003F2A08D9141C9A68403CA404920BA40C99
:104A30009203224302E09A68920B92039A60411813
:104A40008868C0B210BDC046640C0020F0B51C1CC4
:104A50002F4B85B01B68061C0D1C0292002B51D0F9
:104A60002C4F3978C9B2002902D1192001F098FBE6
:104A700064233B70284BAA00D058002805D0036857
:104A800002995B68221C984740E0301C291CFFF704
:104A900045FFA04204D2301C291CFFF73FFF041C35
:104AA000291C301CFFF7B4FF1C4FE9B24A010191E9
:104AB000396803928B18FF335A7A01210A43184947
:104AC0005A72AB01C9180298221C02F041F8002C5E
:104AD0001BD0301C291CFFF721FF002815D1019B9A
:104AE0003A6808335B01D3181979402001431971E2
:104AF0000121D97103995318FF339A7A01210A438E
:104B00009A7202E00120404200E0201C05B0F0BD96
:104B1000680D0020600C00203C0C0020640C00207C
:104B20007C0A002013B56C460734221C0123FFF7D2
:104B30008DFF012801D1207801E00120404216BDFF
:104B4000F0B51C1C3F4B85B01B680E1C0292002B5D
:104B50006AD08023DB019C4266D83B4D2978C9B2DC
:104B6000002902D11A2001F01BFB642300222B70C4
:104B70000092002C56D0354DF7B22B6801933B1CA8
:104B80000833019A5B01D3189B79DB091AD0304BAB
:104B90003049186801F010FC2F4B1721584301F0E1
:104BA0000BFC3B1C0833019A5B01D318DB799A0795
:104BB00008D42A4B9A5D002A38D1421E002835D0ED
:104BC000101CEEE7254B00229A55251E3F2D00D9DB
:104BD0003F25234AB301D318181C02992A1C0393BA
:104BE00001F0B6FF194A7B01D318039AA9045A6150
:104BF0009A69890C920B92030A439A613B1C019AB1
:104C000008335B01D3180222DA71597980225242AB
:104C10000A435A71009B029A5B1952190093641B54
:104C20000292A6E700980BE0012008E001229A55C5
:104C30007B01ED18AB69101C9B0B9B03AB614042E1
:104C400005B0F0BD680D0020780A0020640C00203B
:104C50008C00002040420F0070110100B0080020BD
:104C6000B808002070B50E4D1C1C8B01ED18281CD7
:104C70000E1C111C221C01F06BFFF6B209497601D3
:104C800089194D618A69084B201C13408B618B691F
:104C9000A2049B0B920C9B0313438B6170BDC04617
:104CA000B8080020640C0020FF3F00F0F7B5114B5E
:104CB00001901B780F1C141C002B19D10E4B1E7871
:104CC000002E01D1151C08E00C4D0D482E888019CE
:104CD000361901F03DFF2E800AE0002D08D0BA19E8
:104CE0002B1C01980021FFF7BDFF36182D1AF4E7A1
:104CF000201CFEBD5A0C0020580C0020AE080020DD
:104D0000AD070020F8B50E1C00AF151E012D28D9E7
:104D1000D31DDB08DB006A46D21A9546081C01F059
:104D2000EBFF01306C4640000323207063700222C9
:104D3000AA420ED23378002B0BD0511CC9B20136D7
:104D4000A354A94204D0002302326354D2B2EFE745
:104D50002A1C0548211CFFF7A9FF431E9841C0B239
:104D600000E00020BD46F8BD5B0C002008B5044BF8
:104D700000221A70034B04491A88FFF797FF08BDF9
:104D8000580C0020AE080020AD070020F0B5204AE6
:104D900087B001230026009102A91370051C02961A
:104DA000FFF70AFC03AC092701903A1C201C311CB8
:104DB00001F0D7FE02236370A023E371FA2323726C
:104DC000029B0122DB196380019B62712371104AEF
:104DD000009B27701670BB4205D1281C211C1A1C91
:104DE000FFF764FF11E00B4B01221A700A4B211CE4
:104DF0003A1C281C1E800296FFF758FF281C02A9A7
:104E0000FFF7DAFB281CFFF7B1FF012007B0F0BD68
:104E10005A0C0020580C0020AE08002070B5CE7847
:104E20008AB0051C0C1C022E08D1C9882348FFF744
:104E3000ADFF031C581E8341D8B23DE001F0A0FA3B
:104E4000211C01F06CFA002803D0C3171B1AD80FDD
:104E500032E0012E04D1E2881949112A27D823E033
:104E6000032E29D1A278002A05D11649E2880B78B1
:104E7000934219D81BE0022A03D1A279281C1249B7
:104E800004E0012A05D1A2791049281CFFF73AFF56
:104E900012E0032A10D101F073FA01A901F04FFAD0
:104EA000A279281C01A9F1E7D2B2002A00D10A7820
:104EB000281CFFF7FBFE01200AB070BD5B0C002030
:104EC000267400002274000038740000187400007A
:104ED00073B5051C48780C1C0B2878D801F062FAD1
:104EE000081C7728773E4306474B686F00206FE029
:104EF000097801AA002903D111705170281C09E01A
:104F0000002313705370334B1B78012B00D11370A7
:104F1000281C002102234FE08A780023012A04D1B3
:104F200001AA137053702C4BEEE72A4A137049E024
:104F30008E78012E07D1284B01AA00211E70117016
:104F4000281C331C38E0002E08D1224A012313709C
:104F5000224A9169890B8903916138E0A178281C64
:104F6000FFF7F2FB33E0281CFFF758FF30E0281C66
:104F700000211B4A1FE00A780020D30628D1281CF4
:104F8000FFF7BAFCA2781549154B02241A600A688B
:104F90002A23FF33D05C2043D0544A20FF30145CD6
:104FA00001231C4314548A69920B92038A610EE018
:104FB0000C4A281C00210123FFF754FE07E08A78E1
:104FC000084B1A60054B9A69920B92039A61012073
:104FD00076BDC046AC070020590C0020640C0020B0
:104FE000680D00205C0C0020F8B54B4B071C1C78AA
:104FF000002C00D08EE0494D2868838B19070DD511
:10500000201CFFF7FDF82B6810201A1CFF32917A44
:1050100001439172424A146008229A832B689A8B4A
:1050200050071FD504229A833E4B1A78002A0AD0D3
:105030001A78013AD2B21A701B78002B03D11A20C9
:10504000012101F0ADF8384B1A78002A0AD01A78FD
:10505000013AD2B21A701B78002B03D1192001211A
:1050600001F09EF82B68FF331A7AD10626D510225C
:105070001A725A7940210A432C495A710A786023DE
:10508000381C1A4202D1FFF723FF01E0FFF780FB33
:10509000002806D02B688022FF33997952420A43B8
:1050A00001E0234B20229A712B68FF331A7A5006B5
:1050B00004D540221A72597A0A435A722968FE238B
:1050C0000E8C00241E40E1B2002E23D0321C01239E
:1050D00022411A4216D0221C286808325201821836
:1050E000D079184203D1D279DA401A4207D0114B55
:1050F000A200D058002809D003681B6898470123F4
:10510000A3409E430134092CDDD103E0381CFFF796
:1051100069FAF4E7F8BDC046580C0020640C002082
:10512000680D0020780A0020600C00207C0A002016
:10513000FF5000413C0C002008B50248FFF754FF27
:1051400008BDC0465B0C0020014A024B1A60704744
:1051500000500041640C0020F7B58A18061C0D1C95
:1051600001920C1C019B671B9C4207D0336821787D
:105170001B68301C984701340028F3D1381CFEBD51
:1051800038B5051C0C1C081E07D001F0B5FD2B68B6
:10519000021C5B68281C211C984738BD10B50468A8
:1051A0000B1C9A6809686368984710BD08B50249E6
:1051B000FFF7E6FF08BDC0464374000038B5041C85
:1051C000FFF7ECFF051C201CFFF7F0FF401938BD6E
:1051D00038B5041CFFF7D4FF051C201CFFF7E6FFC1
:1051E000281838BD014B18607047C0468800002061
:1051F000024B012252421A607047C04688000020CC
:10520000154A1368581C25D0013B1360002B21D18F
:1052100072B6124A124B04329A4207D8BFF34F8F2C
:10522000104A114BDA60BFF34F8F11E00F4B197D1D
:10523000C807FBD5188B2021FF319208520001438B
:105240001983DA610A4A1A801A7DD107FCD5E5E78D
:10525000C046FDE77047C0468800002000200000DF
:10526000030200000400FA0500ED00E000400041E8
:1052700002A5FFFF10B50021041CA42201F071FC5F
:10528000221CA4320023201C1360536010BDF8B50B
:10529000051CA4352E68041C0F1C701CA42101F0F1
:1052A000CFF8231CA8331B68994201D0A755296069
:1052B000F8BD021C0023A432A830136003607047BD
:1052C00038B5021C041CA834A43223681268934227
:1052D00007D0C55CA421581C01F0B2F8281C21603D
:1052E00001E00120404238BD031CA433A8301A68F5
:1052F0000368D01A00D5A4307047031C021CA833E1
:10530000A4321B681268934201D0C05C01E0012006
:1053100040427047031CA43310B5041C1868A42134
:10532000013001F08DF8A8342368C81A434258416F
:10533000C0B210BD01607047F7B508AC26780468AC
:105340009D1E27686C1EA541ECB2920705683A4382
:1053500027063A432A600268072529405068B501AC
:10536000002C00D05C03294301430C435460F7BD7B
:1053700030B50368C0251C68AD0312052A402243DE
:10538000C024A402090421401143196003685A682B
:1053900014435C6030BD036801211A680A431A6037
:1053A0000268116801231942FBD1D1691942F8D171
:1053B0007047036802211A680A431A600268D369B9
:1053C0009907FCD4704703681A7ED10702D41A7E6D
:1053D0009107FCD57047036800225A837047036821
:1053E000187E4007C00F70470368187EC0097047D9
:1053F00003688022197E52420A431A767047036876
:10540000188DC0B2704703681A7E01200242FBD09B
:105410001985704770B5036801268D07ED0F31407F
:105420001C686D070907294321431960046851006E
:10543000034800F0C1FF0138C0B2207370BDC04600
:10544000006CDC02036801211A680A431A600268D2
:10545000116801231942FBD1D1691942F8D1704773
:10546000036802211A680A431A600268D36999071F
:10547000FCD470470368DA699107FCD41A680221EA
:105480008A431A60704703689A6A520A52021143AB
:10549000996203681A7E5107FCD5986AC0B27047BA
:1054A000036801211A680A431A600268116801231F
:1054B0001942FBD1D1691942F8D170470368022122
:1054C0001A680A431A600368DA699107FCD45A8B98
:1054D00030218A4310210A435A830268D36959074D
:1054E000FCD470470368802219685968D2020A43C5
:1054F0005A6070470368034A196859680A405A603D
:105500007047C046FFFFFBFF30B5036803241D68EA
:105510000C40074A596824040A40ED0622436D0FE7
:105520005A60052D03D10268D3695907FCD430BDF8
:10553000FFFFFCFF49001143036830B5CDB2598B22
:10554000032409092140012904D0598B09090C4081
:10555000022CF4D1596AC90AC90229435962036865
:10556000002A03D11A7ED107FCD50DE0187E012256
:105570004008104008D1197E1142F7D05968C02266
:1055800092020A435A6003E05B8B01209B08984318
:1055900030BD0368283319700268107E012318405B
:1055A00003D1518B1942F8D003E0528B181C92089A
:1055B00090437047036828331970036800201A7EEF
:1055C000510703D55B8B01209B0898437047036804
:1055D0001868C006400F043843425841C0B27047B3
:1055E0000368187E4007C00F70470368187E0123C8
:1055F000184070470368588BC006C00F7047036897
:10560000187E8007C00F70470368588B0007C00FD3
:10561000704703681A68D206520F052A02D11A7E13
:105620009107FCD528331878C0B270470368224A26
:1056300030B5934211D0214A934211D0204A93426F
:1056400011D0204A934211D01F4A934211D01F4AD1
:10565000934230D10E2319220DE0092314220AE0CF
:105660000A23152207E00B23162204E00C2317223D
:1056700001E00D231822DCB2154901209B08A0404F
:105680009B0008605B180320C021890004405D581E
:10569000E000FF248440A5432C1CC0258540281C25
:1056A000204358508023DB011A430A4B5A805A7812
:1056B00052B2002AFBDB30BD00080042000C004261
:1056C000001000420014004200180042001C00427A
:1056D00000E100E0000C0040F8B5041C151C0E1C95
:1056E0001F1CFFF7A3FF201CFFF755FEB1001C2273
:1056F0000A4069072368090C0A431A602268842358
:105700009375012E1AD10821012D00D110210C4BC7
:1057100079431868C00000F04FFE236807219A897A
:105720000140D2044903D20C0A439A812368000441
:10573000C20C9889400B400310439881F8BDC046C5
:105740008C000020F7B5019308AB041C1F780D1CDA
:10575000161CFFF777FE201CFFF768FFBF070C221F
:105760001743C022920336051640C02292022D0430
:1057700023683E4301991540354307221D600A40C6
:105780008021236889020A435A60F7BD38B5041C9A
:105790000D1CFFF74BFF201CFFF782FE236814222D
:1057A0001A60074B6900186800F006FE2468421E64
:1057B000E068FF231A4098431043E06038BDC046BC
:1057C0008C0000200120704708B50368014ADB699E
:1057D000984708BD1304000010B5041C0069FFF7CA
:1057E000DAFD201C1430FFF764FD10BD08B5006918
:1057F000FFF7E9FD08BD08B51430FFF775FD08BDDA
:1058000008B51430FFF779FD08BD08B51430FFF76F
:1058100057FD08BD08B50069FFF7F5FD012008BD7B
:10582000F7B51D1C08AB1B78041C009309AB1B7853
:10583000161C019300234360FA239B008360094BED
:105840000F1C083303601430FFF714FD009A231C6B
:10585000C03327619A70019A1E705D70201CDA7047
:10586000FEBDC0465874000010B5041C0069FFF767
:10587000B6FD002807D02069FFF7C1FD011C201CE0
:105880001430FFF704FD2069FFF7AEFD002805D0B6
:105890002069FFF7ADFD2069FFF79DFD10BDF023E6
:1058A000081C18403038434258417047F0231B0110
:1058B000194080239B0099420CD0C0239B00994241
:1058C00006D080235B000520994204D0002002E02E
:1058D000072000E0062070470F231940012905D05A
:1058E00002394B424B410220C01A00E000207047B1
:1058F000F0B5031C85B00391C033041C1827187839
:105900003B1C43431B4E0821F3185956151C00F04D
:105910008FFC231CC133187808214743F6197156B0
:1059200000F086FC01210A1C039B2069FFF7D4FECE
:10593000291C201CFFF7BAFF291C071C201CFFF79D
:10594000CBFF291C061C201CFFF7A9FF391C009067
:10595000331C20690122FFF7EFFC231CC3331978A5
:10596000013B1A782069FFF703FD2069FFF721FD4D
:1059700005B0F0BDB86F0000F0B51823434385B003
:105980000292364A1625D3185D5701900391691C7F
:1059900062D0102D60D0324B324C196800291FD1D3
:1059A0004422314801F0DDF830491022CA67304BFB
:1059B000C02149005A50C12189005858FF26B043E0
:1059C00058501A602B4A2C4B5A80237802221343DA
:1059D00023706378DB09012BFBD0214B01221A6075
:1059E000012763693E1CAE40334363610021019887
:1059F00000F01EFC1C4A0399AB009950072D00DCF7
:105A00000027FB00029AED1AAD00042A22D8101CD0
:105A1000BF0000F0C7FC03080D121700114B052250
:105A2000FF18BB6912E00F4904227F18BB690DE023
:105A30000C4ABF18BB69032208E00A4B0222FF1878
:105A4000BB6903E0074901227F18BB69AA40151C06
:105A50001D43BD61B6B2E66005B0F0BDB86F000091
:105A6000B00D0020001800406C0D002004E100E0A3
:105A700000E100E005400000000C004070B500248B
:105A8000084D01262B69A640334206D0064BA200E2
:105A9000D358002B00D098472E610134102CEFD141
:105AA00070BDC046001800406C0D002038B5049D44
:105AB0001C1C401AEB1A5843511A00F0CBFC001979
:105AC00038BD10B5041C006801F038F8201C10BD6A
:105AD00010B5041C0068002801D001F02FF8002345
:105AE0002360A360636010BD38B5041C0D1C006802
:105AF000013101F0DBF8002801D021C4012038BDBC
:105B0000036810B5041C002B02D043688B4209D2F5
:105B1000201CFFF7E9FF002805D0A368002B01D166
:105B200022681370012010BD70B50E1C111C041CDE
:105B3000151CFFF7E5FF002803D1201CFFF7C8FF65
:105B400004E0A5602068311C01F0CEF8201C70BD77
:105B500038B50023041C0D1C036043608360994228
:105B600007D0081C01F0C8F8291C021C201CFFF7F4
:105B7000DBFF201C38BD10B50B1C041E8C4208D066
:105B80000968002903D09A68FFF7CEFF01E0FFF70C
:105B90009FFF201C10BD10B50023041C0360436050
:105BA0008360FFF7E8FF201C10BD38B5041C0D1EF4
:105BB00008D0081C01F0A0F8291C021C201CFFF7CB
:105BC000B3FF01E0FFF784FF201C38BDF8B5041CCB
:105BD0000F1C866801D100250FE00125002A0CD09A
:105BE0009619311CFFF78CFF0028F4D02268A368B7
:105BF000391CD01801F078F8A660281CF8BD08B54B
:105C00000B1C9A680968FFF7E1FF08BD13B50A226B
:105C1000041C081C01A900F0E1F801A801F06CF8CF
:105C200001A9021C201CFFF7D1FF16BD0B1C10B5EB
:105C300009689A68041CFFF7C9FF002802D1201CDC
:105C4000FFF746FF201C10BD38B5041C0D1E09D0FF
:105C5000081C01F051F8291C021C201CFFF7B6FF9C
:105C6000002802D1201CFFF733FF201C38BD10B5DF
:105C7000041CFFF7CBFF002802D1201CFFF728FFF0
:105C8000201C10BDFEE7FEE708B5034B1B68002B88
:105C900000D0984708BDC046B40D002038B50F4964
:105CA0000F4CA14204D100F0C7F800F09DF80BE0C2
:105CB0000C4D8D42F7D00023CA18E818A24204D236
:105CC000006804331060F7E7FEE79042EBD0064B24
:105CD000064A9342E7D2002204C3F9E700000020FD
:105CE000200100207075000020010020D80D002048
:105CF00008B500F02CF8002801D100F01DF808BD0F
:105D0000014B18607047C046B40D0020014B186865
:105D10007047C046B80D002070B5041E08D0054B72
:105D20001D681E1C00F012F833685B1BA342F9D3F8
:105D300070BDC046B80D002008B5034B1A6801328B
:105D40001A60FFF75DFA08BDB80D0020704700200B
:105D50007047F0B58FB00D1C029235D0131C023B7A
:105D6000222B33D80A2A33D1002831DA01234642C4
:105D7000039305AC0194002E12D0301C029900F060
:105D80005FFB301C0F1C029900F016FB631C061C05
:105D9000092F01DC303700E0573727701C1CEAE779
:105DA000019A9442E9D0039A2B1C002A02D02D229A
:105DB0006B1C2A70019A944204D9013C22781A7013
:105DC0000133F7E700221A70281C05E0002003E0E9
:105DD0000022061C0392CCE70FB0F0BD08B5FFF718
:105DE000B8FF08BD7047000010B500F0D9F800F00A
:105DF00075FEFFF7F7FF0120FFF78EFF084C201C10
:105E0000FEF710FC201CFEF785FCFCF72BFCFCF7D2
:105E1000D9FC044B002BFAD000E000BFF7E7C046E6
:105E20005B0C00200000000008B500F07DFE08BDFE
:105E300008B500F083FE08BD70B5494A1E215368BD
:105E400002208B430343474953608B690824234353
:105E50008B61454C454B9C829C8A20439882101C48
:105E6000DA689407FCD5424A012414701478E507D7
:105E700004D53F4C647864B2002CF7DB01249460B5
:105E8000547864B2002CFBDB3A4D394C6560547891
:105E900064B2002CFBDB8225354CED016580547823
:105EA00064B2002CFBDB02249C84DC68E606FCD593
:105EB000314D2E4CE562DD682C4CEE06FBD5A58CF1
:105EC0002E4E3543A584DD68284CEE06FBD5A58C07
:105ED00002263543A584DC682506FCD5234CE468FE
:105EE0006606F8D5DC68E506FCD500249460547895
:105EF00064B2002CFBDB224D1D4C656055781C4CB8
:105F00006DB2002DFADB1E6A1E4D35401D621D6A02
:105F10008026B5431D620323A3601B4B6360537847
:105F20005BB2002BFBDB00230B72184A4B728B72A7
:105F3000CB72174BFF211A60164B174A1B68126869
:105F40005C01D20E214011439A06520F12020B1C23
:105F50001343124A1385436880221343436070BD84
:105F600000400041000400400C0600000008004012
:105F7000000C004001050100B805FF7D040A000087
:105F800000070300FFFCFFFF03060100006CDC02BA
:105F90008C000020246080002060800000400042CF
:105FA000314BFA21186810B5890000F005FA2F4B23
:105FB0000138984224D82E4A2E4B5060186AC021CE
:105FC0000002000A090601431962002407219460B7
:105FD0001160196A80220902090A12060A431A622C
:105FE000254BFC211A6A0A431A62196AFC229201A3
:105FF0000A431A62196AA022D2020A431A6200E016
:10600000FEE7201C0021013400F070F8142CF8D1B8
:106010001A4C63785BB2002BFADB194B6380194B87
:106020005A7ED209012AFAD0E422D2009A803F2275
:10603000DA70597E134AC9090129FAD0C0235B01DD
:1060400000201361907000F023F863785BB2002B9E
:10605000FBDB0D4A094B5A800C4BDA79D209012A35
:10606000FAD041225A7010BD8C000020FFFFFF00C3
:1060700010E000E000ED00E000040040000C0040F3
:106080001E40000000400042214000000048004245
:1060900000B5144A517E131CC9090129F9D00138F1
:1060A000042813D81969104A0A401A615A780F2136
:1060B0008A4300F077F9030509070300012102E094
:1060C000032100E002210A435A700AE01169F0231B
:1060D0001B050B43136153780F218B4302210B43A4
:1060E000537000BD00400042FFFFFFF010B51824C0
:1060F000021C201C5043274B1818007A40B2013074
:1061000046D0032944D8081C211C00F04BF9023367
:106110001121624398569A18C3011F4852681B18F0
:1061200099184031022008700121914059602FE0F8
:106130006243985618499A185268C3015B18991817
:1061400040310620087001219140596099611FE09B
:1061500051435A56104859184B68D2011118C818A3
:106160004030062404700120984048600B495218C2
:1061700050600DE0624398569A18C3010648526871
:106180001B18991840310220087001219140996034
:1061900010BDC046B86F00000044004110440041EB
:1061A00018235843134AF0B5131808241C57013418
:1061B0001FD08256104ED2015D6801249019231C15
:1061C0008668AB401E420BD10E1C771EBE414019A3
:1061D00034404030A50004780426B4432C430470B6
:1061E000002903D105495218536002E0024E92196A
:1061F0009361F0BDB86F00000044004110440041BD
:1062000018235843084A082113185956013109D058
:1062100082560649D20152185B68106AD8400123A1
:10622000184000E000207047B86F000000440041B3
:1062300018224243F8B52D4D0824AA181457031C00
:10624000621C50D0481C00240C284CD800F0AAF83E
:10625000071E1E1E1E1E1E1E1E0A0A0A0A000124FA
:10626000644240E0092902D1181C002103E00A29F8
:1062700004D1181C0221FFF739FF23E000240B2969
:1062800031D1181C0121FFF731FF2CE018225343B4
:10629000EA185268EB560120141C04405508DB0133
:1062A000002C11D0124C1B195D1930352E780C01C1
:1062B0000F21314021439A18C9B229704032137816
:1062C0001843107000240EE0094E0F279B195D192A
:1062D00030352E789A18BE433143C9B22970403206
:1062E000137818431070201CF8BDC046B86F00002A
:1062F0000044004170B544680E1C0025002C09D0F4
:106300002368201C5B68311C9847002804DB2D188B
:10631000E468F3E7281C01E00120404270BD38B575
:1063200044680D1C002C08D02368201C9B68291C85
:106330009847002802D1E468F4E7201C38BD38B53E
:1063400044680D1C002C07D02368201C291CDB6826
:106350009847E4682D18F5E72C7038BD38B54468C7
:106360000D1C002C08D02368201C1B68291C984792
:10637000002803D1E468F4E7201C00E0012038BDC8
:10638000064B0122196810B51140054805D10224B9
:1063900004700424447041601A6010BDC40D0020D4
:1063A000BC0D002002B4714649084900095C49004F
:1063B0008E4402BC7047C046002934D0012300221D
:1063C00010B488422CD301242407A14204D2814274
:1063D00002D209011B01F8E7E400A14204D2814284
:1063E00002D249005B00F8E7884201D3401A1A4301
:1063F0004C08A04202D3001B5C0822438C08A04238
:1064000002D3001B9C082243CC08A04202D3001BED
:10641000DC082243002803D01B0901D00909E3E767
:10642000101C10BC7047002801D00020C04307B4E6
:10643000024802A14018029003BDC046D9000000E6
:106440000029F0D003B5FFF7B9FF0EBC4243891A0B
:106450001847C046002941D010B4041C4C40A44643
:1064600001230022002900D54942002800D54042DE
:1064700088422CD301242407A14204D2814202D2B3
:1064800009011B01F8E7E400A14204D2814202D2D3
:1064900049005B00F8E7884201D3401A1A434C08D0
:1064A000A04202D3001B5C0822438C08A04202D306
:1064B000001B9C082243CC08A04202D3001BDC082E
:1064C0002243002803D01B0901D00909E3E7101C6F
:1064D0006446002C00D5404210BC7047002806D00E
:1064E00003DB0020C043400801E08020000607B421
:1064F000024802A14018029003BDC04619000000E6
:106500000029EBD003B5FFF7A7FF0EBC4243891A61
:106510001847C0467047C046F0B55F4656464D46E0
:106520004446F0B446024500C00F85B00F1C760A01
:106530002D0E804641D0FF2D26D08024240400213A
:106540002643F6007F3D89468B46F90F7C02780092
:10655000640A000E00918A463CD0FF2834D0802384
:106560001B041C430023E4007F380193009F434633
:10657000019A7B4049469C4611430F2900D971E09E
:10658000764F89007F58BF46002E3ED10822022355
:1065900091469B46D9E75A46341CC246019201995E
:1065A000022937D0032900D1CFE0012900D0ABE088
:1065B00053460B400022002632E0002E19D1042160
:1065C000012289469346C0E7221C531E9A4102329B
:1065D0000192CBE701270197002CC7D0201C00F0C7
:1065E00047FA431F9C4076235B420021181A019111
:1065F000BCE7301C00F03CFA7625431F9E406D42FC
:1066000000232D1A99469B469FE70C2303219946A8
:106610008B469AE7D446012367463B40FF2200267B
:106620007602D205700ADB071043184305B03CBC64
:1066300090469946A246AB46F0BD80260023F6035D
:10664000FF22EDE700220026EAE78020C003064291
:106650003BD0044239D1061C26437602760A009BC1
:10666000FF22DDE7281A039076016401A64239D3A0
:10667000361B1A2201230120311C5B007600002901
:1066800001DBB44201D8361B0343013A002AF3DC94
:10669000741EA641341C1C43039A7F32002A27DD56
:1066A000630704D00F232340042B00D004342701B8
:1066B00003D52B4B039A1C408032FE2A0BDD0123AD
:1066C00061460B40FF220026AAE706437602760ABF
:1066D0004346FF22A4E7A40101236746660AD2B21B
:1066E0003B409DE7039F1B22013F03970023C2E726
:1066F0007E23039F5B42DB1B1B2B07DD01236146CF
:106700000B40002200268BE7D446C5E7221CDA4066
:10671000039B9E339C40231C5C1EA34113435A07DA
:1067200004D00F221A40042A00D004335F0105D59B
:10673000012361460B400122002671E79E0162465B
:1067400001231340760A00226AE78026F6032643D7
:106750007602760A5346FF2262E7C046887400003C
:10676000FFFFFFF7F0B55F4656464D464446F0B48E
:106770004402460083B00F1C640A360EC50F002E7B
:1067800041D0FF2E22D080231B0400201C43E400B4
:106790007F3E82468046391C4B007F02C90F7F0A2C
:1067A0001B0E8B463BD0FF2B34D0802212041743A4
:1067B000FF007F3B00215A466A40019252460A433D
:1067C0000F2A63D87A48920082589746002C3FD10E
:1067D0000822022392469846DDE7019540460228AA
:1067E0002AD1019A01251540FF2300246402DB050C
:1067F000600AED071843284303B03CBC9046994615
:10680000A246AB46F0BD002C27D1042001228246CF
:106810009046C0E7391C4A1E91410231CBE7012165
:10682000002FC8D0381C00F023F9431F9F40762367
:106830005B421B1A0021BEE7032800D1AEE001280D
:106840004FD1019842461040C5B200230024CDE745
:106850000C2303209A4680469DE7201C00F008F98F
:106860007626431F9C4076420023361A9A46984665
:1068700091E780240025E403FF23B7E75B463C1C37
:1068800001938846AAE73C1C8846A7E7250C240408
:106890003A0C240C3F04F6183F0C211C231C7943AE
:1068A00053436F435543FB180A0C9B18B1469F4254
:1068B00002D980225202AD1809041A04090C521898
:1068C00094011B0C611E8C41920EED181443AD0116
:1068D0002C43230105D50122630801201440814483
:1068E0001C434B467F33002B2DDD600704D00F2265
:1068F0002240042A00D00434220103D52D4B1C4031
:106900004B468033FE2B17DD019B01251D400024E3
:10691000FF236BE78020C003044208D0074206D162
:10692000041C3C436402640A5D46FF235EE70443A3
:106930006402640AFF2359E70198A4010125640A4F
:10694000DBB2054052E77E235B424A469B1A1B2B73
:1069500005DD019B01251D400024002346E7221C84
:10696000DA404B469E339C40231C5C1EA3411343DC
:10697000580704D00F221A40042A00D004335A01C9
:1069800005D5019B01251D40002401232EE7019818
:106990009C010125640A0540002327E78027FF03A7
:1069A000019B3C43640201251D40640AFF231DE74F
:1069B000C8740000FFFFFFF770B5041E3CD0C60F7F
:1069C00000D04442201C00F053F89E23251C1B1AC3
:1069D000962B0CDC083884406402640ADBB2321C5B
:1069E0006402DB05600AD2071843104370BD992B7F
:1069F0000ADD0522121A211CD1400A1C011C1B3180
:106A00008D40691E8D411543052801DD421F9540CB
:106A1000164C2C406A0704D00F221540042D00D0DC
:106A2000043461010CD59F23181AFF281AD0A40141
:106A3000640AC3B2321CD3E7002200230024CFE74C
:106A4000E408FF2B04D06402640ADBB2321CC7E7FF
:106A5000002C04D08020C00304436402640A321C6A
:106A6000FF23BDE7321CFF230024B9E7FFFFFFFB34
:106A70001C2101231B04984201D3000C10391B0A6E
:106A8000984201D3000A08391B09984201D3000932
:106A9000043902A2105C40187047C0460403020289
:106AA00001010101000000000000000008B5031C06
:106AB000081C191C00F002F808BD000038B5051CC0
:106AC00005480C1C131C002804D00220291C221C81
:106AD00000E000BF38BDC0460000000070B50E4B9E
:106AE0000E4D0024ED1AAD101E1CAC4204D0A300C4
:106AF000F35898470134F8E700F062F9084B094D64
:106B00000024ED1AAD101E1CAC4204D0A300F358B3
:106B100098470134F8E770BDF4000020F40000202D
:106B2000F40000201801002008B5034B011C186870
:106B300000F068F808BDC046F000002008B5034B1F
:106B4000011C186800F016F808BDC046F0000020CF
:106B500010B50023934203D0CC5CC4540133F9E751
:106B600010BD031C8218934202D019700133FAE75A
:106B70007047000030B5002940D004390B68002B65
:106B800000DAC9181E4A1368141C002B02D14B608E
:106B9000116033E099420FD208680A189A4205D171
:106BA00013685268C01808604A6000E04B602160BA
:106BB00024E08A4203D8131C5A68002AF9D11D68C0
:106BC0005C198C420BD109686918581819609042F9
:106BD00014D114685268091919605A600EE08C4289
:106BE00002D90C23036009E008680C18944203D111
:106BF00014685268001908604A60596030BDC04688
:106C0000CC0D002070B50323CD1C9D430835061C18
:106C10000C2D01D20C2501E0002D3FDB8D423DD330
:106C2000204B1C681A1C211C002913D00868431B28
:106C30000DD40B2B02D90B60CC181EE08C4202D174
:106C4000636813601AE0486860600C1C16E00C1C56
:106C50004968E9E7144C2068002803D1301C00F093
:106C600031F82060301C291C00F02CF8431C15D092
:106C7000C41C03239C4384420AD12560201C0B3092
:106C80000722231D9043C31A0BD05A42E25008E05A
:106C9000211A301C00F016F80130EED10C233360BD
:106CA000002070BDCC0D0020C80D002008B50A1CC6
:106CB0000349031C0868191C00F039F808BDC046D8
:106CC000F000002038B5074C0023051C081C236089
:106CD00000F05CF8431C03D12368002B00D02B602C
:106CE00038BDC046D40D0020031C0A7801311A704B
:106CF0000133002AF9D170470023C25C0133002A16
:106D0000FBD1581E704730B5031C002A07D00C7801
:106D100001335D1E013A2C700131002CF5D19A1817
:106D2000934203D0002119700133F9E730BDF8B563
:106D3000061C0C1C151C002904D1111CFFF762FF56
:106D4000041C18E0002A03D1FFF714FF2C1C12E0EA
:106D500000F013F8A8420ED2301C291CFFF752FF96
:106D6000071E07D0211C2A1CFFF7F2FE301C211C35
:106D7000FFF700FF3C1C201CF8BD04390B68181FEE
:106D8000002B02DAC8581B18181F7047094A1368ED
:106D9000002B0CD018186946884202D81060181CC5
:106DA0007047054B0C2201201A604042F8E7034B64
:106DB0001360EFE7D00D0020D40D0020D80D002087
:106DC000F8B5C046F8BC08BC9E467047F8B5C0464A
:106DD000F8BC08BC9E4670470000000000000000A0
:106DE000152100003121000021210000855C0000F8
:106DF000855C000000000000436C69636B206465E3
:106E00007465637465642028307800293A20002076
:106E100073696E676C6520636C69636B0020646FD7
:106E200075626C6520636C69636B0049616D20431A
:106E3000616C6962726174696E67002C0030003A9F
:106E400000476F696E6720746F20736C65657020F2
:106E500061743A200057616B652075702061743A47
:106E600020002F0053746172742074696D653A209C
:106E7000002D2D2D4C495333444820696E697469A7
:106E8000616C697A65642D2D2D0043617264206602
:106E900061696C65642C206F72206E6F7420707253
:106EA0006573656E74002D2D2D534420436172640B
:106EB00020696E697469616C697A65642D2D2D2D68
:106EC000005374617274207265636F726420617420
:106ED0003A20006163634C6F67322E747874002D22
:106EE0002D2D2D2D2D2D526561642066726F6D3A0A
:106EF00020002D2D2D2D2D2D2D5265616420206516
:106F00006E64006572726F72206F70656E696E6775
:106F10000031303030206C696E65732073617665A6
:106F2000642061743A20004261747465727920565D
:106F30006F6C746167653A20005600000000000025
:106F400000000000000000002F290000F5280000CC
:106F5000252900001B2900005729000019290000DD
:106F6000000000000000000029340000595100001A
:106F70000000000000000000893600009D3600007F
:106F800065370000F536000009370000C7360000FD
:106F90004C4953334448000000000000000000004A
:106FA000252100004521000021210000E93E0000CC
:106FB0000D3B000000000000000000000B0000007E
:106FC0000200000004000000FF00FFFFFFFF0B00B5
:106FD000000000000A0000000200000004000000A1
:106FE000FF00FFFFFFFF0A00000000000E0000008E
:106FF0000800000004000000FF00FFFFFFFF0E007C
:107000000000000009000000040000001C00000057
:10701000FF0001000100090000000000080000005E
:10702000040000001C000000FF0000000000100031
:10703000000000000F000000040000001C00000021
:10704000FF00010301030F00000000001400000016
:10705000050000002C000000FF00020002000400F8
:1070600000000000150000000800000004000000FF
:10707000FF00FFFFFFFF050000000000060000000A
:10708000040000001E0000000600000100010600D0
:107090000000000007000000040000001E000000C7
:1070A00007000101010107000000000012000000BC
:1070B000040000001C000000FF00000300030200A9
:1070C0000000000010000000040000001C00000090
:1070D000FF0000020002000000000000130000009A
:1070E000050000002C000000FF0003000300030067
:1070F0000000000011000000040000001C0000005F
:10710000FF00010201020100000000000200000077
:1071100001000000020000000000FFFFFFFF02006E
:10712000010000000800000001000000180000003D
:107130000200000400040800010000000900000033
:107140000100000018000000030001040104090010
:10715000000000000400000001000000000000002A
:107160000400FFFFFFFF0400000000000500000016
:1071700001000000000000000500FFFFFFFF050008
:1071800001000000020000000100000000000000FB
:107190000A00FFFFFFFF02000000000016000000D1
:1071A0000200000004000000FF00FFFFFFFF0600D8
:1071B00000000000170000000200000004000000B2
:1071C000FF00FFFFFFFF0700000000000C000000B1
:1071D0000300000004000000FF00FFFFFFFF0C00A1
:1071E000010000000A00000003000000040000008D
:1071F000FF00FFFFFFFF0A00010000000B0000007E
:107200000300000004000000FF00FFFFFFFF0B0071
:1072100001000000030000000B000000040000005B
:10722000FF00FFFFFFFFFF00000000001B00000049
:107230000B00000004000000FF00FFFFFFFFFF0045
:10724000000000001C00000006000000000000001C
:10725000FF00FFFFFFFFFF0000000000180000001C
:107260000600000000000000FF00FFFFFFFFFF001E
:1072700000000000190000000600000000000000EF
:10728000FF00FFFFFFFFFF000100000016000000ED
:107290000300000000000000FF00FFFFFFFFFF00F1
:1072A00001000000170000000300000000000000C3
:1072B000FF00FFFFFFFFFF000000000016000000BE
:1072C0000200000000000000FF00FFFFFFFFFF00C2
:1072D0000000000017000000020000000000000095
:1072E000FF00FFFFFFFFFF00000000001300000091
:1072F0000200000000000000FF00FFFFFFFFFF0092
:10730000000000001000000002000000000000006B
:10731000FF00FFFFFFFFFF00000000001200000061
:107320000200000000000000FF00FFFFFFFFFF0061
:10733000000000001100000002000000000000003A
:10734000FF00FFFFFFFFFF00000000000D00000036
:10735000040000000C000000FF000100FFFF0D0012
:107360000000000015000000050000000C000000F7
:10737000FF000300FFFFFF00000000000600000008
:10738000040000000C000000FF000001FFFFFF00F0
:107390000000000007000000040000000C000000D6
:1073A000FF000101FFFFFF000000000003000000DC
:1073B0000100000002000000FF00FFFFFFFFFF00D0
:1073C00000000000020000000100000002000000B8
:1073D0001400FFFFFFFF020000000000000000009B
:1073E000B5400000E1400000C94000001941000024
:1073F000FD400000D5400000B1400000000000004A
:107400000000000000000000F5440000D943000027
:1074100021430000000000004164616672756974D8
:1074200000000403090412010002EF0201409A2344
:107430000B800001010203014665617468657220DA
:107440004D30000D0A006E616E00696E66006F7649
:1074500066002E0000000000000000000000000098
:107460001558000059510000F75700000B58000054
:1074700001580000ED570000C9570000F158000006
:10748000D9570000C557000064660000166600006A
:10749000446600009E650000446600003A660000F5
:1074A000446600009E650000166600001666000037
:1074B0003A6600009E650000966500009665000033
:1074C000966500004A6600008C680000866800002F
:1074D000866800007C680000DC670000DC67000054
:1074E000726800007C680000DC67000072680000C1
:1074F000DC6700007C680000DA670000DA670000E3
:10750000DA6700001469000043000000000000007A
:10751000000000000000000000000000000000006B
:10752000000000000000000000000000000000005B
:10753000000000000000000000000000000000004B
:10754000000000000000000000000000000000003B
:10755000000000000000000000000000000000002B
:10756000000000000000000000000000000000001B
:10757000000000000D061011FFFFFFFF00C2010018
:1075800000000800FFFFFFFF080B000202020000DE
:107590000904000001020200000524001001042477
:1075A00002060524060001052401010107058103E7
:1075B00010001009040100020A0000000705020281
:1075C000400000070583024000000000FFFFFFFFAE
:1075D00000000000830000000200000082000000A4
:1075E000000000000000000000000000000000009B
:1075F0000000000000000000FFFFFFFF40420F00FE
:10760000000000000C7500002C7500004C75000097
:10761000000000000000000000000000000000006A
:1076200008750000000000000000000000000000DD
:10763000000000000000000000000000000000004A
:10764000000000000000000000000000000000003A
:10765000000000000000000000000000000000002A
:1076600090000020DD20000049280000F92B0000D8
:10767000112D0000353000008D3700001D40000046
:10768000D941000049510000B52000000000000071
:0400000300005C9D00
:00000001FF
