:10200000008000206D7100005771000057710000C2
:1020100000000000000000000000000000000000C0
:1020200000000000000000000000000057710000E8
:10203000000000000000000057710000C1710000A6
:102040005771000057710000577100000D4C0000DF
:10205000F56E0000577100005771000059710000C3
:10206000577100004954000057710000577100007B
:10207000D13400005771000059540000577100001E
:102080005771000057710000892D00005771000042
:1020900000000000577100005771000057710000E8
:1020A0005771000057710000577100005771000010
:1020B0000000000010B5064C2378002B07D1054B1B
:1020C000002B02D0044800E000BF0123237010BDA4
:1020D00060010020000000007CE6000008B5084B0D
:1020E000002B03D00748084900E000BF07480368F9
:1020F000002B03D0064B002B00D0984708BDC046EC
:10210000000000007CE6000064010020580100206F
:1021100000000000014B03607047C04660DA000019
:1021200070470000014B03607047C04660DA000052
:1021300010B5034B041C036005F0E2F8201C10BD31
:1021400060DA000010B5034B041C036005F0D8F8FA
:10215000201C10BD60DA000008B505F03FF8084B00
:102160001A68811A1A1CC8235B00994205D9054BCD
:102170001978002901D101211970106008BDC046ED
:10218000D0010020E602002008B505F027F80A4B30
:102190001968421A191CC8235B009A4209D9074BD7
:1021A0001A78022A01D1002202E0002A01D102227B
:1021B0001A70086008BDC046D0020020E602002068
:1021C00070B54B688C68CD6843600A1C031CC56001
:1021D00084601033103270CA70C312781A70096AA2
:1021E000016270BDF0B5274B87B01E685F680D1C9B
:1021F000301C391C141C05F053FB00900191301C5D
:10220000391C05F0D1FB02900391281C09F080FADB
:10221000061C201C0F1C09F07BFA009A019B0490FD
:102220000591301C391C08F085FC029A039B041CA4
:102230000D1C0498059908F07DFC021C0B1C201C49
:10224000291C08F007FF09F02FFA0F4B391C1880E2
:10225000029A039B301C08F06DFC009A019B041C41
:102260000D1C0498059908F065FC021C0B1C201C31
:10227000291C07F0D9FC09F017FA044B188007B0A5
:10228000F0BDC046D8010020620200209602002066
:10229000F0B5284B87B01E685F68051C391C301CE0
:1022A000141C05F0FDFA00900191301C391C05F05A
:1022B0007BFB02900391281C09F02AFA071C201CC2
:1022C0000E1C09F025FA009A019B04900591381C18
:1022D000311C08F02FFC029A039B041C0D1C04986F
:1022E000059908F027FC021C0B1C201C291C07F078
:1022F0009BFC09F0D9F9104B188080231B06F118BC
:10230000381C029A039B08F015FC009A019B041CE0
:102310000D1C0498059908F00DFC021C0B1C201CD8
:10232000291C07F081FC09F0BFF9044B188007B0A5
:10233000F0BDC046E0010020E80100209602002028
:10234000F7B50F1C3E680EC878684E4350433618E8
:10235000B8685243584349435B4336188818C0183D
:1023600009F0D6F905F0D4FB0D1C0ECF52434943BA
:102370005B43041C8818C01809F0CAF905F0C8FBB3
:1023800000900191301C09F0C3F9009A019B061CD2
:102390000F1C201C291C08F0CDFB021C0B1C301C40
:1023A000391C07F05DFF05F057FB03B0F0BD0000DE
:1023B0001FB50023012201A9019303930292FFF7A5
:1023C000BFFF024B1860596005B000BDD801002066
:1023D0001FB50123019301A9002302930393FFF783
:1023E000AFFF024B1860596005B000BDE00100204E
:1023F00008B50F20022105F0E1F800220F20064960
:1024000004F0F6FC1020022105F0D8F81020034952
:10241000002204F0EDFC08BD8921000059210000D4
:1024200008B50820012105F0C9F80D20012105F0AB
:10243000C5F81220012105F0C1F81120012105F095
:10244000BDF81320012105F0B9F808BD08B5112029
:10245000012105F00DF908BD08B51120002105F096
:1024600007F908BD08B51220012105F001F908BDE2
:1024700008B51220002105F0FBF808BD08B51320AF
:10248000012105F0F5F808BD08B51320002105F07D
:10249000EFF808BD08B50D20012105F0E9F808BDE9
:1024A00008B50D20002105F0E3F808BD08B50820A7
:1024B000012105F0DDF808BD08B50820002105F070
:1024C000D7F808BD10B5064CE121201C490203F0E5
:1024D000A9F8201C03F0A8F80028FAD010BDC046C7
:1024E000A008002010B5074C201C02F055FEE28821
:1024F000054B1A802289054B1A806289044B1A8089
:1025000010BDC046EC010020E0020020E2020020E5
:10251000E4020020F8B50024124F251C261CFFF70A
:10252000E1FF114B013F06215A5EBFB2B6180821E8
:102530005A5EAD180A229B5EE418002FEFD1301CC2
:10254000084907F025F8094B06491880281C07F0B0
:102550001FF8074B03491880201C07F019F8054B9A
:102560001880F8BD88130000EC010020E80100206D
:102570006202002096020020F0B58DB0FFF772FFD6
:102580009148002102F0F0FD904C9149201C04F08C
:102590005BF8FFF7BFFF09A88E4904F015FD8E4FC9
:1025A00006A80022B95E0A2204F04CFD06A909A87B
:1025B00004F0A4FD011C201C04F03CF806A804F063
:1025C000BCFC09A804F0B9FC09A8844904F0FCFC8F
:1025D000834E0A220023F15E06A804F033FD06A90B
:1025E00009A804F08BFD011C201C04F023F806A8A8
:1025F00004F0A3FC09A804F0A0FC09A8794904F0A0
:10260000E3FC794A06A80021515E0A2204F01AFD73
:1026100006A909A804F072FD011C201C04F00AF8A8
:1026200006A804F08AFC09A804F087FC00217B5E60
:102630006D4903930022B35E03AD04930023CB5E88
:10264000281C0593FFF7B4FE281CFFF7C1FE09A85C
:10265000664904F0B9FC664B18685968574B564AEE
:1026600008F068FA564A574B07F0FAFD0B1C022196
:10267000021C009106A804F0F7FC06A909A804F0C2
:102680003DFD011C201C03F0D5FF06A804F055FCFD
:1026900009A804F052FC09A8564904F095FC564BD1
:1026A00018685968454B444A08F044FA444A454B77
:1026B00007F0D6FD0B1C0221021C009106A804F0B5
:1026C000D3FC06A909A804F019FD011C201C03F085
:1026D000B1FF06A804F031FC09A804F02EFC039A0F
:1026E0000423E95E10B20823EA5EFFF77BFD3E4B50
:1026F0000021785E0022B15E00229A5E0390AA60FB
:102700006960FFF7C5FD09A83C4904F05DFC0022A3
:10271000B95E06A80A2204F095FC06A909A804F0EF
:10272000EDFC011C201C03F085FF06A804F005FC4D
:1027300009A804F002FC09A8314904F045FC0A226A
:102740000023F15E06A804F07DFC06A909A804F0A8
:10275000D5FC011C201C03F06DFF06A804F0EDFB66
:1027600009A804F0EAFB09A8264904F02DFC1E4A3A
:1027700006A80021515E0A2204F064FC06A909A8FB
:1027800004F0BCFC011C201C03F054FF06A804F05C
:10279000D4FB09A804F0D1FB03210B4802F0E4FCB0
:1027A000194804F021FDFFF763FE184B00221A7050
:1027B0000DB0F0BDC046C04600000000008066407D
:1027C000182D4454FB210940EC010020A0080020F2
:1027D000ABDA0000BBDA0000E8010020C3DA000039
:1027E00062020020CBDA000096020020D3DA00005B
:1027F000D8010020DFDA0000E0010020EBDA000061
:10280000F3DA0000FBDA000088130000E602002083
:1028100070B5154C154D8AB02968201C02F0D0F90E
:10282000134E201C316802F0CBF92A6801A8211C44
:10283000132302F06FF90F4D01A9281CFFF7C0FC0C
:102840003268132301A8211C02F064F90A4C01A983
:10285000201CFFF7B5FC281C02F034F8201C02F005
:1028600031F80AB070BDC0469806002088010020EB
:10287000BC0200207002002098020020F0B53C4EFF
:1028800087B0041C311C684604F09EFB311C201CE0
:1028900004F09AFB374F381C02F09EFA364D287030
:1028A000381C02F08FFA354B1870381C02F080FA91
:1028B000334B2A781870314F092A03D868463149BA
:1028C00004F0AFFB694603A804F0A1FB297803A834
:1028D00004F035FC2C4904F01FFC011C201C04F002
:1028E000F6FB03A804F029FB6846311C04F099FBB1
:1028F0003B78092B03D86846224904F092FB6946CD
:1029000003A804F084FB397803A804F018FC1E49DE
:1029100004F002FC011C201C04F0D9FB03A804F005
:102920000CFB6846311C04F07CFB154B1B78092B13
:1029300003D86846134904F074FB694603A804F001
:1029400066FB0F4B03A8197804F0F9FB011C201C4F
:1029500004F0BDFB03A804F0F0FA311C684604F053
:1029600060FB684604F0E9FA201C07B0F0BDC046E1
:1029700095E10000D401002007000020CE020020D5
:102980001402002005DB000007DB00007FB51148C2
:10299000002102F0F5FC104903A804F015FB68467D
:1029A000FFF76CFF694603A804F0A8FB011C0B4865
:1029B00003F040FE684604F0C0FA03A804F0BDFA34
:1029C000FFF768FD064B04211A690A431A6130BFFC
:1029D00007B000BDEC01002009DB0000A0080020CA
:1029E00000ED00E0F0B53B4D87B0041C291C6846A3
:1029F00004F0EAFA291C201C04F0E6FA364E301CDA
:102A000002F008FA354F3870301C02F0F9F9344BF7
:102A10001870301C02F0EAF9324B314E1870092858
:102A200003D86846304904F0FCFA694603A804F06C
:102A3000EEFA2C4B03A8197804F081FB2B4904F023
:102A40006BFB011C201C04F042FB03A804F075FA88
:102A50006846291C04F0E5FA3378092B03D8684648
:102A6000214904F0DEFA694603A804F0D0FA31786F
:102A700003A804F064FB1D4904F04EFB011C201C5C
:102A800004F025FB03A804F058FA6846291C04F05A
:102A9000C8FA3B78092B03D86846134904F0C1FAF9
:102AA000694603A804F0B3FA397803A804F047FB99
:102AB000011C201C04F00BFB03A804F03EFA291CA7
:102AC000684604F0AEFA684604F037FA201C07B0F6
:102AD000F0BDC04695E10000D401002006000020B2
:102AE000050000200400002005DB00002EDB0000B4
:102AF00030B58BB0041C01A8FFF774FF01A904A82E
:102B000004F085FA0D4904A804F006FB051C07A88B
:102B1000FFF7B4FE07A9281C04F0F0FA011C201CE2
:102B200004F075FA07A804F008FA04A804F005FAFE
:102B300001A804F002FA201C0BB030BDD4E4000060
:102B400010B5144C86B0201C002102F09DF9002223
:102B5000201C131C102102F0A1F806221123201CB6
:102B60000D2102F0E7F80C4903A804F02DFA68469D
:102B7000FFF7BEFF694603A804F0C0FA011C07482E
:102B800003F058FD684604F0D8F903A804F0D5F91D
:102B900006B010BDD401002030DB0000A0080020EA
:102BA00038B5051C0024AC420CD2FFF773FC64203E
:102BB00004F01AFB0134FFF773FC642004F014FBEB
:102BC000E4B2F0E72C1C092CECD8C820013404F046
:102BD0000BFBE4B2F7E7000010B50B4C1821201CEA
:102BE00002F0E0FB002802D10120FFF7D9FF201CF2
:102BF000032102F0B9FA201C072102F0C1FB0349AE
:102C0000034803F021FD10BDEC0100203DDB000076
:102C1000A008002008B50948042101F0F1FE031CBA
:102C20000748002B05D1074903F00EFD0220FFF7EE
:102C3000B7FF054903F008FD08BDC046980600200F
:102C4000A008002056DB000072DB000010B58AB03F
:102C5000FFF7E6FBFFF7CCFBFFF734FCFFF7BCFF09
:102C6000FFF7D8FFFFF76CFFFFF7D2FD0B4B01A872
:102C70001A680B49132301F04DFF0A4C01A9201CCF
:102C8000FFF79EFA201C01F01DFEFFF709FCFFF77D
:102C900013FC054B00221A700AB010BD88010020F9
:102CA0009806002070020020E602002037B581025D
:102CB0000A4806F06DFC0A4C451E208A228B002132
:102CC000009580B292B20B1C04F02CF9ADB280B228
:102CD00020822583E37BDB09FCD137BD006CDC025D
:102CE000002C00421D4A1E4B70B51A801D4B5B78AC
:102CF000DB09FBD11C4C0222238893432380E27B17
:102D0000194BD209FBD11A8892B21A80E27B164B7A
:102D1000D209FBD11A8820210A431A80E27B124B88
:102D2000D209FBD11988E022D2000A431A80E67B3F
:102D30000D4DF609FBD1FFF7B9FF6E736B7B1022C7
:102D400013436B738022094BD2021A602B88022234
:102D500013432B80E37BDB09FCD170BD1B400000DB
:102D6000020C0040000C0040002C004200E100E09A
:102D7000044B02211A888A431A80DA7BD209FCD1DB
:102D80007047C046002C0042F7B5FFF7ABFB1C4B69
:102D90001C491F885B78FFB29C461B4B604618702D
:102DA0001A4B0A681F701A4B1D885E78194BEDB2DA
:102DB0001E70194B1D70194B18885C78184BC0B2E7
:102DC0001C70184B01901870174B6046985401986E
:102DD0009B185F709E70DD701C715871131C0B3353
:102DE0003B2B02D806320A6004E000230B600F4B35
:102DF00001221A700E4B10219A7B0A439A73F7BD79
:102E0000E0020020C8020020150200201602002067
:102E1000E20200209402002095020020E40200203B
:102E2000CC020020CD020020250200202402002038
:102E3000002C0042F8B5294801F012FD284801F0A5
:102E40000FFD284E2849301C04F0BEF8274D284CB1
:102E5000291C221C301C08F0EBFC264E2649301C95
:102E600004F0B2F8291C221C301C08F0E1FC2348B5
:102E700001F0C8FE224E0121301C02F08FF8221C06
:102E8000301C204908F0D4FC1F4E204F311C381C48
:102E900004F09AF8291C221C381C08F0C9FC1C4FAD
:102EA000311C381C04F090F8291C221C381C08F036
:102EB000BFFC184F311C381C04F086F8291C221C5A
:102EC000381C08F0B5FC144F311C381C04F07CF899
:102ED000381C291C221C08F0ABFCF8BD7002002035
:102EE00098020020880100208DDB00003B6F00006D
:102EF00000000020BC0200209ADB0000D40100206A
:102F0000EC0100202521000095E100006402002072
:102F1000D40200207C01002018020020F0B591B0FE
:102F2000334C201C01F0BAFC00285AD0201C01F0C0
:102F300059FC071C201C01F055FC061C201C01F04C
:102F400051FC051C201C01F04DFC0190201C01F0DF
:102F500049FC0290201C01F045FCFF2427403F0261
:102F6000F1B20A220390394304A804F06BF804A9D3
:102F700007A804F04CF81F4E07A8311C04F0CCF849
:102F8000019B2540D9B22D020A22071C29430AA819
:102F900004F058F80AA9381C04F0B0F8311C04F009
:102FA000BBF8029B0A221C40039B2402D9B2051CD9
:102FB00021430DA804F046F80DA9281C04F09EF842
:102FC000011C0D4803F036FB0DA803F0B6FF0AA85C
:102FD00003F0B3FF07A803F0B0FF04A803F0ADFFB0
:102FE0009EE70649064803F02FFB11B0F0BDC0462E
:102FF0007002002003DB000098020020D9DB0000F3
:10300000A0080020F0B596208DB0400004F0ECF848
:103010004D4903A803F0D8FF6846FFF72FFC694627
:1030200003A804F06BF8011C484803F003FB684652
:1030300003F083FF03A803F080FFFFF707FA0A20DD
:10304000FFF750FE424A1378022B28D10A2004F0E1
:10305000CBF8404B1A78002AF4D000241C703E4B69
:103060003E4EE35CA35501343C2CF8D1FFF71EFA29
:103070003B4B03A81A683B49132301F04BFD3A4D23
:1030800003A9281CFFF79CF8311C221C281C01F006
:103090007DFB281C01F016FCFFF70EFAD2E733493E
:1030A00003A803F091FF304C201C01F0E7FB011C4A
:1030B000684603F089FF694603A804F01FF8234D12
:1030C000011C281C03F0B6FA684603F036FF03A87B
:1030D00003F033FFFA20400004F086F8201C01F0D2
:1030E000F1FB204F224B03A81A68391C132301F06F
:1030F00011FD204E03A9301CFFF762F8184B03A8FE
:103100001A68391C012301F005FD03A9201CFFF7F3
:1031100057F81949281C03F097FAFFF7FFFE1749E3
:10312000281C03F091FA201C01F0CCFB301C01F0AC
:10313000C9FBFFF7C1F9FFF71BFE054A0023137017
:10314000FFF78AF90DB0F0BDEFDB0000A00800200A
:10315000E602002024020020250200209401002025
:1031600088010020980600207002002001DC000089
:10317000BC020020980200200CDC000013DC0000E0
:1031800010B5134C2378022B01D1FFF73BFF2378B6
:10319000012B01D1FFF7F0F92378032B03D10D4B5D
:1031A0001878FFF7FDFC9620400004F01DF8FFF7AB
:1031B00065F9FFF7EBFBFFF767F9FFF771F9962069
:1031C000400004F011F80448072102F0D9F810BDBE
:1031D000E6020020EA010020EC010020F8B5051C01
:1031E0000F1C161C0024B44208D02B68395D1B68E4
:1031F000281C9847002801D00134F4E7201CF8BDB2
:10320000704708B5183003F097FA08BD08B51830B4
:1032100003F0A6FA08BD38B5837D0D1C002B06D03F
:10322000041CC434201C03F0B1FA002801D0002093
:1032300004E0201C291C03F066FA012038BD08B503
:10324000183003F096FA08BDF7B50193FA239B00F6
:1032500083600B4B00250833041C45600360183065
:103260000F1C161C03F042FA201CC43003F03EFA77
:10327000019B27612675A575201C6375FEBDC046A0
:1032800080DC000070B50D49041C006903F0BAFC35
:10329000206903F04FFB1826207D331C4343084D63
:1032A0000821EB18595604F02BFA607D082146439B
:1032B000AD19695604F024FA70BDC046A08601001D
:1032C00008DD0000F7B5041C00200E1C151C01933E
:1032D000824231D0271C1837381C03F026FA2069A7
:1032E000311C012203F062FB002823D0206903F087
:1032F000CCFB011C381C03F006FA01262069AE4203
:103300000ED003F033FB0221206903F039FB206962
:1033100003F0BBFB011C381C03F0F5F90136EDE7A7
:1033200003F01CFB019B002B05D02069032103F057
:1033300027FB00E0051CE8B2FEBD08B50123FFF73E
:10334000C1FF08BD10B5B8235B00C154041CC430D4
:1033500003F0EBF90123A37510BDF8B50022B823E3
:1033600082755B00041C0F1CC15C006903F01EFB2E
:10337000002805D12069032103F002FB02251DE08E
:10338000261CC436301C03F0EBF900280FD0301C8B
:10339000256903F0D1F9C1B2281C03F036FB0028DF
:1033A000EED12069032103F0EBFA032506E0051CAA
:1033B000002F03D02069032103F0E2FA281CF8BD96
:1033C00008B50121FFF7C9FF08BD38B5041C006925
:1033D00003F039FB002879D0206903F042FB002874
:1033E0000ED1206903F047FB00281FD0206903F0AD
:1033F0003DFB00281AD0206903F042FB002815D1BC
:10340000206903F0B3FA2069032103F0B9FA231C01
:10341000FC33DD6F002D04D02368201C9B68984787
:10342000A847201C183003F080F94FE0206903F012
:1034300022FB031C2069002B16D003F097FA2069A9
:10344000032103F09DFA206903F01AFB00283DD008
:10345000201CC43003F069F90123A375FC34A36F69
:10346000002B33D0984731E003F0F6FA00282DD036
:10347000206903F005FB251C00280FD0C435281C4B
:1034800003F06EF9FF21002803D0281C03F054F943
:10349000C1B2206903F0CAFAA07517E01835281CDC
:1034A00003F074F9031C2069002B02D003F056FAD4
:1034B00008E003F0EAFA011C281C03F024F9206953
:1034C00003F054FA2069032103F05AFA38BD0000D2
:1034D00008B50248FFF779FF08BDC046E8020020A2
:1034E00008B50348034914221523FFF7ADFE08BDB4
:1034F000E802002088080020437A002B04D1837260
:10350000C372C36001234372704730B585B0041C99
:1035100002AD00680291039203F0E8F96B79E1795A
:10352000227A00932068002303F048FB2979206861
:10353000029A03F0ABF9206803F0CEF905B030BD74
:1035400070B5041C1826FFF7D7FF2079331C4343BE
:103550000D4D0821EB18595604F0D2F8A079331C10
:1035600043430821EB18595604F0CAF86079082142
:103570004643AD19695604F0C3F8044B201C06CB32
:10358000FFF7C3FF70BDC04608DD000064040020E3
:1035900007B5837A00910192002B0DD09A0706D5CA
:1035A000EFF310835A425341C37272B604E0DA0754
:1035B00002D58289034B9A600099019AFFF7A5FF13
:1035C00007BDC04600180040837A002B0BD09A0735
:1035D00004D5C37A002B06D062B604E0DA0702D520
:1035E0008289014BDA6070470018004008B5006816
:1035F00003F085F908BD0000094B0A4A0A491A6020
:1036000000225A711A71094B19601621197118217B
:1036100099711721597101215A72D9711A72704723
:103620006404002000093D00980800206C0400207C
:1036300008B5011C0148FFF7D9FF08BD6C04002044
:1036400008B50248FF21FFF7D1FF08BD6C04002038
:1036500008B50121007904F00BF8054B1A78002A0F
:1036600004D0002203481A70FFF7AEFF08BDC04621
:10367000840400206C04002010B5084B041C1A7848
:10368000002A06D101221A70054B064806CBFFF727
:103690007FFF2079002103F0EBFF10BD84040020A0
:1036A0007C0400206C04002010B58379041C002BDE
:1036B0000DD023895A1C2281054A934202D8FFF774
:1036C000BFFFF6E7201CFFF7C3FF0023A37110BD67
:1036D0000102000000B5062903D91623437100201A
:1036E0001CE00F4B052913D8081C002205F0F8FE3A
:1036F000030507090B0D0B4908E00B4906E00B49D0
:1037000004E00B4902E00B4900E00B49196002E0BC
:103710000A4A1A6000221A715A71012000BDC0467F
:103720007C040020001BB70000093D0080841E00BF
:1037300040420F0020A1070090D0030048E801009C
:1037400038B50C1C03F04AFD051CFFF779FFFF2874
:1037500008D003F043FDABB280B2C01AA042F4DB44
:10376000002000E0012038BDF8B5041C0E1C171C19
:10377000FFF79AFF201CFFF77FFF96214900201CCE
:10378000FFF7DEFF40203043FFF752FF1825381CBB
:10379000E840C0B2083DFFF74BFF2B1C0833F6D1C1
:1037A0009520002E03D08720082E00D0FF20FFF7A1
:1037B0003FFF0025FFF744FF43B2E072002B04DA1D
:1037C000FF2D02D00135EDB2F4E7F8BDF7B50025C5
:1037D00002710573857285714571041C019103F0B6
:1037E000FDFC012187B2207903F0E8FE0121207958
:1037F00003F03EFF434E301CFFF7A2FE424B43490D
:103800001D715D711960301C5A68FFF7C1FE0A25F1
:10381000013DFF20EDB2FFF70BFF002DF8D1301C6A
:10382000FFF7D2FE201CFFF727FF0021201C0A1CF7
:10383000FFF79AFF061CE072012809D003F0CEFCC6
:10384000C01BFA2380B2DB009842EED901233CE092
:10385000D522201C08215200FFF786FF04231842BE
:1038600001D026730BE01E1CFFF7EAFE013EF6B204
:10387000E072002EF8D10223AA2826D12373267BDA
:10388000023E73425E41B60737210022201CFFF73B
:103890006BFF321C201C2921FFF766FF021CE0721F
:1038A00009D003F09BFCC01BFA2380B2DB009842D6
:1038B000EAD9082309E0237B022B19D1201C3A21E5
:1038C000FFF752FF002805D006236371201CFFF785
:1038D000BFFE15E0FFF7B4FEC0231840984201D1A7
:1038E00003232373FFF7ACFEFFF7AAFEFFF7A8FE42
:1038F000201CFFF7ADFE201C0199FFF7EBFE051C15
:10390000281CFEBD6C0400207C04002090D0030025
:1039100038B5041C03F062FC051CFFF791FEE07251
:10392000FF280AD103F05AFCABB280B2C01A96232A
:103930005B009842F1DD0F2302E0FE2806D00D2344
:10394000201C6371FFF784FE002000E0012038BDD9
:10395000F8B5041C0F1C151C1E1E45D09A18802398
:103960009B009A4242DC8379002B05D00268914289
:1039700002D10389AB4216D9237B2760032B00D0E9
:103980007F023A1C201C1121FFF7EEFE071E02D019
:10399000032363712AE0201CFFF7BAFF002825D01B
:1039A00001232781A3712389AB4205D2FFF748FE8B
:1039B000238901332381F6E7069D069AAB1A9BB251
:1039C000B34204D2FFF73CFE28700135F5E72389A6
:1039D000A27AF3189BB22381002A02D0064A9342AE
:1039E00002D9201CFFF760FE012003E0201CFFF736
:1039F0002FFE0020F8BDC046FF01000007B5802360
:103A000000929B000022FFF7A3FF0EBD70B5051CBE
:103A1000081C161CFFF70CFE0024305DFFF708FEA3
:103A2000013480239B009C42F7D1FF20FFF700FE6A
:103A3000FF20FFF7FDFDFFF703FE1F23E8720340A1
:103A40000120052B05D01123281C6B71FFF700FE08
:103A5000002070BD70B50B1C041C161C002901D180
:103A6000122328E0027B032A00D04B02201C1821DD
:103A70001A1CFFF779FE051E01D004231BE0201C51
:103A8000FE21321CFFF7C2FF002815D09621201C12
:103A90008900FFF755FE002801D115230BE0201CFB
:103AA0000D212A1CFFF760FE002803D1FFF7C8FD97
:103AB000002806D014236371201CFFF7C9FD0020E5
:103AC00003E0201CFFF7C4FD012070BD034B044A36
:103AD0001A6000225A711A717047C0467C04002097
:103AE00000093D00021C10B50C32041C0121406A83
:103AF00000F024FD00280AD0236A0120002B06D103
:103B0000E368227A236280235B421343237210BD51
:103B100070B5041CFFF7E6FF002801D100201BE070
:103B2000636AE6681A7C023E96405A691D79B618A7
:103B3000002D08D0701E401900F04CFC0028EDD07C
:103B4000013DEDB2F4E7636A01201A7C80239B00FB
:103B50009340E269D318E36170BD000010B5041C06
:103B6000406900F013FC002803D0207E014B400187
:103B7000C01810BD94040020F0B5002387B0071CC6
:103B80000E1C2022F25401330B2BFAD10721002501
:103B900001913C78002C2AD02E2C06D1019B0A2BB7
:103BA0002BD00A21082501911FE002A814491022F8
:103BB00007F0A5FE002302A9CA5C002A03D0013346
:103BC000A242F8D119E0019B9D4216D8231C213B4B
:103BD0005D2B12D8221C6B1C613ADBB27519192AB5
:103BE00001D8203CE4B22C701D1C0137D1E730789D
:103BF0002038431E9841C0B200E0002007B0F0BD5D
:103C0000A0DC000038B5427A041C0D1C002A01D04B
:103C100000201FE04B1CDB7F102B06D102234372D8
:103C200002624B8C5B01C3610CE0202BF0D10323BB
:103C30004372496A221C01621C32281C00F018FCE5
:103C40000028E5D00023012065622072E360236133
:103C50006361237638BD0000F0B5437A85B0041C5B
:103C60000E1C0392002B01D13A4811E0037AD807C9
:103C7000FAD5E26920690399131A994201D99BB2D6
:103C8000039303990291029B002B04D1039988B2FC
:103C900000B205B0F0BD2369617ADF05FF0D5A0A55
:103CA000606A022902D1416A51181BE00579013D81
:103CB0002A40D5B2002F0DD1002D0BD1002B02D1FF
:103CC000226AE26006E0221CE1680C3200F0A0FBF0
:103CD0000028C9D0636AE1681A7C02395B699140A7
:103CE000C91849198022029D9200D31B9D4200DD14
:103CF0009DB2237A580601D4954218D1164B1B6801
:103D0000994214D0154B3A1C186800962B1CFFF7EB
:103D10001FFE0028A8D0761901E0DF1BF6192169E3
:103D2000029A4B19551BADB223610295ABE7081CF3
:103D3000002100F02BFB002896D0094B321CFF1805
:103D400079193B1C8B42E8D018780133107001328E
:103D5000F8E7C046FFFF00000800002090040020A4
:103D60009404002073B5437A041C012B01D8002071
:103D700016E003696D460735DE05291C0122360F62
:103D8000FFF76AFF012801D12B7800E0054B1BB239
:103D90000133ECD0236970011F332361024BC0183B
:103DA00076BDC046FFFF00009404002070B5041CDF
:103DB000407A0D1C00282AD0E269914201D90020E6
:103DC00025E0022821D0002D01D1E5601DE0626AC6
:103DD0002169137C681E09334A1ED840DA40031E4D
:103DE000934201D3002902D1226AE26000E0831AE3
:103DF0001E1C002E09D0221C606AE1680C3200F003
:103E000007FB013E0028F4D101E02561012070BDCF
:103E100038B5051C407A002833D02B7A7F2B2DD95A
:103E2000281C0121FFF79AFE041E2AD06B7A012B71
:103E300007D82B7F03776B7F4377AB7F8377EB7F4D
:103E4000C3772B6A9AB21B0C23751B0A63750D4B43
:103E5000A2761B68120AE276002B0BD0201C211CD4
:103E6000183016319847637E227E1B021343A374D9
:103E70001B0AE3742A7A7F2313402B7200F05CFA4A
:103E8000FFE738BD8804002010B5041CFFF7C0FF11
:103E9000002802D000236372012010BD73B5427A5E
:103EA000041C0D1C0020012A4BD1207A022318404B
:103EB00047D0E3690020994243D8101C002B40D022
:103EC000201C291C2669FFF771FF002825D0606A95
:103ED000002D06D1216A00F095FB00281DD0256237
:103EE0001DE0E16801AA00F093FA002815D0606A8D
:103EF0000199431CDB7F102B01D1124B00E0124BC8
:103F000099420CD200F07EFB002806D0606AE1687E
:103F10000E4A00F0CFFA002801D1002011E0227AE9
:103F200080235B421343E5612372201CFFF770FF7F
:103F30000028F2D0291EB14200D9311C201CFFF705
:103F400035FF76BDF8FF0000F8FFFF0FFFFFFF0F02
:103F500038B5234B151C4A01D318041CD87A1122FA
:103F6000104204D04222154201D0002036E01D4A02
:103F70002176126862615A7D187DD97E1202024351
:103F8000987E09021204014311432162D87A182253
:103F900002400CD15A7F197F12020A43997FDB7FBE
:103FA00009040A431B061343E361012309E0102AB5
:103FB000DBD1221C606A1C3200F05AFA0028D4D0EF
:103FC000042363720F2300212B402372E1602161DF
:103FD00001206A0602D5201CFFF760FF38BDC046ED
:103FE0009404002008000020F0B5457A87B0041C36
:103FF0000E1C0193002D00D086E0101C03A9FFF7D2
:10400000BBFD002800D180E0726A2F1C6262F5605F
:1040100035613369F269934226D2DB051B0F301CF0
:104020000093FFF79FFE011E6FD00378002B01D095
:10403000E52B0BD1002F04D1009B2376344B1B685A
:1040400063610B780127002BE3D10DE003A80B225D
:1040500007F046FC0028DCD1019A30231340302BB6
:1040600053D0201C00994BE0019A12231340122BCD
:104070004BD1002F06D0201C0121FFF76FFD061E3B
:104080000AD142E0737A022B3FD0301CFFF740FD8B
:1040900000283AD01F4E277600212022301C07F03E
:1040A00050FC301C03A90B2207F029FC1A4B1B689B
:1040B000002B05D0301C311C10300E31984706E023
:1040C00021223274B373282208237274F373737C31
:1040D000327C1B021343FF221A401B0AF3747376CF
:1040E000F37BB2743276B27B1B021343B3751B0AA7
:1040F000F37500F021F9002807D0217E019A201CD9
:10410000FFF726FF051C00E00025281C07B0F0BDC6
:1041100008000020940400208804002010B500212D
:10412000041CFFF7BBFE00280BD0201C0121FFF769
:1041300015FD002805D0E52303700023637200F00D
:10414000FBF810BD10B50A1C0A498AB008310023DB
:10415000041C009169464B7201936846211C02239E
:10416000FFF742FF002802D06846FFF7D7FF0AB0EA
:1041700010BDC046B0DC0000F0B5437A87B0041C27
:104180000D1C0392012B0DD1037A99070AD55A070A
:104190000CD5E16922698A4208D0201CFFF706FE8F
:1041A000002803D1012363600020AAE0039B019350
:1041B0003BE0606A730A0779F605013F1F40FFB2D2
:1041C000F60D002F36D080229200921B019992B2F8
:1041D0000B1C914200D9131C9BB20293636AE168E5
:1041E0001A7C023991405A698B18029ADF19802390
:1041F0009B009A423FD1444B1968B94202D1012237
:1042000052421A60414B391C18682A1CFFF722FCE5
:104210000028C7D080229200AD180199029A8B1A0B
:1042200021699BB201938B182361019A2669002AA8
:10423000BFD149E0002EC6D1E168002903D1236A2D
:10424000002B16D10FE005AA00F0E2F8002858D0A4
:10425000626A059B0132D27F102A01D12C4A00E00C
:104260002C4A934205D3201CFFF73CFC0028AAD11E
:1042700098E7E360A7E7002E0FD12369E1698B423D
:104280000BD300F059F800288CD01F4B01211F6080
:10429000214B1A780A431A7006E0381C012100F0FD
:1042A00075F8002800D17DE71C4B2A1CF618029BEC
:1042B000F118331C8B4204D010780132187001338E
:1042C000F8E79E1BAD19A8E7E169237A8E4201D970
:1042D000E66106E0124A1268002A06D0039A002A14
:1042E00003D08022524213432372237A190701D448
:1042F000039806E0201CFFF78BFD002800D151E752
:10430000F6E707B0F0BDC04608000020900400208A
:10431000F8FF0000F8FFFF0F94060020940400202F
:104320008804002007B56B46D9710733191C012298
:10433000FFF722FF0EBD0000F8B50F4F01203B78BC
:10434000002B18D00D4E0E4B0E4D196830682A1CEC
:10435000FFF780FB00280ED00B4C2168002907D006
:1043600030682A1CFFF776FB002804D00023236066
:1043700000233B700120F8BD94060020900400202B
:1043800008000020940400208C04002070B50D4D1E
:10439000041C2B680E1C83420ED0FFF7CDFF0028B3
:1043A00001D100200DE0084B211C1868074AFFF7D7
:1043B00025FB0028F5D02C60054B01201A78164308
:1043C0001E7070BD0800002090040020940400209E
:1043D0009406002010B5041CFFF7AEFF00280FD094
:1043E0000023084A0021995480220133920093420D
:1043F000F7D1054B01201C60044B1A7802431A7058
:1044000010BDC0469404002008000020940600203F
:10441000C36870B501330C1C151C994201D90020EA
:1044200021E0461CF17FC269E309102900D1230A6B
:1044300098180D4B1B68984207D1F27F0B4B102A3E
:1044400009D1E4B264001B5B0BE00021FFF79EFF83
:104450000028F2D1E3E77F221440A4001B591B017E
:104460001B092B60012070BD08000020940400206F
:1044700073B5051C0191161C0024281C019901AA82
:10448000FFF7C6FF002810D02A7C80239B009340B2
:10449000E4186B1CDB7F019A102B01D1034B00E069
:1044A000034B9A42E9D33460012076BDF8FF000047
:1044B000F8FFFF0FF7B5051C0C1C0192012932D93A
:1044C000C3680020013399422ED86F1CFA7FEE6931
:1044D000CB09102A00D10B0A9E19144B1B689E426F
:1044E00008D1FA7F124B102A0BD1E4B2019A640072
:1044F0001A530BE0301C0021FFF748FF0028F0D1D1
:1045000012E07F221440019AA4001A51094B0120A5
:104510001A7802431A702B7E834205D9AB68F618CD
:10452000054B1E6000E00020FEBDC04608000020D4
:1045300094040020940600208C040020F0B5156837
:1045400087B0061C0291171C002D03D000210135F5
:10455000019106E0029B0568013B5A425341DBB2E0
:104560000193F2680023013203922C1C00930099FE
:10457000F268914221D2039B9C4201D90224251C5E
:10458000301C211C05AAFFF743FF002815D0059910
:10459000631C002901D01D1C03E002995A1B8A42AA
:1045A00004D0009A1C1C01320092E0E7301C211C50
:1045B000134AFFF77FFF00280BD100201DE0631E88
:1045C000301C191C221C0093FFF774FF0028F4D044
:1045D000009CAC42F3D83968002906D101993D60AE
:1045E000002909D00135356006E0301C2A1CFFF790
:1045F00061FF0028F2D1E0E7012007B0F0BDC0461E
:10460000FFFFFF0F022337B5051C0C1C0360281C9D
:10461000211C01AAFFF7FCFE002812D0281C211C37
:104620000022FFF747FF00280BD06B1CDB7F019CAB
:10463000102B01D1044B00E0044B9C42E7D3012036
:1046400000E000203EBDC046F8FF0000F8FFFF0F6D
:10465000F8B5444B041C151C196029D0042A01D953
:1046600000207DE00020011CFFF790FE0028F7D01D
:104670002D013D4BA935FF355D19AA79AB1D5006BB
:10468000EED1EA7CA97C12020A43297D09040A437F
:10469000697D09060A43632AE2D9AA7BED7B2D02D4
:1046A00015439A7ADB7A120415431B061D43D7D0B3
:1046B000281C0021FFF76AFE0028D1D02A4B197B65
:1046C000DA7A09021143802292009142C8D11A7C01
:1046D000002AC5D0D9890029C2D0597B0029BFD072
:1046E0002276002221712274227C01209040814296
:1046F00004D0501C2074072AF6D9B1E7D98A0029C2
:1047000000D1596AA160D8892818E0611F693E026A
:10471000360C6684B7B21E7C71430E1813487901BB
:1047200009184912711866626161187DDE7C000209
:10473000304300D1186A6D1A2818D040021CE0607E
:104740000B48611C824201D80C2307E009488242D1
:1047500001D8102302E0DB6A63622023CB770120BB
:10476000F8BDC0469004002094040020FF01000022
:10477000F40F0000F4FF000013B502686B46D97116
:1047800007335468191C0122A04716BD38B5041C14
:10479000006A0025A84202D1012363600AE0456057
:1047A00092B2FFF7E9FC236A5B68002B02D0012379
:1047B0006360281C38BD006A08B5002801D0FFF7E7
:1047C00027FB08BD13B56C460734211C0122FFF7F7
:1047D00043FA012801D1207800E0014800B216BD5B
:1047E000FFFF0000006A08B5002802D0FFF7EAFFCB
:1047F00001E00120404208BD38B5051C006A0028D0
:104800000AD0FFF7DFFF041C631C05D0286A01698A
:104810000139FFF7CBFA201C38BD0000F8B5FA23A8
:104820009B0083600D4B00250833041C456003602A
:1048300028200F1C161C07F03FF82062A8420AD05F
:10484000391C282207F05BF8201C1030311C0C2288
:1048500007F077F92577201CF8BDC046C0DC0000C2
:10486000FA2292008260044A002308324360026008
:10487000036203747047C046C0DC0000103070470C
:10488000036A002B01D0186901E001204042704703
:10489000006A002800D0C0697047000038B5041CC9
:1048A000006A00280BD0201CFFF7F2FF051C201C1B
:1048B000FFF7E6FF024B281A984200D9181C38BDB2
:1048C000FF7F000010B5041C006A002806D0FFF727
:1048D000DBFA206A06F0FAFF0023236210BD08B558
:1048E0000123002A05D0FFF72DFC031C581E83412D
:1048F000DBB2181C08BD38B50122051C0C1CFFF7E3
:10490000A7FE021C0120002A03D1281C211CFFF74E
:104910009FFE38BDF0B50C68035D2F3B5D426B41D7
:10492000E418271C0C37231CC55C1E1B2F2D09D037
:10493000002D07D00133161BF618013E3570BB421F
:10494000F2D10C2600249455C25C2F3A54426241A5
:104950009B180B60C05C431E9841C0B2F0BD0000C4
:10496000F0B5A1B0039025480D1C049205930CAA44
:10497000002316A90D930C905372179316904B7247
:1049800007932C1C009207A908AA0398FFF7C2FFFF
:104990000126021C72400190D2B2201C08A9059B7E
:1049A000049FB847002807D1AC4201D1002023E082
:1049B000201CFFF769FAF9E7019F002F11D0331C83
:1049C0000098211C08AAFFF70FFB061CAC420FD071
:1049D000201CFFF759FA002EE8D0231C009C0093FE
:1049E000D1E7AC4202D0201CFFF74EFA301C03E0A6
:1049F0000028DBD016ACF0E721B0F0BDB8DC000039
:104A000038B50A1C0121041CFEF7E0FE002801D184
:104A100000200FE0251C1035281C211CFFF76BFF20
:104A20000028F5D0201C3830291CFFF7EBF8431E76
:104A30009841C0B238BD00004B6843600A4B036028
:104A40000B7A03724B7A4372CB68C3600B690361C4
:104A50004B6943610B7E0376CB69C3610B6A496A7C
:104A6000036241627047C046B8DC0000F0B59DB0FB
:104A7000051C383108A802920393FFF7DDFF244A92
:104A800012AF0023029C7B6012927B7208AE201C46
:104A90002F2107F03BF800282ED023782F2B01D1AF
:104AA0000134F4E7001BC0B2031C0C2800D90C230E
:104AB000DBB21A1C211C04A8019307F042F8019AEA
:104AC000002304A9381C8B54FFF7DEF9381C311C75
:104AD00004AA0123FFF788FA002804D10C4B686070
:104AE0002B60687210E0019B301CE418FFF7CCF9D2
:104AF000331C3E1C1F1CCAE70299039A641A1460F7
:104B0000281C311CFFF798FF281C1DB0F0BDC046C3
:104B1000B8DC0000F0B5A3B0051C1F1C04A803AB53
:104B2000161C0191FFF7A2FF039BF6183378002BA8
:104B300007D104A918A8FFF77FFF281C18A91E4A4F
:104B400034E000230EAC636063726B4619331B4A7A
:104B50001B780E92002B03D1281CFFF781FE27E063
:104B6000023B012B09D80199201C3831321C3B1C17
:104B7000FFF73AFA00280BD1EEE7201C04A9321CFB
:104B80003B1CFFF731FA0028E6D004A8FFF77CF9B8
:104B900006231F4203D0201C1599FFF707F9211C9B
:104BA00018A8FFF749FF281C18A9321CFFF736FE8A
:104BB000281C23B0F0BDC0462EDB0000B8DC00008E
:104BC00008B5031C081C191C3831024A0023FFF7E2
:104BD000C7FE08BDDF480000084B02211961191CFF
:104BE000002230310A7006495A719A719A721A730A
:104BF000DA63996341331A707047C0469806002003
:104C0000B8DC0000002303707047000008B5044BB7
:104C10001B68002B00D09847024B01221A7208BD76
:104C2000FC060020001400400378002B0AD0064B3D
:104C3000081C19693F2210409143014319619A7A77
:104C4000D209FCD17047C046001400400378002B05
:104C50000BD0064B3F2211408A01186904490140DC
:104C6000114319619A7AD209FCD1704700140040AF
:104C70003FF0FFFF0378002B0BD0064B1F221140A3
:104C80000A03186904490140114319619A7AD2094B
:104C9000FCD1704700140040FF0FFEFF70B5161CDA
:104CA0000278041C0D1C002A0AD0191CFFF7BCFF57
:104CB000201C311CFFF7CAFF201C291CFFF7DAFF5C
:104CC00070BD00000378002B0BD0064B1F22114053
:104CD0004A04186904490140114319619A7AD209BA
:104CE000FCD1704700140040FFFFC1FF0378002B88
:104CF0000BD0064B0F2211408A0518690449014068
:104D0000114319619A7AD209FCD17047001400400E
:104D1000FFFF3FFC0378002B09D0054B8A06196979
:104D200089018909114319619A7AD209FCD1704726
:104D30000014004070B51D1C0378041C161C002BC9
:104D400009D0FFF7BFFF201C311CFFF7CFFF201C4D
:104D5000291CFFF7DFFF70BD0A4B0B4A9A605A7897
:104D600052B2002AFBDB0949064A51605A7852B216
:104D7000002AFBDB0649034A51805A78D209FCD14C
:104D80007047C046000C00400204000002051100FC
:104D9000044200000378002B05D0034B034A5A80DD
:104DA0009A7AD209FCD17047001400400080FFFFBE
:104DB00008B5FFF7EFFF024B18693F23184008BD05
:104DC0000014004008B5FFF7E5FF024B1869000525
:104DD000800E08BD0014004008B5FFF7DBFF024B52
:104DE0001869C003C00E08BD0014004008B5FFF7E5
:104DF000D1FF024B18698002C00E08BD00140040AC
:104E000008B5FFF7C7FF024B18698001000F08BD06
:104E10000014004008B5FFF7BDFF024B1869800E73
:104E200008BDC04600140040044B02211A888A4382
:104E30001A809A7AD209FCD17047C046001400400B
:104E4000044B02211A880A431A809A7AD209FCD1AB
:104E50007047C04600140040044B01211A880A43E1
:104E60001A809A7AD209FCD17047C04600140040DB
:104E7000044B01211A888A431A809A7AD209FCD1FC
:104E80007047C04600140040F7B52B4B0F1C9A69C1
:104E900020210A439A61294A294B0026051C9A823F
:104EA000284CB7420AD1284B1A7870231A4240D0B6
:104EB00023881A073DD5226901260192281CFFF795
:104EC0004BFF281CFFF7B0FF281CFFF7C5FF6288C7
:104ED0001E4B134063801E4B2380A27A194BD209CC
:104EE000FBD11C4A08211160C021890050580002E2
:104EF000000A5050DA7901210A43DA711A7F07213A
:104F00008A431A77A37ADB09FCD1281CFFF798FFA4
:104F1000281CFFF7ADFF002F02D001232B70F7BD37
:104F2000002EFAD0074B019A1A61A37ADB09FCD153
:104F3000F3E73E1CC2E7C04600040040CE06000076
:104F4000000800400014004038040040FFBFFFFF8D
:104F5000080A000000E100E038B528220C1C051CFE
:104F6000081C002106F0EDFC201C08490B2206F06D
:104F7000E8FD0023E372ED690122636200232561ED
:104F8000E2606261A361E361236238BDE0DC00009E
:104F900008B50368C9B21B68984708BD074B821C57
:104FA0000833036001235B42C361D177C21CD3770E
:104FB000FF21021DD177421DD3777047E8DC000046
:104FC000F7B5421D019100921F23D356051C0727F8
:104FD0000024013303D11448FEF708FB22E0009BB4
:104FE0001F2018560021012602F042FB019A311CB5
:104FF000EB1C1F20B9401856114002F039FB009BF2
:105000001F201856311C02F033FB2B1D1F2064009B
:105010001856E4B202F05CFB002800D03443013F94
:10502000DDD2201CFEBDC0466C040020F0B51F235D
:10503000851CEB5685B0041C0F1C161C013312D1C5
:10504000431CD97F8069FEF77DF9A069391C03688C
:105050001B689847A069311C03681B689847A069C2
:10506000FEF7AEF929E0421D01921F23D35601330A
:1050700008D16A4600235373137311481149039AE8
:10508000FEF786FA1F202856002102F0F1FA7F2150
:105090003940201CFFF794FF311C201CFFF790FFC4
:1050A0001F202856012102F0E3FA019A1F23D3564C
:1050B000013302D10248FEF787FA05B0F0BDC046C1
:1050C0006C04002020A10700F7B51F23851CEB56B8
:1050D000041C0F1C013317D1451CE97F8069FEF7C2
:1050E00031F9A069391C03681B689847A069FEF76D
:1050F00067F9E97FA0690122FEF71FF9A06903683B
:10510000DB689847C4B228E0461D1F23F3560133DD
:1051100008D16A4600235371137111481149019A4D
:10512000FEF736FA1F202856002102F0A1FA80214E
:105130003943201CFFF744FF201C0021FFF740FFEC
:10514000041C1F202856012102F092FA1F23F35657
:10515000013302D10248FEF737FA201CFEBDC046DB
:105160006C04002020A1070038B50D1C2321041C6D
:10517000FFF7AAFF3023021C9A432D012A43D2B223
:10518000201C2321FFF752FF38BD08B52321FFF76C
:105190009BFF8006800F08BD73B51F23851CEB564F
:1051A000041C01333ED1451CE97F8069FEF7CAF833
:1051B000A821A069FFF7ECFEA069FEF701F906221D
:1051C000E97FA069FEF7B9F8A0690368DB68984732
:1051D000E080A0690368DB6898470622A35E80B27E
:1051E00000021843E080A0690368DB6898472081CB
:1051F000A0690368DB6898470822A35E80B20002BA
:1052000018432081A0690368DB6898476081A06922
:105210000368DB6898470A22A35E80B20002184345
:1052200060814CE0461D1F23F356013308D16A46C6
:105230000023537113713A483A49019AFEF7A8F9CD
:105240001F202856002102F013FAE821201CFFF746
:10525000B7FEFF21201CFFF7B3FEFF21E080201CDA
:10526000FFF7AEFE0622A35E00021843E080FF2196
:10527000201CFFF7A5FEFF212081201CFFF7A0FEC8
:105280000822A35E000218432081FF21201CFFF7A3
:1052900097FEFF216081201CFFF792FE0A22A35E89
:1052A0000002184360811F202856012102F0E0F916
:1052B0001F23F356013302D11948FEF785F9201C4C
:1052C000FFF763FF032807D0022807D0012808D082
:1052D000002808D0012007E0134805E080204001A5
:1052E00002E0124800E0124804F042FC051C0623CC
:1052F000E05E04F03DFC291C04F0EAF9E0600822BD
:10530000A05E04F035FC291C04F0E2F920610A23B8
:10531000E05E04F02DFC291C04F0DAF9606173BD35
:105320006C04002020A1070055050000FE1F0000AE
:10533000FC3F000070B524260C1C051C321C081C08
:10534000002106F0FEFAEB69281C63600123A360CC
:10535000002323612660FFF71FFFE868074904F078
:10536000DDFA60612869054904F0D8FAA06168692E
:10537000024904F0D3FAE06170BDC0460AE81C415E
:1053800038B50D1C2021041CFFF79EFE0F23021CC4
:105390001A402D012A43D2B2201C2021FFF746FEDD
:1053A00038BD000038B5431C851C041CD9771F206C
:1053B0002856431C03D1A069FDF764FF1FE00121BB
:1053C00002F056F91F202856012102F0F7F8631D5C
:1053D0001F201856431C03D11A48FEF7B1F80EE0FF
:1053E000012102F0EBF8E31C1F201856012102F006
:1053F000E5F8231D1F201856002102F0DFF8201CBD
:105400000F21FFF761FE0023332818D10722201C4B
:105410002021FFF70BFE201C0721FFF7B1FF201C06
:1054200023218822FFF702FE201C22211022FFF7F1
:10543000FDFD201C1F218022FFF7F8FD0123181C11
:1054400038BDC0466C04002008B5024801F048FC95
:1054500008BDC0460007002008B5024801F040FC26
:1054600008BDC046C4070020F7B5164F1649381CC2
:1054700001F09CF91549164801F098F915491648AC
:1054800001F094F91549164801F090F915491648AC
:1054900001F08CF9154D03260124281C144901F054
:1054A00085F9391C0096231C01940022114801F053
:1054B000F3FB0096291C01941F221E230E4801F0C5
:1054C000EBFBF7BD8C08002000080042000C0042F6
:1054D00090080020001000429408002000140042B0
:1054E0008808002000180042980800209C0800202E
:1054F000001C004200070020C40700203F20704726
:1055000013B502686B46D97107335468191C012220
:10551000A04716BD08B50069022100F03BFC08BD9C
:1055200008B50069032100F04BFC08BD38B50D1C1F
:10553000041C131C006903212A1C00F03DFD0028F7
:1055400001D10123636038BD10B5054C23685A1C96
:1055500004D10368DB6898472060031C181C10BD49
:105560005C000020074A08B51368591C04D00121CB
:1055700049421160181C03E00069022100F00EFD91
:1055800008BDC0465C00002008B50378034902331B
:1055900003704222024800F0C5FD08BD180000203B
:1055A0006B0D002010B50178031C42780020A12962
:1055B00008D1212A2FD118481849072200F0B2FD3E
:1055C000012028E0212926D1202A05D113490722CC
:1055D000114800F03BFC04E0222A10D19A780F4BCE
:1055E000DA710E4B96221968D200914210D1DC7903
:1055F00001231C400CD1FA2001F030F80AE0232AE4
:1056000009D1DA789B7812021A43054B1A6002E03E
:1056100001F02AF8002010BD6B0D00200C000020C6
:10562000140000207047000010B501F0D7FDF423EE
:10563000FF330024984207D9044B0A20DC79631E0B
:105640009C41E4B201F0D0FD201C10BD0C000020F4
:10565000064BFA218900996005490022083119603A
:1056600004495A6019611A767047C046A0080020A4
:1056700028E100006B0D002070B5C2B2194953013A
:10568000CB189E68184DC0242E40A40526439E606A
:10569000164E800109683018083258605201505C7B
:1056A0000726B0430126304350549E6935402C43B1
:1056B0009C610F4C5C61505C7024A043102420431B
:1056C00050549C680B488A1820408024640320436F
:1056D000986098684021800B8003986053790B4351
:1056E000537170BD740D0020FFFFFF8F8C0B0020E5
:1056F000C8090020FF3F00F038B5041C08CC012188
:105700001A78051C0A431A708022201C00215200BE
:1057100006F017F92B689A78D107FCD45C6238BD83
:10572000134BF0B51B6899035A029B01C90ED20EA8
:105730005B0F1F2900D105211F2A00D11D22072B35
:1057400000D1032304688E01278D0A491F253940A3
:105750003143218501682A400C8DAC4322430A85E0
:1057600002681903108D044B03400B431385F0BDF1
:10577000246080003FF8FFFFFF8FFFFFEFF31083EF
:1057800003600123436072B670470368002B02D1A7
:1057900062B6BFF36F8F704737B50569041C684662
:1057A000002D12D1FFF7EAFF019B013B03D3621DDD
:1057B000D57FEDB2F9E768460193FFF7E6FF0020D9
:1057C000854217D0206AE36913E0FFF7D7FF019BFA
:1057D0000025013B04D3221C34321578EDB2F8E7E2
:1057E00068460193FFF7D1FF0020854202D0206B6D
:1057F000E36AC01A3EBD0000436810B51A68037A18
:1058000001215B01D318FF339A7A0A439A72037A13
:1058100042685B01D318C2689C6891040B4A09096D
:1058200022400A439A60037A42685B01D3189A685F
:105830004021920B92039A6043681A68037A0833F6
:105840005B01D3181A790A431A7110BDFF3F00F0AB
:10585000F7B50569041C0E1C171C6846002D1FD1E6
:10586000FFF78CFF019B013B5A1C06D0621DD17FC4
:105870005A1E00293AD0131CF6E768460193FFF739
:1058800084FF0025E369BD4235D0226A934232D2BB
:105890005A1CE261A269D3181B7873550135F1E7F0
:1058A000FFF76CFF019B013B5A1C08D0221C3432CD
:1058B00015785A1EEDB2002D18D0131CF4E7684677
:1058C0000193FFF762FF0025E36ABD4226D0226BF9
:1058D000934241D322E0621D0021D1773032167805
:1058E000581E8E4214D1031C5A1CF4D168460193F1
:1058F000FFF74BFF38E0226A934235D10023E36182
:10590000012323616846FFF739FF019B013BEBE769
:105910001170201C0193FFF76FFFF6E7226B934293
:1059200022D10023E36223616846FFF727FF019B32
:10593000013B5A1CDAD0221C343200211170013292
:105940001678581E8E4201D1031CF2E71170201CFC
:105950000193FFF751FFEAE75A1CE262A26AD318EB
:105960001B7873550135AFE7281CFEBD37B543687A
:10597000027A1B68083252019A18041CD07901235C
:10598000FF21184253D0D371A06865696268014055
:10599000002D20D149015218916863618904890C56
:1059A0002162A16A68465160621DD377FFF7E6FE67
:1059B000019B013B5A1C33D0221C34321178581EF3
:1059C000C9B20132002903D001930123137023E0EF
:1059D0001170031CEEE74B01D3189A68A569920475
:1059E000920C22630022626168465D60FFF7C6FE8A
:1059F000019B013B01E011702B1C591C10D0221C93
:105A0000343201201070621DD17F5D1EC9B2303268
:105A10000029F0D0019310706846FFF7B6FE06E04B
:105A200068460193FFF7B1FE201CFFF7E5FE37BD86
:105A300037B500236C46E3710734201C0D1CFFF7BB
:105A4000A3FD2B681818286001F016FF211C01F037
:105A5000CDFE2B681818286020783EBD03290BD195
:105A60000D4BB2221B685200985C802149420143D1
:105A70009954022168220CE001290CD1064B922294
:105A80001B685200985C80214942014399540221CD
:105A90002822FF3299547047740D002038B5304BDE
:105AA00000240121051C1A201C7001F087FD1A201A
:105AB000012101F0DDFD2B4B192001211C7001F0AB
:105AC0007DFD1920012101F0D3FD274B2021DA694A
:105AD00001200A43DA61254B06241A7802431A7022
:105AE000234B0F22197891431970197821431970AB
:105AF00020490C782043087019780A401A701A78E7
:105B000060210A431A701C4B1C4A5A805A78D209E9
:105B1000FCD11B4801F05CFB1A4C201CFFF7ECFD8C
:105B2000201CFFF7FDFD23687F2219780A401A70B8
:105B30001A7804210A431A701A890C218A431A819F
:105B4000C121114A890050580002000A505080219A
:105B500011601A7802210A431A7001232B7038BD94
:105B6000880B0020700D00200004004058440041C4
:105B70003C44004159440041000C004006400000F4
:105B8000B1650000740D002000E100E000780028FD
:105B900010D0094B01211B681A898A431A811A8B7C
:105BA00008210A431A831A8B04210A431A83034BE0
:105BB00000221A607047C046740D0020780E002045
:105BC0000F4B9A69920B92039A611B680222FF3372
:105BD0001A7298798022524202439A711A7A900777
:105BE000FCD5084B081C997A7F2210409143014351
:105BF0009972997A802252420A439A727047C0463B
:105C0000740D00200050004110B50B790C1C002BC6
:105C10000BD1081CFFF7C6FC002804D1094B9A6978
:105C2000920B92039A6101200BE001F025FE211CEA
:105C300001F010FE0028F6D1024B9A69920B9203F4
:105C40009A6110BD740D0020F8B50D1C832A16D181
:105C5000CAB242495301CB189C694148AD0120406A
:105C6000C024A405204398613E48083245195D616F
:105C70000B685201D15C70208143402065E0022A0C
:105C800045D1382001F038FB374B344F8026036074
:105C900076000023421D036203614361C3614760D4
:105CA0008560C660D3772F32041CC3620363137010
:105CB000301C537005F000FEA061301C05F0FCFDA7
:105CC000FF232A1C1A405201A062BF18B968244A57
:105CD00007260A40C02189050A43BA60A1686268A4
:105CE0001940126808314901885CAD00B0430326B1
:105CF00030438854A16862680B405B01A169D318E6
:105D00005960201CFFF778FD184BEC5025E0822AE3
:105D10001ED1CAB211495301CB189C691048AD017C
:105D20002040C024A405204398610E48083245193C
:105D30005D610B68520199180C7980204042204324
:105D40000871D15C7020814330200143D15404E0BC
:105D5000002A02D1081CFFF78FFCF8BD740D00204B
:105D6000FFFFFF8FC809002058E100004C0D002004
:105D700038B5051C0124064BA200D258002A06D0D3
:105D8000211C281C0134FFF75FFFE4B2F3E738BDA4
:105D90006000002008B5084B8A00D058002803D0C6
:105DA00003689B68984706E0C9B2044B490159183B
:105DB00088688004800C08BD4C0D0020740D002004
:105DC00010B50C1CFFF7E6FF00280CD0064BE1B223
:105DD0001B680831490159184A7980235B421343F3
:105DE0004B710223CB7110BD740D002070B5CAB287
:105DF000134B1448540189015918031959609D68BF
:105E00001149083229408025AD02294399609968DB
:105E10004026890B890399600368510159180D794F
:105E200035430D715101591889794D06FAD5510143
:105E30005918C979CD07FAD50419A068C0B270BD48
:105E40008C0B0020740D0020FF3F00F038B50C4B88
:105E5000141C1B680D1CFF335A7940210A435A71E8
:105E60000021FFF7C3FFA04200D9201C0023A3425A
:105E700004D0044A9A5CEA540133F8E738BDC046BE
:105E8000740D00208C0B002010B5C9B20C484901DC
:105E900043189A689204920C3F2A08D9141C9A68F5
:105EA000403CA404920BA40C9203224302E09A68A3
:105EB000920B92039A6041188868C0B210BDC04628
:105EC000740D0020F0B51C1C2F4B85B01B68061C00
:105ED0000D1C0292002B51D02C4F3978C9B20029E9
:105EE00002D1192001F0C4FB64233B70284BAA00A7
:105EF000D058002805D0036802995B68221C984797
:105F000040E0301C291CFFF745FFA04204D2301CA2
:105F1000291CFFF73FFF041C291C301CFFF7B4FFAE
:105F20001C4FE9B24A010191396803928B18FF3383
:105F30005A7A01210A4318495A72AB01C9180298CA
:105F4000221C05F0DCFC002C1BD0301C291CFFF7A8
:105F500021FF002815D1019B3A6808335B01D31853
:105F600019794020014319710121D97103995318FE
:105F7000FF339A7A01210A439A7202E001204042DB
:105F800000E0201C05B0F0BD780E0020700D002050
:105F90004C0D0020740D00208C0B002013B56C46B6
:105FA0000734221C0123FFF78DFF012801D120783F
:105FB00001E00120404216BDF0B51C1C3F4B85B0EE
:105FC0001B680E1C0292002B6AD08023DB019C42CE
:105FD00066D83B4D2978C9B2002902D11A2001F0B8
:105FE00047FB642300222B700092002C56D0354DC5
:105FF000F7B22B6801933B1C0833019A5B01D3185D
:106000009B79DB091AD0304B3049186803F072FADB
:106010002F4B1721584303F06DFA3B1C0833019AAC
:106020005B01D318DB799A0708D42A4B9A5D002AC2
:1060300038D1421E002835D0101CEEE7254B002237
:106040009A55251E3F2D00D93F25234AB301D31869
:10605000181C02992A1C039305F051FC194A7B0174
:10606000D318039AA9045A619A69890C920B920376
:106070000A439A613B1C019A08335B01D318022240
:10608000DA715979802252420A435A71009B029A6E
:106090005B1952190093641B0292A6E700980BE06B
:1060A000012008E001229A557B01ED18AB69101C14
:1060B0009B0B9B03AB61404205B0F0BD780E002006
:1060C000880B0020740D00208C00002040420F003F
:1060D00070110100C0090020C809002070B50E4DE4
:1060E0001C1C8B01ED18281C0E1C111C221C05F019
:1060F00006FCF6B20949760189194D618A69084B97
:10610000201C13408B618B69A2049B0B920C9B0398
:1061100013438B6170BDC046C8090020740D002078
:10612000FF3F00F0F7B5114B01901B780F1C141CBA
:10613000002B19D10E4B1E78002E01D1151C08E042
:106140000C4D0D482E888019361905F0D8FB2E808D
:106150000AE0002D08D0BA192B1C01980021FFF786
:10616000BDFF36182D1AF4E7201CFEBD6A0D002075
:10617000680D0020BE090020BD080020F8B50E1CE7
:1061800000AF151E012D28D9D31DDB08DB006A46A0
:10619000D21A9546081C05F0CDFC01306C46400033
:1061A0000323207063700222AA420ED23378002BA0
:1061B0000BD0511CC9B20136A354A94204D000230C
:1061C00002326354D2B2EFE72A1C0548211CFFF7C4
:1061D000A9FF431E9841C0B200E00020BD46F8BDB3
:1061E0006B0D002008B5044B00221A70034B0449C4
:1061F0001A88FFF797FF08BD680D0020BE09002030
:10620000BD080020F0B5204A87B001230026009188
:1062100002A91370051C0296FFF70AFC03AC0927BC
:1062200001903A1C201C311C05F08BFB022363708B
:10623000A023E371FA232372029B0122DB196380FE
:10624000019B62712371104A009B27701670BB423C
:1062500005D1281C211C1A1CFFF764FF11E00B4B11
:1062600001221A700A4B211C3A1C281C1E8002961F
:10627000FFF758FF281C02A9FFF7DAFB281CFFF7DD
:10628000B1FF012007B0F0BD6A0D0020680D0020AD
:10629000BE09002070B5CE788AB0051C0C1C022EF9
:1062A00008D1C9882348FFF7ADFF031C581E83415E
:1062B000D8B23DE001F0E0FA211C01F0ACFA002870
:1062C00003D0C3171B1AD80F32E0012E04D1E28885
:1062D0001949112A27D823E0032E29D1A278002AB0
:1062E00005D11649E2880B78934219D81BE0022A9F
:1062F00003D1A279281C124904E0012A05D1A27910
:106300001049281CFFF73AFF12E0032A10D101F0D0
:10631000B3FA01A901F08FFAA279281C01A9F1E7CB
:10632000D2B2002A00D10A78281CFFF7FBFE012018
:106330000AB070BD6B0D002076E1000072E1000034
:1063400088E1000068E1000073B5051C48780C1C6A
:106350000B2878D803F0C4F8081C7728773E43064A
:10636000474B686F00206FE0097801AA002903D12C
:1063700011705170281C09E0002313705370334BC7
:106380001B78012B00D11370281C002102234FE041
:106390008A780023012A04D101AA137053702C4B70
:1063A000EEE72A4A137049E08E78012E07D1284B78
:1063B00001AA00211E701170281C331C38E0002E29
:1063C00008D1224A01231370224A9169890B89035B
:1063D000916138E0A178281CFFF7F2FB33E0281C1C
:1063E000FFF758FF30E0281C00211B4A1FE00A7805
:1063F0000020D30628D1281CFFF7BAFCA278154943
:10640000154B02241A600A682A23FF33D05C20430C
:10641000D0544A20FF30145C01231C4314548A6971
:10642000920B92038A610EE00C4A281C0021012382
:10643000FFF754FE07E08A78084B1A60054B9A690B
:10644000920B92039A61012076BDC046BC080020E1
:10645000690D0020740D0020780E00206C0D0020C6
:10646000F8B54B4B071C1C78002C00D08EE0494D32
:106470002868838B19070DD5201CFFF7FDF82B68C2
:1064800010201A1CFF32917A01439172424A146023
:1064900008229A832B689A8B50071FD504229A836F
:1064A0003E4B1A78002A0AD01A78013AD2B21A70F2
:1064B0001B78002B03D11A20012101F0D9F8384BA9
:1064C0001A78002A0AD01A78013AD2B21A701B78C8
:1064D000002B03D11920012101F0CAF82B68FF33EA
:1064E0001A7AD10626D510221A725A7940210A4307
:1064F0002C495A710A786023381C1A4202D1FFF7DE
:1065000023FF01E0FFF780FB002806D02B688022E4
:10651000FF33997952420A4301E0234B20229A71BA
:106520002B68FF331A7A500604D540221A72597A22
:106530000A435A722968FE230E8C00241E40E1B2E1
:10654000002E23D0321C012322411A4216D0221CD5
:106550002868083252018218D079184203D1D279C2
:10656000DA401A4207D0114BA200D058002809D0B7
:1065700003681B6898470123A3409E430134092CFC
:10658000DDD103E0381CFFF769FAF4E7F8BDC04637
:10659000680D0020740D0020780E0020880B00206C
:1065A000700D00208C0B0020FF5000414C0D00208E
:1065B00008B50248FFF754FF08BDC0466B0D002028
:1065C000014A024B1A60704700500041740D0020D0
:1065D000F7B58A18061C0D1C01920C1C019B671B49
:1065E0009C4207D0336821781B68301C98470134DF
:1065F0000028F3D1381CFEBD38B5051C0C1C081E44
:1066000007D005F097FA2B68021C5B68281C211C38
:10661000984738BD10B504680B1C9A680968636810
:10662000984710BD08B50249FFF7E6FF08BDC04610
:1066300093E1000038B5041CFFF7ECFF051C201C9B
:10664000FFF7F0FF401938BD38B5041CFFF7D4FF41
:10665000051C201CFFF7E6FF281838BD014B186009
:106660007047C04688000020024B012252421A6047
:106670007047C04688000020154A1368581C25D072
:10668000013B1360002B21D172B6124A124B043227
:106690009A4207D8BFF34F8F104A114BDA60BFF30D
:1066A0004F8F11E00F4B197DC807FBD5188B2021A8
:1066B000FF319208520001431983DA610A4A1A80B5
:1066C0001A7DD107FCD5E5E7C046FDE77047C04617
:1066D0008800002000200000030200000400FA05EA
:1066E00000ED00E00040004102A5FFFF10B50021D1
:1066F000041CA42205F025F9221CA4320023201C2E
:106700001360536010BDF8B5051CA4352E68041C39
:106710000F1C701CA42102F031FF231CA8331B683E
:10672000994201D0A7552960F8BD021C0023A4326C
:10673000A83013600360704738B5021C041CA834ED
:10674000A43223681268934207D0C55CA421581C68
:1067500002F014FF281C216001E00120404238BDF6
:10676000031CA433A8301A680368D01A00D5A430DB
:106770007047031C021CA833A4321B6812689342A2
:1067800001D0C05C01E0012040427047031CA433EB
:1067900010B5041C1868A421013002F0EFFEA834E3
:1067A0002368C81A43425841C0B210BD0160704707
:1067B000F7B508AC267804689D1E27686C1EA541B5
:1067C000ECB2920705683A4327063A432A6002680A
:1067D000072529405068B501002C00D05C032943EF
:1067E00001430C435460F7BD30B50368C0251C68F5
:1067F000AD0312052A402243C024A402090421400B
:106800001143196003685A6814435C6030BD036823
:1068100001211A680A431A600268116801231942AB
:10682000FBD1D1691942F8D17047036802211A6877
:106830000A431A600268D3699907FCD47047036859
:106840001A7ED10702D41A7E9107FCD570470368DF
:1068500000225A8370470368187E4007C00F7047B4
:106860000368187EC009704703688022197E52426F
:106870000A431A7670470368188DC0B270470368E0
:106880001A7E01200242FBD01985704770B503685B
:1068900001268D07ED0F31401C686D07090729435C
:1068A0002143196004685100034802F023FE0138B7
:1068B000C0B2207370BDC046006CDC0203680121C9
:1068C0001A680A431A600268116801231942FBD151
:1068D000D1691942F8D17047036802211A680A4346
:1068E0001A600268D3699907FCD470470368DA69B3
:1068F0009107FCD41A6802218A431A607047036822
:106900009A6A520A52021143996203681A7E510729
:10691000FCD5986AC0B27047036801211A680A431F
:106920001A600268116801231942FBD1D16919422A
:10693000F8D17047036802211A680A431A60036895
:10694000DA699107FCD45A8B30218A4310210A431B
:106950005A830268D3695907FCD4704703688022C0
:1069600019685968D2020A435A6070470368034A9B
:10697000196859680A405A607047C046FFFFFBFF1C
:1069800030B5036803241D680C40074A5968240485
:106990000A40ED0622436D0F5A60052D03D10268AF
:1069A000D3695907FCD430BDFFFFFCFF49001143F8
:1069B000036830B5CDB2598B032409092140012960
:1069C00004D0598B09090C40022CF4D1596AC90A28
:1069D000C902294359620368002A03D11A7ED107EC
:1069E000FCD50DE0187E01224008104008D1197E28
:1069F0001142F7D05968C02292020A435A6003E05C
:106A00005B8B01209B08984330BD036828331970C5
:106A10000268107E0123184003D1518B1942F8D02F
:106A200003E0528B181C9208904370470368283388
:106A30001970036800201A7E510703D55B8B012073
:106A40009B089843704703681868C006400F0438D5
:106A500043425841C0B270470368187E4007C00FD8
:106A600070470368187E0123184070470368588BED
:106A7000C006C00F70470368187E8007C00F7047BC
:106A80000368588B0007C00F704703681A68D20666
:106A9000520F052A02D11A7E9107FCD528331878A7
:106AA000C0B270470368224A30B5934211D0214AE0
:106AB000934211D0204A934211D0204A934211D0E0
:106AC0001F4A934211D01F4A934230D10E231922FC
:106AD0000DE0092314220AE00A23152207E00B2304
:106AE000162204E00C23172201E00D231822DCB249
:106AF000154901209B08A0409B0008605B180320FB
:106B0000C021890004405D58E000FF248440A54373
:106B10002C1CC0258540281C204358508023DB01B5
:106B20001A430A4B5A805A7852B2002AFBDB30BD16
:106B300000080042000C0042001000420014004215
:106B400000180042001C004200E100E0000C004080
:106B5000F8B5041C151C0E1C1F1CFFF7A3FF201CFE
:106B6000FFF755FEB1001C220A4069072368090C93
:106B70000A431A60226884239375012E1AD10821D2
:106B8000012D00D110210C4B79431868C00002F090
:106B9000B1FC236807219A890140D2044903D20C31
:106BA0000A439A8123680004C20C9889400B400371
:106BB00010439881F8BDC0468C000020F7B50193C2
:106BC00008AB041C1F780D1C161CFFF777FE201C59
:106BD000FFF768FFBF070C221743C0229203360558
:106BE0001640C02292022D0423683E4301991540AD
:106BF000354307221D600A408021236889020A4329
:106C00005A60F7BD38B5041C0D1CFFF74BFF201C64
:106C1000FFF782FE236814221A60074B6900186888
:106C200002F068FC2468421EE068FF231A40984383
:106C30001043E06038BDC0468C0000200120704742
:106C400008B50368014ADB69984708BD13040000D2
:106C500010B5041C0069FFF7DAFD201C1430FFF7A3
:106C600064FD10BD08B50069FFF7E9FD08BD08B572
:106C70001430FFF775FD08BD08B51430FFF779FD36
:106C800008BD08B51430FFF757FD08BD08B5006909
:106C9000FFF7F5FD012008BDF7B51D1C08AB1B78FB
:106CA000041C009309AB1B78161C0193002343605E
:106CB000FA239B008360094B0F1C083303601430D8
:106CC000FFF714FD009A231CC03327619A70019AC4
:106CD0001E705D70201CDA70FEBDC046A8E1000089
:106CE00010B5041C0069FFF7B6FD002807D0206925
:106CF000FFF7C1FD011C201C1430FFF704FD2069C3
:106D0000FFF7AEFD002805D02069FFF7ADFD206933
:106D1000FFF79DFD10BDF023081C1840303843429A
:106D200058417047F0231B01194080239B00994272
:106D30000CD0C0239B00994206D080235B00052025
:106D4000994204D0002002E0072000E006207047AE
:106D50000F231940012905D002394B424B41022033
:106D6000C01A00E000207047F0B5031C85B0039105
:106D7000C033041C182718783B1C43431B4E0821C2
:106D8000F3185956151C00F0BBFC231CC1331878AE
:106D900008214743F619715600F0B2FC01210A1C84
:106DA000039B2069FFF7D4FE291C201CFFF7BAFFC4
:106DB000291C071C201CFFF7CBFF291C061C201CCC
:106DC000FFF7A9FF391C0090331C20690122FFF74F
:106DD000EFFC231CC3331978013B1A782069FFF7B5
:106DE00003FD2069FFF721FD05B0F0BD08DD0000BF
:106DF000F0B51823434385B00292364A1625D318BE
:106E00005D5701900391691C62D0102D60D0324B08
:106E1000324C196800291FD14422314804F091FDF9
:106E200030491022CA67304BC02149005A50C12155
:106E300089005858FF26B04358501A602B4A2C4BF3
:106E40005A8023780222134323706378DB09012BD5
:106E5000FBD0214B01221A60012763693E1CAE4022
:106E6000334363610021019800F04AFC1C4A0399F6
:106E7000AB009950072D00DC0027FB00029AED1AA9
:106E8000AD00042A22D8101CBF0002F029FB030821
:106E90000D121700114B0522FF18BB6912E00F49B4
:106EA00004227F18BB690DE00C4ABF18BB6903229E
:106EB00008E00A4B0222FF18BB6903E007490122E0
:106EC0007F18BB69AA40151C1D43BD61B6B2E660C0
:106ED00005B0F0BD08DD0000C00E00200018004025
:106EE0007C0E002004E100E000E100E0054000002D
:106EF000000C004070B50024084D01262B69A64007
:106F0000334206D0064BA200D358002B00D098473E
:106F10002E610134102CEFD170BDC0460018004026
:106F20007C0E002038B5049D1C1C401AEB1A5843F7
:106F3000511A02F02DFB001938BD10B5041C006871
:106F400004F0C4FC201C10BD10B5041C006800280F
:106F500001D004F0BBFC00232360A360636010BD7C
:106F600038B5041C0D1C0068013104F08FFD0028A9
:106F700001D021C4012038BD036810B5041C002BCA
:106F800002D043688B4209D2201CFFF7E9FF00289A
:106F900005D0A368002B01D122681370012010BD19
:106FA00070B50E1C111C041C151CFFF7E5FF002812
:106FB00003D1201CFFF7C8FF04E0A5602068311C46
:106FC00004F0B0FD201C70BD38B50023041C0D1C5E
:106FD000036043608360994207D0081C04F0AAFD57
:106FE000291C021C201CFFF7DBFF201C38BD10B53C
:106FF0000B1C041E8C4208D00968002903D09A6833
:10700000FFF7CEFF01E0FFF79FFF201C10BD10B57A
:107010000023041C036043608360FFF7E8FF201C2B
:1070200010BD38B5041C0D1E08D0081C04F082FDEC
:10703000291C021C201CFFF7B3FF01E0FFF784FFAF
:10704000201C38BD10B500238AB0041C03604360C7
:107050008360081C01A900F029F9201C01A9FFF791
:10706000E0FF201C0AB010BD70B58CB01D1C10AB29
:107070001B78141C002202604260826003A99A1CE3
:10708000061C52B20091201C291C00F09BFB011C25
:10709000301CFFF7C6FF301C0CB070BDF8B5041CE7
:1070A0000F1C866801D100250FE00125002A0CD0B5
:1070B0009619311CFFF760FF0028F4D02268A368FE
:1070C000391CD01804F02EFDA660281CF8BD08B5A8
:1070D0000B1C9A680968FFF7E1FF08BD13B50A2287
:1070E000041C081C01A900F0E1F801A804F022FD2D
:1070F00001A9021C201CFFF7D1FF16BD0B1C10B507
:1071000009689A68041CFFF7C9FF002802D1201CF7
:10711000FFF71AFF201C10BD38B5041C0D1E09D046
:10712000081C04F007FD291C021C201CFFF7B6FFF9
:10713000002802D1201CFFF707FF201C38BD10B526
:10714000041CFFF7CBFF002802D1201CFFF7FCFE38
:10715000201C10BDFEE7FEE708B5034B1B68002BA3
:1071600000D0984708BDC046C40E002038B50F496E
:107170000F4CA14204D100F0C7F800F09DF80BE0DD
:107180000C4D8D42F7D00023CA18E818A24204D251
:10719000006804331060F7E7FEE79042EBD0064B3F
:1071A000064A9342E7D2002204C3F9E70000002018
:1071B0006001002080E6000060010020E80E002051
:1071C00008B500F02CF8002801D100F01DF808BD2A
:1071D000014B18607047C046C40E0020014B186870
:1071E0007047C046C80E002070B5041E08D0054B7D
:1071F0001D681E1C00F012F833685B1BA342F9D314
:1072000070BDC046C80E002008B5034B1A68013295
:107210001A60FFF731FA08BDC80E00207047002041
:107220007047F0B58FB00D1C029235D0131C023B95
:10723000222B33D80A2A33D1002831DA01234642DF
:10724000039305AC0194002E12D0301C029902F079
:1072500095F9301C0F1C029902F04CF9631C061CB6
:10726000092F01DC303700E0573727701C1CEAE794
:10727000019A9442E9D0039A2B1C002A02D02D22B5
:107280006B1C2A70019A944204D9013C22781A702E
:107290000133F7E700221A70281C05E0002003E004
:1072A0000022061C0392CCE70FB0F0BD08B5FFF733
:1072B000B8FF08BD7047000010B500F0D9F804F021
:1072C000D5FAFFF7F7FF0120FFF78EFF084C201CCF
:1072D000FEF7E4FB201CFEF759FCFBF7B7FCFBF7BD
:1072E0004FFF044B002BFAD000E000BFF7E7C04689
:1072F0006B0D00200000000008B504F0DDFA08BDA9
:1073000008B504F0E3FA08BD70B5494A1E21536878
:1073100002208B430343474953608B69082423436E
:107320008B61454C454B9C829C8A20439882101C63
:10733000DA689407FCD5424A012414701478E507F2
:1073400004D53F4C647864B2002CF7DB01249460D0
:10735000547864B2002CFBDB3A4D394C65605478AC
:1073600064B2002CFBDB8225354CED01658054783E
:1073700064B2002CFBDB02249C84DC68E606FCD5AE
:10738000314D2E4CE562DD682C4CEE06FBD5A58C0C
:107390002E4E3543A584DD68284CEE06FBD5A58C22
:1073A00002263543A584DC682506FCD5234CE46819
:1073B0006606F8D5DC68E506FCD5002494605478B0
:1073C00064B2002CFBDB224D1D4C656055781C4CD3
:1073D0006DB2002DFADB1E6A1E4D35401D621D6A1E
:1073E0008026B5431D620323A3601B4B6360537863
:1073F0005BB2002BFBDB00230B72184A4B728B72C3
:10740000CB72174BFF211A60164B174A1B68126884
:107410005C01D20E214011439A06520F12020B1C3E
:107420001343124A1385436880221343436070BD9F
:1074300000400041000400400C060000000800402D
:10744000000C004001050100B805FF7D040A0000A2
:1074500000070300FFFCFFFF03060100006CDC02D5
:107460008C000020246080002060800000400042EA
:10747000314BFA21186810B5890002F03BF82F4B08
:107480000138984224D82E4A2E4B5060186AC021E9
:107490000002000A090601431962002407219460D2
:1074A0001160196A80220902090A12060A431A6247
:1074B000254BFC211A6A0A431A62196AFC229201BE
:1074C0000A431A62196AA022D2020A431A6200E031
:1074D000FEE7201C0021013400F070F8142CF8D1D4
:1074E0001A4C63785BB2002BFADB194B6380194BA3
:1074F0005A7ED209012AFAD0E422D2009A803F2291
:10750000DA70597E134AC9090129FAD0C0235B01F8
:1075100000201361907000F023F863785BB2002BB9
:10752000FBDB0D4A094B5A800C4BDA79D209012A50
:10753000FAD041225A7010BD8C000020FFFFFF00DE
:1075400010E000E000ED00E000040040000C00400E
:107550001E40000000400042214000000048004260
:1075600000B5144A517E131CC9090129F9D001380C
:10757000042813D81969104A0A401A615A780F2151
:107580008A4301F0ADFF030509070300012102E072
:10759000032100E002210A435A700AE01169F02336
:1075A0001B050B43136153780F218B4302210B43BF
:1075B000537000BD00400042FFFFFFF010B51824DB
:1075C000021C201C5043274B1818007A40B201308F
:1075D00046D0032944D8081C211C01F081FF023346
:1075E0001121624398569A18C3011F4852681B180C
:1075F00099184031022008700121914059602FE014
:107600006243985618499A185268C3015B18991832
:1076100040310620087001219140596099611FE0B6
:1076200051435A56104859184B68D2011118C818BE
:107630004030062404700120984048600B495218DD
:1076400050600DE0624398569A18C301064852688C
:107650001B1899184031022008700121914099604F
:1076600010BDC04608DD0000004400411044004148
:1076700018235843134AF0B5131808241C57013433
:107680001FD08256104ED2015D6801249019231C30
:107690008668AB401E420BD10E1C771EBE414019BE
:1076A00034404030A50004780426B4432C430470D1
:1076B000002903D105495218536002E0024E921985
:1076C0009361F0BD08DD000000440041104400411A
:1076D00018235843084A082113185956013109D074
:1076E00082560649D20152185B68106AD8400123BD
:1076F000184000E00020704708DD00000044004111
:1077000018224243F8B52D4D0824AA181457031C1B
:10771000621C50D0481C00240C284CD801F0E0FE1C
:10772000071E1E1E1E1E1E1E1E0A0A0A0A00012415
:10773000644240E0092902D1181C002103E00A2913
:1077400004D1181C0221FFF739FF23E000240B2984
:1077500031D1181C0121FFF731FF2CE018225343CF
:10776000EA185268EB560120141C04405508DB014E
:10777000002C11D0124C1B195D1930352E780C01DC
:107780000F21314021439A18C9B229704032137831
:107790001843107000240EE0094E0F279B195D1945
:1077A00030352E789A18BE433143C9B22970403221
:1077B000137818431070201CF8BDC04608DD000087
:1077C0000044004170B586B0041C0D1C0A9E064999
:1077D00001A804F079F9301C01A9221C2B1C04F02B
:1077E00073F9301C06B070BDD8E1000070B5446874
:1077F0000E1C0025002C09D02368201C5B68311C5E
:107800009847002804DB2D18E468F3E7281C01E002
:107810000120404270BD38B544680D1C002C08D0D2
:107820002368201C9B68291C9847002802D1E46823
:10783000F4E7201C38BD38B544680D1C002C07D077
:107840002368201C291CDB689847E4682D18F5E79D
:107850002C7038BD38B544680D1C002C08D0236846
:10786000201C1B68291C9847002803D1E468F4E712
:10787000201C00E0012038BD064B0122196810B51C
:107880001140054805D1022404700424447041606D
:107890001A6010BDD40E0020CC0E002000000000A5
:1078A00010B5021C26480B1C490086B049088142CD
:1078B0001EDD2448814205DD101C191C03F0CAFBA3
:1078C00006B010BD101C191C02AA00F0A5FB032372
:1078D000184001281DD0022811D0002824D00124EE
:1078E00002980399049A059B009401F0F5FBE7E7E1
:1078F000101C191C114B104A00F0B2FEE0E7049A6C
:10790000059B0298039900F0ABFE80231B06C91863
:10791000D6E7049A059B00900298039901F0DCFBDE
:1079200080231B06C918CBE702980399049A059B8C
:1079300000F096FEC4E7C046000000000000000012
:10794000FB21E93FFFFFEF7F0B1C011C021C30B540
:1079500019430220002900D130BD802109068B4245
:1079600016D00D4904205C180C498C42F4D90C4DFA
:107970005C198C42F0D90B4C590049080320A142F4
:10798000EAD9074C0020A142E6D150425041E3E73A
:10799000002AE1D0EFE7C0460000F0FFFFFFDF7FE5
:1079A0000000F07FFFFF0F0010B5021C28480B1CE1
:1079B000490086B0490881421FDD2648814205DD25
:1079C000101C191C03F046FB06B010BD101C191C3E
:1079D00002AA00F021FB03231840012822D002282C
:1079E00014D0002825D0049A059B0298039900F032
:1079F00037FE80231B06C918E6E700210091101C02
:107A0000191C124B104A01F067FBDDE70124049AB0
:107A1000059B02980399009401F05EFB80231B06EE
:107A2000C918D1E7049A059B0298039900F018FE43
:107A3000CAE7012402980399049A059B009401F077
:107A40004BFBC1E7C046C04600000000000000003C
:107A5000FB21E93FFFFFEF7FF0B5474680B48AB0D6
:107A6000041C0D1C00F0B4F8254A0023D3569046A0
:107A7000061C0F1C013305D0201C291CFFF764FFD6
:107A8000002805D1301C391C0AB004BC9046F0BD5A
:107A9000201C291C01F0CCFB184B174A01F004FEF6
:107AA0000028EFD001230093164B174801930023C1
:107AB0000893049405950294039501F079FC4246DD
:107AC0000023D35606900791022B0AD0684601F096
:107AD0006BFC002805D0089B002B07D1069E079F52
